:020000040800F2
:1000000000000110E90907089D2B0008F96D02089E
:10001000890A0708890A0708890A070800000000FA
:100020000000000000000000000000002D4A000851
:10003000314A000800000000354A0008F1080108B4
:10004000890A0708890A0708890A0708890A070828
:10005000890A0708890A070821CC000825CC00086E
:10006000890A070829CC00082DCC0008B532000801
:10007000C9320008DD320008F132000805330008FB
:10008000193300082D330008890A0708890A070870
:10009000890A0708890A0708890A070831CC000875
:1000A0006131000889310008B13100084D31000884
:1000B000D9310008ED31000801320008890A07082B
:1000C000890A0708890A0708890A0708890A0708A8
:1000D000890A0708052D0008112D0008890A07085C
:1000E00035CC0008890A0708394A00083D32000863
:1000F000653200088D3200082932000841330008BB
:10010000890A07088137000815320008890A07089C
:100110001D2D0008890A0708890A0708890A0708A7
:1001200055330008693300087D3300089133000817
:10013000A5330008890A0708890A0708890A0708F9
:10014000890A0708890A0708890A07088D4A0008EA
:10015000B9330008CD330008E1330008292D000829
:10016000890A0708890A0708890A0708890A070807
:10017000890A0708890A0708890A0708890A0708F7
:08018000890A0708890A070833
:10019000D0E907239A422FBFD01AC0688018C01A2E
:1001A000704700BFD0E9092300699A4238BF12188E
:1001B000D31A0138C01A7047D0E90902101AB0FAF0
:1001C00080F04009704700BF0246036A4069D16869
:1001D000C05C01338B4228BF00231362704700BF0D
:1001E000436A8269D154436A0169426B01338B428D
:1001F00028BF00234362D36843F08003D360704775
:10020000436B188810F0100002D01A889B880120D8
:10021000704700BF436B99891A88890610B5044658
:100220000AD592B2900607D5E26A002A29D09888AA
:10023000216B80B29047636B99891A88090692B244
:100240000FD510060DD5D4E909128A4214D0A16940
:100250002069895C99800132B2FBF0F100FB112228
:10026000A262998A1A88C90592B204D5D20744BFFE
:100270004FF6F7721A8010BDDA6822F08002DA6059
:10028000EFE79B88E2696169DBB28B54E269E16860
:10029000636B0132B2FBF1F001FB1022E261CBE7AC
:1002A000036942681F2B10B40AD95468A3F1200CCB
:1002B000202101FA0CF1214207D15DF8044B70476F
:1002C0001468202199402142F7D081690024C86830
:1002D0000C7480684C68016821F00101016020689D
:1002E00094F805C00C4C818934F81C4089B221EA8D
:1002F00004011F2B818107D9A3F1200120238B400A
:100300005DF8044BD3607047202101FA03F35DF8D8
:10031000044B9360704700BFBC8507084B1C10B4AA
:1003200008BF4FF0800C4D4C18BF4FF0450C4FF4F8
:10033000003300E003B3626B12EA0C0F03F1FF33EA
:10034000F8D0002923DD626B52071CD403291ED08C
:10035000424A536B13F0010320D1022908D01369DC
:10036000DBB283421ED1012953692AD006291BD052
:1003700000205DF8044B7047002904DD636B5C07C7
:1003800001D40329E4D103205DF8044B7047002B0E
:1003900014BF002003205DF8044B704701205DF876
:1003A000044B70471020EFE713F4604F04BF2C4A52
:1003B0001360990431D45A04F4D41B04D8D50F2007
:1003C000E2E7284818400028DED0002B29DB5C003B
:1003D00025D4980029D4D90025D41A0129D45C0148
:1003E00025D4D8012FD41902E9D45A02DAD49C02B8
:1003F00027D4D8022FD419030FD45A0329D49C032D
:1004000025D4D80321D4190419D45A0415D49C0432
:1004100011D41807ACD51A20B6E71320B4E7092089
:10042000B2E71C20B0E70B20AEE70A20ACE70D20B6
:10043000AAE70C20A8E71920A6E71820A4E71720B0
:10044000A2E71120A0E70E209EE716209CE71520CA
:100450009AE7142098E7122096E700BF002C01408D
:10046000301D002008E0FFFDF8B5154DEB6A93B193
:10047000696B0129044614D0124BDA6A22F0080293
:10048000DA6240F2FF5100229963EA62236823F0A6
:1004900001032360F8BD0B4AD36B43F48073D3632D
:1004A000F8BD084E40F2FF570023B763B36040F237
:1004B0004C43F3600C20FFF731FFB763DCE700BF6C
:1004C000301D0020002C0140B34BD3E9011270B560
:1004D0008C0F83F83840C1F3836483F83940C1F34B
:1004E000016483F83A40100EC1F3074483F83B409F
:1004F0000001C1F30724C9B283F83C4083F83D10E2
:10050000D887D98FC2F3035089B20143C2F30344A1
:10051000D987C2F3C03083F84040C2F34031C2F300
:10052000803483F8410083F8424083F84310C2F3DB
:10053000003183F8441093F8901000200129C2F391
:10054000072C83F8450040F2D880022900F0B180E2
:10055000D9682A204FEA4C0C0CF07E0C83F85140ED
:1005600083F852C093F85240C1F3C01214431A6981
:1005700083F8524001F07F01D40F83F8531083F8C1
:100580005440910DC2F3417483F8554001F00C01C1
:10059000C2F3826483F8564083F8571093F85710DB
:1005A000C2F381542143C2F3405583F8571083F8B6
:1005B0005850002583F85950C2F3004583F85A502B
:1005C000C2F3C03583F85B50C2F3803583F85C50CA
:1005D000C2F3403583F85D505C69C2F3003583F89F
:1005E0005E50C2F3812583F85F50C4F30741C2F324
:1005F0000125C2F3460283F860504FF0010C83F8E6
:1006000061200902220E83F862C083F86420A3F8F7
:100610006610B3F86610C4F3072289B211432406AA
:10062000A3F8661099699C669A6E0C0E42EA044221
:100630009A669C6E0A0A02F47F4222439A669D6E75
:10064000DA69C1F307242C43C9B29C6683F86C10A5
:10065000110E83F86D10110C090619671C6F110239
:1006600001F47F0121431967196F120292B20A4304
:100670001A67196F1A6A41EA1261196793F87410C0
:10068000C2F30354214383F87410110A01F470611A
:10069000A3F87610B3F87610C2F3072489B2214389
:1006A000C2F34602A3F8761083F8782083F879C065
:1006B00070BD120402F47C129A64D9689A6C0C0E14
:1006C00042EA04229A649C6CC1F3074222439A6472
:1006D0009A6C013240F10004A40244EA925492025E
:1006E000C3F880204FF40072C3F88440C1F3072C94
:1006F000C3F88820C1F380342CE74FEA8C2C0CF42B
:1007000040619964996C920002F47F720A439A6482
:100710009C6CD96844EA91749C64C1F3C265C1F3CE
:10072000026483F84C50CA0B83F84D40C1F3425425
:1007300083F84E4002F00602C1F3824483F84F4032
:1007400083F8502093F85020C1F3C034224383F83B
:1007500050209D6C93F8502093F8404002F1020E17
:10076000012202FA04F602FA0EF24FEAE27EA2FB3E
:10077000062406FB0E4405F1010EA2FB0E2E05FB1E
:1007800004447444C3E92024C1F3072CC3F88860EF
:10079000C1F38034DEE600BF301D00202F4B1A6805
:1007A000910102D59A6D52074BD42C4B1A68500216
:1007B00002D5DA6E11063CD4284B1A68D20102D554
:1007C0009A6D90072DD4254B1A68510102D59A6D68
:1007D000120717D4214B1A68120112D59A6DD00650
:1007E0000FD59A6D510334D49A6DD20503D49A6D06
:1007F00022F010029A65194B19484FF000629A6076
:1008000032E670479A6D500307D49A6DD10503D430
:100810009A6D22F008029A65104B4FF080629A6040
:10082000D8E79A6D4FF0807122F002029A659960C4
:10083000C9E7DA6E4FF4800122F08002DA6699602F
:10084000BAE79A6D4FF0007122F004029A65996040
:10085000ABE74FF000629A60704700BF006402404F
:1008600058640240384B5A68110303D5D3F8A020CE
:1008700052075BD4344B5A68D00303D5D3F8B42065
:10088000110649D4304B5A68520303D5D3F8A0203F
:10089000900737D42C4B5A68D10203D5D3F8A02047
:1008A00012071CD4284B5A68920217D5D3F8A020FF
:1008B000D00613D5D3F8A020510341D4D3F8A020FB
:1008C000D20505D4D3F8A02022F01002C3F8A0204E
:1008D0001D4B1E484FF40012DA60C5E57047D3F88F
:1008E000A02050030AD4D3F8A020D10505D4D3F812
:1008F000A02022F00802C3F8A020134B4FF480126E
:10090000DA60CFE7D3F8A0204FF4802122F0020272
:10091000C3F8A020D960BDE7D3F8B4204FF48031EC
:1009200022F08002C3F8B420D960ABE7D3F8A0204E
:100930004FF4002122F00402C3F8A020D96099E707
:100940004FF40012DA60704700640240A064024075
:1009500082B00922274B8DF80720DA68D00319D41A
:10096000DA68D10640D4DA68D20541D4DA6812F0E8
:10097000E00F3BD1DB6813F0020F14BF08230923FB
:100980008DF807309DF80730012B0AD09DF807003D
:1009900002B0704701238DF807309DF80730012B16
:1009A000F4D1144A12E0D368DB0519D4D36813F0EC
:1009B000E00F17D1D36813F0020F14BF08230923E7
:1009C0008DF807309DF80730012BDFD1D168C803BF
:1009D0004FF00103F4D4D368D906E4D50623EFE73A
:1009E0000223EDE70723EBE70623D4E70723D2E74B
:1009F0000223D0E7003C0240704700BF704700BFB1
:100A000001207047044BD3E92503984288BF03F5C2
:100A10000063181A704700BF301D0020064AD2E953
:100A200025318B42FDD0D1180133C3F30A0391F86D
:100A30009C00C2F894307047301D0020064BD3F85C
:100A40009C0800B97047D3F89C08A0F10500B0FAE3
:100A500080F04009704700BF301D0020012380F85E
:100A600049307047064BD3F8A008D3F8A428431E9A
:100A700090428CBF002001209B1A03EBC0207047DE
:100A8000301D002010B5D0F8E83504461B699847A2
:100A9000032384F81231002010BD00BF08B50422E2
:100AA00090F81211D0F8E83580F8131180F812216F
:100AB000DB689847002008BD08B5D0F8E435DB694D
:100AC00003B19847002008BD08B5D0F8E4351B6A8B
:100AD0009847002008BD00BF08B5D0F8E4355B6A30
:100AE0009847002008BD00BF037830B403B3044624
:100AF000C0F1010C04EB0C0314F8015FDBB2002D14
:100B0000F8D101335B00DCB2138003230C704B700F
:100B100004785CB1022300255A1CD2B2CC548D5407
:100B200010F8014F0233DBB2002CF5D130BC704716
:100B300002242346E8E700BF10B5074C2068FF28D1
:100B400008D00649D1F8A82801F6AC0100F080F8D9
:100B5000FF232360002010BD00000020301D002076
:100B6000432301480B8070470400002012230148F2
:100B70000B80704748000020042301480B80704719
:100B80005C00002008B5044B04480A461946FFF7EC
:100B9000ABFF084608BD00BFE42500206424080818
:100BA00008B5044B04480A461946FFF79DFF08465E
:100BB00008BD00BFE42500207824080808B5044BD0
:100BC00004480A461946FFF78FFF084608BD00BFD4
:100BD000E42500208024080808B5044B04480A4690
:100BE0001946FFF781FF084608BD00BFE425002035
:100BF0008C24080808B5044B04480A461946FFF738
:100C000073FF084608BD00BFE425002098240808AB
:100C1000704700BF704700BF704700BF704700BFFC
:100C2000704700BF704700BF044B00200522C3F887
:100C30009C28C3F8B409C3F8B8097047301D0020D8
:100C4000024B0020C3F89C08704700BF301D0020F5
:100C5000212838B50C4605D022282DD0202813D0C5
:100C6000002038BD0029FBD0072AF9D1194BD3F851
:100C7000BC0993F8C01993F8C12993F8C2392060D0
:100C800021716271A371EBE70029E9D0072AE7D14E
:100C9000104DD5F8B83913B109680020984720687D
:100CA00021796279A379C5F8BC0985F8C01985F85E
:100CB000C12985F8C239D3E70029D1D0022ACFD182
:100CC000044BD3F8B439002BCAD0098800209847C8
:100CD000C6E700BF301D002010B4144CD4E9252312
:100CE0009A4286BF03F5006CACEB02029A1A0A44E2
:100CF000B2F5006F14D8B9B101444A1E013810F89A
:100D000001CFE118824203F1010381F89CC0C3F3D3
:100D10000A03F4D1C4F8983000205DF8044B704702
:100D200002205DF8044B70470846F6E7301D0020AE
:100D3000034B93F8E809003818BF0120704700BF43
:100D4000301D002070B5124D124C296840F2FF563C
:100D500040F24D430022A6630D20A160C5F8E429AE
:100D60000121E360FFF7DAFAA66320B96369C3F3F0
:100D70004323042B08D0D5F81C3AC5F8D8390922EA
:100D800085F8E829002070BD85F8E839022070BD9B
:100D9000301D0020002C014070B50F4D95F8E8394A
:100DA000042B04460E460BD0082B07D1D5F8E039AA
:100DB00083420ED0FFF7C6FF022801D0012070BD8C
:100DC000082385F8E839C5F8E469C5F8E049022048
:100DD00070BD022070BD00BF301D0020034B93F892
:100DE000E809032894BF002001207047301D00202F
:100DF000004870471C27002030B4194B00209C7B12
:100E000014B11D688D4206D00130082803F110038B
:100E1000F5D130BC70479AB1124B03EB40218A42A6
:100E200019D0114B93F8B4218AB1104B01225A709A
:100E300000F5817003EB00100123837130BC704713
:100E40000A4B00F5817003EB00108271E1E701228B
:100E500083F8B421E9E7022CE3D1183BE8E700BFAF
:100E6000145A0020144A0020FC590020FC4900209C
:100E700030B41D4C002384F8A03004F1180004E0C5
:100E80000133082B00F110001ED005688D42F7D108
:100E900090F80EC0BCF1030FF2D1BAB1134901EBC7
:100EA0004320824209D094F8B42112B9012284F877
:100EB000B4210F4901224A7000E0183903F581730B
:100EC00001EB031301229A7130BC70470849D4F832
:100ED0009C2003F5817301EB031301320421997106
:100EE000C4F89C20F0E700BFFC590020144A002001
:100EF000FC490020A8B183681BB10E4B07229A70F1
:100F000070470C4A1178D36003294FF004000CBFDE
:100F100080214FF48071C2E9011113611375907043
:100F20007047044A02F580510123537081F8B431AF
:100F3000704700BFFC49002010B5812104466EF0C7
:100F400013FB204601216EF00FFB204682216EF03C
:100F50000BFBFFF775FE002010BD00BFC1690269E1
:100F600010B4002340F20114A0F844410B60D16991
:100F7000846D21F002014FF0010CD161A0F89CC3F7
:100F80002360D169044821F4003180F8203A5DF8EB
:100F9000044BD16118467047301D002020230148C2
:100FA0000B80704760000020122301480B807047BF
:100FB00080000020042301480B807047940000202B
:100FC0000A4608B5054920B90548FFF78DFD0348D5
:100FD00008BD0448FFF788FD004808BD54270020DD
:100FE000A8240808C024080808B5044B04480A4689
:100FF0001946FFF779FD084608BD00BF54270020B9
:10100000D82408082048D0F8E837D0F8EC2730B5C5
:101010009B184FF01A040C8001D11C4830BD1B4AAC
:10102000D0F8EA174FF0000E10467546B3F1204F86
:101030004FEA137C0CF130040EF1020E2ABF0CF1C2
:10104000370C847080F802C0BEF1100FC5704FEAF3
:10105000031300F10200E9D100200446B1F1204F52
:101060004FEA117303F1300C00F102002ABF37334D
:1010700082F812C093740828D4744FEA011102F167
:101080000202EBD1014830BD00F0FF1F98000020A4
:1010900008B5044B04480A461946FFF725FD0846E3
:1010A00008BD00BF54270020EC24080808B5044BF5
:1010B00004480A461946FFF717FD084608BD00BF59
:1010C00054270020F824080810B50F4C0F4BD4F813
:1010D000FC1BB4F8000C088303F1B402C4F8702DB3
:1010E000D3F8B430984702E01B69984720B9D4F888
:1010F000703D002BF8D1FEE7D4F8FC3BB4F8002C8F
:101100005A83002010BD00BF301D002000000020C9
:1011100038B5084BD3F8703D53B1DB6914460D4622
:1011200098474FF4007302682A600020236038BD9E
:101130001B68FFDE301D002008B5074BD3F8703D5B
:1011400033B11B69984780F00100404240B208BDAE
:101150004FF0FF3008BD00BF301D00200020704759
:101160002DE9F041164CD4F8C00B1646B4F8C42B48
:10117000428303B30F4603EB060806E000234D68E5
:101180001A4639463046A84738B9D4F8701D0029A8
:10119000F4D1FEE71B69984720B9D4F8703D002BC5
:1011A000F8D1FEE70136B04507F50077EDD1D4F868
:1011B000C00BB4F8C42B02830020BDE8F08100BF4F
:1011C000301D00202DE9F041184CD4F8C00B164614
:1011D000B4F8C42B42832BB30F4603EB060801E09F
:1011E0000B699847D4F8701D51B10023CD681A4699
:1011F00039463046A847D4F8701D08B10029EFD110
:1012000031B10B69984720B9D4F8701D0029F8D185
:10121000FEE70136B04507F50077E3D1D4F8C00BFF
:10122000B4F8C42B02830020BDE8F081301D0020FB
:10123000A64A536823F4FD4323F07F032DE9F041D0
:1012400043F0760353605368032123F480735360A3
:1012500082B011600FF098FB04460D460FF094FB2E
:10126000031B61EB0502B3F57A7F72F10003F5D33E
:101270000FF08AFB04460D460FF086FB031B61EB63
:101280000502B3F57A7F72F10003F5D38F4C6368E2
:1012900040F2FF5043F4807300214FF4806263609A
:1012A000A0634FF40033A160E26001E0002B6DD039
:1012B000626B160603F1FF33F8D5002B66D040F2BF
:1012C000FF554FF4D5724FF48963A5630721A563D9
:1012D0000820A260E360FFF721F8A56300284ED044
:1012E00000277A4C40F2FF55002240F27743A56375
:1012F0000121A2603720E360FFF710F8A563002802
:1013000039D147F000470646804647F4801701E090
:10131000964230D040F27743A5630121C4F808809B
:101320003720E360FEF7FAFF034640F269420321EB
:1013300029200136A563F3B9A563A760E260FEF733
:10134000EDFF4FF6FF72A563A8B96369002BDFDAE2
:101350004FF6FF7296420ED05D0000F1BF80236809
:101360009B0708D05A4D95F89000042840F0BE80A5
:10137000FFF7AAF890B1012002B0BDE8F081544B0C
:10138000012283F890204FF08047AAE74F4B40F2AC
:10139000FF5201209A6302B0BDE8F0814B4C2A68ED
:1013A00040F2474340F2FF56A6630121A2600720A6
:1013B000E360FEF7B3FFA663636823F4FD4323F005
:1013C0007F0363600028D6D195F89030022BD2D8E5
:1013D000636913F00073CED1CDE9003308274FF4D1
:1013E0008A63A6630121A7601020E360FEF796FFE1
:1013F000A6630028BFD12B68A663A36040F27743A1
:10140000E36001213720FEF789FFA6630028B2D1EF
:10141000304B6362A762E36A43F03303E36240F256
:101420007343A6630121A060E3603320FEF776FFDB
:10143000A66300289FD16B4640F22A4206E0616B0A
:10144000880244BFD4F8801043F8041B616B11423A
:10145000F5D0636B19078ED4636B9A078BD4636BDB
:101460009B0688D4636B9F0285D4009B1BBA5E03E6
:1014700081D52A6840F2774340F2FF55A5630121E8
:10148000A2603720E360FEF749FFA56300287FF4E0
:1014900072AF022240F24643A5630121A2600620FA
:1014A000E360FEF73BFFA56300287FF464AF636849
:1014B0001C0509D4054A084953680B4043F40063EE
:1014C000536053681805F7D5002055E7002C0140FC
:1014D000301D002000E1F5050081FFFF314D0220A5
:1014E00085F8900023689C073FF445AF2E49002300
:1014F00040F2FF528A638B6040F2C243CB604FF4EC
:10150000003301E0013B03D04A6B12F0450FF9D0E4
:10151000254B5A6B520741D45A6B12F0010F40F21F
:10152000FF529A637FF427AF5A696A619A69AA6188
:10153000DA69EA611B6A2B6201282AD81A4C40F248
:10154000FF56002240F24343A6630621A260032017
:10155000E360FEF7E3FEA66300287FF40CAF124CB5
:101560002A6840F2FF5640F2C943A6630221A260F6
:101570000920E360FEF7D2FEA66300287FF4FBAEED
:1015800063696B60A369AB60E369EB60236A2B61FD
:10159000EEE600F0FB000228D0D0E0E740F2FF5278
:1015A0009A63E8E6301D0020002C014008B5FFF7E3
:1015B0003FFE58B10E4A92F8DC390133DBB2072BFB
:1015C00082F8DC3903D9002382F8E83908BDD2F863
:1015D000143A23B11868998803691942F3D001239A
:1015E000D2F81C1A82F8E839C2F8D81908BD00BF31
:1015F000301D0020F8B59F4CD4F8180A002800F0E0
:10160000328194F8E8099C4D40F2FF5640F24D4774
:10161000431E082B63D8DFE813F04D005000D900BB
:101620006200950074002500620009002368AE6323
:101630000121AB600D20EF60FEF770FEAE6328B9AC
:101640006B69C3F34323042B00F00881D4F8D83925
:10165000D4F81C2AFA3393423ED2FFF7A7FF94F83E
:10166000E809D5E72368AE630121AB600D20EF6088
:10167000FEF754FEAE630028E8D16B69C3F3432341
:10168000042BE3D1D4F8E43984F8DC09012B40F2CF
:10169000ED80D4F8E0290820013B0132C4F8E43998
:1016A000C4F8E02984F8E809A0F10800B0FA80F055
:1016B0004009F8BD022384F8E8392368AE630121AC
:1016C000AB600D20EF60FEF729FEAE6320B96B69B9
:1016D000C3F34323042B5AD094F8E809431EDBB22A
:1016E000022B0AD8D4F81C3AD4F8D8299B1AC82B54
:1016F000DAD9FFF75BFF94F8E8090428D4D1012078
:10170000F8BD236B002BCFD1D4F8D059D4F81C3AB4
:10171000C4F8D839072084F8E809002DC4D0D4F8DB
:10172000D439D4F8C429D4F8C8190120A84794F8AA
:10173000E809431ED3E7D4F8D839D4F81C2A643317
:101740009342B1D2E36A002BF5D12368AE63012145
:10175000AB600D20EF60FEF7E1FDAE6300287FF483
:101760007EAF6A69C2F34322042A7FF478AFD4F8CB
:10177000D05984F8E82984F8DC09002DBFD0D4F8CA
:10178000D439D4F8C429D4F8C819A847A4E7FEF777
:101790009BFE0028A0D194F89030002BA3F1020307
:1017A000B3FA83F314BF022201225B0984F8DD2916
:1017B00084F8DE39FEF788FE00287FF44EAFD4F8B7
:1017C0008020C4F8EC29032384F8E839FEF77CFE76
:1017D000002881D194F86420B4F86630A4F8F03978
:1017E000A16EA36EC4F8E409090E04201B0C84F852
:1017F000F22984F8E809A26E84F8F31984F8F43920
:10180000A16E94F86C0094F86D3084F8F619120A01
:101810001B0984F8F52984F8F70994F86D2084F8F9
:10182000FC39216FB4F87600B4F87630C4F8F819B2
:1018300002F00F02C3F30B1384F8FD2943EA1023CF
:10184000B4F8762003F00F0303F5FA6302F00F02F9
:10185000A4F8FE3984F8002A0120F8BD042384F896
:10186000E8390120F8BD84F8E809F8BDF6D1FFF7A2
:1018700069FA31E7301D0020002C01402DE9F041CC
:10188000204E96F8743D002BFBD1B9B3014400F112
:10189000FF384F1ED6F8A418D6F8A03818F8010F54
:1018A0004A1CC2F30A029A4234BF002401249B1A44
:1018B000314403EBC423012B81F8780DC6F8A4282A
:1018C0001AD10FF061F804460D460FF05DF8031BC6
:1018D00061EB0501B3F57A7F71F10003F5D3D6F81A
:1018E000A038D6F8A42893428CBF002101219B1A6E
:1018F00003EBC123012BE4D0B845CBD10020BDE8D8
:10190000F08100BF301D002010B50A4CD4F89C387F
:1019100003B910BDD4F89C38052BFAD1002A08462B
:10192000D4F81C3A1146F4DDFFF7A8FFD4F81C3AAE
:1019300010BD00BF301D002090F84820531C024409
:10194000DBB280F8483082F8341090F849200AB1B0
:10195000132B03D9002280F8482003B9704710B533
:10196000084CD4F89C2802B910BDD4F89C28052A4C
:10197000FAD119463430D4F81C3AFFF77FFFD4F877
:101980001C3A10BD301D002090F848100023A0F82C
:10199000483001B9704710B5084CD4F89C381BB1D9
:1019A000D4F89C38052B00D010BD3430D4F81C3A44
:1019B000FFF764FFD4F81C3A10BD00BF301D0020B3
:1019C0002DE9F0475D4E1F4606EB80039C68002C16
:1019D00000F0AD8004F13E03A36104F59F73E36161
:1019E0004FF48073C4E904332836236866600546E3
:1019F000E16094F83D00A36390460BF01DF9814629
:101A000094F8440294F83CA0261D00284FD194F885
:101A1000450268BBD4F8403283BB390734D418F090
:101A2000020F60D118F0010F44D194F9472294F8C5
:101A30004712D4F84832002A10DB41481B018418B1
:101A4000DBB284F800335209012301F01F0103FACD
:101A500001F140F822103046BDE8F087394A01F024
:101A60000F010A441B01DBB213763046BDE8F08754
:101A70006BF098FAD4F84032002BCED0324A116B7A
:101A80000B4339071363CAD50135EDB2B9F1000F25
:101A9000CBD040F20673FA0689F80850A9F8063050
:101AA00036D4BB0694F8462245D4322133E06BF09D
:101AB00079FAACE750460BF0BFF80135EDB20028DB
:101AC000B3D040F206620572C28094F84622022129
:101AD0000BF0B6FA94F9472294F84712D4F848323A
:101AE000002AAADABAE76B1CDBB2B9F1000F99D071
:101AF00089F8083040F20653A9F8063094F84622D7
:101B0000484602210BF09CFA18F0010F8DD0D1E766
:101B100094F84622022148460BF092FA94F94722A3
:101B200094F84712D4F84832002A86DA96E7264617
:101B30003046BDE8F0871221EDE700BFBC850708FD
:101B400000E100E0FCEC00E0003802402DE9F04745
:101B5000038A8489A4B21C4082B045D0814688465D
:101B60004FF0004501F14C0701F13406B4FA84F35B
:101B700025FA03F2D24391B2A9F8101014401B3B8E
:101B8000B8F1000F5DD0042B2CD8DFE803F05046ED
:101B90003B300300D8F80C30D9F82CA033B19B6847
:101BA00023B11FFA8AF108F104009847D8F82430CD
:101BB00033B19B6823B11FFA8AF108F11C009847E2
:101BC000D8F83C302BB19B681BB11FFA8AF1304624
:101BD0009847D8F854302BB19B681BB11FFA8AF193
:101BE00038469847002CC1D102B0BDE8F087D8F83C
:101BF0000C30D9F834105B6808F104009847002CC9
:101C0000B4D1F1E7D8F82430D9F838105B6808F17E
:101C10001C009847002CA9D1E6E7D8F83C30D9F849
:101C20003C105B6830469847002C9FD1DCE7D8F821
:101C30005430D9F840105B6838469847002C95D14D
:101C4000D2E7042B07D8DFE803F00319140F0A00CA
:101C5000D9F840300193019B002C87D1C4E7D9F813
:101C60002C300193019BF7E7D9F834300193019BA5
:101C7000F2E7D9F838300193019BEDE7D9F83C3011
:101C80000193019BE8E700BF38B5284C94F8742D08
:101C9000012A034603D0022A09D0002038BD244976
:101CA000D1F88024A2B984F8742D002038BD002515
:101CB00040F20112C0E95455C0E95655A0F844213C
:101CC00000F5A2716DF060FD84F8745D002038BDF0
:101CD000402AD4F8A00819D9403AC1F880244022FB
:101CE0008118C4F8A01880B2124940F201140144CE
:101CF0000020C3E95411C3E95620A3F84441184613
:101D000003F5A2716DF040FD002038BD4FF00005D5
:101D1000C1F8805402EB0001C4F8A01808BF0221EA
:101D200080B208BF84F8741DDEE700BF301D0020BC
:101D3000282E0020A82A002001EB810138B500EBF5
:101D4000C1010E4DB1F88C1304462846FEF7C4FFBE
:101D5000E378C4F8A85340210022C4E9EC12012220
:101D600093422046A4F89C2304F5677108BFC4F889
:101D7000AC536DF009FD002038BD00BFAC3200202F
:101D800038B52A4BD3F8C4240F2A04D0511CC3F809
:101D9000C414002038BD264A92F8745D0021C3F8AF
:101DA000C414002DF5D1D2F8A018D2F8A448B1F58A
:101DB000006F30D0A14235D002F6785594BF641A36
:101DC000C1F5006415FA81F5402C19D82144C2F8F8
:101DD000A0184FF00001C3F880140CBF02230123A8
:101DE00082F8743D40F201120023C0E95455C0E965
:101DF0005643A0F8442100F5A2716DF0C5FCC8E778
:101E0000403CC3F8804440310123C2F8A01882F856
:101E1000743D4024E6E7C2F8A0581CB1294602F6FA
:101E20007855D1E7002382F8743DB2E7282E0020D0
:101E3000301D002038B5224DD5F8D03495F8E8C4CF
:101E4000044623B195F8D4345CEA030331D001236E
:101E5000E06984F8463140F20112A4F84421026896
:101E60001849002AA8BFC2F380739B0301EA1241FC
:101E700043F020030B4363F31F42BCF1020F0260E7
:101E800000D038BDE278104BC4F8A8331F200021E1
:101E9000C4E9EC01012A4FF00101A4F89C1308BF2A
:101EA000C4F8AC3304F567712046BDE838406DF0E6
:101EB0006BBC01216DF01EFB95F8E8C4C7E700BFBD
:101EC000282E0020DFBFFFFFF032002070B590F811
:101ED000CF2590F8D13590F8CE5590F8D0C590F830
:101EE000CC1590F8CD6505EB02250CEB032C90F892
:101EF000D32590F8D23503EB0223012284B080F879
:101F0000112101F01F029BB2ADB21FFA8CFC012A15
:101F100004468DF80810ADF80A50ADF80CC0ADF8C5
:101F20000E30C0F840318DF809600AD0022A57D02F
:101F3000002A3CD001F080016DF0DCFA002004B0F2
:101F400070BD90F81231032B2BD15FFA8CFCBCF1E1
:101F5000010F26D8D0F8E43502A99B689847BDF850
:101F60000E30002BEAD1C4E94A33C4E94C330421D2
:101F70004FF4807284F81111A4F81C2104F58E71BD
:101F800020466DF093FB636DC44A1A61E278012A22
:101F9000D4D104F2CC545C614FF0802219681A60ED
:101FA000CCE720466AF050FD002004B070BD092E39
:101FB000F7D801A252F826F0632000087321000828
:101FC000A31F0008AD210008A31F0008DB210008A3
:101FD00087200008A31F0008F12000082121000825
:101FE00001F0600120295FFA8CF334D0012E00F05B
:101FF0006181032E00F09581002E9FD190F812216F
:10200000022A00F01B81032ACBD11CF0800F40F084
:10201000A48103EB830300EBC30393F87633002B17
:1020200000F0A6819E4B0122C3F8F8249D4A0223AA
:10203000C4E94E334FF48070002184F81131A4F8C4
:102040001C01C4E94C31C4E94A2204F58E712046D2
:102050006DF02CFB72E7D0F8E43502A99B68984735
:102060006CE790F81231023B012B9AD88C4BD0F8D8
:1020700018210021C3F8F01412B10222C3F8F02491
:10208000894A0223D4E72E0A022EADF8063000F06A
:10209000CD81032E00F09181012E82D1D0F8EC3554
:1020A00080781B680DF106019847BDF80630002BBB
:1020B0003FF444AFBDF80E20002A3FF43FAF9342F7
:1020C00028BF13464FF480720221A4F81C2100227D
:1020D000C4E94A0084F81111C4E94E33C4E94C3212
:1020E00004F58E712046ADF806306DF0DFFA25E775
:1020F000012B7FF456AF90F81221022A00F049819B
:10210000032A7FF44EAF4FF4807100F588720220ED
:10211000A4F81C11C4E94E3384F81101002190E7A2
:10212000EDB25F4E012D86F8E9543FF63AAF90F8D4
:102130001231022B00F02181032B7FF432AF002DEE
:1021400000F07F8190F81011012910D0D0F8E4350B
:102150005B68984796F8E914D4F8E43584F81011D0
:102160001B6820469847D4F8E8359B6898470023B9
:10217000F9E690F81231023B012B3FF612AF012D28
:102180007FF4DCAED0F8E43500259B68C0F8185128
:1021900002A9984704224FF48073C4E94A55C4E960
:1021A0004C5584F81121A4F81C31E7E6012D00F00C
:1021B000CC80022D7FF4C2AE5FFA8CF3002B7FF44B
:1021C000BDAE02694FEA1C23023B5268032B00F2AA
:1021D0005681DFE803F05B426B5F5CEA03037FF448
:1021E000E0AE90F81221032A3FF4DBAE016905F05E
:1021F0007F0680F8146108681A4665F30A120243E4
:102200000A604FF480720421C4E94A33C4E94C33B4
:1022100084F81111A4F81C2104F58E7120466DF08C
:1022200045FA636D1D4A1A61E278012A0DD0002E2D
:1022300000F01281022384F812317FE65A063FF43F
:102240007DAE19466DF056F978E604F2CC525A612B
:102250004FF0802219681A60E9E7032363F306123E
:1022600001210F4D84F816110421002384F8111167
:102270004FF48071A4F81C11C4E94A33C4E94C330B
:1022800004F58E712046C5F8F4247AE6022363F340
:102290000612E5E7052363F30612E1E7180008607C
:1022A000282E00202033002018330020042363F35D
:1022B0000612D5E790F81221022ABFD0032A7FF434
:1022C00070AE002D7FF43AAE13F07F023FF44FAFB3
:1022D0001CF0800F40F0C48003EB830100EBC101D0
:1022E00081F8742381F8765381F87553282101FB16
:1022F000030300EB820293F87713506D03688A1E84
:10230000012A6FF35553D4F8E4258CBFC3F3007151
:10231000012161F31C739268036002A92046904773
:1023200025E790F81221022A88D0032A7FF439AEDB
:1023300025B9590602D019466DF0DCF8D4F8E43519
:1023400002A99B682046984711E7D0F8E43502A916
:102350009B68C0F81851984709E703F07F0303EB27
:10236000830300EBC30393F81E31002B7FF45AAEB6
:10237000454B0022C3F8F82458E6002D3FF40AAF7D
:1023800001210322D0F8E43580F8101180F81221E1
:10239000E6E63E4984F811214FF480700022C4E93A
:1023A0004A11A4F81C01C4E94E33C4E94C3204F5C7
:1023B0008E7120466DF07AF9C0E5EDB2052D3FF63D
:1023C000F0ADDFE805F02B231B130B03D0F8EC3541
:1023D00080789B690DF10601984766E6D0F8EC35E8
:1023E00080785B690DF1060198475EE6D0F8EC3520
:1023F00080781B690DF10601984756E6D0F8EC3558
:102400008078DB680DF1060198474EE6D0F8EC3590
:1024100080789B680DF10601984746E6D0F8EC35C8
:1024200080785B680DF1060198473EE6D0F8E43508
:1024300080789B6A0DF1060198474670C4F8F00554
:1024400033E60222D0F8E43580F8122180F81051EA
:102450005B68294698479DE6012384F812316DE5B3
:10246000282303FB020181F81C2100EB820281F882
:102470001E5181F81D61906991F81F113EE70123FB
:1024800063F30612ECE600BF282E00201433002070
:1024900010B5044629B990F81121032A0DD0002067
:1024A00010BDD0F8E4359B69002BF8D090F81221CC
:1024B000032AF4D19847002010BDD0F890230B4692
:1024C000D0F87C138A4213D9C078521A0128C4F874
:1024D000902336D08A4228BF0A4692B2C4E9E2234A
:1024E00004F55D71A4F8743320466DF0DFF8D6E78B
:1024F000D0F8E4351B691BB190F81221032A1ED0D5
:1025000000234FF480720421C4E94A33C4E94C33F8
:1025100084F81111A4F81C2104F58E7120466DF089
:10252000C5F8636D104A1A61E278012AB7D104F246
:10253000CC545C614FF0802219681A60AFE798476D
:10254000DEE78A42D4F88003A4F8743328BF0A4631
:10255000084492B2C4E9E22304F55D71C4F8800333
:10256000C4F88403C0E700BF1800086038B504460B
:1025700049B990F81131022B11D094F81631012B82
:1025800040D0002038BDD0F8E4355B69002BF8D08E
:1025900090F81221032AF4D19847002038BDD0F8D2
:1025A0003831D0F82421934236D9C178012908BFA7
:1025B000D0F82811A3EB020318BFD0F82821C0F8E7
:1025C000383108BF52189BB24FF480710025C0E922
:1025D0004C35A0F81C11C0E94A2200F58E716DF04F
:1025E00065F8E378C4F88053012BC4E9E255A4F8F8
:1025F000745308BFC4F8845304F55D7120466DF030
:1026000055F8BAE72A4B2269D3F8F4145160002335
:1026100084F81631002038BDD0F83C31B3FBF2F518
:1026200002FB1535ADB99A4213D8D0F84021934238
:102630000FD24FF48073A0F81C31C0E94A55C0E9AD
:102640004C5500F58E716DF031F8E378C4F84051C7
:10265000C8E7D4F8E435DB681BB194F81221032AEB
:1026600023D0E2780023012A4FF0050108BFC4F807
:102670008433C4E9E23384F81111C4F88033A4F838
:10268000743304F55D7120466DF010F8636D094AEE
:102690001A61E278012A7FF470AF04F2CC525A61D9
:1026A0004FF0802219681A6067E720469847D8E7FC
:1026B000282E002018000860F8B50B7813F060068B
:1026C0000D46044620D0202E25D1CE884EB31B06C1
:1026D00049D5384F687832463946FEF7B9FAEB8863
:1026E0000222002684F811214FF48072C4E94E338F
:1026F000C4E94A77C4E94C36A4F81C2104F58E716C
:1027000020466CF0D3FF0AE04B780A2B17D00B2B36
:102710000ED0062B03D120466AF096F902263046E9
:10272000F8BD022248781144FEF792FA3046F8BD0F
:102730008B78002B3AD1204BC3F8FC64EFE70222E0
:1027400080F811214FF48072A0F81C211B4A01234C
:10275000C0E94E33C0E94A22C0E94C3600F58E711B
:102760006CF0A4FFDBE7164B164A4978116003F6BC
:10277000AC020321C0E9E46680F81111C0F8886357
:10278000C0F88023C078C3F8A86801284FF0000380
:10279000C4F88C33A4F8743304F55D7108BFC4F831
:1027A000842320466CF082FF0026B8E76AF04CF9DB
:1027B000B5E700BFDC250020282E002024330020B0
:1027C000301D002000000020002310B519460446EB
:1027D00040226CF0FBFE80212046002340226CF05A
:1027E000F5FED4F8E835A078012284F812215B6860
:1027F0009847002010BD00BF10B5022304464022B8
:1028000081216CF0E3FE20460223402201216CF07E
:10281000DDFE20460323082282216CF0D7FE0E4BFA
:102820000222A3F84C20FEF7FFF9E2780B4BC4F824
:10283000A83340200021C4E9EC01012A4FF0010136
:10284000A4F89C13204604F5677108BFC4F8AC33A4
:102850006CF09AFF002010BD00000020AC32002078
:1028600070B5812182B00446314E6CF07DFE0121AD
:1028700020466CF079FE002502234022812120466B
:1028800086F8205A6CF0A2FE012102234022204645
:102890006CF09CFE274B86F8205AD3F8002583F86D
:1028A000E8541268284690470095009BE16843F081
:1028B00010030093009B0B610A691F4B009203E019
:1028C0000A690092013B02D0009AD006F8D4002396
:1028D0000193019B43F020030193019A164B0120C1
:1028E00060F38A120192019A0A610A69019203E077
:1028F0000A690192013B02D0019A9206F8D4E2786B
:102900000E4BC4F8A83300211F20C4E9EC01012AB2
:102910004FF00101A4F89C1304F5677105D020461F
:102920006CF032FF002002B070BDC4F8AC33F6E7A3
:10293000301D0020282E0020400D0300F032002022
:102940002DE9F843394F8046894615461C4697F8CD
:10295000E81904290CD0082907D1D7F8E0394345F4
:1029600006D0FEF7EFF90228F1D00120BDE8F88388
:10297000012387F8CC393B6397F89030C7F8D449E6
:102980000622022B2A4CC7F8C889C7F8D059C7F8C5
:10299000C49987F8E82918BF4FEA48280A2640F268
:1029A000FF554FF48B63A5630121C4F808801820FC
:1029B000E360FDF7B3FC03464FF0000C40F27742B2
:1029C00001213720A56393B9012148466AF062FAD4
:1029D000174B184959624FF400729A62DA6A002163
:1029E00042F09102DA620846B962BDE8F883A56355
:1029F000C4F808C0E260FDF791FC721EA5630028D0
:102A0000E2D012F0FF06CCD13E63FEF7CFFDD7F83F
:102A1000D04944B10120D7F8D439D7F8C819324683
:102A2000A0470320E1E70320DFE700BF301D0020BF
:102A3000002C014000E1F5052DE9F04F3F4E99468D
:102A400096F8E83983B0042B80460191924609D06C
:102A5000082B03D0002003B0BDE8F08FFEF772F919
:102A60000228F7D196F890300122022BF26263D04F
:102A70004FEA482B324C019800216AF00BFA4FF4D0
:102A80000072304B6362A262E36A40F2FF5743F088
:102A90009303E362A763A2604FF48A62E2600121BC
:102AA0001020FDF73BFC0A25A76340F25142A763C3
:102AB0000121C4F808B01120E260FDF72FFC0246A6
:102AC0004FF0000E40F2774301213720A763AAB9E7
:102AD0000023B362D6F81C3A0199C6F8C41905223E
:102AE0000120C6F8C889C6F8D0A9C6F8D49986F8D6
:102AF000E829C6F8D83903B0BDE8F08FA763C4F859
:102B000008E0E360FDF70AFC013DA7630028DFD081
:102B100015F0FF05C9D1F562B062FEF747FDD6F8A2
:102B2000D049002C96D02846D6F8D439D6F8C81902
:102B30002A46A04728468EE7C3469BE7301D002063
:102B4000002C014000E1F5051049114BD1F8882017
:102B500042F4700210B4C1F888201A680D4C0020AD
:102B600042F001021A6098601A6822F0847222F41E
:102B700080321A605C601A68074C22F480221A6066
:102B8000D8608C605DF8044B704700BF00ED00E03A
:102B9000003802401030002400000008704700BFD9
:102BA0002DE9F84346697EB9D0F80080C8F30D09D5
:102BB00004460F46B9F1000F26D03F68FDF7C8FE66
:102BC000092804D06FF001063046BDE8F8834A4D6D
:102BD0002B6923F440732B612B6943F400732B6141
:102BE0002B6943F001032B61C8F80070FDF7B0FEBC
:102BF0002B69092823F001032B61E3D123680433F7
:102C000023603046BDE8F8833C4B98452AD303F552
:102C10008043984524D303F58043984554D3384BDB
:102C2000984554D903F58033984553D903F50033BB
:102C3000984552D903F50033984551D903F500332F
:102C400098453ED903F5003398454CD903F58023C8
:102C500098454BD9B8F1016F4BD305200DF0F0FE2C
:102C60004FF00809FDF774FE092804D04FF0FF3635
:102C70003046BDE8F883204D2B6923F440732B6167
:102C80002B6943F400732B612B6923F0F8032B614C
:102C90002B6943EA090343F002032B612B6943F4D8
:102CA00080332B61FDF754FE2B6923F002032B6167
:102CB0002B69092823F0F8032B61D7D1D4F80080C1
:102CC0007BE74FF03809CDE74FF01009CAE74FF026
:102CD0001809C7E74FF02009C4E74FF02809C1E7FA
:102CE0004FF03009BEE74FF04009BBE74FF048090D
:102CF000B8E74FF05809B5E7003C02400040000833
:102D0000FFFF00080148FDF785BA00BFD80000208A
:102D10000148FDF77FBA00BF240300200148FDF7FA
:102D200079BA00BF700500200148FDF773BA00BFF3
:102D3000BC070020704700BFF0B5254B026825494D
:102D400083B00646002401E051F834309A4209D09D
:102D500001340E2CF8D100211F4A052005F092FD08
:102D6000002113E01D4F07EB8407D7F8045585B108
:102D7000717901EB410305EBC30300221820C3E97D
:102D8000032200FB01559E601A75291D084603B0F9
:102D9000F0BD07216C2005F06BFE0146C7F8040565
:102DA00070B129466C2273F0DDFB0A4BD7F804554D
:102DB00003EBC404C5E90045ED616D63ED64D7E73D
:102DC0000190074A052005F05DFD0199DEE700BF8F
:102DD000000001401486070808250808282E002056
:102DE00030250808704700BF30B40C4C0022234641
:102DF00004E001320C2A03F114030CD093F804C050
:102E00008445F6D1DD68294201D10029F1D1142091
:102E100000FB024000E0002030BC7047040A0020A4
:102E200038B5D0E9004307EE902A1B68354A206880
:102E30000139934204688DB216D002F58062934244
:102E400012D002F5705293420ED002F58062934286
:102E50000AD002F58062934206D02B4BD3F8F43AA5
:102E60005B0807EE103A04E0274B03F6F42393EDDA
:102E7000007ADFED266AB8EE477AF8EE677A87EED9
:102E8000270A30EE260A6EF0C3FB1E4A238801385B
:102E9000944280B29BB212D002F5806294420ED06E
:102EA000B4F1804F0BD0A2F58032944207D002F5E6
:102EB0008062944203D002F58062944202D123F0F2
:102EC00070039BB2124A944212D002F5806294427F
:102ED0000ED023F4407302F56C429BB294422380DF
:102EE000E56220850AD1002323860123A38238BD11
:102EF0002380E56220850123A38238BD054B9C42D7
:102F0000F1D0F8E700000140000000200AD7233C80
:102F1000001000400004014070B54068837903F060
:102F2000020213F0040300F0C9804FF0000E1346B4
:102F300004247246754690F805C0BCF1030F30D8E2
:102F4000DFE80CF08E5F30020368188C20F48050AC
:102F50000004000C1884188C9C8820F40050000495
:102F60002A43000C40EA0232988B6C4D20F4E64074
:102F70000004000CAB42A4B240F4C04000F0B080AA
:102F800005F58065AB4200F0AB809C8098831964A6
:102F90001A849A8B22F400621204120C42F400622A
:102FA0009A8370BD2A4305685C4E288C20F480709B
:102FB0000004000C2884288CB5F804C020F40070AC
:102FC0000004000C40EA0222A88B20F073000004E9
:102FD000000CB5421FFA8CFC40F0600073D006F57F
:102FE0008066B5426FD0A5F804C0A883E9632A843F
:102FF000AB8B23F008031B041B0C43F00803AB83CB
:1030000070BD2A430568454E288C20F0100000044E
:10301000000C2884288CB5F804C020F0200000049F
:10302000000C40EA0212288B20F4E6400004000C59
:10303000B5421FFA8CFC40F4C04061D006F58066B2
:10304000B5425DD0A5F804C02883A9632A842B8BE0
:1030500023F400631B041B0C43F400632B8370BD3B
:1030600000682E4E2A43058C25F001052D042D0CF9
:103070000584058CB0F804C025F002052D042D0C44
:103080002A43058B25F073052D042D0CB0421FFA41
:103090008CFC45F0600528D006F58066B04224D04F
:1030A000A0F804C0058341630284038B23F0080366
:1030B0001B041B0C43F00803038370BD4FF4807E98
:1030C0001C46012537E722F4006242EA032222F47B
:1030D00080622CF4405C42EA04224CEA0E1C82E737
:1030E00024F4804444EA8E144FE74FF6F3761640FA
:1030F0002CF4407C46EA03024EEA0C0C2243CFE754
:1031000022F0800242EA031222F040022CF4406CCA
:1031100042EA04124CEA8E0C94E700BF0000014022
:1031200042685379032B0FD8DFE803F00B08050240
:1031300010684030704710683C3070471068383075
:10314000704710683430704700207047024B0348C6
:10315000D3F80415FEF7FABC282E00200000014029
:1031600010B5064C0648D4F80415FEF7EFFCD4F869
:1031700024150448BDE81040FEF7E8BC282E0020C6
:10318000000001400040014010B5064C0648D4F84C
:103190000415FEF7DBFCD4F828150448BDE8104000
:1031A000FEF7D4BC282E002000000140004401405E
:1031B00010B5064C0648D4F80415FEF7C7FCD4F841
:1031C0002C150448BDE81040FEF7C0BC282E002096
:1031D0000000014000480140034B4FF08040D3F80D
:1031E0000815FEF7B3BC00BF282E0020024B034891
:1031F000D3F80C15FEF7AABC282E002000040040CE
:10320000024B0348D3F81015FEF7A0BC282E00206F
:1032100000080040024B0348D3F81415FEF796BC93
:10322000282E0020000C0040024B0348D3F8201544
:10323000FEF78CBC282E00200004014010B5064C7F
:103240000648D4F82015FEF781FCD4F83015044860
:10325000BDE81040FEF77ABC282E00200004014093
:103260000018004010B5064C0648D4F82015FEF7AB
:103270006DFCD4F834150448BDE81040FEF766BC78
:10328000282E002000040140001C004010B5064C10
:103290000648D4F82015FEF759FCD4F83815044830
:1032A000BDE81040FEF752BC282E0020000401406B
:1032B000002000400348D0F8043B13B100F6F8208A
:1032C00018477047000000200348D0F8243B13B192
:1032D00000F6183018477047000000200348D0F867
:1032E000443B13B100F63830184770470000002007
:1032F0000348D0F8643B13B100F6583018477047C4
:10330000000000200348D0F8843B13B100F6783069
:1033100018477047000000200348D0F8A43B13B1C1
:1033200000F6983018477047000000200348D0F896
:10333000C43B13B100F6B8301847704700000020B6
:103340000348D0F8E43B13B100F6D8301847704773
:10335000000000200348D0F8043C13B100F6F83018
:1033600018477047000000200348D0F8243C13B1F0
:1033700000F6184018477047000000200348D0F8B6
:10338000443C13B100F63840184770470000002055
:103390000348D0F8643C13B100F658401847704712
:1033A000000000200348D0F8843C13B100F67840B8
:1033B00018477047000000200348D0F8A43C13B120
:1033C00000F6984018477047000000200348D0F8E6
:1033D000C43C13B100F6B840184770470000002005
:1033E0000348D0F8E43C13B100F6D84018477047C2
:1033F0000000002030B44568154CA542154D2C6BDB
:103400000CBF44F4001444F480042C6390F914C0FD
:10341000C160BCF1000F836111DB0F49120101EBA8
:103420000C03D2B283F800234FEA5C1001230CF0A6
:103430001F0C03FA0CF330BC41F820307047074BE7
:103440000CF00F0C12016344D2B21A7630BC7047F4
:10345000006002400038024000E100E0FCEC00E0C7
:103460002DE9F84FDFF814B300210BF6F8204FEAEE
:10347000411C50F80C30C3F30132C3F3032382F034
:10348000020283F0030352EA03040AD00131102937
:10349000EDD1A74E0023C6F8183A86F8E839BDE802
:1034A000F88F6044A24E037FC6F8180A002BF1D1B2
:1034B000DC44A04BDCF8007B9F4202D048339F42A3
:1034C000E8D19D4A536A43F4006353620DF05CFAFD
:1034D000804689460DF058FAB0EB080361EB09010C
:1034E000B3F57A7F71F10003F4D3934A536A23F45E
:1034F000006353620DF048FA804689460DF044FAA5
:10350000B0EB080361EB0901B3F57A7F71F10003B9
:10351000F4D3DFF824928948D9F8443043F40063A7
:10352000C9F84430D9F8303043F48003C9F830305A
:10353000D9F8303043F00C03C9F830304FF00D0AA1
:103540004FF000080C220E21A6F80AAD86F80C8D6B
:1035500009F076FD7A48A6F816AD0C220E2186F801
:10356000188D09F06DFD7748A6F822AD0C220E21CA
:1035700086F8248D09F064FD7348A6F82EAD0C2260
:103580000E2186F8308D09F05BFD7048A6F83AAD43
:103590000C220E2186F83C8D09F052FD0C226C485D
:1035A000A6F86AAD0E2186F86C8D09F049FD694BCD
:1035B000302283F831234FF400325A60D9F830308A
:1035C00043F48003C9F83030634BC3F83C75594B62
:1035D0009F425CD061496248C1F8A080614BC1F84C
:1035E000A8004FF474176048CF60C1F8A00007200E
:1035F000C1F8B4005D4F42461846194605E0013255
:10360000102A01F1200100F08F808D68BD42F6D1B3
:103610000BEB42115201D1F8FC7A55498F4274D01C
:10362000454F396B41F4800139630BEB02054F497B
:103630000D22A5F8142B9A688A4225D00134102C4B
:1036400003F12003F7D100204A4900230122FFF7AC
:10365000D1FED6F8143A4BB119689A880B691A4210
:1036600004D1002386F8E839BDE8F88FFDF7E0FDC6
:103670000028F6D1D6F81C2AC6F8D829012386F8E6
:10368000E83986F8DC090AE700EB4410DCE7344946
:10369000C3F80080DFF8CCC099604FF07460324905
:1036A00043F8500C19600721583B4246D9666046E2
:1036B000634604E00132102A03F1200334D09968F4
:1036C000B942F7D10BEB42135201D3F8FC1A284B45
:1036D000994223D018490B6B43F480030B630BEB27
:1036E00002050D23134AA5F8143BDCF80830934279
:1036F00011D00134102C0CF1200CF6D100201E4901
:1037000000230122FFF776FEA3E70B4F396B41F44C
:103710000011396389E700EB4410F0E706490B6BB1
:1037200043F400130B63DAE700235B68FFDE00BF9E
:10373000301D00205864024000380240342A002026
:10374000402A00204C2A0020582A0020642A002009
:10375000942A002000E100E0282E002000640240AE
:10376000802C0140F80A00206054A308A0640240A5
:1037700000600240650800089D0700080000002066
:1037800070B52D4C636BD9051ED54FF4807340F294
:10379000FF56A363A663E36B284D23F4414323F054
:1037A0003A03E3636B6B9A071FD4012200236A621A
:1037B000AB62214A40F2FF539363D36B23F441433E
:1037C00023F03A03D36370BD636B980703D51B4B9B
:1037D00002229A62EDE7636B190721D4636B9A06A4
:1037E00022D5164B06229A62E3E7154BD3F83C2507
:1037F000136823F001031360E36A002223F0080337
:10380000E3622A636B6BDB07CFD540F24C43A663C0
:103810000121A2600C20E360FCF780FDA663C4E7F1
:10382000064B04229A62C4E7636BDB06C1D5034BE7
:1038300005229A62BDE700BF002C0140301D002028
:10384000282E002002683649002310B422F001021D
:10385000212488420260036043608360C360036187
:10386000446138D02F4B98422ED02F4B98423CD0F9
:103870002E4B984240D02E4B984232D02D4B98423E
:1038800041D02D4B984246D02C4B984217D02C4B10
:1038900098423CD02B4B984216D02B4B984224D0C8
:1038A0002A4B984228D02A4B98421AD0294B98424A
:1038B00029D0294B98422ED0284B984208D14FF05E
:1038C0003D5243F8AC2C03E04FF4746243F8202CD3
:1038D0005DF8044B7047224B5DF8044B3D229A6023
:1038E0007047204A43F8642CF2E74FF474125DF8F5
:1038F000044B43F8382C70474FF074625DF8044B6A
:1039000043F8502C7047184A43F87C2CE0E73D22DE
:1039100043F8082CDCE7154A43F8942CD8E700BF9D
:10392000106002402860024040600240586002403F
:103930007060024088600240A0600240B8600240AF
:10394000106402402864024040640240586402400F
:103950007064024088640240A0640240B86402407F
:10396000006002403D000020400F002000003D208C
:1039700000222DE9F04713460D684FF0010E032693
:1039800004E00133102B02F1020239D00EFA03FCDD
:103990003CEA0504F5D1076806FA02F427EA0407B1
:1039A00007600F79D0F800A007FA02F9013F49EA51
:1039B0000A09012FA046C0F800906FEA040411D84C
:1039C00087683C4084604C79876894403C438460BD
:1039D000446824EA0C0444608C7947689C40A4B293
:1039E0003C434460C46824EA0804C460CC79C768D6
:1039F000944001333C43102BC46002F10202C5D154
:103A0000BDE8F0872DE9F0412348244F244E254C92
:103A100082B03822002172F0A5FD002557F825104C
:103A20003246002301E054F8332091422ED0013376
:103A30000E2BF8D10020053569F0B4FA3C2DEDD1FC
:103A4000DFF85880184F08F1F0054FF0007698F82D
:103A5000040009F0F1F808F11408044688B103687D
:103A600003F13F4303F57E0307EB932393F8C8006C
:103A700069F098FAA3880196206800936946FFF7D9
:103A800077FFA845E3D102B0BDE8F081064A02EB1A
:103A9000C30393F85C00CEE72C330020040A002017
:103AA0000000014014860708BC850708224A936875
:103AB00003F00C03042B10B421D0082B22D01F4B91
:103AC00003601D4C1E4AA168C1F30311114491F813
:103AD000F81CCB404360A168C1F38221114491F8E6
:103AE000F81C23FA01F18160A1685DF8044BC1F371
:103AF00042310A4492F8F82CD340C3607047114B0E
:103B00000360DEE75368516813F4800F01F03F0152
:103B1000536814BF0B4A094AB2FBF1F1064A5268D6
:103B2000C2F30142C3F38813013201FB03F35200D5
:103B3000B3FBF2F30360C4E7003802400024F40052
:103B40000000002000127A0070B5446B8668A389DB
:103B500023F400531B041B0CA38182790546407992
:103B600012F0040F14BF4FF4805C4FF0000C1103EF
:103B700010F0010F4FEA02220CBF0023042302F4CD
:103B80008062800748BF43F0080342EA0C021343F7
:103B9000228A92B201F4005122F440520A43228256
:103BA000A28922F4B05222F00C021204120C1A4321
:103BB000A281A38A23F440731B041B0C84B0A3824C
:103BC0006846FFF773FF244B9C4205D003F58063E2
:103BD0009C4201D0029A00E0039AA3891F491B046A
:103BE00002EB82024CBF7300B30002EB8202B2FB15
:103BF000F3F3A1FB0302A08952096426000406FB2B
:103C000012334FEA02121FD41B013233A1FB0313FC
:103C1000C3F3431313439BB22381AB796A6B13F055
:103C2000080F938A0AD09BB243F0080393829389CA
:103C30009BB243F40053938104B070BD23F008039A
:103C40001B041B0C9382F2E7DB003233A1FB03134E
:103C5000C3F342131343DEE7001001401F85EB510D
:103C60002DE9F8431D462E4B9DF820609DF82490C9
:103C70009842884617463BD02A4B984240D02A4B60
:103C8000984245D0294B984221D14B46324629468D
:103C90000520FDF795FE04460023C4E90B87C4E91F
:103CA0000733C4E909336671A56084F8069020469D
:103CB000FFF74AFFF107626B12D4B3070BD4938965
:103CC0009BB243F4005393812046BDE8F88300245F
:103CD0002046BDE8F883D36843F08003D360EEE765
:103CE0004FF6DF731380D36843F02003D360E4E71B
:103CF0004B46324629460020FDF762FE0446CBE7DC
:103D00004B46324629460120FDF75AFE0446C3E7DA
:103D10004B46324629460320FDF752FE0446BBE7D8
:103D20000010014000440040004C004000140140DD
:103D3000816009E7417107E72DE9F043DFF814825C
:103D400008EBC00985B00546C70099F80C0D08F0CE
:103D500073FF044699F80D0D08F06EFF064699F8BA
:103D60000E0D69F01FF96B1CDBB2002C00F0AD806A
:103D700040F60C122372E280002E00F0C3803372F2
:103D800040F60C232046F38004223A2109F058F92A
:103D9000042230463A2109F053F908EB0703624A3E
:103DA000D3F8084D944200F09880604B9C4200F09C
:103DB0009E805F4B9C4200F0AB80474497F80F2DEC
:103DC000022A5CD0032A7ED05A4B5B4E012A18BFD0
:103DD0001E46A7886846FFF769FE27F03F07029B4B
:103DE000564AB3FBF6F63F04A2FB03233F0C47EA17
:103DF0009347A780228822F001021204120C22802D
:103E0000B2B2C6F30B069B0C002E59D04FF496713C
:103E100001FB03F34A49A1FB03139B0901339BB246
:103E200042F400422384A2832388464A9BB243F093
:103E300001032380238823F4816323F002031B04FE
:103E40001B0C4FF4804143F480632380218123883D
:103E500023F080031B041B0C238023889BB202EBFE
:103E6000451243F0010323800121002382F84055CD
:103E700082F8411582F8423505B0BDE8F083A68886
:103E80006846FFF713FE26F03F06029A2B4B3604D6
:103E9000A3FB0213360C46EA9346A680218821F044
:103EA00001010904090C21809B0C27490133920967
:103EB0002384A1FB02329209042A38BF0422B2E70C
:103EC00042F00102A2E7214E83E7002E3FF465AFE6
:103ED000337240F60C23F3805AE71D4B1A6A42F402
:103EE00000121A621A6A22F400121A6265E703F5D8
:103EF000F0331A6A42F480021A621A6A22F48002CB
:103F00001A625AE7042220463A2109F099F844E758
:103F100003F5EE331A6A42F400021A621A6A22F4B6
:103F200000021A6249E700BF0054004000580040F8
:103F3000005C0040804F1200009F240083DE1B4382
:103F4000D34D6210282E0020632D3E05C0270900A6
:103F500000380240000000202DE9F047954D90F90F
:103F600000108046807805EBC1060138CC0090B087
:103F7000D6F8081D14282ED8DFE810F053012601CA
:103F8000150057006100A200AA00CB01BD017D0011
:103F9000870045020D02E001C500D5003000380061
:103FA000AA019C015B01888A0C8B81B2824841EA9C
:103FB000044130EA010100F02681D8E90210521ACA
:103FC00042F2107163EB00038A4273F1000302D3E3
:103FD000152388F8023010B0BDE8F08798F8130078
:103FE0000882C8E90223122088F80200888A0C8B14
:103FF00080B240EA0440714C34EA000000F0B68020
:1040000000200E900F9001200F910E900E99002924
:1040100000F01E820F9914310F910F99096849051C
:10402000CBD5142388F80230D5E798F8110000F0BA
:10403000FE000882C8E90223052088F80200888A69
:104040000C8B80B240EA04405D4C34EA000000F082
:10405000A48000200090019001200191009000991F
:10406000002900F001820199143101910199096838
:104070004F05D6D4A1E798F8110040F0010008825E
:10408000C8E902230B2088F80200888A0C8B80B2D2
:1040900040EA04404B4C34EA00006FD0002004900A
:1040A00005900120059104900499002900F0D68123
:1040B000059914310591059909684D05B1D47CE73E
:1040C00098F813000882C8E90223072088F8020044
:1040D000888A0C8B80B240EA0440384C34EA0000F5
:1040E0005FD000200290039001200391029002997A
:1040F000002900F0C58103991431039103990968DF
:104100004E058ED459E7088820F480600004000C26
:10411000088098F8110000F0FE000882C8E9022328
:10412000102088F80200888A0C8B80B240EA044094
:10413000234C34EA000012D000200C900D90012096
:104140000D910C900C99002900F094810D99143177
:104150000D910D99096848053FF563AF2DE798F873
:104160001330FF2B06D198F810301BB1132388F8B9
:10417000023030E7112388F802302CE7D8F8140019
:10418000012800F09381022800F049820E20098B5B
:1041900088F80200C8E902231DE7062388F80230E8
:1041A00019E7D8F81400002800F07081082388F877
:1041B000023010E700000020010003008400070027
:1041C0008200070002000300088820F40060000459
:1041D000000C0880088880B240F48060088008885D
:1041E00080B240F480700880032088F80200888A3A
:1041F0000C8B81B2AB4841EA0441C8E9022330EAA2
:1042000001037FF4E8AE98F81230002B40F0D38120
:1042100098F81330FF2B00F04682042388F8023010
:10422000D9E6098889053FF5C8AE002388F8023031
:10423000D1E62C4494F80C0D08F0FEFC064694F8E8
:104240000D0D08F0F9FC984AB2F8A03501339BB285
:104250008246A2F8A03516B13368B2881A83BAF143
:10426000000F04D0DAF80030BAF804201A831121C4
:10427000304605F019FD1121504605F015FD4FF0AF
:10428000090965272EB13368B28819690A4240F0DE
:104290002881013F00F022810CF076FB04460D4698
:1042A0000CF072FB001B61EB0501052871F10003A6
:1042B000F6D3E7E7088880B240F4007008804FF634
:1042C000FF3088820121C8E9022388F8021082E6C3
:1042D000D8F81400002800F07281D8F8184014F8BB
:1042E000016B0E8201381225C8E90504C8E90223D2
:1042F00088F802506FE6888A0C8B81B2694841EADF
:10430000044130EA01017FF458AE0A2388F80230F4
:1043100061E6088880B240F480700880092088F83F
:104320000200888A0C8B81B25E4841EA0441C8E9E8
:10433000022330EA01037FF44EAEE6E700240125B4
:104340000A940B940B910A950A98002800F04A8170
:104350000B9814300B900B98006846077FF52DAE34
:10436000D8F81400032800F07281022800F2468178
:10437000088820F480600004000C0880088880B25F
:1043800040F400700880098A88F81C40C8E90223BC
:1043900088F802501FE60020012408900990099136
:1043A00008940898002800F01781099814300990A3
:1043B0000998006847077FF500AEEFF311851020DC
:1043C00080F31288088880B240F400700880D8F822
:1043D00018000E8A471CC8F81870EDB2067085F3F5
:1043E00011880D8AD8F818106FF001004E1CC8F81B
:1043F00018600D70C8E90223C8F8140088F81C4042
:1044000088F80240E7E50020069007900120079118
:104410000690069C002C00F0EB80079C1434079457
:10442000079C246864067FF5C8AD0C8AD8F818107C
:104430004D1CC8F818500C70D8F8141088F81C00DF
:104440000139C8E90223C8F8141088F80200C2E54F
:104450000F9918310F910F990968AEE50599183138
:10446000059105990968A8E501991831019101990B
:104470000968A2E50D9918310D910D9909689CE51F
:104480000399183103910399096896E5088880B269
:1044900040F4007008800121C8E9022388F8021066
:1044A00099E500BF01000300282E0020088820F4B1
:1044B00080600004000C0880EFF31184102080F36A
:1044C0001288088B088880B240F40070E4B208803B
:1044D00084F311880C2188F802105BE616B133686A
:1044E000B2885A830CF050FA04460D460CF04CFA90
:1044F000031B61EB0501052B71F10003F6D316B127
:104500003368B2881A830CF03FFA04460D460CF06B
:104510003BFA031B61EB0501052B71F10003F6D398
:10452000B9F101097FF4ADAE16B13368B2885A8390
:104530000CF02AFA04460D460CF026FA031B61EB38
:104540000501052B71F10003F6D3BAF1000F04D079
:10455000DAF80030BAF804205A830CF015FA044651
:104560000D460CF011FA031B61EB0501052B71F1EF
:104570000003F6D316B13368B2881A830CF004FA3C
:1045800004460D460CF000FA031B61EB0502052BF7
:1045900072F10003F6D3BAF1000F04D0DAF800305C
:1045A000BAF804201A8398F90000441C3FF43DAE89
:1045B000FFF7C2FB39E60F2388F802300BE50888C5
:1045C00080B240F4007008800121C8E9022388F815
:1045D0001C1088F80210FEE4099918310991099914
:1045E0000968EAE40B9918310B910B990968E4E426
:1045F00007991831079107990968DEE4D8F818007F
:10460000098A441CC8F818400170D8F81410C8F87A
:1046100008200139C8F81410C8F80C30DBE4088809
:1046200080B240F400600880EFF31184102080F322
:104630001288088B088820F480600004000CE4B223
:10464000088084F311880D2188F80210A2E50888FB
:1046500020F480600004000C0880EFF31184102027
:1046600080F31288D8F818000D8A461CC8F8186024
:104670000570088880B240F40070E4B2088084F3CA
:104680001188D8F81800098A441CC8F8184001702D
:10469000D8F814100C200239C8E90223C8F8141005
:1046A00088F8020097E498F81030002B3FF4B5AD7D
:1046B0002BE600BF38B5184D9DF814E005EB40140B
:1046C0004FEA401C94F8410500B938BD490084F810
:1046D0005325C4F8543584F851150023049984F8FF
:1046E00050E5022205F5A86584F85235C4F858153E
:1046F00084F85C3584F8422565440CF045F902469F
:104700000B462846FFF728FC94F84235002BF4D1DD
:1047100094F85C0538BD00BF282E002038B5184D30
:104720009DF814E005EB40144FEA401C94F8410555
:1047300000B938BD84F85325C4F85435012200234C
:10474000490005F5A86584F8522584F85C35049A7B
:1047500084F850E5022384F85115C4F8582584F8EC
:10476000423565440CF010F902460B462846FFF727
:10477000F3FB94F84235002BF4D194F85C0538BD76
:10478000282E0020F0B587B00023824A00930193C1
:10479000136843F48033136003E0009BB3F5A04F2C
:1047A00009D0136803F400330193009B0133009395
:1047B000019B002BF1D0774B1B6813F4003318BF1B
:1047C00001230193019B012B01D000BFFDE7714B39
:1047D00071491A6C714842F080521A640A6842F4B6
:1047E00040420A609A689A609A6842F400429A606D
:1047F0009A6842F4A0529A6058601A6842F0807237
:104800001A601A689201FCD5654A40F20571116080
:10481000996821F003019960996841F00201A2F5BD
:1048200080629960936803F00C03082BFAD19368B7
:1048300003F00C03042B00F08C80082B00F08E801A
:10484000584D594BC5F8F43A524BD5F8F41A9A68BA
:10485000564C5748C2F303122A44002692F8202DE2
:10486000D140544AC5F8F41AE260534A596FA26025
:10487000596B524A21F080015963596F41F08071A0
:104880005967196B0A431A635A6B5A639A6B9A6396
:104890001A6C4B490A431A64596C4A4A0A435A64CF
:1048A00002A948F2FF7302934FF6FF770396FFF7D2
:1048B0005FF800F580600297FFF75AF800F5806016
:1048C0000297FFF755F800F58060FFF751F800F503
:1048D0008060FFF74DF800F58060FFF749F800F5BC
:1048E0008060FFF745F800F58060FFF741F800F5BC
:1048F0008060FFF73DF80846FFF7D8F8D4F8FC30A1
:10490000029A3149314843F08073C4F8FC30304B8F
:10491000C3F8B01F5E60196841F001011960D5F855
:10492000F43A4FF47A71B3FBF1F3013BB3F1807FBA
:104930002849B2FBF1F2C0F8A42508D24FF0E022DA
:10494000F0215361072384F823109661136107B0A7
:10495000F0BD144D204BC5F8F43A75E75368516823
:10496000104D13F4800F01F03F01536814BF1A4A31
:104970000D4AB2FBF1F1074A5268C2F30142C3F398
:104980008813013201FB03F35200B3FBF2F3C5F8C5
:10499000F43A59E7003802400070004008544007DC
:1049A000003C0240000000200024F40000ED00E084
:1049B000000002400003FA0500000008FF916700B4
:1049C000FFC9FE103357070055CEACC5282E002076
:1049D000001000E040420F0000127A0082B0064B47
:1049E000002201920193019B03EB80000190019B47
:1049F000196002B0704700BF5028004010B51C205D
:104A000008F01AF91121044605F04EF94CB123685B
:104A1000A2885A83C8200BF0E5FF2368A2881A8376
:104A200010BDBDE81040C8200BF0DCBF704700BFD0
:104A3000704700BF704700BF10B5124C94F8B235F4
:104A400023B9114B4FF480225A6110BD4FF0E02280
:104A5000D2F8103D23F00603C2F8103DFEF774F8BB
:104A600094F8B235002BECD0D4F8B8359B68DB074E
:104A7000E7D5D4F8B426136823F0030161F30703E4
:104A80001360DEE7282E0020003C01402DE9F04FA6
:104A9000B34CD4F8B4355A69D2078BB002D50BB0F9
:104AA000BDE8F08F5A699B6912EA0309F7D0C9F390
:104AB000074319F4002F009340F0E180009B590751
:104AC00043D419F0020F5FFA89F603D0D4F8B43555
:104AD00002225A61B9F1000FC0F2EE8119F4006FA1
:104AE000C9F3072540F04A81330708D59D4B9E48FE
:104AF000D3F83C3D9847D4F8B43508225A61F706FC
:104B000000F1C481EE0600F16F81A90600F1E88092
:104B1000009BDA0609D5934B9348D3F84C3D984750
:104B2000D4F8B4354FF480125A61009B9B06B6D579
:104B30008C4B8D48D3F8503D9847D4F8B4354FF49A
:104B400000125A610BB0BDE8F08FD4F8B825936914
:104B5000D26913401FFA83FABAF1000FB1D0DFF81F
:104B60001882CDF80C90A8F1180500271AF0010F53
:104B700078D0FEB2D4F8B82504EB86031069D3F8D8
:104B8000C015536B8968F340DB01DBB203430B4074
:104B900013F00109D9B240F0AB810A0740F1C88196
:104BA000D8F8002008239360994619F0800F59D057
:104BB000D5E94CC0D5F82431D8F800E0ACEB0001C1
:104BC0008B42DEF8182028BF0B4692B20333B2EBBB
:104BD000930F47D9D4F8B82594F8AB95323604EB47
:104BE0008603CDE90178674698469446874237D9CF
:104BF000D5F82431391A994228BF194601F1030B1F
:104C0000D5F828314FEA9B0BB9F1000F10D18AB2C9
:104C100003329210D8F8B0650AD04846013053F8F4
:104C2000047B37608242F9D1D5E94C70D5F8283140
:104C300008440B44B842C5F82831C5F83401DEF801
:104C400018300AD195F81C11012202FA01F1DCF8A2
:104C5000342022EA0102CCF834209BB29B45C5D314
:104C6000DDE901785FEA5A0A07F1010708F1040853
:104C700005F128057FF47AAFDDF80C9021E7D4F830
:104C8000B8359D69DB691D402D0C3FF417AF04F565
:104C9000B568DFF8D0B004F2FC560027C24608E041
:104CA0006D0807F1010706F1040608F128083FF432
:104CB00005AFEB07F4D5F9B204EB8103D4F8B825BE
:104CC000D3F8FC359B6852691340D807DAB200F17B
:104CD0003F81930740F16781336802229A60DFE7E2
:104CE000D4F8B835D4F8C0159A680868C2F3410200
:104CF000022A06BF032262F30A006FF30A0008606B
:104D00005A6842F480725A6006A8FEF7CFFED4F8C3
:104D1000B425D4F8B815D368079D6FF38D23D360FD
:104D200088681249C0F34100014491F8D01003296A
:104D300000F05F810E490F480126294484F8AA65D6
:104D400081424FF04006A4F8AC6500F2AC810E2120
:104D500061F38D234FF40051D3605161D8E600BF59
:104D6000282E002000000020D0330020BC8507083A
:104D7000401E1BFF3F420F00E833002000238DF848
:104D8000133094F8BA368DF81330B64BB648D3F8D2
:104D9000443D9847D4F8B835D4F8B425986894F8C9
:104DA000B2354FF400615161002B3FF49DAEC20754
:104DB0007FF59AAE94F8BD36012B7FF495AE9DF841
:104DC0001330032B7FF490AED4F8B436A7491A6899
:104DD00042F001021A601A6842F003021A600B697D
:104DE00043F006030B617FE6D4F8B865D4F8B41538
:104DF0007368002723F0010373600597059B43F058
:104E000020030593059B67F38A130593059B0B61AC
:104E10000B690593BC46964B03E00A690592013B7A
:104E200002D0059A9006F8D494F8A92552B1914B76
:104E300003EB820EFF2253F8040F8260D86B734598
:104E40008260F8D10B2363F3070763F3070C4FF07D
:104E5000FF33B3614FF00113F3617761C6F810C0FF
:104E6000336885486FF30A13336094F8AB25D4F8A0
:104E7000FC35012A186100F0B5804FF480534B6176
:104E8000784B7948D3F8403D98473EE6D4F8B4359E
:104E90009A6922F010029A611A6AC2F3434002280A
:104EA00002F00F0100F0B080062800F087809A69B8
:104EB00042F010029A6125E694F8B2353BB1D4F87D
:104EC000B426136823F0030161F307031360D4F8D9
:104ED000B825644B6448D3F8481D536823F0010398
:104EE00053608847D4F8B4354FF000425A61F5E575
:104EF000516BD8F800005B4B4FF0010C0CFA07FC2B
:104F000021EA0C0151630122D3F8343D826031461D
:104F10005548984794F8AB35012B00F0B18019F053
:104F2000020F3FF442AED8F8003002229A6099E6B0
:104F3000CB0604D5D8F8003010229A6092E64806D5
:104F400058BF8946EBD5D8F8003040229A6089E6F0
:104F500094F8AB25336801208242986007D11A6922
:104F6000D8F87C33C2F312029B1AC8F88C33DBF8F2
:104F7000303D5046984794F8AB35012B7FF490AE06
:104F8000002F7FF48DAE94F8B936052B7FF488AEF0
:104F9000D4F8FC35384A1A61384A5A611A684FF019
:104FA00080221A607CE610077FF57AAEDBF8383D88
:104FB00050469847336808229A6071E601EB8101F8
:104FC00004EBC101D4F87866D1F83409C2F30A12AF
:104FD00002443068C4F8740B3068C4F8780BC1F828
:104FE000342964E7254A5A611A684FF080221A6012
:104FF00043E7002184F8AA154FF40071A4F8AC151A
:10500000092161F38D23A5E647F6F07010423FF4C5
:105010004EAFC2F30A1201EB810004EBC00002F1B3
:10502000030C5FEAAC0CD0F82869D4F878E64FEAB4
:10503000810818BF002006D00130DEF8007046F865
:10504000047B8445F8D1414404EBC101D1F828091F
:105050001044C1F82809D1F834090244C1F83429B0
:1050600025E700BF00000020D033002000ED00E065
:10507000400D0300E4330020180008609C39002034
:10508000002F7FF44CAF94F8B936042B7FF447AF70
:10509000D4F8FC352B4A1A612B4A5A611A684FF032
:1050A00080221A603BE72948A5F57401A1F510514B
:1050B000814203D80D2161F38D234BE62449254815
:1050C0002944814203D20C2161F38D2342E6224818
:1050D000A5F18C71A1F54341814203D80B2161F305
:1050E0008D2337E61D491E482944814203D20A21F7
:1050F00061F38D232EE61B491B482944814203D2CC
:10510000092161F38D2325E61848A5F1B771A1F5B2
:105110005851814203D2082161F38D231AE61449C4
:1051200014482944814203D2072161F38D2311E6FB
:10513000114912482944814234BF0621052161F3F7
:105140008D2307E6180008609C390020DFC8100096
:105150002013FBFE20D61300FF69180000D3CEFEFB
:1051600040771B00C05BB3FEC091210040AC27001C
:10517000C01D6AFE40E13300803C36FEE09C4100E9
:105180000378022B12D00E4943680269D1F8180245
:1051900010B41840D1F81042D1F80C12931E400AF6
:1051A00004FB030008445DF8044B7047044B42685D
:1051B000D3E9800100EB410000EB5220704700BFB3
:1051C000FC5900202DE9F84F12F0020E01D0002802
:1051D0003CD08A4DD5F80872002F43D14FF0FF3CE8
:1051E000874CE146E046E24600262768B84200F0D8
:1051F000D98094F80EB0BBF1000F4ED0BBF1010F77
:1052000016D1804F06F5817B07EB0B1B9BF807B08F
:105210001BF0010F0CD11BF07E0F09D15FEADB17E9
:1052200040F0B480D4F808B0D34501D2DA46B14694
:105230000136082E04F11004D7D1BCF1FF3F38D15C
:10524000B8F1FF3F30D06F4CC44633E06B4D95F85A
:10525000B431A5F58054E3B10123637002263046D2
:10526000BDE8F88FD5E9834606FB0744A042B5D3D5
:1052700095F8B43113B9012385F8B431614B01229B
:1052800000265A703046BDE8F88F95F8B431002BEF
:10529000E2D1012385F8B431DEE7B4460136082EA9
:1052A00004F11004A1D1C8E7B9F1FF3F18BFCC4603
:1052B00074D0544CD5F8986004EB0C1841F21809DE
:1052C000013648F8090041F21C090CF5817748F8CD
:1052D00009604FEA0718C5F8986044F8086004EBC5
:1052E00007164FF00008C6F8048004EB0716B679DD
:1052F000042ECAD8DFE806F0031952192F0012F065
:10530000010868D104EB0710D61090F80790032B22
:1053100066F3C71980F807905BD94FF6FF70834298
:1053200028BF034604EB07108380BEF1000F12D0A4
:10533000D5F89830D5F89C0001330130C5F8983085
:10534000C5F89C0004EB0C1041F21C05435104EB22
:10535000071304209871500705D504EB0710C37993
:1053600043F00103C371D30608D504EB0714E379B6
:10537000C3F34502013262F34603E371224B012677
:1053800003EB4C230B603046BDE8F88FB046013686
:10539000082E04F110047FF428AF4EE700263046B3
:1053A000BDE8F88F174C06F5817704EB071C4FEA30
:1053B00007189CF806C0BCF1000F01D1B44679E78C
:1053C000B446D5F89860013644F80860C5F898608E
:1053D0008BE74346A6E70D4BD3F8703D002BDDD09D
:1053E00009495D680A4A01EB4C210023A8470028BF
:1053F000D4D004EB07140223A37130E7FC5900203A
:10540000145A0020FC490020144A0020301D0020BE
:10541000F90D000870B5104E3378022B0F4B0BBFFF
:10542000020AC0F3D412C4B200F07F04D3F8000221
:1054300082B010440D460023032201A9FFF7C2FEEB
:10544000012807D13378022B019B0CBF23F814509D
:1054500043F8245002B070BDFC490020FC590020E4
:105460002DE9F04FDFF82C8198F80060032E85B00D
:105470000C46154643D001288CBF00220122022E83
:105480000B68019269D14FEA1329DFB24FF4807A99
:105490000138012820D84FF0010B9D4217D93C4E0E
:1054A000D6F878211AB1D6F89411994258D0D6F886
:1054B000000200234844092203A9FFF783FE0128C4
:1054C0002CD0022817D020B123689D42E8D825604F
:1054D000032005B0BDE8F08FF7B12D4B93F8B42150
:1054E00012B9012283F8B4210123022088F8013087
:1054F00005B0BDE8F08F022005B0BDE8F08F0128AF
:105500008CBF0023012301930B684FF0800AC3F383
:10551000D41903F07F07BBE7D346BEE798F8002015
:105520000399DDF804C0022A14D0032AE3D151F80C
:10553000273023F07043B3FA83F35B0963455F447C
:10554000236821D05B4457452360ECD309F101095E
:105550000027BAE731F81730EDE74FF4807AD6E745
:10556000D6F81012013A02EB41224902B2FBF1F2E5
:105570001344B3FBFBF20BFB12320AB15B449B1AE0
:105580009D4223608CD8A2E7AB42A2D39FE700BF25
:10559000FC590020FC4900202DE9F04FDFF86CB1E8
:1055A0009BF800C0BCF1020F894683B009688246AF
:1055B000174640F08C800BF58053CEB2D3F80052E2
:1055C000A6EB010805EB112590444FF48073984435
:1055D000B94208F1FF38B8FBF3F84CD2A844BCF14B
:1055E000030F07EB06040CBF80224FF48072641A8D
:1055F0009442A8EB050328BF144666B994422CBF19
:105600000A220B2201A92846FFF7DCFD012809D058
:1056100003B0BDE8F08F0B2201A92846FFF7D2FDA9
:105620000128F5D19BF800C0D9F80010BCF1020F99
:1056300001F1010323D0B44210D9019906F180424F
:10564000013A01EB8202043901EB840142F8043F84
:10565000914203F10103F9D1D9F80010A61B31449E
:10566000BAF1010FC9F8001021D08F4205F10105F0
:105670004FF00006B3D8012003B0BDE8F08FB4426C
:10568000ECD9019806F10042013A00EB42020238DF
:1056900000EB440022F8023F904203F10103F9D1EC
:1056A000A61B3144BAF1010FC9F80010DDD1B9428F
:1056B000DBD1BCF1020F1DD004F18044019B013C01
:1056C0004FF0FF3243F82420D9F80010CDE70BF556
:1056D000805301F07F06D3F80032BCF1030FC1F311
:1056E000D415A6EB01081D44904414BF4FF48073F9
:1056F00080236CE704F10044019B013C4FF6FF72EC
:10570000504623F8142003B0BDE8F08FFC49002078
:1057100030B50446C06983B010B9012003B030BD74
:105720000D460023032201A9FFF74CFD0128F5D106
:10573000B4F92030002B0ADA144B93F8B4210AB9DB
:1057400083F8B401124B01225A700220E6E7019A55
:10575000012D4FEA431102EB431303D0022D11D167
:10576000E5255554A268DA612278032A04D1002283
:105770001A775A779A77DA77626A5A83120C9A8282
:1057800003B030BDE268DA61EEE700BFFC590020EB
:10579000FC4900202DE9F04190F83C30002982B00E
:1057A000044614BF02210021042B7BD8DFE803F05C
:1057B000030C3D486900FFF7ABFF012870D1626B15
:1057C000002A75D184F83C00404EDFF808814FF67E
:1057D000F77706F5805516E0BA424FD867F00AF918
:1057E00001284FF000011DD1206BFFF713FE0128A7
:1057F00018D1019AD5F814122263531E8B4228BF88
:105800000B46C5F814323278236B032A01A91846D7
:105810009AB2E1D1434531D867F0ECF801284FF056
:105820000001E1D002B0BDE8F081426B04F130012B
:105830000020FFF7B1FE012832D1032384F83C3069
:105840002348E16AD0F89431D0F81022C0F89411BE
:105850005B1A02FB03F3D0F8782102EB4322C0F875
:105860007821D0F87C2102EB4323C0F87C31002161
:1058700000F5B870FFF74CFF012811D1042384F81C
:105880003C3094F82830042B04BF002384F82830DF
:10589000A36B8BB120469847012002B0BDE8F08190
:1058A0000228BFD194F82830042B09D00220B9E790
:1058B000022384F83C30B9E7012002B0BDE8F08152
:1058C000002384F828300220ACE700BFFC49002008
:1058D000FC590020F7FFFF0F38B590F8343004462C
:1058E000052B43D8DFE803F01E033C0F185E006B66
:1058F0004FF0FF31FFF78EFD012837D1E06AB8BBCA
:10590000032384F8343000212046FFF701FF0128EB
:105910002CD1042384F8343094F82830082B2BD071
:10592000012038BD204DD5F8082200F130010232A7
:105930000120FFF795FD012823D00238C0B20128CD
:1059400014D8052384F8343094F82830082B04BF89
:10595000002384F82830012385F8B531022038BDB2
:10596000C06A216BFFF756FD0128C9D0002038BD61
:10597000022384F83430F4E7002384F8283001202F
:1059800038BDE368D5F81012D4E90B2003EB4123AE
:10599000C5F81402C4E9033002B96062012384F837
:1059A0003430A5E7004DCFE7FC59002010B590F842
:1059B00038300446032B4DD8DFE803F0022F38437C
:1059C0002B4AC068117802F580530329D3F81012CE
:1059D000D3F894210CBF4FF0800C4FF4807C01FB76
:1059E0000CF100EB4120C4E90302D3F87801A0EBED
:1059F0004120C3F87801D3F87C01A0EB4121E06A93
:105A0000C3F87C1102EB0C01C3F89411C4E90C211A
:105A100048BB6262012384F8383016480021FFF742
:105A200077FE012811D1022384F83830626B04F12B
:105A300030010120FFF7B0FD012806D1032384F8CF
:105A4000383000212046FFF763FE431EDBB2012BF6
:105A500001D910BD022094F82830062B04BF002382
:105A600084F8283010BDA2EB0C022263D2E700BFFD
:105A7000FC4900206C5B00202DE9F0434368C3F330
:105A800008020A44B2F5007F83B004460D4605D2F1
:105A90002B446360012003B0BDE8F08390F91A2025
:105AA000501C0AD0444902F5817201EB0212D179EF
:105AB0006FF30001D171FF22A27694F91B20511CD3
:105AC00016D03D4802F5817100EB011200EB011187
:105AD000D279C879C2F34502012A86BF02F1FF32AA
