:020000040800F2
:100000000000011099CC0708692B0008AD87020891
:1000100039CD070839CD070839CD070800000000A1
:10002000000000000000000000000000594A000825
:100030005D4A000800000000614A000895040108BC
:1000400039CD070839CD070839CD070839CD07085C
:1000500039CD070839CD0708B9CB0008BDCB00085A
:1000600039CD0708C1CB0008C5CB00086D320008A8
:100070008132000895320008A9320008BD3200081C
:10008000D1320008E532000839CD070839CD07081C
:1000900039CD070839CD070839CD0708C9CB000885
:1000A00019310008413100086931000805310008A4
:1000B00091310008A5310008B931000839CD070891
:1000C00039CD070839CD070839CD070839CD0708DC
:1000D00039CD0708ED2C0008F92C000839CD0708A8
:1000E000CDCB000839CD0708654A0008F531000876
:1000F0001D32000845320008E1310008F9320008DD
:1001000039CD07080D370008CD31000839CD070873
:10011000052D000839CD070839CD070839CD070866
:100120000D33000821330008353300084933000837
:100130005D33000839CD070839CD070839CD0708E8
:1001400039CD070839CD070839CD0708B14A00086D
:10015000713300088533000899330008112D000819
:1001600039CD070839CD070839CD070839CD07083B
:1001700039CD070839CD070839CD070839CD07082B
:0801800039CD070839CD07084D
:10019000D0E907239A423CBFC1685218D01A704771
:1001A000D0E9092300699A4238BF1218D31A0138DE
:1001B000C01A7047D0E90902101AB0FA80F040095D
:1001C000704700BF0246036A4069D168C05C0133D2
:1001D0008B4228BF00231362704700BF436A8269C5
:1001E000D154436A0169426B01338B4228BF00231B
:1001F0004362D36843F08003D3607047436B188831
:1002000010F0100002D01A889B880120704700BFB0
:10021000436B99891A88890610B504460AD592B2AB
:10022000900607D5E26A002A2AD09888216B80B20E
:100230009047636B99891A88090692B210D5100607
:100240000ED5D4E909128A4215D0A1692069895CCA
:100250000132C9B29980B2FBF0F100FB1122A26217
:10026000998A1A88C90592B204D5D20744BF4FF6BD
:10027000F7721A8010BDDA6822F08002DA60EFE7C8
:100280009B88E2696169DBB28B54E269E168636B68
:100290000132B2FBF1F001FB1022E261CAE700BFBC
:1002A000036942681F2B10B40AD95468A3F1200CCB
:1002B000202101FA0CF1214207D15DF8044B70476F
:1002C0001468202199402142F7D081690024C86830
:1002D0000C7480684C68016821F00101016020689D
:1002E00094F805C00C4C818934F81C4089B221EA8D
:1002F00004011F2B818107D9A3F1200120238B400A
:100300005DF8044BD3607047202101FA03F35DF8D8
:10031000044B9360704700BF683E08084A1C10B445
:1003200018BF4FF0450C494C08BF4FF0800C4FF4FC
:10033000003300E00BB3626B12EA0C0F03F1FF33E2
:10034000F8D0002924DD626B54071DD403291FD087
:100350003E4B5A6BD2071FD402291BD01A69D2B266
:1003600082421DD101295B691CD0062912D113F4E8
:10037000604F43D1364A13600CE0002904DD636B03
:100380005B0701D40329E3D103205DF8044B7047D8
:10039000002BF9D00020F8E701205DF8044B7047EE
:1003A0001020F2E72B4A1A40002AF3D0002B31DB51
:1003B0005C002DD4980031D4D9002DD41A0131D449
:1003C0005C012DD4D80137D419021DD45A02E7D4C8
:1003D0009C022DD4D80229D4190317D45A0323D44C
:1003E0009C0331D4D8032DD4190429D45A0425D41C
:1003F0009C041FD41807CDD51A20C6E7990405D44C
:100400005A04CDD41B04C5D50F20BEE71320BCE78A
:100410000920BAE71C20B8E70B20B6E70A20B4E7AA
:100420000D20B2E70C20B0E71420AEE71220ACE7B5
:100430001120AAE71920A8E70E20A6E71820A4E7B4
:100440001720A2E71620A0E715209EE7002C014008
:100450001020002008E0FFFDF8B5154DEB6A93B1C0
:10046000696B0129044614D0124BDA6A22F00802A3
:10047000DA6240F2FF5100229963EA62236823F0B6
:1004800001032360F8BD0B4AD36B43F48073D3633D
:10049000F8BD084E40F2FF570023B763B36040F247
:1004A0004C43F3600C20FFF739FFB763DCE700BF74
:1004B00010200020002C0140B14BD3E9011270B58F
:1004C0008C0F83F83840C1F3836483F83940C1F35B
:1004D000016483F83A40100EC1F3074483F83B40AF
:1004E0000001C1F30724C9B283F83C4083F83D10F2
:1004F000D887D98F93F89050C2F3035089B2014343
:10050000C2F30344D987C2F3C03083F84040C2F33A
:100510004031C2F3803483F84100012D83F842401A
:100520004FF0000083F84310C2F3003183F8441009
:10053000C2F3072CD96883F8450040F2D680022D1B
:1005400000F0B0802A204FEA4C0C0CF07E0C83F8AF
:10055000514083F852C093F85240C1F3C012144383
:100560001A6983F8524001F07F01D40F83F85310C9
:1005700083F85440910DC2F3417483F8554001F063
:100580000C01C2F3826483F8564083F8571093F845
:100590005710C2F381542143C2F3405583F85710DA
:1005A00083F85850002583F85950C2F3004583F86A
:1005B0005A50C2F3C03583F85B50C2F3803583F8DC
:1005C0005C50C2F3403583F85D505C69C2F300357E
:1005D00083F85E50C2F3812583F85F50C4F307416E
:1005E000C2F30125C2F3460283F860504FF0010CBC
:1005F00083F861200902220E83F862C083F8642028
:10060000A3F86610B3F86610C4F3072289B2114349
:100610002406A3F8661099699C669A6E0C0E42EA4D
:1006200004429A669C6E0A0A02F47F4222439A664A
:100630009D6EDA69C1F307242C43C9B29C6683F826
:100640006C10110E83F86D10110C090619671C6FE0
:10065000110201F47F0121431967196F120292B24E
:100660000A431A67196F1A6A41EA1261196793F807
:100670007410C2F30354214383F87410110A01F477
:100680007061A3F87610B3F87610C2F3072489B22C
:100690002143C2F34602A3F8761083F8782083F84A
:1006A00079C070BD120402F47C129A649A6C0C0E2C
:1006B00042EA04229A649C6CC1F3074222439A6482
:1006C0009A6C013240F10004A40244EA925492026E
:1006D000C3F880204FF40072C3F88440C1F3072CA4
:1006E000C3F88820C1F380342DE74FEA8C2C0CF43A
:1006F00040649C649C6C920002F47F7222439A6472
:100700009D6CC1F3C26445EA91759D6483F84C40C9
:10071000C1F3026483F84D40CA0BC1F3425483F81D
:100720004E4002F00602C1F3824483F84F4083F842
:10073000502093F85020C1F3C034224383F8502056
:100740009D6C93F8504093F840600234012202FA05
:1007500006F6A2404FEAE27EA2FB062406FB0E4408
:1007600005F1010EA2FB0E2E05FB04447444C3E9FF
:100770002024C1F3072CC3F88860C1F38034E2E67B
:100780001020002038B50D4B0D4C1A6840F2FF5573
:1007900040F24D43A5630121A2600D20E360FFF705
:1007A000BDFDA56340B96069C0F34320A0F104001A
:1007B000B0FA80F0400938BD002038BD102000207C
:1007C000002C01402F4B1A68910102D59A6D5207F7
:1007D0004BD42C4B1A68500202D5DA6E11063CD469
:1007E000284B1A68D20102D59A6D90072DD4254B5B
:1007F0001A68510102D59A6D120717D4214B1A6855
:10080000120112D59A6DD0060FD59A6D510334D4CA
:100810009A6DD20503D49A6D22F010029A65194B95
:1008200019484FF000629A6016E670479A6D5003BF
:1008300007D49A6DD10503D49A6D22F008029A6507
:10084000104B4FF080629A60D8E79A6D4FF080713C
:1008500022F002029A659960C9E7DA6E4FF48001CE
:1008600022F08002DA669960BAE79A6D4FF0007163
:1008700022F004029A659960ABE74FF000629A603B
:10088000704700BF0064024058640240384B5A6809
:10089000110303D5D3F8A02052075BD4344B5A6818
:1008A000D00303D5D3F8B420110649D4304B5A688D
:1008B000520303D5D3F8A020900737D42C4B5A68A5
:1008C000D10203D5D3F8A02012071CD4284B5A68B4
:1008D000920217D5D3F8A020D00613D5D3F8A020C4
:1008E000510341D4D3F8A020D20505D4D3F8A020D9
:1008F00022F01002C3F8A0201D4B1E484FF4001236
:10090000DA60A9E57047D3F8A02050030AD4D3F8E1
:10091000A020D10505D4D3F8A02022F00802C3F806
:10092000A020134B4FF48012DA60CFE7D3F8A02059
:100930004FF4802122F00202C3F8A020D960BDE765
:10094000D3F8B4204FF4803122F08002C3F8B420F1
:10095000D960ABE7D3F8A0204FF4002122F00402C5
:10096000C3F8A020D96099E74FF40012DA6070470D
:1009700000640240A064024082B00922274B8DF837
:100980000720DA68D00319D4DA68D10640D4DA68CF
:10099000D20541D4DA6812F0E00F3BD1DB6813F0E6
:1009A000020F0CBF092308238DF807309DF807308C
:1009B000012B0AD09DF8070002B0704701238DF883
:1009C00007309DF80730012BF4D1144A12E0D368A8
:1009D000DB0519D4D36813F0E00F17D1D36813F0F7
:1009E000020F0CBF092308238DF807309DF807304C
:1009F000012BDFD1D168C8034FF00103F4D4D368D1
:100A0000D906E4D50623EFE70223EDE70723EBE75A
:100A10000623D4E70723D2E70223D0E7003C0240B5
:100A2000704700BF704700BF704700BF012070478C
:100A3000034BD3E92503C01AC0F30A00704700BF77
:100A400010200020064AD2E925139942FDD0D11882
:100A50000133C3F30A0391F89C00C2F89830704741
:100A600010200020064BD3F89C0800B97047D3F83B
:100A70009C08A0F10500B0FA80F04009704700BF63
:100A800010200020012380F849307047044BD3E93F
:100A90002503C01AC0F30A00C0F50060704700BF0C
:100AA0001020002010B5D0F8E83504461B6998479F
:100AB000032384F81231002010BD00BF08B50422C2
:100AC00090F81211D0F8E83580F8131180F812214F
:100AD000DB689847002008BD08B5D0F8E435DB692D
:100AE00003B19847002008BD08B5D0F8E4351B6A6B
:100AF0009847002008BD00BF08B5D0F8E4355B6A10
:100B00009847002008BD00BF70B5037805460E4623
:100B10001446DBB101307BF03BFA431CDBB20133FE
:100B20005B00DAB223800323327073702C7864B1D7
:100B30002846022300215A1CD2B2F454B15410F8B2
:100B4000014F0233DBB2002CF5D170BD02221346F7
:100B5000E8E700BF10B5074C2068FF2808D0064919
:100B6000D1F8A02801F6A40100F082F8FF23236049
:100B7000002010BD00000020102000204323014869
:100B80000B80704704000020122301480B8070473F
:100B900048000020042301480B8070475C000020BF
:100BA00010B5044C04480A462146FFF7ADFF204625
:100BB00010BD00BFBC2800205CE5080810B5044C3F
:100BC00004480A462146FFF79FFF204610BD00BF9C
:100BD000BC28002070E5080810B5044C04480A46FB
:100BE0002146FFF791FF204610BD00BFBC28002022
:100BF00078E5080810B5044C04480A462146FFF77A
:100C000083FF204610BD00BFBC28002084E50808F3
:100C100010B5044C04480A462146FFF775FF2046EC
:100C200010BD00BFBC28002090E50808704700BF39
:100C3000704700BF704700BF704700BF704700BFDC
:100C4000704700BF704700BF044B00200522C3F867
:100C50009C28C3F8AC09C3F8B009704710200020E5
:100C6000024B0020C3F89C08704700BF10200020F2
:100C7000212838B50C4625D0222816D0202812D19C
:100C800089B1072A0FD1174DD5F8B03913B10968CA
:100C9000002098472168A288A379C5F8B419A5F85F
:100CA000B82985F8BA39002038BD0029FBD0022ABE
:100CB000F9D10C4BD3F8AC39002BF4D009880020C3
:100CC0009847F0E70029EED0072AECD1054BD3F87E
:100CD000B419B3F8B82993F8BA392160A280A37186
:100CE000E1E700BF1020002010B4114CD4E92532F8
:100CF0009A1AC2F30A020A44B2F5006F14D879B105
:100D000001444A1E013810F801CFE118904203F166
:100D1000010381F89CC0C3F30A03F4D1C4F89430F2
:100D200000205DF8044B704702205DF8044B7047CB
:100D300010200020034B93F8E009003818BF012071
:100D4000704700BF1020002070B5124D124C29686A
:100D500040F2FF5640F24D430022A6630D20A160F1
:100D6000C5F8DC290121E360FFF7D8FAA66320B9B2
:100D70006369C3F34323042B08D0D5F8143AC5F8AC
:100D8000D039092385F8E039002070BD85F8E039B5
:100D9000022070BD10200020002C014070B50E4DC7
:100DA00095F8E039042B04460E460BD0082B07D1EA
:100DB000D5F8D83983420CD0FFF7C6FF022801D0FE
:100DC000012070BD082385F8E039C5F8DC69C5F855
:100DD000D849022070BD00BF10200020034B93F8BB
:100DE000E009032894BF0020012070471020002054
:100DF00000487047F429002030B4184B00209C7B39
:100E000014B11D688D4206D00130082803F110038B
:100E1000F5D130BC7047D2B1114B03EB40218A426F
:100E200011D0104B93F8B42112B9012283F8B421E8
:100E30000D4B01225A7000F5817003EB0013012263
:100E40009A7130BC7047022CEBD1183BF3E7064B8C
:100E500000F5817003EB00139A71DAE794600020CB
:100E6000945000207C6000207C50002030B41D4C49
:100E7000002384F8A03004F1180004E00133082BAB
:100E800000F110001ED005688D42F7D190F80EC019
:100E9000BCF1030FF2D1BAB1134901EB43208242F6
:100EA00009D094F8B42112B9012284F8B4210F4971
:100EB00001224A7000E0183903F5817301EB031138
:100EC00001238B7130BC70470849D4F89C2003F58E
:100ED000817301EB0313013204219971C4F89C2042
:100EE000F0E700BF7C600020945000207C50002080
:100EF000A8B183681BB10E4B07229A7070470C4A49
:100F00001178D36003294FF0040014BF4FF48071AF
:100F10008021C2E901111361137590707047044A72
:100F200002F580510123537081F8B431704700BF3E
:100F30007C50002010B58121044679F075FE2046D2
:100F4000012179F071FE2046822179F06DFEFFF7D4
:100F500087FE002010BD00BF034610B4D9691A698E
:100F6000002040F20114A3F844410860D1699C6D4F
:100F700021F002014FF0010CD161A3F89CC3206065
:100F8000D369044923F4003381F8180A5DF8044B4F
:100F9000D361704710200020202301480B80704748
:100FA00060000020122301480B8070478000002061
:100FB000042301480B807047940000200A4608B5BE
:100FC000054920B90548FFF79FFD034808BD0448BF
:100FD000FFF79AFD004808BD2C2A0020A0E508086C
:100FE000B8E5080810B5044C04480A462146FFF746
:100FF0008BFD204610BD00BF2C2A0020D0E508083C
:101000001C48D0F8E837D0F8EC2710B59B184FF003
:101010001A040C8001D1184810BD174AD0F8EA070D
:1010200002F1100411464FF0000E4FEA137CB3F1A9
:10103000204F34BF0CF1300C0CF1370C81F802C09A
:1010400081F803E002318C424FEA0313EDD102F143
:1010500008040021030FB0F1204F34BF3033373381
:101060009374D174023294424FEA0010F2D10248D4
:1010700010BD00BF00F0FF1F9800002010B5044C09
:1010800004480A462146FFF73FFD204610BD00BF39
:101090002C2A0020E4E5080810B5044C04480A4650
:1010A0002146FFF731FD204610BD00BF2C2A00204D
:1010B000F0E5080810B50E4C0E4BD4F8F41BB4F84C
:1010C000F80B088303F1B402C4F8682DD3F8B430E8
:1010D0009847D4F8683D002BFBD01B69984700283F
:1010E000F7D0D4F8F43BB4F8F82B5A83002010BDA5
:1010F000102000200000002038B5084BD3F8683DD0
:1011000053B1DB6914460D4698474FF400730268EB
:101110002A600020236038BD1B68FFDE10200020FD
:1011200008B5064BD3F8683D23B11B6998470138D1
:1011300040B208BD4FF0FF3008BD00BF10200020B6
:10114000002070472DE9F041184CD4F8B80B154633
:10115000B4F8BC2B428323B30E4603EB050804E02E
:10116000D4F8683D0BB31B699847D4F8681DE1B10A
:1011700000234F681A4631462846B8470028EFD06A
:10118000D4F8683D002BFBD01B6998470028F7D0A6
:101190000135A84506F50076E7D1D4F8B80BB4F8C8
:1011A000BC2B02830020BDE8F081FEE71020002068
:1011B0002DE9F041184CD4F8B80B1546B4F8BC2B07
:1011C000428323B30E4603EB050801E01B699847F1
:1011D000D4F8681D51B10023CF681A46314628461D
:1011E000B847D4F8683D10B1002BEFD1002313B1FC
:1011F0001B69984710B9D4F8683DF8E701354545B3
:1012000006F50076E4D1D4F8B80BB4F8BC2B028311
:101210000020BDE8F08100BF10200020A14A5368E3
:1012200023F4FD4323F07F032DE9F04143F07603DF
:1012300053605368032123F48073536082B01160BC
:101240000FF074F904460D460FF070F9001B61EBC6
:101250000501B0F57A7F71F10001F5D30FF066F961
:1012600004460D460FF062F9001B61EB0501B0F575
:101270007A7F71F10001F5D38A4C6368002040F257
:10128000FF5543F480734FF4806263604FF0FF3189
:10129000A563A060E260FFF741F8A563074618B1B7
:1012A000012002B0BDE8F0814FF4D5724FF489639C
:1012B000A5630721A2600820E360FFF72FF8A5636C
:1012C00028B9794B012283F890204FF08047754C64
:1012D00040F2FF55002240F27743A5630121A2604E
:1012E0003720E360FFF71AF8A5630028D8D147F04C
:1012F00000470646804647F4801701E09642CFD06B
:1013000040F27743A5630121C4F808803720E360E9
:10131000FFF704F8034640F2694203212920A56340
:10132000002BBDD1A563A760E260FEF7F7FF013691
:101330004FF6FF72A5630028B2D16369002BDDDA96
:101340004FF6FF729642ABD05D0000F1B380236888
:101350009807A5D0544D95F89060042E40F0B280C7
:10136000FFF7AAF800289BD14E4C2B6840F2FF579C
:10137000A763A36040F24743E36001210720FEF723
:10138000CDFFA763636823F4FD4323F07F0363600D
:10139000002885D1022E83D8636913F000737FF48F
:1013A0007FAF009308264FF48A63A7630121A660EC
:1013B0001020E360FEF7B2FFA76300287FF470AF50
:1013C0002B68A763A36040F27743E36001213720D5
:1013D000FEF7A4FFA76300287FF462AF334A62627E
:1013E000A662E26A42F03302E26240F27342A7630D
:1013F0000121A060E2603320FEF790FFA763002880
:101400007FF44EAF6B4640F22A4206E0616B8902E0
:1014100044BFD4F8801043F8041B616B1142F5D02F
:10142000636B1B073FF53CAF636B9F073FF538AF1E
:10143000636B9E063FF534AF636B98023FF530AFA8
:10144000009B1BBA59037FF52BAF2A6840F2774304
:1014500040F2FF55A5630121A2603720E360FEF74B
:101460005DFFA56300287FF41BAF022240F24643D4
:10147000A5630121A2600620E360FEF74FFFA5638C
:1014800000287FF40DAF63681A0509D4054A08499E
:1014900053680B4043F40063536053681B05F7D552
:1014A0000020FEE6002C01401020002000E1F505A0
:1014B0000081FFFF274D022685F8906023689C0776
:1014C0003FF4EEAE244C40F2FF570023A763022105
:1014D000A36040F2C243E3600846FEF71FFFA76324
:1014E00000287FF4DDAE63696B61A369AB61E369DA
:1014F000EB61236A2B62022E1BD9062E19D0164CE3
:101500002B6840F2FF57A763A36040F2C943E36032
:1015100002210920FEF702FFA76300287FF4C0AE76
:1015200063696B60A369AB60E369EB60236A2B615D
:1015300016E7094C40F2FF570023A763A36040F26F
:101540004343E36006210320FEF7E8FEA76300287B
:10155000D5D0A5E610200020002C014010B5104C7D
:10156000D4F80C3A43B119689A880B691A4203D12E
:10157000002384F8E03910BDFFF750FE0028F7D1B2
:1015800094F8D4390133DBB2072B84F8D439EFD87F
:10159000D4F8143AC4F8D039012384F8E03910BDE6
:1015A00010200020F8B5A04CD4F8100A002800F054
:1015B0001D8194F8E0596B1E082B1ED8DFE803F05C
:1015C0006B056F1D4DB63E1D2600984E236840F2F8
:1015D000FF57B763B36040F24D43F36001210D2024
:1015E000FEF79CFEB76328B97369C3F34323042B4A
:1015F00000F0C18094F8E0596B1EDBB2022B40F280
:10160000AD80042D40F0B1800120F8BD874D2268E7
:1016100040F2FF5640F24D43AE630121AA600D2017
:10162000EB60FEF77BFEAE6368B96B69C3F34323DF
:10163000042B08D1042384F8E039E5E7FFF7A2F88A
:10164000002840F0D680D4F8D039D4F8142AFA33E0
:101650009342CFD2FFF782FFABE7E66A002E40F05D
:10166000AF80FFF78FF8002800F0B180D4F8C85998
:1016700084F8D469042384F8E039002DC4D0D4F868
:10168000CC39D4F8BC29D4F8C0193046A84794F80E
:10169000E0596B1EB1E7022384F8E03989E7FEF7D1
:1016A0000BFF00285AD194F86420B4F86630A4F8EF
:1016B000E839A16EA36EC4F8DC09090E04201B0CE6
:1016C00084F8EA2984F8E009A26E84F8EB1984F81A
:1016D000EC39A16E94F86C0094F86D3084F8EE1932
:1016E000120A1B0984F8ED2984F8EF0994F86D209B
:1016F00084F8F439216FB4F87600B4F87630C4F881
:10170000F01902F00F02C3F30B1384F8F52943EA32
:101710001023B4F8762003F00F0303F5FA6302F008
:101720000F02A4F8F63984F8F82942E7236BE3B9ED
:10173000D4F8C869D4F8143AC4F8D039072584F825
:10174000E05996B1D4F8CC39D4F8BC29D4F8C019F2
:101750000120B04794F8E0596B1E4EE7D4F8143AD4
:10176000D4F8D0299B1AC82B25D8A5F10800B0FAC7
:1017700080F04009F8BDFEF79FFE00287FF43AAFE5
:1017800094F89030002BA3F10203B3FA83F308BF5F
:1017900001255B0984F8D55984F8D639FEF78CFE0B
:1017A00000287FF457AFD4F88020C4F8E42903233D
:1017B00084F8E039FDE6FFF7D1FE94F8E05920E720
:1017C000D4F8D039D4F8142A64339342CDD2FFF739
:1017D000C5FED4F8C859002D3FF4EBAE0022D4F872
:1017E000CC39D4F8C0191046A847E2E684F8E009DD
:1017F000F8BDD4F8DC390022012B84F8D4290BD9A8
:10180000D4F8D8290825013B0132C4F8DC39C4F8E2
:10181000D82984F8E059A8E77FF40CAFFFF794FAD1
:1018200094F8E0596B1EE8E610200020002C0140DF
:101830002DE9F0411F4E80460B4696F86C2D002A8C
:10184000FBD19BB343445F1E08F1FF38D6F8703DCF
:10185000D6F8742D0133C3F30A039A4216D10EF061
:1018600065FE04460D460EF061FE001B61EB0501AE
:10187000B0F57A7F71F10001F5D3D6F8703DD6F856
:10188000742D0133C3F30A039342E8D0D6F8702DC8
:10189000D6F8703D18F8011F32440133C3F30A0330
:1018A000B84582F8781DC6F8703DCFD10020BDE85C
:1018B000F08100BF1020002010B50A4CD4F89C38ED
:1018C00003B910BDD4F89C38052BFAD1002A08467C
:1018D000D4F8143A1146F4DDFFF7AAFFD4F8143A0D
:1018E00010BD00BF1020002090F84820531C024477
:1018F000DBB280F8483082F8341090F8492052B1B9
:10190000132B0CD9002280F8482010B50B4CD4F8CA
:101910009C282AB910BD80F84820002BF5D17047CB
:10192000D4F89C28052AF5D119463430D4F8143A55
:10193000FFF77EFFD4F8143A10BD00BF102000203E
:1019400090F848100023A0F8483001B9704710B54E
:10195000084CD4F89C381BB1D4F89C38052B00D027
:1019600010BD3430D4F8143AFFF762FFD4F8143ABB
:1019700010BD00BF102000202DE9F047534E1F4638
:1019800006EB80039C68002C00F09B8004F13E0372
:10199000A36104F59F73E3614FF48073C4E90433DA
:1019A0002836236866600546E16094F83D00A3632D
:1019B00091460BF0D7F9804694F8440294F83CA085
:1019C000261D002851D194F8450250BBD4F840326E
:1019D0006BBB3A0731D419F0020F49D119F0010F4E
:1019E0005AD1D4F8483294F9471294F847221B018F
:1019F0000029DBB20DDB3649881880F80033500926
:101A0000012302F01F02934041F820303046BDE828
:101A1000F087304902F00F02114430460B76BDE8E2
:101A2000F08776F019FBD4F84032002BD1D02A4A47
:101A3000116B0B4313633A07CDD50135EDB2B8F105
:101A4000000F05D040F2067388F80850A8F8063059
:101A5000FB0694F846222FD417F0200F0CBF32213A
:101A6000122140460BF042F9BBE776F0F5FAAAE7FF
:101A70006B1CDBB2B8F1000F05D088F8083040F2DB
:101A80000653A8F8063094F84622404602210BF08F
:101A90002DF919F0010FA4D050460BF063F9013570
:101AA000EDB218B140F20663C380057294F8462285
:101AB00002210BF01BF994E7022140460BF016F9C6
:101AC0008FE726463046BDE8F08700BF683E08082D
:101AD00000E100E0FCEC00E0003802402DE9F047B6
:101AE000038A8489A4B21C4082B047D081468846CC
:101AF0004FF0004501F14C0701F13406B4FA84F3CC
:101B000025FA03F2D24391B2A9F8101014401B3BFE
:101B1000B8F1000F5FD0042B2ED8DFE803F0524855
:101B20003D320300D8F80C30D9F82CA033B19B68B3
:101B300023B11FFA8AF108F104009847D8F824303D
:101B400033B19B6823B11FFA8AF108F11C00984752
:101B5000D8F83C3033B19B6823B11FFA8AF108F101
:101B600034009847D8F8543033B19B6823B11FFA3A
:101B70008AF108F14C009847002CBFD102B0BDE8B3
:101B8000F087D8F80C30D9F834105B6808F10400FD
:101B90009847002CB2D1F1E7D8F82430D9F83810A2
:101BA0005B6808F11C009847002CA7D1E6E7D8F83D
:101BB0003C30D9F83C105B6830469847002C9DD1EA
:101BC000DCE7D8F85430D9F840105B6838469847BD
:101BD000002C93D1D2E7042B07D8DFE803F01903D8
:101BE000140F0A00D9F83C300193019B002C85D1D9
:101BF000C4E7D9F82C300193019BF7E7D9F83430CA
:101C00000193019BF2E7D9F838300193019BEDE78E
:101C1000D9F840300193019BE8E700BFF8B5264CA6
:101C200094F86C2D012A034603D0022A09D0002023
:101C3000F8BD224ED6F880548DB984F86C5D002032
:101C4000F8BD002540F20112C0E95455C0E95655CF
:101C5000A0F8442100F5A27179F0E2F8EDE7402DFB
:101C600020D94027D4F8741D154AC3F858710A4486
:101C7000C3E9542240F20112A3F844210022C3F820
:101C80005C2103F5A271184679F0CAF8D4F8743DC6
:101C90003B44ED1BC3F30A03C4F8743DC6F88054FB
:101CA0000020F8BDAAB2402A01D02F46DAE702226E
:101CB00084F86C2DD5E700BF1020002008310020EB
:101CC000882D002001EB810138B500EBC1010F4DDB
:101CD000B1F88C1304462846FFF706F8E378C4F8F9
:101CE000A853012083424FF000024FF04001C4E9A5
:101CF000EC12A4F89C0304F56771204608BFC4F8F1
:101D0000AC5379F08DF8002038BD00BF8C35002031
:101D1000F8B52A4CD4F8C4340F2B04D05A1CC4F89C
:101D2000C4240020F8BD264D95F86C3D0022C4F86F
:101D3000C424002BF5D1D5F8742DD5F8703D9A4206
:101D4000EFD0D5F8742DD5F8703D9A422DD8D5F83E
:101D5000706DD5F8743DF61A402E2BD8B3B2402BD7
:101D600013BF3746402702230123D5F8742D85F889
:101D70006C3D144BC0F858711344C0E9543340F221
:101D80000113A0F844310023C0F85C3100F5A271C2
:101D900079F046F8D5F8743D3B44F61BC3F30A03CB
:101DA000C5F8743DC4F88064BBE7D5F8746DC6F51A
:101DB0000066D1E701234027D7E700BF08310020A4
:101DC00010200020882D002010B5324B93F8D42429
:101DD00093F8E8C4D3F8D034044613B152EA0C02A5
:101DE00031D00123E06984F8463140F20112A4F8B1
:101DF000442102682849002AA8BFC2F380739B03CC
:101E000001EA124143F020030B4363F31F42BCF18C
:101E1000020F026000D010BDE278204BC4F8A83356
:101E20001F200021C4E9EC01012A4FF00101A4F8B0
:101E30009C1308BFC4F8AC3304F567712046BDE8B5
:101E4000104078F0EDBF012178F0B4FE0122E06986
:101E500084F8462140F20113A4F8443101680029B6
:101E60000A460CDBC1F380730B4C9B0343F0200349
:101E700004EA11410B4363F31F42026010BD064B9D
:101E800003EA114343F4804343F0200363F31F420A
:101E9000026010BD08310020DFBFFFFFD0350020F9
:101EA0002DE9F041B0F8CC15D0F8CE35B0F8D255C8
:101EB000B0F8D085C0F84051012284B080F81121DB
:101EC00001F01F02012A044600F2CC56ADF80810BA
:101ED000C1F3072ECDF80A30ADF80E504FEA134C7F
:101EE00051D0022A7746C9B29BB210D0002A55D1F0
:101EF000BEF1090F4BD8DFE81EF08900AD004A00A3
:101F0000C8004A005C01DF004A001301330101F000
:101F1000600120295FFA8CF272D0012F00F0B881A5
:101F2000032F00F0A181AFBB90F81231022B00F01B
:101F3000E381032B2BD11CF0800F40F0E98102EBF1
:101F4000820200EBC20393F87623003A18BF012205
:101F5000C24D02234FF48071C4E94E3384F811312D
:101F6000C4F83031A4F81C1105F59F630021C4F8B2
:101F70003411C4E94A3304F58E712046C5F8F824BB
:101F800078F0ECFE06E090F81231032B0ED02046DC
:101F900078F0D8FD002004B0BDE8F08101F08001A8
:101FA00078F008FE002004B0BDE8F0815FFA8CFCF8
:101FB000BCF1010FEBD8D0F8E43502A99B68984733
:101FC000BDF80E30002BE5D1C4E94A33C4E94C33E7
:101FD00004214FF4807284F81111A4F81C2104F537
:101FE0008E71204678F0BAFE636D9D4A1A61E278E0
:101FF000012ACFD15E614FF0802219681A60C9E7CB
:10200000D0F8E43502A99B689847C3E790F81231ED
:10201000023B012BBBD8914BD0F818210021C3F80B
:10202000F01412B10222C3F8F0248E4A02234FF4B6
:1020300080700021C4E94C31A4F81C01C4E94E337E
:10204000C4E94A2284F8113104F58E71204678F0F3
:1020500085FE9FE790F81221023A012A97D8012BBA
:1020600098D1D0F8E43500259B68C0F8185102A932
:10207000984704224FF48073C4E94A55C4E94C558B
:1020800084F81121A4F81C31A9E7012B00F03B8151
:10209000022B7FF47FAF5FFA8CF3002B7FF47AAFD3
:1020A00003694FEA1C22023A5B68032A00F2BD81F1
:1020B000DFE802F0B6CED2D01E0A022EADF80650EE
:1020C00000F08A81032E00F04E81012E7FF45FAF75
:1020D000D0F8EC3580781B680DF106019847BDF803
:1020E0000630002B3FF456AFBDF80E20002A3FF417
:1020F00051AF934228BF13464FF480720221A4F8D7
:102100001C210022C4E94A0084F81111C4E94E33AD
:10211000C4E94C3204F58E71204678F01FFE39E791
:10212000012D7FF434AF90F81231022B00F00881BA
:10213000032B7FF42CAF4FF4807200F588730221DB
:10214000A0F81C21002280F81111C0E94E55C0E909
:102150004A33C0E94C5200F58E7178F0FFFD19E763
:10216000DDB23E4F012D87F8E9543FF610AF90F8ED
:102170001231022B00F0D880032B7FF408AF002D22
:1021800000F0358190F81011012910D0D0F8E43515
:102190005B68984797F8E914D4F8E43584F810118F
:1021A0001B6820469847D4F8E8359B689847002379
:1021B0000AE758EA05027FF4EAAE90F81211032903
:1021C0003FF4E5AE03F07F0580F814510069114635
:1021D00063F30A11036819430423016084F8113181
:1021E0004FF48073C4E94A22C4E94C22A4F81C319C
:1021F00004F58E71204678F0B1FD636D184A1A61BE
:10220000E278012A06D0002D00F0FC80022384F839
:102210001231BFE65E614FF0802219681A60F2E762
:1022200002210E4861F306130022C0F8F43404239F
:10223000C4E94A22C4E94C2284F8113101224FF446
:10224000807304F58E7184F81621A4F81C31C8E659
:102250000321E6E70521E4E70421E2E70831002055
:1022600018000860F835002090F81211022943D0B8
:1022700003297FF48CAE23B9510602D0114678F0C1
:1022800099FCD4F8E4359B6802A9204698478EE76C
:1022900090F8121102292FD003297FF478AE002B79
:1022A0007FF478AE12F07F0181D01CF0800F40F0F7
:1022B000AD8002EB820100EBC10181F8763381F839
:1022C0007533282381F8742303FB020300EB82019A
:1022D00093F87723496D0B68023A012A23F400131F
:1022E0008CBFC3F30072012262F31C73D4F8E4259F
:1022F0000B60936802A9C8E753063FF44BAE114642
:1023000078F058FC46E6D0F8E425C0F81831F0E73C
:1023100002F07F0202EB820200EBC20393F81E215F
:10232000003A18BF012213E6002D3FF4A2AE0121AE
:102330000322D0F8E43580F8101180F812212FE73D
:102340003B4A80F811314FF480710023A0F81C1132
:10235000C0E94E55C0E94A22C0E94C5300F58E71E0
:1023600078F0FCFC16E6DBB2052B3FF610AEDFE89A
:1023700003F02B231B130B03D0F8EC3580789B69FB
:102380000DF106019847AAE6D0F8EC3580785B6934
:102390000DF106019847A2E6D0F8EC3580781B696C
:1023A0000DF1060198479AE6D0F8EC358078DB68A5
:1023B0000DF10601984792E6D0F8EC3580789B68DD
:1023C0000DF1060198478AE6D0F8EC3580785B6815
:1023D0000DF10601984782E6D0F8E43580789B6AD3
:1023E0000DF1060198474670C4F8F00577E6022221
:1023F000D0F8E43580F8122180F810515B68294646
:10240000984736E6012384F81231C3E5282202FBFF
:10241000010080F81C1104EB810180F81E3180F866
:102420001DE190F81F21896955E70121F9E600BFF8
:10243000F435002010B5044629B990F81121032A7B
:102440000DD0002010BDD0F8E4359B69002BF8D0EA
:1024500090F81221032AF4D19847002010BDD0F83B
:1024600090230B46D0F87C138A4219D9521AC0F82F
:10247000902394F803C0D0F880038A4228BF0A460C
:10248000BCF1010F92B234D0C4E9E22304F55D71CE
:10249000C4F88003A4F87433204678F05FFCD0E7DA
:1024A000D0F8E4351B691BB190F81221032A1ED025
:1024B00000234FF480720421C4E94A33C4E94C3349
:1024C00084F81111A4F81C2104F58E71204678F0CF
:1024D00045FC636D0D4A1A61E278012AB1D104F21C
:1024E000CC545C614FF0802219681A60A9E79847C4
:1024F000DEE70844C4E9E22304F55D71C4F8800313
:10250000A4F87433C4F88403C6E700BF1800086059
:1025100038B5044649B990F81131022B11D094F81E
:102520001631012B39D0002038BDD0F8E4355B6975
:10253000002BF8D090F81221032AF4D198470020FC
:1025400038BDD0F83831D0F8242193422FD990F8F3
:1025500003C09B1ABCF1010F0D46C0F83831D0F80A
:1025600028116ED09BB2C0F830314FF48073C0E9AF
:102570004A11C0F8345100F58E71A0F81C3178F082
:10258000EDFBC4E9E255C4F8805304F55D71A4F88D
:102590007453204678F0E2FBC1E73F4B2269D3F841
:1025A000F4145160002384F81631002038BDD0F8AF
:1025B0003C31B3FBF2F502FB15350DBB9A421FD837
:1025C000D0F8402193421BD24FF48073A0F81C3105
:1025D00000F58E71C0E94A55C0E94C5578F0BEFB54
:1025E000E378C4F84051012BC4E9E255C4F88053A4
:1025F000A4F8745308BFC4F8845304F55D71C8E7A8
:10260000D4F8E435DB681BB194F81221032A15D005
:10261000E27800230521012A84F81111C4E9E2338C
:10262000C4F88033A4F8743304F55D7124D02046D7
:1026300078F094FB636D194A1A6170E72046984759
:10264000E6E79BB21144C0F830314FF48073C0E923
:102650004A11C0F8345100F58E71A0F81C3178F0A1
:102660007DFBC4E9E255C4F8805304F55D71A4F81C
:102670007453C4F884538CE7C4F88433204678F04C
:102680006DFB636D0548186104F2CC525A614FF03E
:1026900080211A68196042E708310020180008609C
:1026A00070B50B7813F060020D46044624D0202A42
:1026B00004D0204678F046FA022070BDCA884878D7
:1026C0001AB31B0640D5324E3146FEF7D1FAEB88DD
:1026D0004FF480720221A4F81C21002284F8111109
:1026E000C4E94E33C4E94A66C4E94C3204F58E713C
:1026F000204678F033FB06E04B780A2B10D00B2BEA
:1027000008D0062BD5D0002070BD02221144FEF760
:10271000AFFAF8E78B78C3BB1E4AC2F8FC34F2E785
:10272000022180F811114FF48071A0F81C111A4990
:102730000123C0E94A11C0E94E33C0E94C3200F52B
:102740008E7178F00BFBDEE71449154B0860E078DA
:10275000C3F8A028002103F6A40301284FF00305C5
:10276000C4F88C13A4F87413C4E9E42284F811515A
:10277000C4F88823C4F8803304F55D7108BFC4F839
:102780008433204678F0EAFABDE778F0DBF9BAE75F
:10279000B42800200831002004360020000000206A
:1027A00010200020002310B519460446402278F07E
:1027B0006BFA802120460023402278F065FAD4F895
:1027C000E835A078012284F812215B689847002040
:1027D00010BD00BF10B5022304464022812178F0CD
:1027E00053FA204602234022012178F04DFA204678
:1027F00003230822822178F047FA104B0222A3F823
:102800004C20FEF721FAE2780D4BC4F8A8334021A2
:10281000C4F8B013012A4FF000004FF00101C4F8D2
:10282000B403A4F89C13204604F5677108BFC4F8EC
:10283000AC3378F0F5FA002010BD00BF0000002096
:102840008C35002030B5812183B0044678F0ECF956
:102850000121204678F0E8F92A4900250223402288
:1028600081F8185A2046812178F00EFA01210223BE
:102870004022204678F008FA234BD3F8002583F84D
:10288000E8541268284690470095009AE1681F4B6B
:1028900042F010020092009A0A610A690092013B1C
:1028A00002D0009AD006F8D400230193019B43F094
:1028B00020030193019A154B012060F38A120192C3
:1028C000019A0A610A690192013B02D0019A9206BB
:1028D000F8D4E2780E4BC4F8A8331F200021C4E9D5
:1028E000EC01012A4FF00101A4F89C13204604F5E5
:1028F000677108BFC4F8AC3378F092FA002003B0D7
:1029000030BD00BF1020002008310020410D030021
:10291000D03500202DE9F843374F804689461546CB
:102920001C4697F8E01904290BD0082907D1D7F8DD
:10293000D839434505D0FEF707FA0228F1D0012027
:1029400057E0012387F8C4393B6397F89030C7F804
:10295000CC490622022B294CC7F8C089C7F8C859B0
:10296000C7F8BC9987F8E02918BF4FEA48280A261B
:1029700040F2FF554FF48B63A5630121C4F8088032
:102980001820E360FDF7CAFC03464FF0000C40F24C
:10299000774201213720A563D3B1A563C4F808C0ED
:1029A000E260FDF7BBFC721EA56388B112F0FF0662
:1029B000E0D13E63FEF7D2FDD7F8C84934B1D7F86D
:1029C000CC39D7F8C01932460120A047032010E0C7
:1029D0000121484675F0B8FA084B094959624FF48D
:1029E00000729A62DA6A002142F09102DA620846C5
:1029F000B962BDE8F88300BF10200020002C014020
:102A000000E1F5052DE9F04F3F4E994696F8E03983
:102A100083B0042B01908846924609D0082B03D03E
:102A2000002003B0BDE8F08FFEF78EF90228F7D141
:102A300096F890300122022BF26262D0019B4FEA9D
:102A4000432B324C0021404675F07EFA4FF4007261
:102A50002F4B6362A262E36A40F2FF5743F0930395
:102A6000E362A763A2604FF48A62E2600121102052
:102A7000FDF754FC0A25A76340F25142A7630121E8
:102A8000C4F808B01120E260FDF748FC02464FF0A0
:102A9000000E40F2774301213720A763DAB1A76324
:102AA000C4F808E0E360FDF739FC013DA76390B18D
:102AB00015F0FF05E0D1F562B062FEF74FFDD6F8E4
:102AC000C849002CACD0D6F8CC39D6F8C0192A4663
:102AD0002846A047A4E7052386F8E0390023B3621F
:102AE000019AD6F8143AC6F8BC890120C6F8C02964
:102AF000C6F8C8A9C6F8CC99C6F8D03903B0BDE865
:102B0000F08FDDF804B09CE710200020002C01407D
:102B100000E1F5051049114BD1F8882042F470020C
:102B200010B4C1F888201A680D4C002042F0010250
:102B30001A6098601A6822F0847222F480321A6057
:102B40005C601A68074C22F480221A60D8608C609E
:102B50005DF8044B704700BF00ED00E00038024014
:102B60001030002400000008704700BF2DE9F84332
:102B700045697DB90768C7F30D0804460E46B8F1EC
:102B8000000F0AD0D6F80080FDF7F6FE09283BD0EA
:102B90006FF001052846BDE8F883514B9F422AD3C8
:102BA00003F580439F4224D303F580439F427FD3A4
:102BB0004C4B9F427FD903F580339F427ED903F56A
:102BC00000339F427DD903F500339F427CD903F542
:102BD00000339F4269D903F500339F4277D903F54B
:102BE00080239F4276D9B7F1016F76D305200DF08F
:102BF000F9FC4FF00808FDF7BFFE092821D04FF07F
:102C0000FF352846BDE8F883374E336923F4407317
:102C10003361336943F400733361336943F0010373
:102C20003361C7F80080FDF7A7FE3369092823F058
:102C300001033361ACD12368043323602846BDE827
:102C4000F883DFF8A490D9F8103023F44073C9F862
:102C50001030D9F8103043F40073C9F81030D9F8A7
:102C6000103023F0F803C9F81030D9F8103043EAD7
:102C7000080343F00203C9F81030D9F8103043F4C8
:102C80008033C9F81030FDF777FED9F8103023F003
:102C90000203C9F81030D9F81030092823F0F803DE
:102CA000C9F810303FF46EAFA9E74FF03808A2E73B
:102CB0004FF010089FE74FF018089CE74FF02008EE
:102CC00099E74FF0280896E74FF0300893E74FF068
:102CD000400890E74FF048088DE74FF058088AE722
:102CE00000400008FFFF0008003C02400148FDF7DB
:102CF0008FBA00BFD80000200148FDF789BA00BF95
:102D0000240300200148FDF783BA00BF70050020AE
:102D10000148FDF77DBA00BFBC0700202DE9F04156
:102D20000268214D0746002455F834309A4209D0F4
:102D300001340E2CF8D11D4A0021052005F0A8FC15
:102D4000002013E01A4B03EB8408D8F804657EB129
:102D5000797901EB410306EBC30300221820C3E994
:102D6000032200FB01609F601A750430BDE8F0810A
:102D700007216C2005F012FD0146C8F8040568B172
:102D800031466C227FF042FFD8F8046505EBC4059C
:102D9000C6E90056F6617663F664D9E7054A052070
:102DA00005F076FCCCE700BFC43E080800E6080842
:102DB0000831002028E60808704700BF30B40C4CEA
:102DC0000022234604E001320C2A03F114030CD044
:102DD00093F804C08445F6D1DD68294201D1002969
:102DE000F1D1142303FB024000E0002030BC704707
:102DF000040A002038B5D0E9004007EE902A0068A8
:102E0000324A334B2468D3F8F43A246801399042AB
:102E10008DB210D002F5806290420CD002F5705253
:102E2000904208D002F58062904204D002F58062A0
:102E3000904218BF5B0807EE103AF8EE677AB8EEDA
:102E4000477ADFED246A87EE270A30EE260A7AF009
:102E50003FFE1E492388421E8C4292B29BB21AD07A
:102E60001D498C4217D0B4F1804F1FD0A1F580319D
:102E70008C421BD001F580618C4217D001F5806136
:102E80008C4213D015498C4219D123800123E5626D
:102E90002285A38238BD23F45C739BB22380002378
:102EA000E562228523860123A38238BD23F45C7367
:102EB0009BB223800123E5622285A38238BD0849A5
:102EC0008C42E2D023F440739BB2DEE70000014065
:102ED000000000200AD7233C0004014000100040FD
:102EE0000014004070B54268937903F0020E13F0AD
:102EF00004033AD175469C469E464FF480700123E8
:102F00005479032C30D8DFE804F08E62023614685E
:102F1000704E228C22F480721204120C2284228CB5
:102F200022F4007212042B43120CA58842EA0322F9
:102F3000A38B23F073031B041B0CB442ADB243F00C
:102F4000600300F09B8006F58066B44200F0968036
:102F5000A580A383E1632284A38B23F008031B04D1
:102F60001B0C43F00803A38370BD002005464FF0FF
:102F7000040C0346C4E71268564E148C24F48054A3
:102F80002404240C1484148C24F4005424042B43AF
:102F9000240C958844EA0334938B23F4E6431B0402
:102FA0001B0CB242ADB243F4C04375D006F5806647
:102FB000B24271D09580938311641484938B23F46F
:102FC00000631B041B0C43F40063938370BD1468FF
:102FD000404E228C22F010021204120C2284228C09
:102FE00022F0200212042B43120CA58842EA03129D
:102FF000238B23F4E6431B041B0CB442ADB243F411
:10300000C04359D006F58066B44255D0A5802383CD
:10301000A1632284238B23F400631B041B0C43F461
:103020000063238370BD1268148C24F0010424040F
:10303000240C1484148C968824F0020424042B435A
:10304000240C1C43138B234D23F073031B041B0C14
:10305000AA42B6B243F0600323D005F58065AA42C8
:103060001FD09680138351631484138B23F00803BD
:103070001B041B0C43F00803138370BD22F4006291
:1030800042EA0E2222F4806292B225F4405542EACE
:103090000C2245EA00155BE725F4804545EA8015DA
:1030A00088E726F4407606434FF6F370204040EA66
:1030B0000E0040EA0C04D4E722F0800242EA0E122D
:1030C00022F0400292B225F4406542EA0C1245EA31
:1030D00080059BE70000014042685379032B0FD81D
:1030E000DFE803F00B0805021068403070471068F5
:1030F0003C30704710683830704710683430704783
:1031000000207047024B0348D3F80415FEF7E6BCD5
:10311000083100200000014010B5064C0648D4F8E4
:103120000415FEF7DBFCD4F824150448BDE8104074
:10313000FEF7D4BC083100200000014000400140EF
:1031400010B5064C0648D4F80415FEF7C7FCD4F8B1
:1031500028150448BDE81040FEF7C0BC0831002027
:10316000000001400044014010B5064C0648D4F868
:103170000415FEF7B3FCD4F82C150448BDE8104044
:10318000FEF7ACBC083100200000014000480140BF
:10319000034B4FF08040D3F80815FEF79FBC00BFEB
:1031A00008310020024B0348D3F80C15FEF796BCFB
:1031B0000831002000040040024B0348D3F81015EA
:1031C000FEF78CBC0831002000080040024B034889
:1031D000D3F81415FEF782BC08310020000C004023
:1031E000024B0348D3F82015FEF778BC08310020C5
:1031F0000004014010B5064C0648D4F82015FEF72F
:103200006DFCD4F830150448BDE81040FEF766BCEC
:1032100008310020000401400018004010B5064CA1
:103220000648D4F82015FEF759FCD4F834150448A4
:10323000BDE81040FEF752BC0831002000040140F8
:10324000001C004010B5064C0648D4F82015FEF7C7
:1032500045FCD4F838150448BDE81040FEF73EBCE4
:103260000831002000040140002000400348D0F84D
:10327000043B13B100F6F820184770470000002007
:103280000348D0F8243B13B100F6183018477047B4
:10329000000000200348D0F8443B13B100F638305A
:1032A00018477047000000200348D0F8643B13B172
:1032B00000F6583018477047000000200348D0F847
:1032C000843B13B100F678301847704700000020A7
:1032D0000348D0F8A43B13B100F698301847704764
:1032E000000000200348D0F8C43B13B100F6B8300A
:1032F00018477047000000200348D0F8E43B13B1A2
:1033000000F6D83018477047000000200348D0F876
:10331000043C13B100F6F830184770470000002055
:103320000348D0F8243C13B100F618401847704702
:10333000000000200348D0F8443C13B100F63840A8
:1033400018477047000000200348D0F8643C13B1D0
:1033500000F6584018477047000000200348D0F896
:10336000843C13B100F678401847704700000020F5
:103370000348D0F8A43C13B100F6984018477047B2
:10338000000000200348D0F8C43C13B100F6B84058
:1033900018477047000000200348D0F8E43C13B100
:1033A00000F6D840184770470000002030B4456848
:1033B000144CA542144D2C6B0CBF44F4001444F47F
:1033C00080042C6390F914C0C1601201BCF1000F9D
:1033D0008361D2B20FDB0D4901EB0C034FEA5C10A5
:1033E00083F800230CF01F0C012303FA0CF330BC0C
:1033F00041F820307047064B0CF00F0C63441A76EE
:1034000030BC7047006002400038024000E100E03C
:10341000FCEC00E02DE9F843A848002242F2043C0D
:10342000510143588CEA030313F47C540AD001324F
:10343000102AF5D1A24D0023C5F8103A85F8E039DD
:10344000BDE8F88301449E4D0B7FC5F8101A002B90
:10345000F1D18F689B4B9F4202D048339F42EAD103
:10346000994A536A43F4006353620DF05FF80646CD
:1034700088460DF05BF8801B61EB0801B0F57A7FA0
:1034800071F10001F5D3904A536A23F4006353624B
:103490000DF04CF8064688460DF048F8801B61EBAD
:1034A0000801B0F57A7F71F10001F5D3DFF81882D9
:1034B0008648D8F8443043F40063C8F84430D8F85C
:1034C000303043F48003C8F83030D8F8303043F05F
:1034D0000C03C8F830304FF00D0900260C220E21E5
:1034E000A5F8029D85F8046D09F000FC7848A5F860
:1034F0000E9D0C220E2185F8106D09F0F7FB754822
:10350000A5F81A9D0C220E2185F81C6D09F0EEFB22
:103510007148A5F8269D0C220E2185F8286D09F02A
:10352000E5FB6E48A5F8329D0C220E2185F8346D1E
:1035300009F0DCFB0C226A48A5F8629D0E2185F893
:10354000646D09F0D3FB674B302283F831234FF4CD
:1035500000325A60D8F83030634A43F48003C8F828
:103560003030584BC2F83C759F425BD05F4A60498F
:10357000C2F8A060C2F8A8104FF47411D1605D4980
:10358000C2F8A0100721C2F8B4104C4A5A4F334673
:103590001046114605E00133102B01F1200100F027
:1035A00089808E68BE42F6D1544901EB43115B011C
:1035B000D1F8FC6A52498E426DD0434E316B41F4D2
:1035C0008001316303440D2199834B4993688B42F9
:1035D00025D00134102C02F12002F7D100204949F6
:1035E00000230122FFF7E2FED5F80C3A4BB119682F
:1035F0009A880B691A4204D1002385F8E039BDE8A6
:10360000F883FDF70BFE0028F6D1D5F8142AC5F88B
:10361000D029012385F8E03985F8D40910E700EBBB
:103620004410DCE7314932488E65244A0866334647
:1036300030484FF074668E6088650720C866104673
:10364000114604E00133102B01F1200132D08E68C5
:10365000BE42F7D1294901EB43115B01D1F8FC6A65
:1036600027498E4220D0184E316B41F480013163DE
:1036700003440D219983134993688B4211D001347F
:10368000102C02F12002F7D100201F490023012253
:10369000FFF78CFEA8E70C4E316B41F4001131634B
:1036A00090E700EB4410F0E7074E316B41F4001156
:1036B0003163DDE700235B68FFDE00BFF80A00200E
:1036C0001020002058640240003802400C2D0020D9
:1036D000182D0020242D0020302D00203C2D00200E
:1036E0006C2D002000E100E0083100200064024061
:1036F000802C01406054A308A06402400000002018
:10370000006002408D080008C507000870B52D4C08
:10371000636BD9051ED54FF4807340F2FF56A36347
:10372000A663E36B284D23F4414323F03A03E3639C
:103730006B6B9A071FD4012200236A62AB62214A95
:1037400040F2FF539363D36B23F4414323F03A03D6
:10375000D36370BD636B980703D51B4B02229A623B
:10376000EDE7636B190721D4636B9A0622D5164BDC
:1037700006229A62E3E7154BD3F83C25136823F041
:1037800001031360E36A002223F00803E3622A6363
:103790006B6BDB07CFD540F24C43A6630121A260DF
:1037A0000C20E360FCF7BAFDA663C4E7064B0422D5
:1037B0009A62C4E7636BDB06C1D5034B05229A62AC
:1037C000BDE700BF002C0140102000200831002080
:1037D00002683649002310B422F0010221248842F5
:1037E0000260036043608360C3600361446138D05A
:1037F0002F4B98422ED02F4B98423CD02E4B9842C4
:1038000040D02E4B984232D02D4B984241D02D4B78
:10381000984246D02C4B984217D02C4B98423CD023
:103820002B4B984216D02B4B984224D02A4B9842CF
:1038300028D02A4B98421AD0294B984229D0294B9C
:1038400098422ED0284B984208D14FF03D5243F871
:10385000AC2C03E04FF4746243F8202C5DF8044B69
:103860007047224B5DF8044B3D229A607047204A16
:1038700043F8642CF2E74FF474125DF8044B43F8FC
:10388000382C70474FF074625DF8044B43F8502CAD
:103890007047184A43F87C2CE0E73D2243F8082C97
:1038A000DCE7154A43F8942CD8E700BF10600240CB
:1038B0002860024040600240586002407060024050
:1038C00088600240A0600240B8600240106402407C
:1038D0002864024040640240586402407064024020
:1038E00088640240A0640240B86402400060024064
:1038F0003D000020400F002000003D202DE9F04158
:103900006F4F00EB400307EBC30790B0054697F8F5
:10391000FD0C74F0A1FB97F8FC0C74F09DFBD7F83C
:10392000008D4046FFF754FF0023D7F8F84CD7F836
:103930000C6D0493CDE90C33CDE90E330693D7F823
:10394000043D604F01934FF48C7303FB05730393A5
:1039500006EB86039B00059304F14C034FF4806251
:1039600002934FF40063CDE907234FF400514FF465
:103970008073CDE909134FF4003301A90B9374F060
:103980003FFBD8F800205049504B42F00102C8F8E4
:1039900000204A68134043F440334B606368012EB3
:1039A00023F04073D4BF0022012223F4807343EA42
:1039B00002236360A268464B134043F00203A360F6
:1039C000E36A013EF6B223F4700343EA0653E3626E
:1039D00007F5647007F55273012602E00C33984234
:1039E0002DD05A7D002AF9D093F90D20AA42F5D1A5
:1039F0001A7C997D092A45D9A2F10A07D4F80CC08E
:103A000007EB47074FF0070EB9400EFA07F72CEA0D
:103A100007073943E160062E24D8711E676B01EB5E
:103A200081014FF01F0C8A400CFA01F127EA0101D5
:103A30000A4362630C3301369842F6B2D1D1A368CF
:103A400043F40073A360A36843F48073A360A36886
:103A500043F00103A360A36843F08043A36010B068
:103A6000BDE8F0810C2E1BD8F11F276B01EB810103
:103A70004FF01F0C8A400CFA01F127EA01010A43BA
:103A80002263D7E7276902EB420E4FF0070C0CFACE
:103A90000EFC01FA0EF127EA0C0739432161BAE75F
:103AA000A6F10D01E76A01EB81014FF01F0C8A407E
:103AB0000CFA01F127EA01010A43E262BAE700BF0A
:103AC000000000204836002000230140E030FCFFC9
:103AD000FDF7FFC0214A936803F00C03042B10B4D8
:103AE0003AD0082B1FD01E4B1C4C0360A1681D4A06
:103AF000C1F30311114491F8CC10CB404360A1688D
:103B0000C1F38221114491F8CC1023FA01F18160B4
:103B1000A1685DF8044BC1F342310A4492F8CC200D
:103B2000D340C36070475368516813F4800F5368E3
:103B300014BF0D4A0A4AC3F3881301F03F01B2FBD8
:103B4000F1F202FB03F3054A5268C2F3014201326B
:103B50005200B3FBF2F3C7E7034BC5E7003802405E
:103B60000024F400683E080800127A0070B5446B27
:103B70008668A38923F400531B041B0CA381857959
:103B800090F805C02B0303F40051C5F380000CF03E
:103B900001032A029B001CF0020F4FEA003002F4DE
:103BA000806218BF43F0080302431A43238A9BB282
:103BB00023F440530B432382A38923F4B05323F00F
:103BC0000C031B041B0C1343A381A38A23F440732F
:103BD0001B041B0C84B0A3826846FFF77BFF234BBA
:103BE0009C4205D003F580639C4201D0029B00E01B
:103BF000039BA2891E49120403EB83034CBF76008A
:103C0000B60003EB8303B3FBF6F3A1FB0302A08929
:103C100052096426000406FB12334FEA02121CD438
:103C20001B013233A1FB0313C3F3431313439BB2B2
:103C300023812A07A38A0AD59BB243F00803A382F3
:103C4000A3899BB243F40053A38104B070BD23F059
:103C500008031B041B0CA382F2E7DB003233A1FB39
:103C60000313C3F342131343E1E700BF0010014005
:103C70001F85EB512DE9F8431D462E4B9DF8206022
:103C80009DF824909842884617463BD02A4B98428C
:103C900040D02A4B984245D0294B984221D14B46DF
:103CA000324629460520FDF767FE04460023C4E995
:103CB0000B87C4E90733C4E909336671A56084F84A
:103CC00006902046FFF752FFF107626B12D4B3074C
:103CD0000BD493899BB243F4005393812046BDE8F3
:103CE000F88300242046BDE8F883D36843F08003BE
:103CF000D360EEE74FF6DF731380D36843F0200301
:103D0000D360E4E74B46324629460020FDF734FEF7
:103D10000446CBE74B46324629460120FDF72CFEF0
:103D20000446C3E74B46324629460320FDF724FEEE
:103D30000446BBE70010014000440040004C004036
:103D400000140140816011E741710FE781710DE7B7
:103D50002DE9F043704F07EBC00985B005464FEAE7
:103D6000C00899F8440D08F0FDFF064699F8450D86
:103D700008F0F8FF044699F8460D74F06DF96B1CD5
:103D8000DBB21EB140F60C123372F2801CB123720A
:103D900040F60C23E380304604223A2108F0A6FFC7
:103DA000042220463A2108F0A1FF07EB08025B4BF2
:103DB000D2F8404D9C4200F08E80594B9C4200F05E
:103DC0009580584B9C4200F09C80474497F8473DB3
:103DD000022B32D0032B7CD05349544F012B08BF08
:103DE0000F46A6886846FFF775FE26F03F06029B41
:103DF0004F4AB3FBF7F13604A2FB0323360C46EA25
:103E00009346A680228822F001021204120C22801E
:103E10008AB2C1F30B019B0C09B942F001024FF4C5
:103E2000967101FB03F34349A1FB03139B09013383
:103E30009BB242F4004223841FE0A6886846FFF745
:103E400049FE26F03F06029A394B3604A3FB0213C3
:103E5000360C46EA9346A680218821F00101090428
:103E6000090C218034499209A1FB021292099B0C92
:103E70000133042A238438BF0422A28323882F4AD3
:103E80009BB243F001032380238823F4816323F052
:103E900002031B041B0C4FF4804143F48063238016
:103EA0002181238823F080031B041B0C238023889B
:103EB0009BB202EB451243F0010323800121002352
:103EC00082F8E05882F8E11882F8E23805B0BDE8DF
:103ED000F0831B4F85E703F5F2331A6A42F40012B0
:103EE0001A621A6A22F400121A626EE703F5F033BE
:103EF0001A6A42F480021A621A6A22F480021A6272
:103F000063E703F5EE331A6A42F400021A621A6A92
:103F100022F400021A6258E700000020005400401A
:103F200000580040005C0040009F2400804F1200B9
:103F300083DE1B43D34D6210632D3E050831002004
:103F4000C02709002DE9F047924E90F900108046F5
:103F5000807806EBC1050138CC0090B0D5F8401D43
:103F600014282DD8DFE810F04C0120011500550071
:103F70005F009E00A600C301B6017A0084003C02E7
:103F80000402D701C000D0002F003700A301950123
:103F90005401888A0C8B81B27F4841EA04418843EE
:103FA00000F02081D8E90201101A42F2107263EB8E
:103FB0000101904271F1000102D3152388F802300B
:103FC00010B0BDE8F08798F813000882C8E9022312
:103FD000122088F80200888A0C8B80B240EA0440E4
:103FE0006E4C844300F0B28000200E900F900120B0
:103FF0000F910E900E99002900F017820F9914313D
:104000000F910F9909684905CCD5142388F802301F
:10401000D6E798F8110000F0FE000882C8E90223F4
:10402000052088F80200888A0C8B80B240EA0440A0
:104030005B4C844300F0A18000200090019001209F
:10404000019100900099002900F0FB810199143141
:104050000191019909684F05D7D4A3E798F8110099
:1040600040F001000882C8E902230B2088F8020012
:10407000888A0C8B80B240EA04404A4C84436DD05D
:1040800000200490059001200591049004990029D6
:1040900000F0D181059914310591059909684D0504
:1040A000B3D47FE798F813000882C8E902230720F9
:1040B00088F80200888A0C8B80B240EA0440374CB2
:1040C00084435ED00020029003900120039102906F
:1040D0000299002900F0C1810399143103910399D9
:1040E00009684E0591D45DE7088820F480600004DB
:1040F000000C088098F8110000F0FE000882C8E962
:104100000223102088F80200888A0C8B80B240EAD3
:104110000440234C844312D000200C900D900120C9
:104120000D910C900C99002900F091810D9914319A
:104130000D910D99096848053FF567AF32E798F88A
:104140001330FF2B06D198F810301BB1132388F8D9
:10415000023035E7112388F8023031E7D8F814002F
:10416000012800F08F81022800F04382098B0E2184
:10417000C8E9022388F8021022E7062388F80230F3
:104180001EE7D8F81400002800F06D81082388F895
:10419000023015E700000020010003008400070042
:1041A0008200070002000300088820F40060000479
:1041B000000C0880088880B240F48060088008887D
:1041C00080B240F480700880032088F80200888A5A
:1041D0000C8B81B2A94841EA04418843C8E9022313
:1041E0007FF4EEAE98F81230002B40F0CE8198F8B4
:1041F0001330FF2B00F03F82042388F80230DFE603
:10420000098889053FF5CEAE002388F80230D7E64D
:10421000344494F8440D08F0A5FD064694F8450D85
:1042200008F0A0FD964AB2F8403901339BB28246AD
:10423000A2F8403916B13368B2881A83BAF1000F78
:1042400004D0DAF80030BAF804201A83112130467D
:1042500008F028FD1121504608F024FD4FF009090F
:1042600065272EB13368B28819690A4240F023816C
:10427000013F00F01D810CF059F904460D460CF089
:1042800055F9001B61EB0501052871F10001F6D31A
:10429000E7E7088880B240F4007008804FF6FF30EE
:1042A00088820121C8E9022388F8021088E6D8F83C
:1042B0001400002800F06D81D8F8184014F8016B44
:1042C0000E8201381225C8E90504C8E9022388F8DE
:1042D000025075E6888A0C8B81B2684841EA044135
:1042E00088437FF45FAE0A2388F8023068E60888C6
:1042F00080B240F480700880092088F80200888A23
:104300000C8B81B25D4841EA04418843C8E902232D
:104310007FF456AEE7E7002401250A940B940B9135
:104320000A950A98002800F047810B9814300B90EA
:104330000B98006846077FF535AED8F814000328BF
:1043400000F06D81022800F24381088820F480602B
:104350000004000C0880088880B240F400700880D7
:10436000098A88F81C40C8E9022388F8025027E629
:1043700000200124089009900991089408980028C9
:1043800000F01481099814300990099800684707D3
:104390007FF508AEEFF31185102080F312880888AE
:1043A00080B240F400700880D8F818000E8A471CCC
:1043B000C8F81870EDB2067085F311880D8AD8F828
:1043C00018106FF001004E1CC8F818600D70C8E995
:1043D0000223C8F8140088F81C4088F80240EFE572
:1043E000002006900790012007910690069C002C63
:1043F00000F0E880079C14340794079C2468640646
:104400007FF5D0AD0C8AD8F818104D1CC8F818509C
:104410000C70D8F8141088F81C000139C8E9022380
:10442000C8F8141088F80200CAE50F9918310F91E6
:104430000F990968B6E5059918310591059909683C
:10444000B0E501991831019101990968AAE50D9922
:1044500018310D910D990968A4E50399183103915C
:10446000039909689EE5088880B240F400700880CE
:104470000121C8E9022388F80210A1E50100030028
:1044800008310020088820F480600004000C0880B7
:10449000EFF31184102080F31288088B088880B213
:1044A00040F40070E4B2088084F311880C215FE6C8
:1044B00016B13368B2885A830CF038F804460D46BA
:1044C0000CF034F8001B61EB0501052871F10001C7
:1044D000F6D316B13368B2881A830CF027F8044675
:1044E0000D460CF023F8001B61EB0501052871F166
:1044F0000001F6D3B9F101097FF4B2AE16B1336809
:10450000B2885A830CF012F804460D460CF00EF8EF
:10451000001B61EB0501052871F10001F6D3BAF12A
:10452000000F04D0DAF80030BAF804205A830BF0F8
:10453000FDFF04460D460BF0F9FF001B61EB050182
:10454000052871F10001F6D316B13368B2881A83D9
:104550000BF0ECFF04460D460BF0E8FF001B61EB8F
:104560000501052871F10001F6D3BAF1000F04D05E
:10457000DAF80030BAF804201A8398F90000441CD5
:104580003FF442AEFFF7E4FB3EE60F2388F802302B
:1045900016E5088880B240F4007008800121C8E95F
:1045A000022388F81C1088F8021009E509991831CF
:1045B000099109990968F5E40B9918310B910B9948
:1045C0000968EFE407991831079107990968E9E448
:1045D000D8F81800098A441CC8F818400170D8F8A7
:1045E0001410C8F808200139C8F81410C8F80C30A5
:1045F000E6E4088880B240F400600880EFF311849C
:10460000102080F31288088B088820F48060000452
:10461000000CE4B2088084F311880D21A8E5088815
:1046200020F480600004000C0880EFF31184102057
:1046300080F31288D8F818000D8A461CC8F8186054
:104640000570088880B240F40070E4B2088084F3FA
:104650001188D8F81800098A441CC8F8184001705D
:10466000D8F814100C200239C8E90223C8F8141035
:1046700088F80200A4E498F81030002B3FF4BCAD99
:1046800031E600BF38B5184D9DF814E005EB401435
:104690004FEA401C94F8E10800B938BD84F8F328CB
:1046A000C4F8F43801220023490005F50E6584F8AA
:1046B000F22884F8FC38049A84F8F0E8022384F89D
:1046C000F118C4F8F82884F8E23865440BF02EFF9E
:1046D00002460B462846FFF735FC94F8E238002BDB
:1046E000F4D194F8FC0838BD0831002038B5184DD5
:1046F0009DF814E005EB40144FEA401C94F8E108E3
:1047000000B938BD490084F8F328C4F8F43884F8B7
:10471000F1180023049984F8F0E8022205F50E65EB
:1047200084F8F238C4F8F81884F8FC3884F8E228E1
:1047300065440BF0FBFE02460B462846FFF702FCE1
:1047400094F8E238002BF4D194F8FC0838BD00BF8F
:1047500008310020F0B589B00023904A02930393FA
:10476000136843F48033136003E0029BB3F5A04F5A
:1047700009D0136803F400330393029B01330293BF
:10478000039B002BF1D0854B1B6813F4003318BF3B
:1047900001230393039B012B01D000BFFDE77F4B57
:1047A0007F491A6C7F4842F080521A640A6842F4CA
:1047B00040420A609A689A609A6842F400429A609D
:1047C0009A6842F4A0529A6058601A6842F0807267
:1047D0001A601A689001FCD5734A40F205711160A5
:1047E000996821F003019960996841F00201A2F5EE
:1047F00080629960936803F00C03082BFAD19368E8
:1048000003F00C03042B00F0C680082B00F0AB80F3
:10481000664A624B66499868664D674E674FC0F3BB
:1048200003100144002491F8DC10CA406449E96097
:104830006449586FA960596BC6F8F42A21F08001C9
:104840005963596F604A614841F080715967196B2B
:104850000A431A635A6B5A639A6B9A631A6C5C49DF
:104860000A431A64596C5B4A0A435A6448F2FF715E
:1048700023462246CDE9004476F06EFE5648234694
:1048800022464FF6FF71CDE9004476F065FE5348AD
:10489000234622464FF6FF71CDE9004476F05CFED8
:1048A0004F48234622464FF6FF71CDE9004476F08B
:1048B00053FE4C48234622464FF6FF71CDE9004493
:1048C00076F04AFE4848234622464FF6FF71CDE96E
:1048D000004476F041FE4548234622464FF6FF71DC
:1048E000CDE9004476F038FE4148234622464FF693
:1048F000FF71CDE9004476F02FFE234622464FF6A5
:10490000FF713C48CDE9004476F026FE04A8FFF78D
:10491000E1F8D5F8FC200499D6F8F43A364842F08C
:104920008072C5F8FC20354AC2F8B00F5460106898
:1049300040F0010010604FF47A72B3FBF2F3013BD8
:10494000B3F1807F2E4AB1FBF2F2C7F8442908D2B6
:104950004FF0E022F0215361072385F82310946182
:10496000136109B0F0BD5168536852684902C2F33F
:1049700088124CBF23490D4903F03F03B1FBF3F309
:1049800003FB02F2054B5B68C3F3014301335B0099
:10499000B2FBF3F23DE71B4A3BE700BF00380240A1
:1049A0000070004008544007003C02400024F4001E
:1049B000683E080800ED00E00000002008310020FB
:1049C0000003FA0500000008FF91670000000240A4
:1049D000FFC9FE10335707000004024000080240E0
:1049E000000C024000100240001402400018024077
:1049F000001C02400020024055CEACC5001000E073
:104A000040420F0000127A0082B0064B0022019251
:104A10000193019B03EB80030193019B196002B09A
:104A2000704700BF5028004010B51C2008F09AF9CC
:104A30001121044608F036F94CB12368A2885A8344
:104A4000C8200BF0A1FD2368A2881A8310BDBDE821
:104A50001040C8200BF098BD704700BF704700BFE2
:104A6000704700BF10B5104C94F8523923B90F4B62
:104A70004FF480225A6110BD4FF0E022D2F8103D71
:104A800023F00603C2F8103DFEF744F8D4F8583975
:104A90009B68DB07EBD5D4F8542A136823F0030195
:104AA00061F307031360E2E708310020003C014096
:104AB0002DE9F04FA34CD4F854395A69D5078BB07F
:104AC00002D50BB0BDE8F08F5A699B6912EA030169
:104AD000F7D0C1F307430803019300F1E180019B84
:104AE0005D073FD48807CEB203D5D4F854390222EB
:104AF0005A610029C0F24A820A05C1F3072500F174
:104B00009981370708D5904B9048D3F8643D984772
:104B1000D4F8543908225A61F60600F10F82E806EB
:104B200000F1BE81A80600F11781019BDA0609D5C4
:104B3000854B8648D3F8743D9847D4F854394FF4E0
:104B400080125A61019B9B06BBD57F4B7F48D3F8EF
:104B5000783D9847D4F854394FF400125A610BB09D
:104B6000BDE8F08FD4F858399E69DB691E40B6B2B3
:104B7000002EB7D0754D4FF0000B05F118080F4609
:104B8000F00740F18280D4F85819D8F8002008695D
:104B90004B6B23FA0BF3DB01DBB20343906803405A
:104BA00013F00109D8B200F00F824B6B012000FA1C
:104BB0000BF023EA00034B6301239360624B6348CD
:104BC000D3F85C3D5FFA8BF1984794F84B39012B91
:104BD00000F07E8219F0800F57D0D5E94CC1D5F88E
:104BE0002431D8F800E0ACEB01029342DEF8180063
:104BF00028BF134680B20333B0EB930F45D9D4F8E6
:104C0000583994F84B99CDE9026BBA4667469C46F1
:104C1000B94237D2D5F82431781A984228BF1846BD
:104C200000F1030BD5F828314FEA9B0BB9F1000FC7
:104C300010D182B203329210D8F8B8600AD0494637
:104C4000013153F8047B37608A42F9D1D5E94C71C0
:104C5000D5F82831014403448F42C5F82831C5F8FE
:104C60003411DEF818300AD195F81C01012202FA3D
:104C700000F0DCF8342022EA0002CCF834209BB2A9
:104C80009B45C5D3DDE9026B574676080BF1010B56
:104C900005F1280508F104087FF472AF394621E7D1
:104CA000D4F858399D69DB691D402D0C3FF417AFCE
:104CB00004F64818DFF890B0029104F69C1600271D
:104CC0004FF00109C24608E06D0807F1010706F13F
:104CD000040608F1280800F09181EA07F4D530684D
:104CE000D4F85819836849690B40D9B2DB0740F101
:104CF000708194F84B39C0F80890012B07D10169F5
:104D0000D8F87C33C1F312015B1AC8F88C33DBF896
:104D1000583DF9B25046984794F84B39012BD3D1FE
:104D2000002FD1D194F8593A052BCDD1D4F89C3924
:104D3000074919610749596119684FF080211960C5
:104D4000C2E700BF0831002000000020503A0020D8
:104D5000180008601C400020D4F85859D4F8602985
:104D6000AB68C3F34103022B136814BF0021032176
:104D700061F30A0313606B6843F4807306A86B60E9
:104D8000FEF7A8FED4F85429079ED36823F4705385
:104D9000D360A86810F0060FC0F3410100F03C8119
:104DA0009F49A0483144814240F2AE819E48A6F519
:104DB0007401A1F51051814240F2AA819B499C489F
:104DC00031448142C0F0A8819A48A6F18C71A1F5C6
:104DD0004341814240F2A48197499848314481423D
:104DE000C0F0A2819649974831448142C0F0A08129
:104DF0009548A6F1B771A1F558518142C0F0A08144
:104E00009249934831448142C0F096819148924939
:104E10003044884234BF062005204025012160F33C
:104E20008D23D3604FF4005384F84A19A4F84C59E9
:104E300053617AE600238DF8133094F85A3A8DF8CE
:104E40001330864B8648D3F86C3D9847D4F85839D0
:104E5000D4F85429986894F852394FF4006151619C
:104E6000002B3FF44EAEC3077FF54BAE94F85D3A8E
:104E7000012B7FF446AE9DF81330032B7FF441AE37
:104E8000D4F8543A77491A6842F001021A601A6855
:104E900042F003021A600B6943F006030B6130E62F
:104EA000D4F85869D4F854197368002723F0010323
:104EB00073600597059B43F020030593059B67F3FB
:104EC0008A130593059B0B61674BBC460A690592E3
:104ED000013B02D0059A9206F8D494F8492952B1C0
:104EE000624B03EB820EFF2253F8040F8260D86BF3
:104EF00073458260F8D10B2363F3070763F3070C54
:104F00004FF0FF33B3614FF00113F3617761C6F8DF
:104F100010C03368564823F4FE63336094F84B297D
:104F2000D4F89C39012A18616FD04FF480534B613B
:104F30004A4B4B48D3F8683D9847F3E5D4F85439C9
:104F40009A6922F010029A611A6AC2F34340022859
:104F500002F00F0100F09080062812D101EB8101D0
:104F600004EBC101D4F8186AD1F8D40CC2F30A12C8
:104F700010443268C4F8142F3268C4F8182FC1F8EE
:104F8000D40C9A6942F010029A61C8E594F852393B
:104F90003BB1D4F8542A136823F0030060F30703ED
:104FA0001360D4F858292D4B2D48D3F8705D536801
:104FB000029123F001035360A847D4F854390299B1
:104FC0004FF000425A6197E5010707D50823936027
:104FD0005BE68A0707D50223836075E6C3060FD513
:104FE0001023936051E60B077FF56EAEDBF8603D52
:104FF0005046984733680821996065E602996EE546
:10500000410679D5402393603FE61A4A5A611A68EF
:105010004FF080221A6088E74FF400750920FEE601
:10502000401E1BFF3F420F00DFC810002013FBFE95
:1050300020D61300FF69180000D3CEFE40771B0076
:10504000C05BB3FEC091210040AC2700C01D6AFECA
:1050500040E13300803C36FEE09C4100000000202F
:10506000503A002000ED00E0410D0300643A0020BA
:10507000180008601C40002047F6F070104280D0F5
:10508000C2F30A1201EB810004EBC00002F1030C31
:105090005FEAAC0CD0F8C86CD4F818EA4FEA810883
:1050A00018BF002006D00130DEF8007046F8047BFF
:1050B0008445F8D1414404EBC101D1F8C80C104437
:1050C000C1F8C80CD1F8D40C1044C1F8D40C58E77E
:1050D000BBF1000F7FF47EAD94F8593A042B7FF4B6
:1050E00079ADD4F89C39184A1A61184A5A611A687D
:1050F0004FF080221A606DE5830758BF81467FF527
:1051000069AD02239360C0E5012140250E2086E6AB
:10511000012140250D2082E6012140250C207EE65C
:10512000012140250B207AE6012140250A2076E660
:1051300001214025092072E60121402507206EE665
:105140000121402508206AE6180008601C40002064
:1051500002784368022A11D00C490269D1F818027A
:1051600010B41840D1F81042D1F80C12931E400A26
:1051700004FB030008445DF8044B7047034AD2E97E
:10518000802102EB410202EB532070477C6000203B
:105190002DE9F04F12F0020A884E83B09B4601D0F1
:1051A00000286FD0D6F80852002D58D14FF0FF3CA0
:1051B000834C844FCDF804C0E046E64600230092BD
:1051C0002268A57B904200F09E80002D40D003F520
:1051D0008179012D07EB09190AD199F80750EA07DF
:1051E00006D415F07E0F03D1ED0900F090809E46A5
:1051F0000133082B04F11004E2D1BCF1000F009A36
:1052000004DABEF1000FC0F29280F4466D4CD6F87D
:10521000983004EB0C1741F2180E013347F80E00DA
:1052200041F21C0E0CF5817547F80E302F01C6F8BF
:105230009830E35104EB051300275F6004EB05137E
:105240009B79042B7AD8DFE803F02940194043000A
:105250009C460133082B04F11004B1D1CDE7D6E907
:10526000833404FB05339842A0D396F8B43113B9C4
:10527000012386F8B431534B01225A70002003B049
:10528000BDE8F08F96F8B431A6F58054002B59D0C4
:1052900001230220637003B0BDE8F08F12F0010714
:1052A00076D104EB0513D01093F807E0BBF1030FA0
:1052B00060F3C71E83F807E068D94FF6FF735B45BC
:1052C00028BF5B4604EB05108380BAF1000F49D17B
:1052D000500705D504EB0510C37943F00103C371F2
:1052E000D30608D504EB0515EB79C3F3450201326B
:1052F00062F34603EB71344B012003EB4C230B604C
:1053000003B0BDE8F08F009A05BB9C467EE7A56818
:10531000019A954238BF984603F1010338BF2A46E7
:10532000082B019204F110047FF44AAF65E7B8F14D
:10533000000FA8BFC446BFF669AF9FE796F8B43127
:10534000002BA5D1012386F8B431A1E7D6F89870D7
:105350001C4C03F581759C462B010137E750C6F8BC
:1053600098706BE7D6F89830D6F89C00013301307E
:10537000C6F89830C6F89C0004EB0C1041F21C06ED
:10538000835104EB051304209871A1E73B4699E78C
:105390000E4BD3F8683D002B3FF470AF0A495E68AE
:1053A0000B4A01EB4C210023B04700283FF466AFC5
:1053B00004EB05150223AB7160E700BF7C600020A1
:1053C000946000207C500020945000201020002089
:1053D000F90D000870B5104E3378022B0F4B0BBF40
:1053E000020AC0F3D412C4B200F07F04D3F8000262
:1053F00082B010440D460023032201A9FFF7C8FE26
:10540000012807D13378019A022B0CBF22F81450DF
:1054100042F8245002B070BD7C5000207C60002017
:105420002DE9F04FDFF820910D4699F800102B6818
:10543000032985B0164640D0022966D14FEA132AC7
:105440005FFA83F84FF4807B421E012A24D801249E
:105450009E421CD901288CBF00220122394F0192A3
:10546000D7F878211AB1D7F89411994250D0D7F8CB
:10547000000200235044092203A9FFF789FE0128F6
:1054800024D0022815D020B12B689E42E8D82E6087
:10549000032005B0BDE8F08FB8F1000F14D0294B00
:1054A00093F8B42112B9012283F8B421012389F8B9
:1054B0000130022005B0BDE8F08F4FF0800BC3F340
:1054C000D41A03F07F08BFE75C46C1E799F80010E3
:1054D000022916D00329ECD1039B53F8282022F08F
:1054E0007042019BD5F800C0B2FA82F252099A428A
:1054F00020D0A0440CEB0403D8452B601DD2022918
:10550000EAD1039B33F81820EBE74FF4807BD6E712
:10551000D7F81012013A02EB41224902B2FBF1F234
:105520001344B3FBF4F204FB12320AB123449B1A76
:105530002B60AAE76645ACD8A9E70AF1010A4FF04B
:105540000008A2E77C6000207C5000202DE9F04F8D
:10555000DFF850910B6899F800C0174609F58052A2
:10556000BCF1020FD2F8005283B08B46824640F065
:105570008180DEB2A6EB030805EB1325B8444FF497
:1055800080729044BB4208F1FF38B8FBF2F843D276
:10559000A844BCF1030F06EB0704A4EB030414BFFB
:1055A0004FF4807280229442A8EB050328BF144672
:1055B000B6BB944234BF0B220A2201A92846FFF74A
:1055C000E7FD012829D199F800C0DBF80000BCF103
:1055D000020F00F1010325D0A64210D2019906F175
:1055E0008042013A01EB8202043901EB840142F866
:1055F000043F8A4203F10103F9D1DBF80000A31B49
:105600000344BAF1010FCBF8003023D09F4205F1DB
:1056100001054FF00006BCD8012003B0BDE8F08FB3
:105620000B22CAE7A642EAD2019906F10042013AEA
:1056300001EB4202023901EB440122F8023F8A42A7
:1056400003F10103F9D1A31B0344BAF1010FCBF815
:105650000030DBD1BB42D9D1BCF1020F019B18D085
:1056600004F18044013C4FF0FF3243F82420DBF882
:105670000030CBE703F07F06C3F3D412BCF1030F75
:10568000A6EB03081544B84414BF4FF4807280227F
:1056900077E704F10044013C4FF6FF7223F8142031
:1056A0000120BAE77C50002030B50446C06983B0C1
:1056B00010B9012003B030BD0D460023032201A91B
:1056C000FFF766FD0128F5D1B4F92020002A19DB87
:1056D000019B012D4FEA421103EB421203D0022D30
:1056E0001BD1E5205854A368D3612378032B04D140
:1056F0000023137753779377D377636A53831B0C15
:105700009382D6E7064A92F8B41109B982F8B40137
:10571000044B01225A700220CCE7E368E4E700BFA3
:105720007C6000207C5000202DE9F043814683B04E
:105730000E4699F83C30042B00F28980DFE803F034
:105740002F03704F3F00434DDFF810814FF6F7777E
:1057500005F5805418E0BA4260D872F0CBFB0128FE
:105760004FF0000138D1D9F83000FFF733FE01289F
:1057700032D1019AD4F81412C9F83020531E8B424A
:1057800028BF0B46C4F814322A78D9F83030032ADF
:1057900001A918469AB2DED14345DED93EE0710038
:1057A00001F0FE014846FFF77FFF012843D1D9F8F9
:1057B0003430002B18BF022089F83C00B9E799F873
:1057C0002830042B04BF002389F82830D9F838305A
:1057D0000BB148469847012003B0BDE8F0831E484E
:1057E000D9F82C20D0F89431C0F894219B1AD0F825
:1057F000102202FB03F3D0F8782102EB4322C0F819
:105800007821D0F87C2102EB4322C0F87C210021D2
:1058100000F5B870FFF748FF01280CD10420CBE752
:10582000D9F8342009F130010020FFF78FFE01285C
:1058300001D10320C0E70228CED199F82830042BEB
:1058400004BF002389F8283003B0BDE8F0830220AC
:10585000F3E700BF7C5000207C600020F7FFFF0FC3
:1058600038B5044694F83430052B58D8DFE803F0F7
:10587000372B2319100394F82830082B04BF00237A
:1058800084F82830274B012283F8B521022038BD47
:1058900094F82830082B04BF002384F82830012016
:1058A00038BD00212046FFF7FFFE012837D1042034
:1058B00084F83400D6E7D4E90B01FFF78BFD01280B
:1058C0002DD10320F4E7206B4FF0FF31FFF782FD6D
:1058D000012824D1E36A002BF3D00220E8E7114D20
:1058E000D5F8082204F1300101200232FFF798FDBB
:1058F000012805D00238C0B2012810D80520D7E70A
:10590000E368D5F81012226BC5F8142203EB41238B
:10591000C4E90332E36A002BCAD16262C8E70020FF
:1059200038BD00BF7C60002070B5044694F8383064
:10593000032B4BD8DFE803F01F170B020021204692
:10594000FFF7B2FE431EDBB2012B40D970BD626B84
:1059500004F130010120FFF7F9FD0128F2D1032302
:1059600084F83830E2E71F480021FFF79DFE012848
:10597000E8D10223F4E71C4AE56802F58053127867
:10598000D3F81012D3F89401032A14BF4FF4807295
:10599000802202FB01F105EB4125C4E90350D3F855
:1059A0007851A5EB4125C3F87851D3F87C51861A7C
:1059B000A5EB41210244C3F89421C3F87C11E36AAA
:1059C000C4E90C025BB960620123C9E7022094F8C4
:1059D0002830062B04BF002384F8283070BD2663CE
:1059E000F2E700BFEC6100207C5000202DE9F0437D
:1059F0004368C3F308020A44B2F5007F83B005464A
:105A00000C4605D223446B60012003B0BDE8F0834F
:105A100090F91A20501C0AD0464902F5817201EB18
:105A20000212D17921F00101D171FF22AA7695F9F4
:105A30001B20511C16D03F4E02F5817206EB02115D
:105A400006EB0212C979D079C1F34501012986BF5D
:105A500001F1FF3101F03F010021FF2661F3460013
:105A6000D071EE762A78022ACCD0324E06F58058D4
:105A7000D8F81022B4EB422F4FEA42292BDCD8F899
:105A800018721F407A42A24225DCE2194A45286971
:105A900013D32A7E120729D5D8F89421411C8A42B3
:105AA0001BD300D100214B44DB1BA4EB0909686127
:105AB00009EB070429616B6008460028A4D03278FE
:105AC000032A31D080B24FF6F77290429CD81A4622
:105AD00014446C6098E7002097E798F8B42102BB63
