:020000040800F2
:100000000000022079E90508C19C0008DD600208B3
:1000100029EA050829EA050829EA05080000000080
:1000200000000000000000000000000085B1000892
:1000300087B100080000000089B10008ED16010832
:1000400029EA050829EA050829EA050829EA050830
:1000500029EA050829EA05088FFE000893FE000832
:1000600029EA050897FE00089BFE000869A300081E
:100070007DA3000891A30008A5A30008B9A3000868
:10008000CDA30008E1A3000829EA0508000000004C
:100090000000000000000000000000009FFE0008BB
:1000A000A1A20008C9A20008F1A200088BA20008C2
:1000B00019A300082DA3000841A3000829EA050898
:1000C00029EA050829EA050829EA050829EA0508B0
:1000D00029EA0508DD9D0008E99D000800000000F0
:1000E000A3FE000829EA05088BB100080000000003
:1000F000000000000000000000000000F5A3000860
:100100000000000029EA050855A3000829EA0508AF
:1001100000000000000000000000000000000000DF
:1001200009A400081DA4000831A4000845A4000883
:1001300059A40008000000000000000000000000BA
:10014000000000000000000000000000D5B1000821
:100150006DA4000881A4000895A4000829EA0508F8
:1001600029EA050829EA050800000000000000004F
:10017000000000000000000000000000000000007F
:100180000000000029EA050800000000000000004F
:0801900029EA050829EA050827
:0801980024DA0500010000005B
:1001A000946301200201000002001400B4630120E6
:1001B0000202000002001400D4630120020A0000C1
:1001C00002001400F4630120020600000200140083
:1001D00014640120020700000200140034640120AE
:1001E000020300000400140054640120020800000F
:1001F0000400140074640120010B0000000077006B
:1002000094640120010C000000007600B464012019
:100210000110000000007600D4640120010D0100EF
:1002200000007700F4640120011200000000760055
:10023000146501200114000000001E003465012037
:10024000011A000000000D0054650120011B000090
:1002500000000E0074650120011C000000001E005B
:10026000946501200117000000000C00B465012016
:100270000118000000000E00D465012001280100D3
:1002800000001800F4650120012000000000480073
:10029000146601200121000000004900346601209D
:1002A0000122000000004A005466012001230000E2
:1002B00000004B00746601200124000000004C0087
:1002C000946601200125000000004D00B466012065
:1002D0000126000000004E00D46601200127000026
:1002E00000004F00F4660120012B000000002900EF
:1002F00014670120012C010000002900346701204F
:10030000012D01000000700054670120012F000042
:100310000000310074670120012E0100000052002E
:10032000946701200130010000002800B46701201B
:100330000131010000002800D467012002350400CB
:1003400000012C00F46701200134000000003C0093
:0C035000146801200137000000002000AC
:10800000D0E907239A423CBFC1685218D01A704782
:10801000D0E9092300699A4238BF1218D31A0138EF
:10802000C01A7047D0E90902131A584258417047E4
:10803000036A41690246C85CD16801338B4228BF9C
:10804000002313627047436A8269D154436A02690C
:108050000133934228BF0023426B4362D36843F04D
:108060008003D3607047436B188810F010001EBF68
:108070001A889B8801207047436B99891A88890662
:1080800010B592B2044607D5900605D5E26A2AB328
:108090009888216B80B29047636B99891A8809068A
:1080A00092B210D510060ED5D4E909128A4223D017
:1080B000A169895CC9B2998021690132B2FBF1F0F2
:1080C00001FB1022A262998A1A88C90592B204D5CE
:1080D000D20744BF4FF6F7721A8010BD9B88E26941
:1080E0006169DBB28B54E369E2680133B3FBF2F1FF
:1080F00002FB1133E361CFE7DA6822F08002DA6035
:10810000E1E7036941681F2B30B54FF0200285BFBE
:10811000A3F120054C680C68AA4098BF9A402242FF
:108120001DD0826900201074D0688468206820F017
:1081300001002060546820686579094C828934F810
:10814000154092B21F2B22EA0402828188BF203B95
:108150004FF020028BBF9A409A40CA608A6030BDBF
:10816000005A06080E4BDA68D20310D4DA68D1063A
:108170000FD4DA68D2050ED4DA6812F0E00F0CD111
:10818000DB6813F0020F0CBF0920082070470120A4
:10819000704706207047022070470720704700BFD5
:1081A000003C024007B509238DF80730FFF7DAFFDE
:1081B0008DF807009DF80730012BF7D09DF80700D8
:1081C00003B05DF804FB838A028B9BB243EA02434F
:1081D00099430CBF01200020704782B00023019317
:1081E0000093012300900193019B63B1009A21F059
:1081F0007F4314320092009A12681A4214BF012081
:10820000002002B07047009A1832F3E770477047B9
:10821000704701207047034BD3E90003C01AC0F335
:108220000A007047781A0020054AD2E900138B42F1
:10823000FDD0D1180133C3F30A03087A53607047A5
:10824000781A0020044BD3F8080820B1D3F80808A6
:10825000431F584258417047781A0020012380F884
:1082600049307047044BD3E90003C01AC0F30A0039
:10827000C0F50060704700BF781A002010B5D0F834
:10828000E83504461B699847032384F8123100201F
:1082900010BD08B590F8123180F81331042380F82E
:1082A0001231D0F8E835DB689847002008BD08B5E2
:1082B000D0F8E435DB6903B19847002008BD08B564
:1082C000D0F8E4351B6A9847002008BD08B5D0F8FF
:1082D000E4355B6A9847002008BD70B504460D463A
:1082E000164655F0C5FCC3B201335B0033802B70DA
:1082F00003236B70601E0223002410F8011F01B9D4
:1083000070BD5A1CD2B2E9540233AC54DBB2F4E76C
:1083100010B5074C2068FF2808D00649D1F80C2872
:1083200001F5016100F07CF8FF232360002010BDFF
:1083300000000020781A0020432301480B8070477A
:1083400004000020122301480B80704747000020E2
:10835000042301480B8070475900002010B5044CDD
:1083600004480A462146FFF7B8FF204610BD00BF6B
:1083700090220020F801070810B5044C04480A4672
:108380002146FFF7AAFF204610BD00BF9022002023
:108390000B02070810B5044C04480A462146FFF7B3
:1083A0009CFF204610BD00BF90220020100207084D
:1083B00010B5044C04480A462146FFF78EFF2046BC
:1083C00010BD00BF902200201A02070810B5044C0F
:1083D00004480A462146FFF780FF204610BD00BF33
:1083E00090220020250207087047704770477047A9
:1083F000704770477047054B00200522C3F80828D6
:10840000C3F81809C3F81C09704700BF781A002088
:10841000024B0020C3F80808704700BF781A0020FC
:10842000212838B50C461BD022282BD0202815D166
:10843000A1B1072A12D11A4DD5F81C3913B1096818
:10844000002098472368C5F82039237985F8243916
:10845000637985F82539A37985F82639002038BD58
:108460000029FBD0072AF9D10D4BD3F820290A6047
:1084700093F824290A7193F825294A7193F826392B
:108480008B71EBE70029E9D0022AE7D1044BD3F83E
:108490001839002BE2D0098800209847DEE700BF9A
:1084A000781A002030B50E4CD4E900329A1AC2F383
:1084B0000A020A44B2F5006F10D80144002281423A
:1084C00003D102B12360002030BDE21810F8015B37
:1084D00015720133C3F30A030122F0E70220F3E728
:1084E000781A0020034BD3F8280908B1036918470C
:1084F000704700BF781A0020034B93F850090038EA
:1085000018BF0120704700BF781A0020034B93F872
:108510005009032894BF002001207047781A0020DA
:1085200000487047CC230020837B042B0DD0074BE1
:10853000D3F898200132C3F8982042600422827355
:10854000D3F89C200132C3F89C207047A85E00201D
:10855000202301480B8070475D0000201223014852
:108560000B8070477D000020042301480B8070477A
:108570008F0000200A4608B5044920B90448FFF7D7
:10858000ACFE024808BD0348F9E700BFFC23002009
:10859000330207084B02070810B5044C04480A468A
:1085A0002146FFF79AFE204610BD00BFFC230020A5
:1085B0006302070810B5044C04480A462146FFF739
:1085C0008CFE204610BD00BFFC2300207602070869
:1085D00010B5044C04480A462146FFF77EFE2046AB
:1085E00010BD00BFFC23002081020708002370B5E6
:1085F0004D1C1E46040FB0F1204F34BF30343734C9
:1086000001F8134005F813600133DCB2A2424FEACF
:108610000010EFD870BD1A2310B50B80094BD3F8AA
:10862000E807D3F8EC2780180AD0D3F8EA470649C0
:108630000822FFF7DBFF042210312046FFF7D6FFA8
:10864000024810BD00F0FF1F95000020930000209D
:1086500008B5FFF747FF013840B208BD002070475A
:108660000020704770477047D0ED007AD0ED036A64
:1086700030EE677AE6EE877AB0EE670AC0ED007AF0
:10868000704790ED017AB5EE407AF1EE10FAF0EE17
:10869000407A09D19FED0E7A60EE870AF7EE006A04
:1086A00086EEA07A80ED017A90ED017A90ED000AD5
:1086B00080ED021A31EE077A77EEC07AC1EE076AD2
:1086C000A6EEA70AC0ED036A80ED000A704700BF5E
:1086D000DB0FC940D0ED056AD0ED017A90ED026A5A
:1086E000D0ED045AB0EE407A26EEA70AD0ED007A1B
:1086F00080ED057AA7EE870AD0ED067AC0ED066A0E
:10870000A6EE270AD0ED077A90ED036AA6EE670A77
:1087100090ED086AC0ED087AA5EEC60A80ED070A5A
:108720007047B0EE407AD0ED007A90ED050AD0EDBA
:10873000016AA7EE870AD0ED037A67EEC07AE6EE0B
:10874000877AD0ED066A76EEA77AD0ED026AC0EDA0
:10875000057AD0ED047A67EEC07AE6EE877AC0ED4E
:10876000067A704703685A1C0260197070472DE939
:10877000F04F89B083680793D0E90032029201324A
:1087800092FBF3F103FB11224260029ADFED967A2D
:1087900000EB820282ED200AB1EE400A82ED400A2F
:1087A00000F18006A3F1020E00F580700124B0EE06
:1087B000670A079AA24208DA30EE670AF6EE007AF4
:1087C00020EE270A09B0BDE8F08F029ACDF80CE040
:1087D0000EEB020191FBF3F203FB12114A1C92FB18
:1087E000F3F503FB152206EB810500EB8101D1EDCA
:1087F000006A0591A11895ED007A04951F1B91FB65
:10880000F3F503FB15110091F0460191154606970B
:10881000039F06998F420CDB049991ED007A05992C
:10882000D1ED006A0699884574DB0134AEF1020E81
:10883000BFE7AB42D8BF002506EB8509019999ED4A
:10884000000A8B42D8BF0021B4EEC70A00EB850AAC
:1088500000EB810BF1EE10FADAED007A9BED006A85
:1088600001914FEA810C10DCF4EEE67AF1EE10FA99
:108870002EDC0199039F01310137013501910397E6
:10888000F0EE676AB0EE407AC2E7B444DCED005A1D
:10889000B4EEE50AF1EE10FAE6DDF4EEC75AF1EEB9
:1088A00010FA58BFB0EE657A89ED007AAC464FF009
:1088B00001094C45D8D00CF1010C6345D8BF4FF0ED
:1088C000000C06EB8C0B8BED007A09F10109F0E747
:1088D000F4EEC67AF1EE10FACBDDB4EEE66AF1EE14
:1088E00010FA54BFB0EE460AB0EE660A8AED000AEE
:1088F000AC464FF001094C45BBD00CF1010C63456F
:10890000D8BF4FF0000C00EB8C0A8AED000A09F189
:108910000109F0E79342D8BF002206EB82070099D5
:1089200097ED000A8B42D8BF0021B4EEC70A00EBD6
:10893000820C00EB8109F1EE10FADCED007A99ED82
:10894000006A00914FEA810516D53544D5ED005AED
:10895000B4EEE50AF1EE10FA0ED5F4EEC75AF1EED8
:1089600010FAD4BFB0EE650AB0EE470A87ED000AF0
:1089700015460127BC4223D1F4EEE67AF1EE10FA57
:1089800013D5F4EEC67AF1EE10FA0ED5B4EEE66A1F
:10899000F1EE10FAD4BFF0EE467AF0EE667ACCED46
:1089A000007A15460127BC4214D1009901310132E9
:1089B000009108F10108F0EE676AB0EE407A31E705
:1089C0000135AB42D8BF002506EB850989ED000AC9
:1089D0000137CFE70135AB42D8BF002500EB850C4E
:1089E000CCED007A0137DEE70000000003690133B7
:1089F000012B036108D1DFED117A80ED010A80EDD2
:108A0000000AC0ED027A704790ED006A07EE903AD6
:108A100070EE466AF8EEE77A86EEA77AD0ED027A33
:108A200037EE067A30EE470A80ED017AE6EE807A7C
:108A3000B0EE470AC0ED037AE1E700BF0000000096
:108A400003685A1C026019707047007970470079FA
:108A5000C0F3401070470079400970472DE9F84392
:108A6000D0F8148007468946B8F1000F57D1056841
:108A7000C5F30D0606B3D9F80060FFF793FB09288C
:108A800040F08680444C236923F4407323612369BA
:108A900043F400732361236943F0010323612E60D3
:108AA000FFF780FB2369092823F0010323616FD1BD
:108AB0003B6804333B6032E0384B9D4229D303F5D9
:108AC00080439D4224D303F580439D422AD3344BF7
:108AD0009D4229D903F580339D4227D903F5003300
:108AE0009D4225D903F500339D4223D903F5003378
:108AF0009D4221D903F500339D421FD903F5802300
:108B00009D421DD9B5F1016F1CD305200BF0F0F883
:108B10000826FFF747FB092816D04FF0FF384046DC
:108B2000BDE8F8831026F4E71826F2E72026F0E7E0
:108B30002826EEE73026ECE73826EAE74026E8E785
:108B40004826E6E75826E4E7134C236923F44073EC
:108B50002361236943F400732361236923F0F8033D
:108B600023612369334343F002032361236943F400
:108B700080332361FFF716FB236923F0020323618F
:108B80002369092823F0F80323613FF474AFC4E795
:108B90006FF00108C3E700BF003C0240004000083E
:108BA000FFFF000803682DE9F0410D4641681344BA
:108BB0008B42044619D8AE1800F10C074FF000089C
:108BC000B54202D16069BDE8F08123695A1C226177
:108BD000234415F8011B1973042AF1D139462046A4
:108BE000FFF73CFFC4E90480EAE74FF0FF30EAE713
:108BF0002DE9F0479846444B914603EB8002054629
:108C00009468002C51D02833636004F13E03A361C3
:108C100004F59F73E3614FF48073C4E90433236860
:108C200094F83D00E160A36307F068FA064694F803
:108C3000440294F83CA0271D08B152F0ADF894F816
:108C4000450208B152F0A8F8D4F840321BB12F4ABF
:108C5000116B0B43136318F0080F2FD00135EDB2E1
:108C60001EB140F20673F380357218F0100F94F8BD
:108C700046221DD00221304607F000FAD4F84822DF
:108C800094F9471294F8473212010029D2B236DB28
:108C90001F49C81880F800235809012203F01F0358
:108CA00002FA03F341F820303C462046BDE8F08745
:108CB00018F0200F0CBF32211221DCE719F0020F4F
:108CC0000CD06B1CDBB21EB140F20652F280337244
:108CD00094F846220221304607F0D0F919F0010F2E
:108CE000CCD0504607F00AFA0135EDB218B140F287
:108CF0000663C380057294F846220221BCE7054949
:108D000003F00F03CA54CFE7005A060800380240A8
:108D100000E100E014ED00E02DE9F341038A8689CB
:108D2000B6B205460C461E404FF0004816B902B0D8
:108D3000BDE8F081B6FA86F328FA03F2D24391B285
:108D4000298216401B3B002C3ED0042BEED8DFE8D6
:108D500003F037312B250300E368EF6A23B19B68EA
:108D600013B1B9B2201D9847636A2BB19B681BB140
:108D7000B9B204F11C009847E36B2BB19B681BB19F
:108D8000B9B204F134009847636D002BCED09B68D4
:108D9000002BCBD0B9B204F14C0003E0E368696B5F
:108DA0005B68201D9847C1E7636AA96B5B6804F1A3
:108DB0001C00F7E7E36BE96B5B6804F13400F1E753
:108DC000636D296C5B68E6E7042B06D8DFE803F0E7
:108DD0000D0B09070300EB6A0193019BA6E76B6B80
:108DE000FAE7AB6BF8E7EB6BF6E72B6CF4E790F880
:108DF0004820531C0244DBB280F8483082F834101B
:108E000090F849200AB1132B01D954F087BC704760
:108E1000002280F8492054F081BC70B5124D044600
:108E200095F8833A002BFBD16618B44204D1002098
:108E300070BD01200AF002FCD5F8843AD5F8882AE2
:108E40000133C3F30A039342F3D0D5F8843A14F8FC
:108E5000012B2B4483F88C2AD5F8843A0133C3F3D1
:108E60000A03C5F8843AE0E7781A002038B50C46C2
:108E70001146FFF7E7F948B1054D002AD5F89431BE
:108E800004DD2046FFF7C9FFD5F8943138BD00BF97
:108E9000702B0020F0B585B0D0F8CC1590F8CC65DB
:108EA0000291D0F8D0150391012180F8111106F03C
:108EB0001F01B0F8D22590F8CD75B0F8CE35B0F8D6
:108EC000D055C0F840210129044600F0098102294B
:108ED00000F01A81002940F09381092F5ED8DFE865
:108EE00017F0B600F4005D00C8005D0057000A00EE
:108EF0005D00A90076001D0A022DADF806200BD0FA
:108F0000032D25D0012D49D1D0F8EC351B68A07870
:108F10000DF10601984709E0D0F8E43580789B6AA6
:108F20000DF1060198474570C4F8F005BDF806201C
:108F3000002A47D0BDF80E30002B43D09A4228BFFC
:108F40001A46ADF806200146204653F039FF39E0B5
:108F5000DBB2052B22D8DFE803F003070B0F131752
:108F6000D0F8EC355B68D2E7D0F8EC359B68CEE7FB
:108F7000D0F8EC35DB68CAE7D0F8EC351B69C6E7FA
:108F8000D0F8EC355B69C2E7D0F8EC359B69BEE7F9
:108F90002A4303D190F81211032903D1204653F03C
:108FA00039FE0FE003F07F05016980F8145163F387
:108FB0000A120B681A430A6053F016FF2DB1022300
:108FC00084F81231002005B0F0BD0123F8E7D9B2D2
:108FD0008D4D012985F89811E0D890F81231022BB7
:108FE0000FD0032BDAD1C1B9022380F81231D0F8A7
:108FF000E43580F810115B689847204653F0F4FE82
:10900000E0E70029F9D00121032380F8101180F84E
:109010001231204653F0C0FDEFE790F810110129FE
:10902000EBD0D0F8E4355B68984795F8981184F850
:109030001011EEE7012AB1D190F81231022B04D0C1
:10904000032BABD100F588717EE770497CE790F87F
:109050001231023B012BA1D86B4B0022C3F8A02197
:10906000D0F8182112B10222C3F8A02168490222C7
:109070006AE7012B08D1C4F81831D4F8E43502A905
:109080009B6820469847B8E7022B9BD1EBB2002B98
:1090900098D103692D0A023D5A68032D13D8DFE8E1
:1090A00005F0020C0E10022363F30612564BC3F8B0
:1090B000A421012384F816319FE70323F4E7042356
:1090C000F2E70523F0E70123EEE790F81221023AD8
:1090D000012A3FF663AF012B7FF474AF0023CAE788
:1090E00090F81231032B7FF459AFEDB2012D3FF60A
:1090F00055AFD0F8E43502A99B689847BDF80E300B
:10910000002B7FF45FAF78E706F06006202EE9B20F
:1091100005D1D0F8E43502A99B68984752E7012FA2
:1091200035D0032F23D0002F7FF44CAF90F81231AD
:10913000022B5FD0032B7FF431AF15F0800F4FF07F
:1091400028031BBF01F07F0103FB010103FB0101A9
:1091500091F81E3108BF91F876332B49003B18BFB8
:109160000123C1F8A831022201F5D471ECE690F890
:109170001221022A3ED0032A7FF410AF002B7FF485
:109180007CAF4A063FF479AF53F012FD75E790F8D3
:109190001221022A2ED0032A7FF400AF002B7FF485
:1091A00011AF11F07F023FF428AF6DB22823002DDC
:1091B000B5BF03FB020303FB010303F58E7303F545
:1091C0005D73002199701A70E90F00EB82025970EB
:1091D000002DB4BF9269526DD9781368023923F417
:1091E000001301298CBFC3F30071012161F31C73CB
:1091F000136042E74B063FF4E5AE53F0D9FCE1E6DD
:1092000006F08001F9E700BF702B00200C2D002034
:10921000102D002010B5044671BB90F81131032BBE
:109220001BD1D0F89023D0F87C339A4217D9C1785B
:10923000012908BFD0F88013A2EB030204BFC918AC
:10924000C0F88013934228BF1346C0F890239BB206
:10925000D0F88023002153F077FE002010BDD0F815
:10926000E4351B6923B190F81221032A00D19847F5
:10927000204653F0B9FDF0E7D0F8E4359B69002BA8
:10928000EBD090F81221032AE7D19847E5E770B5B3
:109290000A7812F0600305460C4628D0202B2DD109
:1092A000CB884E78EBB112060AD51D491A463046D6
:1092B000FFF7B6F8E2881A49284653F081FD0EE020
:1092C000184A1660184A0321C2F80C3880F81111A8
:1092D000C0E9E43302F50162002153F035FE0020BD
:1092E00070BD022211443046FFF79AF8F7E74B7839
:1092F0000A2B08D00B2B09D0062BF0D1284653F0AF
:1093000089FC0220ECE709490122D6E78B781BB9DA
:10931000074AC2F8AC31E2E753F07CFCDFE700BF5C
:109320008822002000000020781A00201C2D002038
:10933000702B002038B5282303FB0101074DB1F83D
:109340008C1304462846FFF7ADF8204640232A46F2
:10935000012153F0F9FD002038BD00BF202D002071
:1093600070B50E4BD3F8FC2193F8F051044632B19E
:1093700093F800322B4302D1012153F019FC8121D3
:10938000204653F015FC022D07D12046044ABDE8C3
:1093900070401F23012153F0D7BD70BD702B0020FA
:1093A000642D0020002310B519460446402253F0D6
:1093B00069FC402280212046002353F063FC0123F6
:1093C00084F81231D4F8E835A0785B68984700201B
:1093D00010BD38B5402204460223812153F052FCCF
:1093E000204602234022012153F04CFC2046032357
:1093F0000822822153F046FC084B0222002583F804
:109400004B2083F84C500121FEF7F5FF2046044A1B
:10941000402353F099FD284638BD00BF00000020CE
:10942000202D002010B58121044653F001FC204678
:10943000012153F0FDFB2046822153F0F9FBFEF79A
:10944000E7FF002010BD10B58121044653F0F0FB6A
:109450002046012153F0ECFB024B002083F814025C
:1094600010BD00BF702B0020F8B5224C94F8832A61
:10947000012A03462ED1204FD7F8185215B984F887
:10948000835A23E0402D23D8AEB2402E02D10222CF
:1094900084F8832AD4F8881A184A0A44C3E9542263
:1094A00040F201110022A3F84411C3E9566203F50A
:1094B000A271184653F0AFFCD4F8883A3344C3F392
:1094C0000A03AD1BC4F8883AC7F818520020F8BD4B
:1094D0004026DFE7022AF9D1002540F20112C0E957
:1094E0005455C0E95655A0F8442100F5A27153F037
:1094F00092FCC4E7781A0020702B0020042500207D
:10950000F8B5284FD7F81C320F2B03F1010203D016
:10951000C7F81C220020F8BD234C0023C7F81C32DA
:1095200094F8833A002BF5D1D4F8882AD4F8843AF9
:109530009A42EFD0D4F8882AD4F8843A9A4295BF58
:10954000D4F8845AD4F8885AD4F8883AC5F5006516
:1095500098BFED1A402D22D8AEB2402E0CBF022388
:109560000123D4F8882A84F8833A104B1344C0E9C5
:10957000543340F201120023C0E95663A0F844219D
:1095800000F5A27153F047FCD4F8883A3344C3F392
:109590000A03AD1BC4F8883AC7F81852BAE701238A
:1095A0004026DEE7702B0020781A002004250020DA
:1095B000064BD3F880391A79022A05D19A689207A6
:1095C00002D5586952F0A8BF704700BF781A002032
:1095D00010B50A4CD4F8800906F02EFB58B9D4F81F
:1095E00080090379022B08D183689B0705D5BDE864
:1095F000104008F0ABB800BFECE710BD781A0020AF
:1096000073B50A4E441C0025D6F8800901230022B8
:109610000DF1070154F0C4F89DF80700FF2802D1AE
:109620000135A542F0D102B070BD00BF781A00200C
:1096300070B5044608200D46FFF7E2FFFF2812D060
:10964000FE2812D10A4E2B46D6F880090022214668
:1096500054F0A6F80022D6F880090223114654F0EF
:109660009FF8002070BD0120FCE70220FAE700BF50
:10967000781A002037B5124D4FF6FF530024D5F865
:109680008009ADF8043001AA02232146C5F84C49EF
:1096900054F086F80120FFF7B3FFFF2805D104231B
:1096A00085F85039022003B030BD092385F85039C0
:1096B000044BD3F89431C5F840392046F3E700BF96
:1096C000781A0020702B002013B540F040038DF86D
:1096D00000300B0E8DF801300B0C8DF802300B0AA8
:1096E0008DF80330952304468DF804108DF805306D
:1096F00054F07CF800B964B907480623D0F8800913
:109700006A46002154F04CF80820FFF779FF02B0B8
:1097100010BDFF20FBE700BF781A00202DE9F041C3
:10972000194C1E4694F85039042B054688461746B6
:109730001CD1FFF73DFF94F84639FBB969021120AF
:10974000FFF7C2FFE0B9052384F850390F4BC4F886
:109750002C89D3F89431C4F83059C4F83879C4F856
:109760003C69C4F840390120BDE8F081082B03D1E1
:10977000FFF780FF0228DCD00020F5E72946DEE76E
:10978000FFF726FFF8E700BF781A0020702B0020B3
:1097900038B500220D233521022006F06DFE224C43
:1097A000C4F8800910B984F8500938BD002106F0CA
:1097B000D1F8012009F042FFD4F88059686906F019
:1097C0002AFC95F910301948194D142202FB0300A8
:1097D0000022D0F8B0000A23114653F0B7FFD4F8A6
:1097E000800906F029FA50B9124B84F84409D3F8DD
:1097F0009431C4F84039012384F85039D5E7013D4C
:10980000EDD1D4F88009022106F0A4F8D4F880093B
:1098100006F073F894F84439C4F88059013384F899
:10982000505984F84439C0E7781A0020000000201D
:10983000A1860100702B002038B5134C0023A07BBB
:10984000E0B125688D4219D1104C03F581751AB924
:1098500004EB0514A27138BD04F1180101EB432398
:109860009A4209D1831E5842584104EB051453F023
:1098700095F80123A371EEE70020F6E70133082BEA
:1098800004F11004DBD1E6E7C05E0020A84E002002
:10989000174838B5002380F8A03000F11804256877
:1098A0008D421ED1A57B032D1BD1124C03F5817572
:1098B0004AB904EB05140423A371D0F89C3001339A
:1098C000C0F89C3038BD04F1180000EB4320131A97
:1098D0005842584104EB051453F060F80123A3717A
:1098E000F0E70133082B04F11004D8D1EAE700BFF8
:1098F000A85E0020A84E0020F8B50446144EFFF7DD
:10990000A2FD204602234022812153F0BBF94022D0
:1099100001212046022353F0B5F9D6F82032002564
:109920001B6886F81452284686F8F0519847E76875
:10993000384653F03FFD3846012153F051FD204693
:109940001F2306F5FA72012153F0FEFA2846F8BDEE
:10995000702B0020002108B5084606F01DFF094BBA
:10996000094A03F58071C2F82819D3F800319847E5
:10997000FEF7B8FD0028FBD00121002006F00CFF07
:10998000002008BD00000020781A00202DE9F84FC3
:109990000E460121084615461F4606F0FDFEDFF87B
:1099A0004CA00024A74219DD06EB442905EB04086E
:1099B00001E0FEF797FDDAF82839002BF9D0D3F84B
:1099C00004B000231A4649464046D8470028F0D044
:1099D000FEF788FD0028FBD00134E3E700210120D9
:1099E00006F0DAFE0020BDE8F88F00BF781A0020EC
:1099F0002DE9F84F0E460121084615461F4606F090
:109A0000CBFEDFF848A00024A74218DD06EB44296E
:109A100005EB040801E0FEF765FDDAF8283943B1EB
:109A2000D3F80CB000231A4649464046D8470028D0
:109A3000F1D1FEF757FD0028FBD00134E4E7002107
:109A4000012006F0A9FE0020BDE8F88F781A00205A
:109A5000024BD3F8240207F09FBD00BF702B0020FB
:109A60000068F022FF2107F0A1BECB4341EA0311B9
:109A7000CAB20068D22107F099BE0068B422FF2163
:109A800007F094BE0A460068A52107F08FBE552155
:109A9000F8E700689622FF2107F088BE0A460068B2
:109AA000872107F083BECA01006802F08002782196
:109AB00007F07CBE38B50446154600680A46E12129
:109AC00007F074FE30B120682A46FF21BDE8384017
:109AD00008F0E2BD38BD0A46E121EBE70A46C321A2
:109AE000E8E738B5021D0D46F0210446FFF7E2FF16
:109AF00008B123792B7038BDF8B504460E461546DB
:109B0000071D20683A46FF2108F0C6FD30B116B1A6
:109B10002379DB07F5D40DB123792B70F8BD002232
:109B20000121E9E710B50446FFF7A7FF18B1204669
:109B3000BDE81040F3E710BD10B50446FFF7A2FFE3
:109B400018B12046BDE81040E9E710BD70B50646E3
:109B50000C468D18AC4201D1012006E014F8011B1F
:109B60003046FFF7E9FF0028F4D170BDCC21E3E7D0
:109B700038B504460D46FFF78CFF40B12046FFF78D
:109B8000CEFF20B129462046BDE83840A3E700209B
:109B900038BD70B506460C468D18AC4201D1012087
:109BA00006E021463046FFF7E3FF01340028F4D1F8
:109BB00070BD38B505461446FFF770FF2846FFF71D
:109BC000AEFF20B11CB12B79C3F34013237038BD15
:109BD00010B50446FFF7A6FF38B12046FFF7C6FFD1
:109BE00018B12046BDE8104099E7002010BD73B5BC
:109BF0000546CDE90023FFF795FFA8B12846FFF7FA
:109C000046FF88B12846FFF78AFF68B16E460824F0
:109C100016F8011B2846FFF78FFF28B1013C14F00E
:109C2000FF04F5D102B070BD0020FBE7C90138B5D3
:109C300001F0800104461546FFF735FF08B9002002
:109C400038BD002201212046FFF756FF0028F6D03C
:109C500023795B092B70F3E710B5021D0446FF2141
:109C6000006808F019FD18B12079C04300F0010028
:109C700010BD0F49D1F8883043F47003C1F8883023
:109C80000C4B1A68002042F001021A6098601A68B2
:109C900022F0847222F480321A60074A5A601A68ED
:109CA00022F480221A60D860044B8B60704700BF9A
:109CB00000ED00E0003802401030002400000008F1
:109CC000704782B00023019300933C4B1A6842F422
:109CD00080321A601A6802F400320092019A01324E
:109CE0000192009A1AB9019AB2F5A04FF2D11B68FD
:109CF00013F4003318BF01230093009B012B57D1AD
:109D00002E4B2F491A6C42F080521A640A6842F4B2
:109D100040420A609A689A609A689A609A6842F427
:109D200080529A60274A5A601A6842F080721A601C
:109D30001A689001FCD5244A40F2027111609A68B9
:109D400022F003029A609A6842F002029A601B4B6A
:109D50009A6802F00C02082AFAD19A6802F00C0202
:109D6000042A27D0082A27D159685A685B68490213
:109D7000C3F388134CBF1549154902F03F02B1FBEC
:109D8000F2F253430D4A5268C2F3014201325200CB
:109D9000B3FBF2F3094A91680E4AC1F303110A4476
:109DA00092F85C20D3400C4AC2F8203102B07047D0
:109DB00000BFFDE7054BEDE7054BEBE70038024040
:109DC0000070004019304004003C024040787D01A2
:109DD0000024F400005A0608000000200148FEF7A5
:109DE0004BB900BF280100200148FEF745B900BF6C
:109DF00074030020064A002352F83310814201D137
:109E0000D8B2704701330E2BF6D1FF20704700BF48
:109E10006C5A0608704770B5002828D04C684CB9B9
:109E2000426815685679AB8902229BB2B24023EA98
:109E30000203AB818A683AB943681D68AB8923F095
:109E400001031B041B0CAB81816044B1436819689A
:109E50005D798C890223AB4023439BB28B8132B165
:109E600043681A6893899BB243F00103938170BDE4
:109E70000B4B30B51A4600241D79854208D1DD68A8
:109E8000294203D0142303FB042030BD0029F9D05C
:109E900001340A2C03F11403EED10020F5E700BFD2
:109EA000BC0500200028ACBF00F16040064B4FEA23
:109EB0000111ACBF00F5614000F00F00C9B2B4BFA2
:109EC000195480F80013704714ED00E038B50368AA
:109ED0001B681C68244B07EE902A93ED487AF8EE35
:109EE000677AB8EE477A013987EE270A8DB2DFED3F
:109EF0001F7A30EE270A55F0B5FB1D4A238801383A
:109F0000944280B29BB212D002F5806294420ED08D
:109F1000B4F1804F0BD0A2F58032944207D002F505
:109F20008062944203D002F58062944206D123F00D
:109F300070039BB223F440739BB206E00D4A944237
:109F400003D002F580629442F4D12380084BE5628D
:109F50009C42208503D003F580639C4201D10023FD
:109F600023860123A38238BD000000200AD7233CAA
:109F70000000014000100040F0B543689A795D7917
:109F800012F0040002F0020C11BF0022E6464FF46A
:109F9000807284460FBF0124964604201446032D88
:109FA00038D8DFE805F0023872AC1B681D8C25F04C
:109FB00001052D042D0C1D841D8C9F881E8B25F002
:109FC00002052D0444EA0E042D0C26F073062543E9
:109FD000634C3604360CA342BFB246F0600603D091
:109FE00004F58064A34209D14FF6F3742C4044EA8F
:109FF0000C0427F4407744EA000517439F801E8332
:10A0000059631D841A8B22F008021204120C42F0CC
:10A0100008021A83F0BD1D682B8C23F010031B046B
:10A020001B0C2B842B8CAF882E8B23F020031B045E
:10A0300044EA0E041B0C26F4E64643EA0413484C9B
:10A040003604360CA542BFB246F4C04603D004F530
:10A050008064A5420CD123F0800343EA0C1323F063
:10A0600040039BB227F4406743EA001347EA8207A4
:10A07000AF802E83A9632B842B8B23F400631B04F6
:10A080001B0C43F400632B83C4E71D682B8C23F463
:10A0900080731B041B0C2B842B8CAF88AE8B23F49A
:10A0A00000731B0444EA0E041B0C26F0730643EAFB
:10A0B00004232B4C3604360CA542BFB246F0600692
:10A0C00003D004F58064A5420CD123F4006343EA75
:10A0D0000C2323F480639BB227F4405743EA002308
:10A0E00047EA0217AF80AE83E9632B84AB8B23F082
:10A0F00008031B041B0C43F00803AB838AE71B68AF
:10A10000188C20F480500004000C1884188C9E8851
:10A110009D8B20F40050000444EA0E04000C25F44A
:10A12000E64540EA04300E4C2D042D0CA342B6B295
:10A1300045F4C04503D004F58064A34203D126F45E
:10A14000804646EA82169E809D83196418849A8B05
:10A1500022F400621204120C42F400629A8359E75E
:10A160000000014043685A79032A0FD8DFE802F063
:10A170000205080B1868343070471868383070478B
:10A1800018683C30704718684030704700207047AE
:10A1900010B543681A685879084B0344012093F8B6
:10A1A000DC40138CA0409BB223EA00031384138C81
:10A1B000A140194389B2118410BD00BF005A06089E
:10A1C000F0B5EFF31184102383F31288C568466855
:10A1D000AA68136823F00103136032687779104E80
:10A1E000938936F817609BB223EA060393812A69A4
:10A1F0006D681F2A4FF0200385BF203A934093409B
:10A20000EB6098BFAB60E3B283F31188C3689B68CF
:10A2100059601A6842F001021A6001230374F0BD0C
:10A22000005A06080268137D012B04BF0223137530
:10A2300092F82C100CBF4FF400730023012904BFC7
:10A24000022182F82C1092F8441008BF43F4806376
:10A25000012904BF022182F8441092F85C1008BF63
:10A2600043F4006301290DD1022182F85C1043F40C
:10A2700080534268126800215162918989B20B4370
:10A28000938101E0002BF4D17047034B0348D3F8CE
:10A290002812FEF741BD00BF702B002000000140D6
:10A2A00010B5064C0648D4F82812FEF735FDD4F850
:10A2B00048120448BDE81040FEF72EBD702B002068
:10A2C000000001400040014010B5064C0648D4F89B
:10A2D0002812FEF721FDD4F84C120448BDE81040C6
:10A2E000FEF71ABD702B0020000001400044014021
:10A2F00010B5064C0648D4F82812FEF70DFDD4F828
:10A3000050120448BDE81040FEF706BD702B002037
:10A310000000014000480140034B4FF08040D3F85B
:10A320002C12FEF7F9BC00BF702B0020024B034833
:10A33000D3F83012FEF7F0BC702B00200004004070
:10A34000024B0348D3F83412FEF7E6BC702B002012
:10A3500000080040024B0348D3F83812FEF7DCBC7B
:10A36000702B0020000C00400348D0F8903613B149
:10A3700000F2846018477047000000200348D0F8BE
:10A38000B03613B100F2A4601847704700000020F7
:10A390000348D0F8D03613B100F2C46018477047B4
:10A3A000000000200348D0F8F03613B100F2E4605A
:10A3B00018477047000000200348D0F8103713B149
:10A3C00000F2047018477047000000200348D0F8DE
:10A3D000303713B100F22470184770470000002096
:10A3E0000348D0F8503713B100F244701847704753
:10A3F000000000200348D0F8703713B100F26470F9
:10A4000018477047000000200348D0F8903713B178
:10A4100000F2847018477047000000200348D0F80D
:10A42000B03713B100F2A470184770470000002045
:10A430000348D0F8D03713B100F2C4701847704702
:10A44000000000200348D0F8F03713B100F2E470A8
:10A4500018477047000000200348D0F8103813B1A7
:10A4600000F6040018477047000000200348D0F8A9
:10A47000303813B100F62400184770470000002060
:10A480000348D0F8503813B100F64400184770471D
:10A49000000000200348D0F8703813B100F66400C3
:10A4A0001847704700000020036823F00103036091
:10A4B0000023036043608360C36003612123436121
:10A4C0002A4B984203D13D2243F8082C7047284B71
:10A4D000984204D14FF4746243F8202C7047254B06
:10A4E000984204D14FF4741243F8382C7047224B31
:10A4F000984204D14FF0746243F8502C70471F4BC0
:10A50000984203D11E4A43F8642C70471D4B984271
:10A5100003D11D4A43F87C2C70471C4B984203D151
:10A520001B4A43F8942C70471A4B984204D14FF0C1
:10A530003D5243F8AC2C17E0174B9842C3D0174B51
:10A540009842C7D0164B9842CCD0164B9842D1D0E7
:10A55000154B9842D6D0154B9842DAD0144B9842FE
:10A56000DED0144B9842E2D0704700BF106002402A
:10A570002860024040600240586002407060024023
:10A580003D00002088600240400F0020A060024093
:10A5900000003D20B8600240106402402864024080
:10A5A0004064024058640240706402408864024083
:10A5B000A0640240B86402402DE9F0410022012667
:10A5C00003250B6806FA02F737EA030334D1036860
:10A5D000540005FA04FE23EA0E0303600B79D0F859
:10A5E00000806FEA0E0C03FA04FE013B4EEA080EEF
:10A5F000012BC0F800E014D883680CEA03038360E1
:10A600004B79D0F808C0A34043EA0C038360436849
:10A6100023EA070343608B79476893409BB23B432F
:10A620004360C36805FA04F723EA0703C360CB79E4
:10A63000C768A3403B43C3600132102AC1D1BDE8C3
:10A64000F081204B9A6802F00C02042A10B534D035
:10A65000082A34D159685A685B684902C3F38813E1
:10A660004CBF1949194902F03F02B1FBF2F25343C2
:10A67000144A5268C2F3014201325200B3FBF2F3B2
:10A68000104C0360A168124AC1F30311114491F800
:10A69000E010CB404360A168C1F38221114491F8DE
:10A6A000E01023FA01F18160A168C1F342310A444C
:10A6B00092F8E020D340C36010BD034BE0E7034BAA
:10A6C000DEE700BF0038024040787D010024F4003E
:10A6D000005A0608F0B5446B8668A38923F400533A
:10A6E0001B041B0CA3818579290201F4806C41793C
:10A6F00001F001038907218A4FEA053289B221F46A
:10A70000405102F4005242EA01022282A289C5F3BA
:10A71000800722F4B0524FEA83034FEA073722F052
:10A720000C0248BF43F008034CEA07011204120C64
:10A730000B431343A381A38A23F440731B041B0C14
:10A7400085B0A3826846FFF77CFF204B9C4203D074
:10A7500003F580639C4237D1039BA289192117041A
:10A7600001FB03F34FF064014CBF7600B600B3FB6E
:10A77000F6F3B3FBF1F001FB10330201A0890004F2
:10A780004BBFDB001B01323332334BBFB3FBF1F362
:10A79000B3FBF1F303F0070303F00F0313439BB282
:10A7A0002381A38A2A0755BF23F008039BB21B0409
:10A7B00043F0080358BF1B0CA382A3899BB243F448
:10A7C0000053A38105B0F0BD029BC6E70010014015
:10A7D0002DE9F8431E46204B9DF820509DF824702B
:10A7E0009842894690462CD13B462A463146002065
:10A7F000FEF7FEF904460020C4E90700C4E9090099
:10A80000C4E90B986571A660A7712046FFF762FF47
:10A81000EA0707D5636B4FF6DF721A80DA6842F0F9
:10A820002002DA60626BAB0742BFD36843F080035B
:10A83000D36093899BB243F4005393812046BDE8D3
:10A84000F883064B984204D13B462A463146012004
:10A85000CEE70024F2E700BF0010014000440040B2
:10A86000816037E7417135E7817133E72DE9F043C6
:10A87000654F07EBC00985B005464FEAC00899F857
:10A88000880805F03BFC064699F8890805F036FC77
:10A89000044699F88A0850F07FFA6B1CDBB21EB1AF
:10A8A00040F60C12F28033721CB140F60C22E280AA
:10A8B000237204223A21304605F0E0FB20460422B0
:10A8C0003A2105F0DBFB07EB0803D3F884484F4B34
:10A8D0009C4263D103F5F2331A6A42F400121A6201
:10A8E0001A6A22F400121A62474497F88B38022B36
:10A8F0006ED0032B6ED0464E464A012B18BF16462B
:10A90000A78827F03F0768463F04FFF79AFE3F0CF1
:10A91000029A414BB2FBF3F398B20743A780218818
:10A9200021F001010904090C21803C498E4253D1D8
:10A930003B4BB2FBF3F2013091B2042980B238BF35
:10A9400004212084A18323889BB243F00103238048
:10A95000238823F4816323F002031B041B0C43F4BC
:10A96000806323804FF480432381238823F0800376
:10A970001B041B0C238023889BB243F0010323801C
:10A98000284B03EB4513012283F86122002283F850
:10A99000605283F8622205B0BDE8F083224B9C42EE
:10A9A00009D103F5F0331A6A42F480021A621A6A76
:10A9B00022F4800297E71D4B9C4295D103F5EE33BC
:10A9C0001A6A42F400021A621A6A22F400028AE742
:10A9D000124E95E7124E93E706EB4606B2FBF6F2EF
:10A9E00091B2C2F30B020AB941F001014FF4967221
:10A9F00053434FF47A72B3FBF2F301339BB241F449
:10AA0000004123849EE700BF000000200054004066
:10AA100000350C00801A060040420F00A08601009D
:10AA2000400D0300702B002000580040005C0040E7
:10AA30002DE9F047BE4D460105EB401908F00CFD2D
:10AA400099F96022BB4B8846D10003EBC20207464E
:10AA5000D2F8844899F86222013A142A00F28380DD
:10AA6000DFE812F0790089009F00B800C300CD0034
:10AA7000D600EB00F600FF000A014C0174019A01B8
:10AA8000FD010E022002290249026D0215005F1825
:10AA90004FF0090A97F8880805F030FB044697F84C
:10AAA000890805F02BFBB5F8C03201339BB207468D
:10AAB0002046A5F8C03205F0AEFA384605F0ABFAEC
:10AAC0001121204605F0B1FA1121384605F0ADFA02
:10AAD0004FF0650803E00520002108F00FFD204637
:10AAE00005F090FA10B9B8F10108F4D1204605F04C
:10AAF00097FA0021052008F001FD204605F08BFAA9
:10AB00000520002108F0FAFCBAF1010AE0D1204644
:10AB100005F086FA0021052008F0F0FC384605F023
:10AB20007FFA0021052008F0E9FC204605F073FAC1
:10AB30000520002108F0E2FC384605F06CFAAB195C
:10AB400093F96002431C01D0FFF790FEAB1900227D
:10AB500083F8622207E0238813F4007340F0BA817F
:10AB6000AA1982F86232AB1993F86232002B7FF493
:10AB700065AFBDE8F087238823F400631B041B0C3A
:10AB8000238023889BB243F48063238023889BB275
:10AB900043F480732380AB19C3E99A78032283F8C6
:10ABA000622265492046FDF70EFB002800F09281E5
:10ABB000AB1993F872225AB993F87322FF2A04D181
:10ABC00093F870220AB10A22C2E7AB190422BFE748
:10ABD0000F22BDE7AB1993F8712202F0FE02228228
:10ABE000C3E99A78052283F8622254492046FDF78A
:10ABF000EAFA002800F06681AB190622A8E7AB1933
:10AC000093F873222282C3E99A78072283F862229A
:10AC10004B492046FDF7D7FA002800F05381AB19C5
:10AC2000D3F874223AB9228892B242F40072228098
:10AC3000C3E99A7804E108228AE723889BB243F4A7
:10AC400080732380AB19C3E99A78092283F86222C2
:10AC500039492046FDF7B7FA002800F03B81AB19CF
:10AC6000B1E7AB1993F8712242F001022282C3E9E5
:10AC70009A780B2283F8622232492046FDF7A3FA24
:10AC8000002800F01F81AB19D3F87432012B1AD1C0
:10AC9000238823F480631B041B0C2380EFF31182B1
:10ACA000102383F31288238B23889BB243F4007311
:10ACB0002380D3B283F311880C22AB19C3E99A78AD
:10ACC00083F862224FE7022B15D123889BB243F40D
:10ACD00000632380EFF31182102383F31288238B08
:10ACE000238823F480631B041B0C2380D3B283F3DB
:10ACF00011880D22E1E7238B0E22DEE71249204660
:10AD0000FDF76BFA002800F0E580AB19D3F8782244
:10AD1000511CC3F87812218A1170D3F87422013AB9
:10AD2000C3F874220122C3E99A7883F87C220FE7E2
:10AD3000702B0020000000200100030082000700AB
:10AD400084000700020003004000001081492046F3
:10AD5000FDF743FA002800F0BD80EFF311821023C5
:10AD600083F3128823889BB243F400732380AB19CA
:10AD7000D2B2D3F87812481CC3F87802208A08703F
:10AD800082F31188D3F87822511CC3F87812218AF3
:10AD900011706FF00102C3E76E492046FDF71DFAFE
:10ADA000002800F09780AB1903F51A71D3F87422CC
:10ADB000032A30D1228822F480621204120C2280ED
:10ADC000EFF31180102282F31288D3F8782202F177
:10ADD000010CC3F878C2B4F810C082F800C0228811
:10ADE00092B242F400722280C2B282F31188D3F888
:10ADF0007822501CC3F87802208A1070D3F874228D
:10AE0000023AC3F874220C2283F86222C3F86872F3
:10AE1000C1F80480A7E6022A14D8228822F48062AE
:10AE20001204120C2280228892B242F40072228014
:10AE3000228AC3F86872002283F87C22C1F8048059
:10AE4000012285E6D3F87822501CC3F87802208AC4
:10AE50001070D3F87422013AC3F87422D6E723881D
:10AE600023F480631B041B0C2380AB1993F871221D
:10AE700002F0FE022282C3E99A78102283F862224D
:10AE800035492046FDF79FF9E0B1AB1993F87322DD
:10AE9000FF2A04D193F870220AB1132258E6AB19A5
:10AEA000112255E6AB1993F873222282C3E99A78EE
:10AEB000122283F8622229492046FDF784F908B15D
:10AEC000AB19EAE726492046FDF787F910B1AB191F
:10AED00014223DE6A919D1E99A2342F21070BA1A58
:10AEE00068EB0303824273F10003FFF43CAE1523C9
:10AEF00081F8623237E6AB1903F51A70D3F8742281
:10AF000082B1D3F87812013A11F801CBA4F810C03D
:10AF1000C3F87422C3F86872C3F87812C0F80480CA
:10AF2000122215E6228892B242F400722280012297
:10AF3000C3F8687283F87C22C0F8048008E623888E
:10AF40009BB243F4007323804FF6FF33A382AB1907
:10AF50006EE600BF040000108200070084000700B6
:10AF60000004001038B5114C04EB401494F8615201
:10AF7000D5B1C4F87432049BC4F87832002384F845
:10AF80007C320223490084F8732284F86232012261
:10AF90009DF8143084F8711284F8722284F87032AB
:10AFA000FFF746FD94F87C52284638BD702B0020F0
:10AFB00038B5114C04EB401494F86152CDB1C4F88B
:10AFC0007432049BC4F878320223490084F8732257
:10AFD00084F8623200229DF8143084F8711284F8EB
:10AFE000722284F87C2284F87032FFF721FD94F8F5
:10AFF0007C52284638BD00BF702B002082B0002351
:10B000000193054B0193019B03EB80030193019B8B
:10B01000196002B0704700BF5028004082B0002382
:10B020000193054B0193019B03EB80030193019B6B
:10B03000186802B0704700BF5028004010B51C20AF
:10B0400005F05CF81121044604F0EFFF204604F0FF
:10B05000E7FFC82008F0F2FA2046BDE8104004F0EF
:10B06000DABF436D064A1A61C278012A06D100F29E
:10B07000CC5058611A684FF080221A60704700BFA8
:10B080001800086038B5044600296DD190F81131D8
:10B09000022B28D1D0F83821D0F824118A4230D997
:10B0A000C378012B02BFD0F828315B18C0F82831D3
:10B0B000521AD0F82831C0F838214FF48071002599
:10B0C00092B2A0F81C11C0E94A33C0F83451C0F85C
:10B0D000302100F58E7151F01FFE2B462A4629467D
:10B0E000204651F031FF94F81631012B07D1244A44
:10B0F0002369D2F8A4215A60002384F81631002075
:10B1000038BDD0F83C31B3FBF1F501FB1535A5B9DD
:10B11000994212D8D0F8402193420ED24FF4807356
:10B12000C0E94A55C0E94C55A0F81C3100F58E71B4
:10B1300051F0F2FDC4F84051CFE7D4F8E435DB68B4
:10B140002BB194F81221032A01D1204698470523F8
:10B1500084F81131002320461A46194651F0F4FEB6
:10B160002046FFF77EFFBEE7D0F8E4355B69002B91
:10B17000C5D090F81221032AC1D19847BFE700BF7C
:10B18000702B002070477047704710B50F4C94F833
:10B19000CE32B3B14FF0E022D2F8103D23F00603D7
:10B1A000C2F8103DFEF765FDD4F8D4329B68DB078A
:10B1B00007D5D4F8D023136823F0030161F3070304
:10B1C0001360034B4FF480225A6110BD702B002096
:10B1D000003C01402DE9F04FB14CD4F8D0325A690F
:10B1E000D0078BB000F196815A699B6912EA030A75
:10B1F00000F09081CAF307431AF4002F01930FD097
:10B20000D4F8D432DFF8A0829E69DB691E40360C88
:10B2100004F5467B04F531790027002E40F07D814E
:10B22000019B59070DD5D4F8D4329E4D9F69DB6937
:10B230001F40BFB205F118064FF00008002F40F084
:10B24000AD811AF0020F1FBF954BD3F8D032022206
:10B250005A61BAF1000F5FFA8AF51BDA904B93F846
:10B26000CE223AB1D3F8D023136823F0030161F35F
:10B2700007031360D4F8D4228A48536823F00103EB
:10B280005360894BD3F8B4389847D4F8D0324FF094
:10B2900000425A611AF4006FCAF307262FD0002328
:10B2A0008DF8173094F8D6338DF817307E4B7D48E3
:10B2B000D3F8B0389847D4F8D022D4F8D4324FF429
:10B2C00000619B68516194F8CE22C2B1DB0716D5AC
:10B2D00094F8D933012B12D19DF81730032B0ED1DE
:10B2E000D4F8D0331A6842F001021A601A6842F0AA
:10B2F00003021A606D4A136943F0060313612F07B6
:10B3000008D5694B6748D3F8A8389847D4F8D032A5
:10B3100008225A61ED0614D5D4F8D002836923F0CF
:10B3200010038361036AC3F34341022903F00F0250
:10B3300000F0E981062900F00D82836943F01003D3
:10B340008361F00633D5D4F8D452D4F8D0826B6838
:10B35000002723F001036B603946404652F040F865
:10B3600094F8C5C25249B9463B46FF206345C0F038
:10B37000FF814FF0FF33AB614FF00113EB610B2303
:10B3800063F3070763F307096F61C5F810902B6833
:10B39000444823F4FE632B60FFF763FE4FF48053B1
:10B3A000C8F81430404B3F48D3F8AC389847B10642
:10B3B0006DD5D4F8D462D4F8DC22B3681168C3F335
:10B3C0004103022B14BF0023032363F30A0111601E
:10B3D000736843F48073736006A8FFF732F9D4F8FA
:10B3E000D0520799E86820F47050E860B36813F011
:10B3F000060FC3F3410200F0C2812E4B2E4A0B44CC
:10B40000934240F2C0812D4AA1F57403A3F5105375
:10B41000934240F2BC812A4B2A4A0B449342C0F02B
:10B42000BA81294AA1F18C73A3F54343934240F2B8
:10B43000B681264B264A0B449342C0F0B481254B7B
:10B44000254A0B449342C0F0B281244AA1F1B7735C
:10B45000A3F558539342C0F0AD81214B214A0B44D0
:10B460009342C0F0AB81204B204E0B44012240217F
:10B47000B34234BF06230523094E63F38D204FF4F6
:10B480000053E86086F8C622A6F8C8126B61019BDB
:10B49000DA0632D5044B0348D3F8B838984727E08A
:10B4A000702B0020342E00200000002000ED00E072
:10B4B000482E0020401E1BFF3F420F00DFC8100037
:10B4C0002013FBFE20D61300FF69180000D3CEFE28
:10B4D00040771B00C05BB3FEC091210040AC270049
:10B4E000C01D6AFE40E13300803C36FEE09C410016
:10B4F000D4F8D0324FF480125A61019B9B0609D5D3
:10B50000B04BB148D3F8BC389847D4F8D0324FF498
:10B5100000125A610BB0BDE8F08FF10737D5DBF8A8
:10B520000010D4F8D4328D685B691D40EA071ED53F
:10B5300094F8C7320125AB428D6007D10969D9F86B
:10B540007C33C1F312015B1AC9F88C33D8F89C38EC
:10B550009D48F9B2984794F8C732012B07D137B903
:10B5600094F8D533052B02D19748FFF77AFDAB0746
:10B5700042BFDBF8003002259D60280707D5D8F8C8
:10B58000A43891489847DBF8003008229A600137C8
:10B5900076080BF1040B09F128093EE6FA0772D58B
:10B5A000D4F8D43232681869D3F83490916829FA03
:10B5B00008F94FEAC9195FFA89F949EA000909EA65
:10B5C000010919F0010F1FD0596B012000FA08F092
:10B5D00021EA000159637B4B7B48D3F8A0384FF038
:10B5E0000109C2F808905FFA88F1984794F8C732C9
:10B5F0004B4509D1B8F1000F06D194F8D533042B8F
:10B6000002D17148FFF72DFD19F0080F1EBF3368F6
:10B610004FF00809C3F8089019F0100F1EBF3368E7
:10B620004FF01009C3F8089019F0400F1EBF33689F
:10B630004FF04009C3F8089019F0020F1EBF33689D
:10B640004FF00209C3F8089019F0800F1BD0D5E91C
:10B650004C329B1AD5F82421D6F800B0934228BF6B
:10B6600013465A4ADBF8180092F8C7C2D2F8D492AF
:10B6700003339B080293029B80B2984203D9D5E919
:10B680004C03984205D808F101087F082835043694
:10B69000D4E5C01AD5F82431984228BF1846C31CF7
:10B6A0009B080293BCF1000F1BD0D5F82811D5F8E8
:10B6B00034210144C5F82811D5F8301102448A42DA
:10B6C000DBF81800C5F83421D5D195F81C11D9F84C
:10B6D0003420012303FA01F122EA0102C9F83420DF
:10B6E000C9E782B2D6F8B810D5F828E10332931032
:10B6F00003930A466146039B8B42D6D05EF8213005
:10B7000013600131F7E747F6F07119423FF415AEC7
:10B71000282101FB0241C3F30A13DD1CD4F894C3B2
:10B72000D1F84476AD1000218D420DD1282101FBC6
:10B730000242D2F844161944C2F84416D2F8501600
:10B740001944C2F85016F8E5DCF800E047F821E0AB
:10B750000131E9E7D4F894130D68C4F890580968EA
:10B76000C4F89418282101FB0242C3F30A13E5E749
:10B7700051F8042F9060CA6B01339060F6E54FF4E6
:10B780000071092378E6012240210E2374E601228C
:10B7900040210D2370E6012240210C236CE601229A
:10B7A00040210B2368E6012240210A2364E601229E
:10B7B0004021E6E70122402108235DE601224021E5
:10B7C000072359E600000020342E0020702B0020B3
:10B7D000034BD3F87C0908B104F014BC0120704776
:10B7E000781A002008B5FFF7F3FF0A4A18B90023BA
:10B7F00082F8503908BD92F844390133DBB2072B87
:10B8000082F84439F3D8044BD3F89431C2F8403964
:10B810000123EDE7781A0020702B0020F0B5C54C0D
:10B82000D4F8800985B0002861D094F85039013BE4
:10B83000082B44D8DFE813F009005D00DF00430067
:10B84000AA01300186014300E601FDF7B1FE0021A7
:10B850000846FDF739FF0546FDF7BAFE012D29D14F
:10B86000002684F84569FDF7A3FE40F2AB110820DD
:10B87000FDF72AFF05280AD184F84559FDF7A8FEEF
:10B8800094F84539A3B1022384F85039CDE7012853
:10B89000F4D10423D4F880093246694651F080FF80
:10B8A0009DF80330AB2B04BF022384F84539E5E74C
:10B8B00084F85039D4F88009022104F04BF894F848
:10B8C0005039013B022B09D89B4BD4F84029D3F8BF
:10B8D00094319B1AC82B01D9FFF784FF94F85009C3
:10B8E000042800F0A081A0F108035842584105B097
:10B8F000F0BDFDF75DFE94F84559AA1E554255412D
:10B90000AD0700213720FDF7DFFE29462920FDF78E
:10B91000DBFE0546FDF75CFE002DCBD194F84539E2
:10B92000022B17D1FDF744FE29463A20FDF7CCFE45
:10B93000042306462A46D4F88009694651F030FFB0
:10B94000FDF746FE16B1FFF74DFF6EE7009D2DBADD
:10B95000C5F3807584F84659FDF72AFE00210920B9
:10B96000FDF7B2FE10B1FDF733FEA3E773481021D7
:10B97000FDF75EFE06460028F5D101217F204FF03D
:10B9800073F801280546EED1022130464FF06CF8DD
:10B9900050B10128E7D116213A204FF065F8013067
:10B9A0008002C4F8540918E004212C204FF05CF800
:10B9B000032107464E204FF057F80C21064636204B
:10B9C0004FF052F80236431CB340BD40A3FB05358F
:10B9D0005B0A43EAC553C4F85439FDF7F9FDFDF796
:10B9E000E7FD00210A20FDF76FFE08B903234BE7AE
:10B9F000FDF7EEFDA7E710216846FDF719FE0028C8
:10BA00007FF458AF9DF8003084F85A39BDF8013002
:10BA10005BBAA4F858399DF8033084F85B39019B70
:10BA2000C4F85C399DF808301A0903F00F0384F854
:10BA30006539DDF8093084F864291BBAC4F8603927
:10BA40009DF80D309DF80E201B01DBB243EA121366
:10BA500003F5FA6302F00F02A4F8663984F8682946
:10BA6000FDF7B6FD94F846394BB1D4F880090221B0
:10BA700003F070FF0023C4F84C39042304E7FDF7FA
:10BA800097FD4FF400711020FDF71EFE0546FDF7EF
:10BA90009FFD002DE9D056E794F83419D4F82C29ED
:10BAA000D4F88009802302EBC112002151F078FE06
:10BAB00094F834390133DBB2042B84F834397FF441
:10BAC000FEAE1F4AD4F880090223002151F068FE1F
:10BAD0000123D4F880090022694651F061FE9DF8E7
:10BAE000003003F01F03052B15D1072384F85039CC
:10BAF000114BD4F83859D3F89431C4F84039002D9B
:10BB00003FF4DDAED4F83C39D4F82C29D4F8301900
:10BB10000120A847D3E6FFF765FED4F83859002D79
:10BB20003FF483AED4F83C39D4F830190022012018
:10BB3000A8477AE6781A0020702B0020E423002022
:10BB4000F05A060851F052FE002862D0002384F813
:10BB50004439D4F84C39012B0BD9013BC4F84C398A
:10BB6000D4F848390133C4F84839082384F85039E7
:10BB7000A5E607D1FDF77EFD02287FF4A0AEFDF714
:10BB800027FD9CE6042384F85039F8E7D4F82C0903
:10BB90004FF40071FDF74CFD0128054619D002282D
:10BBA00020D000287FF48BAEFDF712FDD4F8386961
:10BBB00084F84459042384F85039002E3FF47FAEB2
:10BBC000D4F83C39D4F82C29D4F830192846B04799
:10BBD00075E6164BD3F89421D4F840396433934278
:10BBE000BFF46DAEFDF7F4FCFFF7FCFDD4F8385957
:10BBF000002D3FF41AAE0022D4F83C39D4F83019A5
:10BC0000104695E751F0F2FD18B1FDF7E1FC042371
:10BC1000ACE7064BD3F89421D4F84039FA33934279
:10BC2000FFF491AE4BE6012061E600BF702B0020CF
:10BC30002DE9F341284C05460E4690461F4694F8E0
:10BC40005039042B0DD0082B07D1D4F84839AB421A
:10BC500019D0FDF70FFD0228F1D0012002B0BDE898
:10BC6000F081FDF7A5FC94F8463953B96902182014
:10BC7000FDF72AFD38B1FDF7ABFCFFF7B3FD03205C
:10BC8000ECE72946F3E794F85039D4F88009082BFB
:10BC900014BFFE23FC23FF228DF804208DF805300D
:10BCA00001AA0223002151F07BFDD4F880098023F2
:10BCB0003246002151F074FD012384F83439062303
:10BCC000C4F82C69C4F83059C4F83889C4F83C79F0
:10BCD00084F850390020C1E7781A002070B51C4C58
:10BCE00094F85039042B05460E4610D1FDF760FC40
:10BCF00000213720FDF7E8FC31461720FDF7E4FC72
:10BD000090B1FDF765FCFFF76DFD032002E0082B05
:10BD100001D0012070BDD4F84839834214D0FDF71A
:10BD2000A9FC0228F5D1E1E794F8463973B9690214
:10BD30001920FDF7C9FC0028E3D1082384F8503905
:10BD4000C4F84C69C4F848590220E3E72946EFE7F4
:10BD5000781A0020034BD3F8280908B14369184723
:10BD6000704700BF781A0020034BD3F8280908B1A8
:10BD700083691847704700BF781A0020034BD3F837
:10BD8000280908B1C3691847704700BF781A002016
:10BD900038B50D461446FFF7F1FF03682B604FF4EA
:10BDA00000732360002038BD034B1B78032B14BFA6
:10BDB0004FF4807080207047A84E002008B50B4AD1
:10BDC00068B1816811B10723937008BDFFF7ECFFDC
:10BDD000C2E90311C2E9010011750423F4E702F579
:10BDE0008051012381F8B4315370EEE7A84E002052
:10BDF00010B502784368022A0B4A06D1D2E98021A5
:10BE000002EB410202EB532010BD0169D2F8180287
:10BE1000D2F8104218400239D2F80C32400A04FB22
:10BE200001001844F0E700BFA85E0020064B1B7815
:10BE3000022B0BBF030AC0F3D413C0B200F07F0083
:10BE40000B601060704700BFA84E002090F91A30B8
:10BE50005A1C0AD003F58172124B03EB0213DA79F4
:10BE600022F00102DA71FF23837690F91B104B1C3C
:10BE700016D00C4A01F5817102EB011302EB01129D
:10BE8000DB79D179C3F34503012B86BF03F1FF337F
:10BE900003F03F03002363F34601FF23D171C37610
:10BEA000704700BFA84E002008B5FFF77DFF034B89
:10BEB000D3F810325843400208BD00BFA85E0020EE
:10BEC0000378022B09D10E4BD3F820224368B3EB41
:10BED000422F2CBF012000207047006970B1094B30
:10BEE0001B78032B0EBF084B80B24FF6F7739842B6
:10BEF00094BF0020012000F0010070470120FAE704
:10BF0000A85E0020A84E0020F7FFFF0F4368F7B59A
:10BF1000C3F308020A44B2F5007F04460D4604D27A
:10BF20002B446360012003B0F0BDFFF78FFF03785F
:10BF3000022B01D16368F3E7154BD3F81022B5EB60
:10BF4000422F4FEA422706DCD3F8183246681E40DB
:10BF50007342AB4201DD0020E5E7AB19BB4210D3D1
:10BF60000169007E01AA50F0F9FD0128F3D123698F
:10BF70006361019B236163683B449B1BEF1B636010
:10BF8000BD192046FFF79CFF0028CBD1D2E700BFA8
:10BF9000A85E002070B504460E461546FFF7B6FFB2
:10BFA00020B10DB12046A847012070BD94F82800AB
:10BFB000022320B9C4E90B5684F82830F5E7184667
:10BFC000F3E738B5174D05F58054014694F8E001C4
:10BFD00030BB49B191F828302BB9442204F5DC700C
:10BFE00057F0BEFA012038BD44220F4858F0DAFB62
:10BFF0004FF6FF73A4F8D231032384F8D0312B78A5
:10C000000948022B18BF032384F8B831D4F81C3236
:10C01000C4F8DC31102384F8D1314EF0EFFEE1E7B3
:10C020000020E0E7A84E002060600020044A92F85B
:10C03000B411012309B982F8B431024A5370704730
:10C04000A85E0020A84E00202DE9F74F12F002094B
:10C050008A461546019304D018B9FFF7E7FF02207E
:10C060000CE0684AD2F808625EB1D2E9831404FB9E
:10C070000611884205D3FFF7D9FF002003B0BDE8C1
:10C08000F08F4FF0FF31604EDFF880B18C468E4666
:10C09000884600243368B77B984221D1002F46D0D0
:10C0A000D2F89810594E0131C2F8981004F58172F7
:10C0B0001201B1502146554C01F5817604EB061270
:10C0C0009279042AC9D801A757F822F063C1000861
:10C0D000B9C100087BC00008B9C10008CDC1000883
:10C0E0000FB3012F10D104F581770BEB0717FF7900
:10C0F000FB0709D417F07E0F06D1FF0915D1B768E9
:10C1000047453CBFA446B8460134082C06F110064A
:10C11000C0D100290CDABEF1000F20DABCF1000F0B
:10C12000ABDB614604E02146EEE7A646ECE721469C
:10C13000364E41F2180406EB01173851D2F89840F8
:10C140000134C2F8984041F21C02BC5001F58172E2
:10C15000170106EB0212F45100245460ABE771465C
:10C16000E6E715F0010213D0294BD3F82839002B4C
:10C1700083D0284F5D68284A002307EB4121A84758
:10C1800000283FF47AAF04EB06140223A37174E78E
:10C1900004EB0610019B90F807C0EF1067F3C71C73
:10C1A000032B80F807C02BD94FF6FF72934228BFAC
:10C1B000134604EB06129380B9F1000F06D004EB8E
:10C1C000011000F580501830FCF7AEF96A0741BF46
:10C1D00004EB0612D37943F00103D371EB0608D5C3
:10C1E00004EB0614E379C3F34502013262F346031C
:10C1F000E371084B03EB4123CAF8003001203DE70F
:10C200001346D6E7A85E0020C05E0020A84E00209E
:10C21000781A0020C04E0020399800087FB50F4DD5
:10C2200001AA0C4602A9FFF701FE05F58053029E04
:10C23000D3F800020322002303A93044FFF704FFD0
:10C24000012808D12978039B019A02290CBF23F801
:10C25000124043F8224004B070BD00BFA84E002039
:10C260002DE9F04FD1F8009085B01646074601AA97
:10C2700048460D4602A9FFF7D9FD374A0299D2F880
:10C28000003201EB0308019B013B9C19FFF78CFD79
:10C29000A4EB09040444A2F5805AB4FBF0F408EBC3
:10C2A00004092B68B342A9EB080103D3012005B0B0
:10C2B000BDE8F08FDDF804B00BEB0604E41AFFF7DD
:10C2C00073FD844228BF0446BBF1000F1AD1A0427F
:10C2D0008CBF0B220A220B46404603A9FFF7B4FE8F
:10C2E0000128E4D19AF800102B68039A022903F17F
:10C2F000010358460CD0A0420CD242F82030013045
:10C300000133F8E70B22E6E722F810300130013361
:10C31000A042F9D32B68A3EB0B032344012F2B601E
:10C3200014D1B34212D102290BBF04F1004404F12D
:10C33000804304F1FF3403F1FF330BBF4FF6FF736B
:10C340004FF0FF3122F8143042F82310002308F197
:10C3500001080193A5E700BFA85E00202DE9F04F7A
:10C3600085B00546FFF720FD0C461746814601AA19
:10C37000206802A9FFF75AFD6B1E012B66D9019BAD
:10C380004BB94E46DFF8C880012D8CBF0025012532
:10C39000A8F5805A1BE0FFF749FE02202BE0D8F8F1
:10C3A0007831C3B1D8F89411914214D1D8F8102241
:10C3B000013B500203EB4223B3FBF0F30B44B3FB0E
:10C3C000F6F206FB12320AB133449B1A236022684C
:10C3D000BA42E4D32BE0DDF808B0D8F8000200231D
:10C3E000092203A95844FFF72FFE012806D002288E
:10C3F000D3D00028EBD105B0BDE8F08F9AF800103B
:10C40000019A022907D00329C7D1039B53F8223090
:10C4100023F0704302E0039B33F81230D4F800C0DD
:10C42000B3FA83F35B09AB4204D16745E3D82760D5
:10C430000320E0E732440CEB060391452360E0D88B
:10C440000BF10103029300230193C0E7012699E752
:10C45000A85E002037B50446C0690D4610B901201A
:10C4600003B030BD0023032201A9FFF7EDFD012831
:10C47000F6D1B4F92030002B17DB019A012D4FEAD9
:10C48000431102EB431316D0022D12D0E268DA6199
:10C490002278032A04D100221A775A779A77DA771A
:10C4A000626A5A83110C9982D9E7FFF7BFFD022017
:10C4B000D6E7E5205054A268E9E738B5044694F879
:10C4C0003430052B2FD8DFE803F00727353C444DE7
:10C4D000022084F83400F2E7294DD5F8082204F14F
:10C4E000300102320120FFF739FF012805D0023860
:10C4F000C0B2012817D80520EBE7D5F81012E26882
:10C50000236BC5F8143202EB4122E260E26A236138
:10C51000002ADED16362DCE7206B4FF0FF31FFF7CA
:10C520007DFE012801D0002038BDE36A002BCFD169
:10C530000320CEE7D4E90B01FFF770FE0128F7D006
:10C54000F1E700212046FFF785FF0128EBD1042009
:10C55000BFE794F82830082B04BF002384F8283064
:10C560000120E1E794F82830082B04BF002384F869
:10C570002830034B012283F8B5210220D4E700BF05
:10C58000A85E00202DE9F341044694F83830032BCF
:10C590000ED8DFE803F00611767F032084F8380018
:10C5A000F3E72046FFF789FF0128F7D00228F4D0EF
:10C5B000002002B0BDE8F08123786568DFF8E480F0
:10C5C000022B1CBF374BD3F81832204618BF1D4032
:10C5D000FFF70EFCC5F34F252D1A0646ADB200231A
:10C5E000022201A93046FFF72FFDAF190128BFB283
:10C5F000DFD101984FF40072002158F0D3F8E369BD
:10C600002BB363681BBB019B4FF020322E211970A6
:10C61000C3F80120C3F80520A3F80920606A5883F5
:10C620004FEA104C102083F8201083F82110D872A4
:10C63000C3F82220C3F8262083F82A20E26BA3F84F
:10C6400014C022FA00F199865A8783F82B00D8F893
:10C6500010124B1E9F4208D24FF400712046FFF784
:10C6600055FC50F09BF90136B9E7C1EBC1514902C5
:10C6700001F500712046FFF749FC50F08FF90220C8
:10C680008CE7002384F82830236C0BB120469847B0
:10C6900001208EE7236C002084F8280003B198471E
:10C6A000022086E7A85E002010B5044694F83830D2
:10C6B000032B53D8DFE803F00631434D022384F8FF
:10C6C0003830F3E72649D1F894212261FFF7ECFBDB
:10C6D000E3680344E360FFF767FB1044C1F894018B
:10C6E000FFF7E2FBD1F878311B1AC1F87831FFF778
:10C6F000DBFBD1F87C311B1AC1F87C312263FFF7D8
:10C7000053FBE36A1044606313B962620123D6E706
:10C71000FFF74AFB121A2263F8E712480021FFF7DD
:10C7200099FE0128CAD0431EDBB2012B06D894F82B
:10C730002830062B04BF002384F8283010BD626B1C
:10C7400004F130010120FFF78BFD0128EBD1032319
:10C75000B5E700212046FFF77DFEE4E70220E2E78F
:10C76000A85E0020186000202DE9F74306460C461D
:10C770004FF6F77596F83C30042B73D8DFE803F0DA
:10C78000290736416300032086F83C00F2E73A4F60
:10C79000DFF8EC8007F580593B78306B032B4FD1E5
:10C7A00040454BD801A94EF03BF9012857D1306BD9
:10C7B0000021FFF733FD012851D1019B3363D9F8E4
:10C7C0001422013B934294BFC9F81432C9F81422D1
:10C7D000E2E7610001F0FE013046FFF73BFE012871
:10C7E0000CD1736B002B18BF0220CDE7726B06F1E2
:10C7F00030010020FFF734FD0128C4D002282ED1DB
:10C8000031E01E48F26AD0F89431C0F894219B1AA6
:10C81000D0F810225343D0F8782102EB4322C0F81D
:10C820007821D0F87C2102EB4322C0F87C21002142
:10C8300000F5B870FFF70EFE0128DFD10420A3E752
:10C8400083B2AB42ADE796F82830042B04BF002337
:10C8500086F82830B36B0BB130469847012003B0FF
:10C86000BDE8F083022096F82830042B04BF002393
:10C8700086F82830F3E700BFA84E0020A85E00200D
:10C88000F7FFFF0F70B50378027E023B012B0446D1
:10C890001CD8237E990622D42046FFF7D7FA237EA0
:10C8A0001A070AD51E4D95F89801C31F58425841E2
:10C8B00050F074F8002385F898310023237084F831
:10C8C0002830E36A53B1BDE87040184712F0060FF4
:10C8D000DFD00121FFF7BEFD0128DAD070BDE2698B
:10C8E0001049002318010858824211D10E4903F55E
:10C8F000817201EB0213DB79C3F34503012B0BD8E3
:10C90000002301EB0212D17963F34601D171C3E731
:10C910000133082BE6D1BFE7013B03F03F03F0E70B
:10C92000A85E0020C05E0020A84E002010B580B197
:10C93000027872B190F828206AB9D0E901249442B3
:10C940002CBF84608260032280F82820C162FFF738
:10C9500099FF012010BD0020FCE7B1F904300F2B36
:10C960002DE9F34104460D4616460BD14FF40071F4
:10C97000FFF7CCFA18B9002002B0BDE8F0814FF6FD
:10C98000FF73AB802046FFF733FA94F91B20531C4A
:10C99000074624D0244B41F2180103EB0210415802
:10C9A0008F4212D1183303EB42230193019A72B1E3
:10C9B000AB8801331BB202EB4312AB8020463260DE
:10C9C000FFF716FA28600120D6E7FFF72FFB204675
:10C9D000FFF776FA0028CED000233360F3E7204635
:10C9E000FFF76EFA80460028F1D1381E18BF0120EB
:10C9F0004FF0D4FF4346112201A93846FFF724FB2C
:10CA00000128E4D1094A019B9B1A48BF03F2FF1396
:10CA1000B3F5805F4FEA632203D3FFF707FB4FF0C4
:10CA2000FF32E276C2E700BFA84E0020C04E0020D1
:10CA30002DE9F0414FF0FF31304A314C0D460023D3
:10CA4000107804280ED103F5817004EB0010C07932
:10CA5000C60707D4681C52F80A0C01D0884201D2DC
:10CA600001461D460133082B02F11002E8D1002DCA
:10CA700041DB234CDFF8988005F5817704EB071341
:10CA80002E01998841B1D8F828392BB1A01941F26B
:10CA900018029B688058984741F218032644F058C2
:10CAA000D8F828396BB1174ED3F80C80164A0023FA
:10CAB00006EB4521C04720B1022810D00020BDE878
:10CAC000F081124BD3F89C2004EB0714013AC3F811
:10CAD0009C200322A271012283F8A020EEE706F633
:10CAE000E87604EB0714D6F89C30013BC6F89C307E
:10CAF0000123A371E2E70120E1E700BFCE5E002041
:10CB0000A84E0020C04E002091980008A85E00208A
:10CB1000781A002070B5124D124BC5F8B83840F2A3
:10CB20000112002385F81432A0F84421C0F85C31CA
:10CB300005F6B8020D23C0E95422044685F8C4184E
:10CB4000C0F8583100F5A27150F065F905F5FA7298
:10CB500020461F23BDE87040012150F0F5B900BF09
:10CB6000702B00205553425370B50B7813F06002C0
:10CB7000044638D0202A1ED14A78FE2A05D0FF2A42
:10CB80001DD050F047F8022016E04A88AAB9CE8896
:10CB9000012E12D11A0610D5314DD5F820329B69DD
:10CBA0009847C0B285F8C80838B1324605F6C801C2
:10CBB000204650F005F9002070BD2046E1E74A8884
:10CBC000002AFAD1C9880029F7D11B06F5D4244AD6
:10CBD00082F81412012182F8F0111F2302F5FA7273
:10CBE00050F0B2F9E7E74B780A2B24D00B2B25D075
:10CBF000012BE0D191F904600D79C068002E22DA92
:10CC000005F07F0150F0ECFB2946204650F010F86B
:10CC10002946134D02234022204650F033F895F860
:10CC2000F031022B12D1812120464FF0C1FF0023A9
:10CC300085F8F031BFE70B490122BAE7084B4A8873
:10CC400083F8C928B7E750F0B5FBDDE7002EB2DA6C
:10CC5000012BB0D001212046FFF75CFFABE700BFFE
:10CC6000702B00203934002010B50B4A92F8143292
:10CC7000022B044607D0033B012B02D80021FFF70B
:10CC800049FF002010BD92F8011250F07BF90028F6
:10CC9000F7DA01212046F2E7702B002070B5314C05
:10CCA00094F8146205461EB1012E50D0002070BDCC
:10CCB000D4F8F831C4F8BC38D4F8FC31C4F8C03822
:10CCC000B0F8B4331F2B0DD1D4F8F421264B9A427F
:10CCD00008D194F80112012904D894F80232013BDA
:10CCE0000F2B0AD9202105204FF0DAFD022384F80A
:10CCF000F0312846FCF734FBD8E750F043F9002820
:10CD0000F7DB94F81432013B022BCFD9B4F8CA18E0
:10CD100021B3D4F8FC3184F8C468994228BF19467D
:10CD2000D4F8C0385B1AC4F8C038042384F814322D
:10CD300040F20113A5F844310C4BC5E95616C5E97C
:10CD4000543305F5A271284650F065F8AEE794F823
:10CD5000011250F017F90028A8DA31462846FFF7EB
:10CD6000D9FEA3E7702B002055534243A63E002076
:10CD7000F0B59C0827010E46154600EB0414A042AE
:10CD800006F1100605F1100508D103F0030339443C
:10CD90003A4404EB83039C4223D1F0BD84469CEDCE
:10CDA000006A16ED045AD0ED016A56ED037A90ED53
:10CDB000027A56ED025A26EE056A66EEA76AD0EDB3
:10CDC000037A05ED046A16ED016A45ED036A27EE64
:10CDD000257A67EE867A103005ED027A45ED017A04
:10CDE000CDE7F4EC017AB1EC017A67EE877AE2ECF8
:10CDF000017AD0E74A09012350F8222001F01F01EF
:10CE00008B40134214BF01200020704710B54C091D
:10CE1000012250F8243001F01F018A40134340F8EA
:10CE2000243010BD80EA0120082241F2210103B222
:10CE3000002BB5BF81EA4303400098B280B2013AAB
:10CE4000F5D1704738B50C468D18AC4200D138BDCD
:10CE500014F8011BFFF7E6FFF7E74840082243B24A
:10CE6000002BBBBF5B0083F0D5034000D8B2A8BF46
:10CE7000C0B2013AF3D1704738B50C468D18AC42B8
:10CE800000D138BD14F8011BFFF7E7FFF7E770B5D5
:10CE9000066805460C460020B44203D3731C2B6081
:10CEA000307070BD14F8011BFFF7D7FFF4E7DFED1A
:10CEB0000A7AC0ED020A20EE270AB7EE007AC7EE22
:10CEC000007A00230360C0ED017A70EEA77A80EE4D
:10CED000A77A80ED037A7047DB0FC94090ED017AA5
:10CEE000D0ED007AC0ED020A30EE877AC0EE876A94
:10CEF00030EE677AE6EE877AB0EE670AC0ED007A28
:10CF00007047012303700023C364836403650364D3
:10CF100043644365836283657047DFED157A80ED76
:10CF2000010AF4EEE70AF1EE10FAC0ED020A80ED14
:10CF3000031AC0ED051A18DDB4EEE70AF1EE10FA97
:10CF400008DC9FED0C7A80ED047A80ED0F2AC0EDAD
:10CF50000E2AD6E781EE007AC0EE207AF0EE006A63
:10CF600077EE877A86EEA77AEDE700238360E8E71D
:10CF7000BD378635000000000F29A8BF0F21012909
:10CF800070B5B8BF01214C00013400260460A40034
:10CF900005468160466022463146803057F002FCEB
:10CFA0002246314605F58070BDE8704057F0FABB67
:10CFB000FDEEC07A17EE903A2033402B43D8DFEDD8
:10CFC000237A9FED237AB4EEE70AF1EE10FA28DC1B
:10CFD000DFED207A9FED1E7AB4EEE70AF1EE10FA4B
:10CFE00022D4DFED1D7AB4EEE70AF1EE10FA1EDD71
:10CFF00030EE670A37EEC00A60EE007ADFED176A9E
:10D000009FED177AA7EEA67ADFED166AE7EE876A3C
:10D010009FED157AA7EEA67A20EE276AA6EE070AFC
:10D02000704730EE470ACEE730EE070AD4E79FEDAF
:10D030000F7AB4EEC70AF1EE10FA44BF30EE270AB9
:10D0400037EE400AD8E79FED0A0A7047DB0F4940E8
:10D05000DB0FC940DB0F49C0DB0FC93F9A7C2E367E
:10D06000FAAF4FB93587083CA4AA2ABEDB0FC9BF67
:10D0700000000000DFED027A30EE270A98E700BFDB
:10D08000DB0FC93F10B51C46334BB3FBF2F399429B
:10D090009FED325AF0EE404AF7EE005A53D207EEB7
:10D0A000901A9FED2F7ADFED2F6AF8EE677AF8EE8F
:10D0B000002A67EE877A07EE102AB8EE477A27EE45
:10D0C000267AC5EE876A87EEA64AB0EE440AFFF7D5
:10D0D0006FFFF0EE403AB0EE440AFFF7CBFF74EE7C
:10D0E000A44A012C83EEA43A1CBF35EEC04AF6EEEA
:10D0F000006A33EE257A12BF64EE266AF0EE656AA6
:10D1000020EE224A86EE876AC4EE074A60EE227A53
:10D1100075EEC35AC7EE876AC5EE877AF0EE465AB7
:10D12000C0ED005AC0ED014A80ED026AC0ED036A0D
:10D13000C0ED047A80ED065A80ED055A80ED085A5C
:10D1400080ED075A10BDF0EE454AB0EE456AF0EEAC
:10D15000456AF0EE457AE3E720A1070000000000F1
:10D16000DB0FC940BD378635B0EEE06AF0EEC07A1D
:10D17000B4EEE76AF1EE10FAF0EE406A4BDCB5EE81
:10D18000400AF1EE10FA4BD0B4EEE76AF1EE10FA75
:10D19000F0EE675A41D5B0EE465A85EE257ADFEDBE
:10D1A000225A9FED225ADFED224AA7EE255ADFEDE3
:10D1B000215AE5EE075A9FED205AA5EE875ADFED7A
:10D1C0001F5AE5EE075A9FED1E5AE7EE054AB7EEE5
:10D1D000005AA4EE875AB1EE657A87EE050AB4EEDE
:10D1E000E76AF1EE10FA48BFDFED167AF5EEC00AF5
:10D1F00048BF37EEC00AF1EE10FA48BFDFED127AF1
:10D20000F5EEC06A48BF37EEC00AF1EE10FA48BF2B
:10D21000B1EE400A7047F0EE465AB0EE675ABCE7EE
:10D220009FED0A7ABBE700BF39094E3DE3B59EBECC
:10D2300069A2163E88FA16BE45FE7FBFA7DFA8B4D6
:10D2400099FB243FDB0FC93FDB0F49400000000082
:10D2500044F25063984203DDA0F50C40A0387047BB
:10D26000034B9842BCBF00F50C40A030704700BF94
:10D27000B0B9FFFF48F69F43984203DDA0F50C408C
:10D28000A03870470028BCBF00F50C40A0307047A4
:10D2900091ED005A08B5B0EE450AFFF7EBFEF0EE4F
:10D2A000405AB0EE450AFFF783FE91ED015AF0EEC9
:10D2B000404AB0EE450AFFF7DDFEF0EE403AB0EE30
:10D2C000450AFFF775FE91ED023AB0EE405AB0EE16
:10D2D000430AFFF7CFFEB0EE404AB0EE430AFFF735
:10D2E00067FE25EE806A63EEC07A24EE847AC0ED94
:10D2F000017AF0EE467AE5EE077A25EE843A64EE9E
:10D30000806AC0ED037AF0EE437AE5EE667AA5EE28
:10D31000067AE5EE436A23EE844A64EEE34A65EE5C
:10D32000A35A80ED004A80ED025AC0ED047AC0EDA8
:10D33000054AC0ED066A80ED077AC0ED085A08BDBF
:10D34000034600F1400100221A615A619A61DA61D4
:10D3500010338B42F8D11022002157F023BA91EDFF
:10D36000007AD0ED047AE7EE077AC0ED047AD1EDC9
:10D37000006A91ED017AD0ED057AE6EE877AC0ED8C
:10D38000057AD1ED006A91ED027AD0ED067AE6EEEB
:10D39000877AC0ED067A91ED007AD0ED077A77EEC4
:10D3A000877AC0ED077AD1ED016A91ED007AD0ED70
:10D3B000087AE6EE877AC0ED087A91ED017AD0ED31
:10D3C000097AE7EE077AC0ED097AD1ED016A91EDAD
:10D3D000027AD0ED0A7AE6EE877AC0ED0A7A91ED0C
:10D3E000017AD0ED0B7A77EE877AC0ED0B7A91ED6A
:10D3F000007AD1ED026AD0ED0C7AE6EE877AC0EDC4
:10D400000C7AD1ED026A91ED017AD0ED0D7AE6EE5B
:10D41000877AC0ED0D7A91ED027AD0ED0E7AE7EEC3
:10D42000077AC0ED0E7A91ED027AD0ED0F7A77EEA1
:10D43000877AC0ED0F7A91ED007AD0ED107A77EE11
:10D44000877AC0ED107A91ED017AD0ED117A77EEFE
:10D45000877AC0ED117A91ED027AD0ED127A77EEEB
:10D46000877AB7EE007AC0ED127AD0ED137A77EEB4
:10D47000877AC0ED137AD1ED017AD1ED006A91ED92
:10D48000027A67EEA77AE6EEA67AE7EE077A90EDE3
:10D49000007AA6EEA77A80ED007AD1ED016A90EDD0
:10D4A000017AA6EEA77A80ED017AD1ED026A90EDBD
:10D4B000027AA6EEA77A80ED027A90ED037A77EEF3
:10D4C000277AC0ED037A70472DE9F043034685B013
:10D4D00000F11007054600261C46AC4612E0F8ECA9
:10D4E000016A1EED047AD4ED007AE6EEC77AC4ED47
:10D4F000007A98450EF1100EF1D10434BC420CF1C3
:10D50000040C03D0A7F11008E646F2E701361C46EA
:10D51000B646BEF1040F1DD000EB0E1CA84604F168
:10D52000100907E0FCEC016A18ED047AE6EEC77A10
:10D53000C4ED047ACC45D4ED047A08F11008F1D199
:10D54000D3ED006A87EEA67A0EF1010E84ED047A1F
:10D550006446DEE7042E03F1140305F1040507F128
:10D560001007B9D1002300930193029303936C46F3
:10D5700000231427F2EC017A00EB031507FB030CE0
:10D580006E466545C4ED007A1FD10133042B04F1CA
:10D590000404EFD104AD103100F1400275ED017AC1
:10D5A00000EB03170E461446BC4241ED017A13D13D
:10D5B00052ED016A87EEA67A013BA2F1140221ED39
:10D5C000017AEBD105B0BDE8F083F5EC016AB6EC69
:10D5D000017AE6EEC77AD4E7F4EC016AB6EC017A98
:10D5E000E6EEC77AE0E71FB50C4602466946103002
:10D5F000FFF76AFFDDED007AB6EE007A67EE877A14
:10D600000120C4ED007ADDED017A67EE877AC4ED82
:10D61000017ADDED027A67EE877AC4ED027A04B012
:10D6200010BDF8B510EE100A10EE904A50F08CFCC8
:10D63000064620460F4650F087FC324604460D460B
:10D640003B463046394650F0D7FC2246064601F1AB
:10D6500000472B462046294650F0CEFC02460B469A
:10D6600050F014FB02460B463046394650F0EEFDB2
:10D6700041EC100B51F024FE51EC100B50F0B4FFB4
:10D6800000EE100AF8BDB5EEC00AF1EE10FA08B5CA
:10D6900006DB51F03DFFB4EE400AF1EE10FA01D77F
:10D6A0009FED010A08BD00BF000000002DE9F04118
:10D6B000044626461C3004F1640250ED017AB1ECB8
:10D6C000010A77EE807A40ED017AFBF78FF9183086
:10D6D0009042F2D12C4F6268D7F8943125699B1A99
:10D6E000A2680135934225612BD904F13008F36A11
:10D6F000012BC3BF03F1FF3307EE903A96ED0A7A90
:10D700009FED220AC4BFF8EEE77A87EE270AFFF7FB
:10D71000BAFF4645D4ED057A15D0F4EEC07AF1EEA5
:10D7200010FA06F11806E2D5237B4BBBD7F89421FB
:10D73000626000222361A261E36222636364A264E7
:10D74000E365BDE8F081F4EEC07AF1EE10FAEBD4B7
:10D7500007EE905AD4ED066AF8EE677A022386EE59
:10D76000A77AD4ED0C6A84ED067A86EEA77AD4ED1A
:10D77000126A84ED0C7A86EEA77A84ED127A00E0C4
