:020000040800F2
:100000000000022029ED0B08ADED0B0879AA0608C7
:10001000ADED0B08ADED0B08ADED0B0800000000D9
:10002000000000000000000000000000ADED0B0823
:10003000ADED0B0800000000ADED0B08F54A05081A
:10004000ADED0B08ADED0B08ADED0B08ADED0B08FC
:10005000ADED0B08ADED0B08050E0508090E050802
:100060000D0E0508110E0508150E0508D9400408E7
:10007000ED40040801410408154104082941040821
:100080003D41040851410408ADED0B08ADED0B08EE
:10009000ADED0B08ADED0B08ADED0B08190E050825
:1000A000ADED0B08ADED0B08ADED0B08014B0408F1
:1000B000154B0408294B04083D4B04087133040810
:1000C00065330408A533040899330408ADED0B0823
:1000D000ADED0B0859550408655504087155040821
:1000E0001D0E0508ADED0B0800000000794B04085B
:1000F000C94B0408F14B0408654B0408654104082A
:10010000ADED0B0831680408514B0408ADED0B0848
:100110007D550408ADED0B08ADED0B08DD79040845
:10012000794104088D410408A1410408B54104083F
:10013000C9410408ADED0B08ADED0B08ADED0B08A2
:1001400000000000000000000000000000000000AF
:10015000DD410408F14104080542040889550408FA
:10016000D9330408CD330408ADED0B08ADED0B0811
:10017000ADED0B08ADED0B08ADED0B080000000078
:10018000ADED0B08ADED0B0895550408A15504081D
:10019000ADED0B08ADED0B08ADED0B08ADED0B08AB
:1001A000ADED0B08ADED0B08ADED0B08ADED0B089B
:1001B000ADED0B08ADED0B08ADED0B08ADED0B088B
:1001C000ADED0B08ADED0B08ADED0B08ADED0B087B
:1001D000ADED0B0861680408ADED0B08ADED0B0843
:1001E000ADED0B08ADED0B08ADED0B08ADED0B085B
:1001F000ADED0B08ADED0B08ADED0B08ADED0B084B
:10020000ADED0B08ADED0B08ADED0B08ADED0B083A
:100210008D4B0408A14B0408B54B0408ADED0B0849
:10022000ADED0B08ADED0B08ADED0B0800000000C7
:1002300035680408ADED0B0800000000ADED0B08BB
:10024000ADED0B08ADED0B08ADED0B08ADED0B08FA
:10025000ADED0B08ADED0B08ADED0B08ADED0B08EA
:10026000ADED0B08ADED0B08ADED0B08ADED0B08DA
:10027000ADED0B08ADED0B08ADED0B080000000077
:10028000ADED0B0800000000ADED0B080000000014
:0802900000000000ADED0B08B9
:08029800D4DC0B0001000000A2
:1002A0007CCB01240201000002012C009CCB012424
:1002B0000202000002012C00BCCB0124020A000053
:1002C00002012C00DCCB01240203000004012C00FD
:1002D000FCCB01240208000004012C001CCC0124EA
:1002E000010B0000000177003CCC0124010C000050
:1002F000000176005CCC01240110000000017600B2
:100300007CCC0124010D0100000177009CCC01246C
:100310000112000000017600BCCC01240114000091
:1003200000001E00DCCC0124011A000000000D00BA
:10033000FCCC01240115000000000C001CCD0124A0
:100340000116000000000C003CCD0124011B000040
:1003500000000E005CCD0124011C000000001E0006
:100360007CCD01240117000000000C009CCD01246D
:100370000118000000000E00BCCD0124011900008E
:1003800000000C00DCCD0124011E000000000C0068
:10039000FCCD0124011F000000000C001CCE012434
:1003A00001280100000118003CCE012401200000BA
:1003B000000148005CCE0124012100000001490039
:1003C0007CCE01240122000000014A009CCE0124C1
:1003D0000123000000014B00BCCE012401240000D9
:1003E00000014C00DCCE01240125000000014D007D
:1003F000FCCE01240126000000014E001CCF012488
:100400000127000000014F003CCF0124012B000018
:10041000000029005CCF0124012C0100000029000C
:100420007CCF0124012D0100000070009CCF01242D
:10043000012F000000003100BCCF0124012E01007B
:1004400000005200DCCF012401300100000128002F
:10045000FCCF012401310100000128001CD001243F
:100460000134000000003C003CD0012401370000B2
:040470000000200068
:020000040804EE
:10000000836B5A6D12F0500F5A6D1AD1196842F471
:1000100000725A650A6812F0080FCA6816D012F406
:10002000406F15D1CA68920412D45A6D22F48072BE
:100030005A655A6DD1040BD45A6D42F001025A65CB
:100040007047D20604D4DB6CDB6C18479007ECD009
:10005000704700BF704700BF836B5A6D42F040028B
:100060005A659A6D42F004029A65704702685549D4
:1000700038B5554B554D564CAA4218BF9A420CBF45
:10008000012300238A4208BF43F001033031A2421A
:1000900008BF43F0010330348A4208BF43F0010334
:1000A0003031A24208BF43F0010330348A4208BF16
:1000B00043F0010301F55C71A24208BF43F0010364
:1000C00004F55C748A4208BF43F001033031A24258
:1000D00008BF43F0010330348A4208BF43F00103F4
:1000E0003031A24208BF43F0010330348A4208BFD6
:1000F00043F001033031A24208BF43F001038A42BA
:1001000008BF43F0010313B9324B9A4208D10423CC
:1001100080F83530136823F001031360002038BDE8
:100120002D4B2E4D1168AA4218BF9A422C4C21F03B
:100130000E0105F13C050CBF012300231160A24212
:1001400008BF43F0010311682834AA4208BF43F0F6
:10015000010321F00101A24208BF43F0010314345E
:100160001160A24208BF43F001031E498A4208BF42
:1001700043F0010313B91C4B9A4217D10123856D3B
:10018000D0E91714226801F01F0122F480728B401D
:1001900022606B60C36ED0E91921516033B11A68D7
:1001A000D0E91C1422F480721A604C6000210122F4
:1001B000036D80F8341080F83520002BAED09847BE
:1001C000ACE700BF4000024010000240280002409F
:1001D00058000240B80402401C5402580854025807
:1001E000305402588054025894540258002280F827
:1001F000422090F84130292B04D090F841302A2B2E
:1002000018D070474FF0280C2123016880F841C0B6
:10021000036390F8413003EA0C0363450B6814BF95
:100220006FF0F20C6FF0420C03EA0C030B6080F8E5
:10023000402070474FF0280C2223016880F841C00D
:10024000036390F8413003EA0C0363450B6814BF65
:100250006FF0F40C6FF0440C03EA0C030B6080F8B1
:10026000402070470023202210B4174C4363C4621F
:10027000036380F8412080F842304B07026811D5B3
:10028000526A436A1A70436A028D013343624AB16B
:10029000438D013A013B02859BB24385436C43F099
:1002A000040343640368102490F84120002190F86F
:1002B00041201A6822F0FE021A60DC615DF8044BEE
:1002C00080F84010704700BF0000FFFF70B50023AA
:1002D00090F84120424D044680F84230283AC562E9
:1002E0004385022A406C236840EA0100606439D8E3
:1002F00094F84110282094F8412001F0280102F0E0
:100300002802282914BFF6214621282A1A680CBF82
:10031000C9436FF0F6010A4032491A60002284F89E
:10032000410022631A68616312F4804231D01A6876
:10033000A06B22F480421A6098B100222A4B036518
:1003400084F8402090F83520022A3CD08022426573
:10035000BDE87040184794F84130602B3AD084F8DB
:10036000401070BD94F8412094F841201A6822F0A2
:10037000FE021A6094F84120602A02D0202284F8FC
:1003800041200022114622631A68616312F4804200
:10039000CDD1196811F40041DDD01968E06B21F46A
:1003A000004119600028DCD00F4B036584F8402021
:1003B00090F83520022AC9D1FFF758FE0028D0D086
:1003C000E06B036DC4E7FFF751FE0028C9D0A06BB6
:1003D000036DBDE7202384F8401084F8413070BDE0
:1003E0000000FFFF65040408F106040803689A6929
:1003F000196810B4D40528D50C0606D4416C11F048
:100400000B0F1FD15DF8044B7047416C4FF48074A3
:1004100041F0010141645105DC6120D5416C4FF48C
:100420008064920541F008014164DC61E6D5426CCC
:100430004FF4007142F002024264D961416C11F044
:100440000B0FDFD05DF8044B40E7540502D50906D9
:10045000E4D4D3E79405D1D50906E8D4CEE79205D4
:10046000E5D4CBE72DE9F84390F84030C76A012B7B
:1004700000F0D780012304460D46164680F8403030
:10048000880601D591065FD4EA0621D5F3061FD56B
:10049000638D9BB2002B40F0AA8094F84130B7F1F5
:1004A000007FDBB202D1282B00F0198194F8413093
:1004B00017F5803F2268DBB202D0292B00F0D380F1
:1004C0001023D3610023184684F84030BDE8F88338
:1004D0006A071BD4280702D5310700F19880AA07C4
:1004E000F0D5B307EED5638D9BB2002B00F0A4804E
:1004F000616A236811F8010B228D9862638D013ABD
:100500006162013B22859BB26385DBE77307E1D51E
:10051000638D9BB26BB12268636A526A1A70638DF5
:10052000616A228D013B0131013A9BB261622285F1
:100530006385638D17F5803F9BB2C3D0002BC1D17B
:100540002046FFF753FEBDE723682022664819685E
:10055000DA6194F8412094F841201A6822F0FE02F2
:100560001A605A6842F400425A605A6802405A605F
:100570009A69920701D500229A629A69D00703D43A
:100580009A6942F001029A614A044DD5A26B1AB1F0
:1005900011684A6892B2628569074BD55A6A25F09C
:1005A0000409636A1A70636A01336362238D002B46
:1005B00052D1638D9BB21BB1636C43F0040363643F
:1005C0000023236384F84230D4F844806363B8F195
:1005D000000F58D1E36ADFF814914B4531D194F8FC
:1005E0004130202384F8408084F841304CE7236870
:1005F0001022DA61636C43F00403636437F08073A4
:100600007FF460AF616C2046FFF760FE5AE794F814
:100610004130226803F02803282B42D00823D361FD
:1006200050E70220BDE8F8830804B5D5E26B002A44
:10063000AED1B1E7A946BCE737F080737FF442AF93
:100640007EE72046FFF7D2FD2023C4F82C9084F8E3
:10065000408084F8413017E7013B2385638D013BDF
:100660009BB26385A5E71023D3619369980701D5F1
:10067000002393629369D9073FF562AF936943F012
:10068000010393615CE7616C2046FFF71FFE94F85D
:100690004130282B7FF4F8AE49462046FFF7E2FDB3
:1006A000F2E6E1689369022990699368D56811D1EF
:1006B000C3F3C21383EA104313F006030AD1A16CFB
:1006C0000131A164A16C02297FF4FCAE0821A3646E
:1006D000D161F7E6136823F0B8031360F2E6294608
:1006E0002046FFF7BFFDEDE600E800FE0000FFFF3B
:1006F000836B0022D3E90E0102650A6593F841205D
:10070000602A02D1202283F841207047026870B429
:10071000D4072DD597490B69896A03F03803102B4C
:1007200000F0F180182B00F0E9804368B3F5803FBA
:1007300000F05581002B00F05B81B3F5A02F8D4BAD
:10074000196800F02C8221F480311960196821F4B5
:1007500080211960884B41F2883C864C1D6804E07A
:100760001968491B614500F2408121688E03F7D565
:1007700091072DD57F490B69896A13F0380300F082
:10078000A680182B00F0A080C3687A4C002B00F0E4
:100790006381216821F019011943774B21601D689D
:1007A00004E01968491B022900F21F8121684907EA
:1007B000F7D5724B01691D6841F20303B3EB154F86
:1007C000636880F0958023F0FE4343EA0163636031
:1007D000D5064CD4150713D54369664C002B00F0A1
:1007E0009E80616F644B41F0010161671D6804E008
:1007F0001968491B022900F2F880616F8907F7D553
:10080000940613D583695B4C002B00F007812168A7
:10081000594B41F4805121601D6804E01968491B5F
:10082000022900F2E28021688904F7D5540700F11B
:10083000A780426AC2B14F490B6903F03803182BF5
:1008400000F07F81022A0A684B4B22F080720A6016
:1008500000F01881186804E01A68121A022A00F2DF
:10086000C4800A689201F7D4002070BC70474149E7
:100870000B69896A03F03803082B63D0182B5DD00D
:10088000C3693C4C002B00F0D88021683A4B41F002
:10089000800121601D6804E01968491B022900F2EB
:1008A000A4802168C905F7D5344B056A196841F25F
:1008B0000303B3EB114FC0F09081636823F0F8435A
:1008C00043EA8563636085E78D077FF45DAF294B5D
:1008D0001B685C0701D5C368F3B1284C41F20303E0
:1008E00001692468B3EB144F224C6368FFF46BAFCB
:1008F00023F47C3343EA0133636069E701F00301C9
:1009000002297FF412AF1B4B1B689B037FF530AFAE
:100910004368002B7FF42CAF012070BC7047616FDF
:10092000154B21F0010161671D6803E01968491B3F
:1009300002295AD8616F8E07F8D461E701F00301EC
:1009400001299DD10B4B1B68DC0502D5C369802BA7
:10095000E2D10A4941F20303046A0968B3EB114F7B
:100960000449C0F088804B6823F0F84343EA84636D
:100970004B602FE700440258802E00240010005CDA
:100980009C499D4B0A6842F480720A601C6803E02F
:100990001A68121B642A28D80A68D505F8D5826817
:1009A000012A00F02181002A00F00181052A934AE2
:1009B000116F00F0278121F001011167116F21F003
:1009C000040111671D6841F288348C4903E01A68FC
:1009D000521BA24209D80A6F9207F8D529E7874926
:1009E0000B6843F480330B60B4E6032070BC70479F
:1009F000824C41F28835804B216821F4803121609E
:100A0000216821F4802121601E6803E01968891B98
:100A1000A942EAD821688903F8D4A9E62168764B6F
:100A200021F4805121601D6803E01968491B0229E7
:100A3000DBD821688E04F8D4F8E621686E4B21F0EB
:100A4000800121601D6803E01968491B0229CCD888
:100A50002168CE05F8D4BDE62168674B21F001017D
:100A600021601D6803E01968491B0229BDD821686F
:100A70004E07F8D4ACE6CB6823F07C5343EA04631A
:100A8000CB60A7E61C6803E01A68121B022AACD8E8
:100A90000A689501F8D48C6A594A2240846A224334
:100AA000C46A42EA04128A62D0E90D24013A013C88
:100AB0005202240492B204F4FE042243046B013C6B
:100AC000C4F308042243C46B013C240604F0FE4432
:100AD00022430A63CA6A22F00102CA624A6B846C2A
:100AE0006FF3CF0242EAC4024A63CA6A046C22F07E
:100AF0000C022243414CCA62CA6A406C22F00202D4
:100B00000243CA62CA6A42F48032CA62CA6A42F4C2
:100B10000032CA62CA6A42F48022CA62CA6A42F0D9
:100B20000102CA620A6842F080720A60196804E031
:100B30001A68521A022A3FF658AF22689001F7D578
:100B400092E6012A8C6A0B6B3FF4E6AE04F00302D6
:100B5000816A8A427FF4E0AEC4F30514C26A94420B
:100B60007FF4DAAE026BC3F30801013A91427FF4DD
:100B7000D3AE426BC3F34621013A91427FF4CCAE2F
:100B8000826BC3F30641013A91427FF4C5AEC26B5A
:100B9000C3F30663013A981A18BF0120BDE641F479
:100BA00080211960196841F480311960D2E5134938
:100BB00041F288350A6F22F001020A670A6F22F0BB
:100BC00004020A671C6804E01A68121BAA423FF676
:100BD0000CAF0A6F9607F7D42BE6E36823F07C533B
:100BE00043EA0563E360F5E504490A6F42F0010258
:100BF0000A67E7E600480258802E002400440258A5
:100C00000CFCFFFF41F004011167116F41F001017D
:100C10001167D7E6334B30B4996A9C6ADD6A14F4E5
:100C20007C7F5A6BC4F3051036D0C2F3CC0205F0BA
:100C3000010501F0030107EE900A05FB02F201290C
:100C4000B8EEE77A06EE902AFAEEE96A02D00229B7
:100C500042D019B3DFED247A87EE876A1B6BC3F3AA
:100C6000080307EE903AF7EE005AF8EEE77A77EECF
:100C7000A67A77EEA57A67EE867A1A4B1B6BC3F3DA
:100C80004623013307EE103AF8EEC76A87EEA67ADC
:100C9000FCEEC77A17EE900A30BC70471A689206CD
:100CA0001DD51968F7EE005A104A1B6BC1F3C1013C
:100CB000C3F30803CA4007EE903A06EE102AF8EE96
:100CC000E77AB8EEC66A77EEA66AC6EE077A36EE1F
:100CD000A57A67EE877AD0E7DFED057ABCE7DFED2E
:100CE000057AB9E7004402580024744A0090D00302
:100CF00020BCBE4B0024744CF0B5344AB0F1804F98
:100D0000334CA0EB02020368A0EB040E4F69B2FA69
:100D100082F28E68BEFA8EFE0D684FEA52124FEADA
:100D20005E1E20D0FAB9DFF8B4C0604532D00CF5B1
:100D3000806C60452ED00CF5806C604513D0BEF100
:100D4000000F10D1234C244A904218BFA04225D056
:100D500002F58062904221D023F080033B43036080
:100D6000C662856213E04C6823F070032343CC68AD
:100D700023F44073234323F080033B430360C662A4
:100D8000856212B9BEF1000F12D00B690363012313
:100D90004361F0BD23F070034A681343CA6823F42B
:100DA0004073134323F080033B430360C6628562B4
:100DB000084A094B984218BF9042E6D003F5806379
:100DC0009842E2D001234361F0BD00BF0000014022
:100DD0000004014000400140004401400004004084
:100DE000836ADA0710B406D50168C46A4A6822F437
:100DF000003222434A609C0706D50168046B4A68AA
:100E000022F4803222434A60590706D50168446BB8
:100E10004A6822F4802222434A601A0706D50168F4
:100E2000846B4A6822F4004222434A60DC0606D5FD
:100E30000168C46B8A6822F4805222438A60990652
:100E400006D50168046C8A6822F4005222438A6045
:100E50005A060AD50168446C4A68B4F5801F22F42A
:100E6000801242EA04024A600BD01B0606D50268D3
:100E7000C16C536823F400230B4353605DF8044BAB
:100E800070474A68846C22F4C00222434A60ECE74F
:100E90000022836BA3F85E20A3F85620704700BFA2
:100EA000124B41F2883C124A01461B68A2FB032305
:100EB0005B0A0CFB03F33BB14A6B12F0450F01D008
:100EC000920404D5013BF7D14FF0004070474B6BC3
:100ED0005B0707D4486B10F0010014BF0123054BDA
:100EE0008B637047042318468B637047000000240F
:100EF000D34D6210C5002000036942681F2B70B4F7
:100F000030D9A3F1200520215468A940214227D0DF
:100F10008169087C022835D048681F2BC9681B4DA1
:100F20004E680169C1F30324194951F8244015F8AA
:100F300004C0056856F80C4024F0010446F80C4043
:100F4000407901EB4001088CE96800F4F05021EA97
:100F50000001E96010D9A3F1200120238B40D36068
:100F600070BC70472021146899402142F8D08169F3
:100F7000087C0228D0D105E0202101FA03F370BCDF
:100F80009360704700200874C6E700BFA07C0C087F
:100F9000C07A0C08436BDA692DE9F04197060446E4
:100FA00013D5586AE36AC0B2002B79D0216B9847F9
:100FB000636B1A6822F480721A609A6822F0010248
:100FC0009A609A6942F008029A61DA69D60701D5F7
:100FD00001221A62DA69950701D502221A62DA69DA
:100FE000500701D504221A62DA69110701D50822D7
:100FF0001A62DA69120612D5D4F8B420212A0ED06A
:10100000D4E909128A4257D0A169895C0132C9B278
:1010100099622169B2FBF1F001FB1022A262DA6948
:10102000570601D4BDE8F081DA6940F60F0C1D685F
:1010300004F1340012EA0C0F996823D0724E0E406E
:1010400042D1724F3D4240F0CD80D60202D54F02D0
:1010500000F1D080160606D501F4000105F08006E7
:101060000E4340F0BA805106DCD56A06DAD51A681C
:101070002020002122F040021A60C4F8B400C4F815
:10108000A410CFE79606E0D505F0200601F08057C2
:101090003E43DAD0D4F8A030002B40F08E80C1E778
:1010A000E3696269D054E369E2680133B3FBF2F1AA
:1010B00002FB1133E3617BE70022A4F88A201A685F
:1010C00022F080021A60AAE7D70709D5EF0507D5F5
:1010D00001271F62D4F8BC7047F00107C4F8BC7048
:1010E00097076DD4570709D5CF0707D504271F6287
:1010F000D4F8BC7047F00207C4F8BC7017070BD5D2
:1011000005F02007374307D008261E62D4F8BC60DC
:1011100046F00806C4F8BC6017050AD56E0108D56C
:101120004FF400661E62D4F8BC6046F02006C4F896
:10113000BC60D4F8BC60002E3FF474AF92060AD5B0
:1011400005F0200501F080510D4304D0D4F8A02013
:101150000AB19047636BD4F8BC109A6801F028017B
:1011600002F040020A434CD019682020284A21F49A
:101170009071196099680A4000219A60C4F8B8001B
:101180009A68C4F8A01057067FF54CAF9A68D4F857
:10119000AC0022F040029A6000283FF443AF90F880
:1011A00035201C4B022A036528D1FEF75FFF00287B
:1011B0003FF438AFD4F8AC00036DBDE8F0411847F8
:1011C000CF079BD502271F62D4F8BC7047F00407F5
:1011D000C4F8BC70570791D588E7D4F8A430002B29
:1011E000EBD11FE7D70789D5EF053FF571AF97071B
:1011F00084D477E74FF480121A6213E780224265A5
:10120000DBE7C4F8BC200DE701000010200100045A
:10121000FEFFFFEF910E0408D0E907239A423CBF7E
:10122000C1685218D01A7047D0E9092300699A4260
:1012300038BF12180138D31AC01A7047D0E9090212
:10124000101AB0FA80F04009704700BF016A0346E7
:1012500040694A1C405CD9688A4228BF00221A6251
:10126000704700BF436A826910B4D154436A416B2E
:10127000046901330A68A34228BF00235DF8044BC8
:1012800042F0800243620A60704700BF436BD86936
:1012900010F0100002D0102201201A62704700BF27
:1012A000B24BD3E9011270B58C0F93F88850100E31
:1012B000C2F3072C83F83040C1F383640001012D91
:1012C00083F83140C1F3016483F83240C1F307442D
:1012D00083F83340C1F30724C9B283F83440C2F322
:1012E000035483F83510D886C2F3C030D98E89B242
:1012F00041EA0401C2F30344D986C2F3403183F8C2
:101300003840C2F3803483F839004FF0000083F88E
:101310003A4083F83B10C2F3003183F83C10D9689F
:1013200083F83D0040F2D480022D00F0B0802A20E6
:101330004FEA4C0C83F84940C1F3C01201F07F0121
:101340000CF07E0C83F84AC04FF0010C93F84A4031
:1013500014431A6983F84A40D40F83F84B10910D57
:1013600083F84C40C2F3417401F00C01C2F3815583
:1013700083F84D40C2F3826483F84E4083F84F10E7
:1013800093F84F105C69294383F84F10C2F3405122
:1013900083F85010002183F85110C2F3004183F804
:1013A0005210C2F3C03183F85310C2F3803183F876
:1013B0005410C2F3403183F85510C2F3003183F862
:1013C0005610C2F3812183F85710C2F30121C2F3F2
:1013D000460283F85810C4F3074183F85920220EBF
:1013E000090283F85AC083F85C20C4F30722A3F8EB
:1013F0005E102406B3F85E1089B21143A3F85E10A4
:1014000099691C660C0E1A6E42EA04421A660A0AB0
:101410001C6E02F47F422243C1F30724C9B21A664C
:101420001D6EDA692C431C6683F86410110E83F874
:101430006510110C0906996611029C6E0A4601F4AA
:101440007F01214392B21C6A9966996E0A439A669B
:10145000C4F30352996E41EA1461996693F86C10D3
:101460001143C4F3072283F86C10210A01F4706160
:10147000A3F86E10B3F86E1089B21143C4F346029C
:10148000A3F86E1083F8702083F871C070BD120449
:10149000C1F3072C0D0E02F47C121A64C1F307424B
:1014A0001C6C44EA05241C641C6C22434FF4007439
:1014B0001A641A6CC3F88040013240F10004A4029F
:1014C00044EA92549202DC67C1F380349A672FE7B2
:1014D0004FEA8C2CC1F3C26594000CF44062C1F356
:1014E000072C04F47F741A641A6C1443CA0B1C642E
:1014F00002F006021C6C44EA91741C64C1F302649D
:1015000083F84450012583F84540C1F3425483F8E1
:101510004640C1F3824483F84740C1F3C03483F8A6
:10152000482093F84820224383F848201C6C93F805
:10153000482093F83860023205FA02F2B540D61717
:10154000A2FB052EC3F8805005FB06EE04FB0EEE51
:101550000134A2FB0424A644520AC1F3803442EAB7
:10156000CE529A674FEA5E22DA67E1E6802E0024C7
:10157000704700BF704700BF704700BF0120704731
:10158000014BD3F88C007047802E0024044B93F855
:101590002C03A0F10300B0FA80F04009704700BFAF
:1015A000802E0024012380F849307047EFF3118228
:1015B000702383F312880849D2B2D1E9D93182F37A
:1015C0001188581E8B42A0EB01008CBF0023012321
:1015D00000EB0330704700BF802E002401F00F01A4
:1015E000D0F8D022C1EBC10102EB8102D0E9AE30CC
:1015F000D2F8142203F5037110B5C468D3F80402BD
:10160000C3F80C22A047002010BD00BFD0F8BC32A8
:1016100083B110B5D0F8B84294F80002FF2807D083
:101620009B68214694F801229847FF2384F80032F2
:10163000002010BD002070470346432201481A8055
:10164000704700BF040000240346432201481A806B
:10165000704700BF480000240346432201481A8017
:10166000704700BF8C00002403460A2201481A80FC
:10167000704700BFD0000024064B4FF0120C064A02
:10168000A3F11400526DA1F800C0022A18BF184639
:10169000704700BFF00000240040005804230148B8
:1016A0000B807047040100241D48D0F80038D0F8A2
:1016B000082830B59B184FF01A040C8001D1194846
:1016C00030BD184A0024D0F8040802F11005114674
:1016D0004FEA137EB3F1204FCC7001F102010EF1FD
:1016E000370C38BF0EF1300C8D424FEA031381F8EE
:1016F00000C0EDD102F108050024010FB0F1204F28
:10170000D47402F1020201F1370338BF01F1300352
:1017100095424FEA00101374EFD1024830BD00BF6C
:1017200000E0F11F0801002400207047212808B5BF
:1017300027D0222818D0202814D199B1072A11D1F6
:10174000184A194B0868B1F804C0D2F86C2389799B
:10175000C3F82401A3F828C183F82A1112B1014665
:1017600000209047002008BD0029FBD0022AF9D1B3
:101770000C4BD3F87033002BF4D009880020984725
:10178000F0E70029EED0072AECD1074BD3F824016B
:10179000B3F8282193F82A31086000208A808B71E1
:1017A00008BD00BF802E002400000024034B93F8E6
:1017B0009803003818BF0120704700BF802E002416
:1017C000304B0021304A1B683048A2FB032310B580
:1017D000DB0C2F4C82B0013BC4F8DC13C4F8D413EB
:1017E00042F20F7194F80924C4F8CC03C4F8D8135A
:1017F000C4F8D033002A3FD002232649234884F876
:101800000934FFF779FA244B01220621372084F8A6
:101810000924D3F8E82042F02002C3F8E820D3F8E6
:10182000E83003F020030193019B77F0DBF8D4F854
:10183000CC334FF400001949194A4860D96841F087
:101840000101D96099680A40062A06D0B2F5803FA6
:1018500003D01A6842F001021A600020D4F848331D
:101860001049114AC3F81002C4F87003C4F86C039D
:10187000C3E9812102B010BD02F0FF0084F8080422
:10188000BAE700BF0000002483DE1B4300140040C1
:10189000802E0024503200240044025800E100E071
:1018A00007000100084D0024083D00242DE9F84FF1
:1018B000234E80468946D6F84833D3F81422002AAE
:1018C000FBD1B9F1000F37D008EB090ADFF874B08B
:1018D00008F1FF3870270AF1FF3AD6F8682318F8A4
:1018E000011F531C0BF80210C3F30B03C6F8683337
:1018F000EFF3118287F31288D6E9D931D2B282F39D
:1019000011888B42A3EB01038CBF0022012203EB61
:101910000233012B0ED113F03FF904460D4613F0AC
:101920003BF9001B61EB0501B0F57A7F71F1000115
:10193000F5D3DDE7D045D0D14846BDE8F88F00BFEC
:10194000802E0024084D0024F8B50C4E96F82C3358
:10195000032B00D0F8BD0D461446D6F80C7408E0F1
:10196000FFF7A4FFD6F80C34241A0544DB1B322BF6
:10197000F0D8002C21462846F2DCF8BD802E002449
:10198000F8B590F848305D1C0344EDB280F848503B
:1019900083F8341090F8493053B1132D07D9002340
:1019A00080F848300E4F97F82C33032B05D0F8BD44
:1019B00080F84830002DF5D1F8BDD7F80C6400F15F
:1019C000340429462046FFF771FFD7F80C342D1A4E
:1019D00004449B1B322BEAD8002DF2D1F8BD00BF86
:1019E000802E0024F8B5002390F84850A0F8483025
:1019F00005B9F8BD0B4F97F82C33032BF9D1D7F865
:101A00000C6400F1340429462046FFF74FFFD7F855
:101A10000C342D1A04449B1B322BEAD8002DF2D132
:101A2000F8BD00BF802E00242DE9F047046982B084
:101A3000C3681C4046D0814688464FF0004501F1FE
:101A4000500701F13806B4FA84F325FA03F21B3B80
:101A5000D2431440C9F81020B8F1000F5FD0042B16
:101A60002ED8DFE803F052483D320300D8F810309A
:101A7000D9F82CA033B19B6823B11FFA8AF108F181
:101A800008009847D8F8283033B19B6823B11FFA73
:101A90008AF108F120009847D8F8403033B19B68AC
:101AA00023B11FFA8AF108F138009847D8F8583066
:101AB00033B19B6823B11FFA8AF108F150009847AF
:101AC000002CC0D102B0BDE8F087D8F8103008F182
:101AD0000800D9F834105B689847002CB3D1F1E7BF
:101AE000D8F8283008F12000D9F838105B689847FA
:101AF000002CA8D1E6E7D8F840303046D9F83C10A1
:101B00005B689847002C9ED1DCE7D8F858303846FF
:101B1000D9F840105B689847002C94D1D2E7042B89
:101B200007D8DFE803F01903140F0A00D9F83C3096
:101B30000193019B002C86D1C4E7D9F82C30019386
:101B4000019BF7E7D9F834300193019BF2E7D9F80C
:101B500038300193019BEDE7D9F840300193019BA8
:101B6000E8E700BF234938B5D1F810346BB1D1F89C
:101B70008C20002AFAD0013A13F8014BC1F88C20CE
:101B8000C1F8103412B1204638BDFEE7D1F8483311
:101B9000002BF8D091F8A000D3F80452D1F86033AC
:101BA000A8B91A690121C3F830024FF40070012A64
:101BB000A3F81812C3F8245203F50671C3F82C02D7
:101BC00014D01868D2B27AF0C9F8204638BDC3F8EC
:101BD000302201211A694020A3F8181203F506717A
:101BE000012AC3F82452C3F82C02EAD1C3F82852C0
:101BF000E7E700BF802E0024D0F8B822002A3DD0AD
:101C000001EB810300EB830370B5DC69D0F8D0529F
:101C100024B90023C2F81432002070BDC1EBC10CFE
:101C200005EB8C0CDCF84460B4FBF6FC06FB1C44B2
:101C3000002CEED101F07F02DC6101F00F031C21CA
:101C400002EB820201FB035100EB8200C3EBC302F3
:101C50003C31C46105EB82000122846480F83C3091
:101C600080F83D20C0E914442A69012AD2B208BF95
:101C7000C464286823B97AF081F9CDE7022070475F
:101C80007AF06CF8C8E700BF184B0A68C3F8100474
:101C9000C3F88C200AB100207047D3F848130029FC
:101CA000F9D010B593F8A000D1F80442D3F860330E
:101CB000A0B140200121C3F82442C3E98B021A6974
:101CC0001868012AA3F81812D2B203F5067108BFEA
:101CD000C3F828427AF042F8002010BD4FF4007299
:101CE0000121C3F82442C3E98B20E8E7802E0024B9
:101CF00070B5037C0446D0F8D002002B45D14FF4D8
:101D000000730222812179F029FF01214FF4007331
:101D10000222D4F8D002E16279F020FF01260823E4
:101D200003228221D4F8D002C4F86C6179F016FF46
:101D30004FF40770266484F099FC0546C4F8B80295
:101D4000002842D0D4F8BC321B6898470022217C7E
:101D5000C5F81422D4F8D032D5F80402C5F81822F8
:101D600009B3C3F8302240241A6903F50671C3F899
:101D70002402012AA3F81862C3F82C4222D0186862
:101D8000D2B279F0EBFF002070BD40230222812106
:101D900079F0E4FE012140230222D4F8D002E1626E
:101DA00079F0DCFEBAE71A694FF40074C3F8301218
:101DB00003F50671B242C3F82402A3F81862C3F80F
:101DC0002C42DCD1C3F82802D9E7304670BD00BFF1
:101DD00070B5D0F8D05240F20112044695F8BC33E9
:101DE000A5F85820012B09D001222868114685F852
:101DF000BC237AF09FF9002385F8BC33D4F8D05285
:101E000000260121E66295F8BC33A5F818128B4232
:101E100007D03246286885F8BC137AF08BF985F82C
:101E2000BC63D4F8D05200264FF48172C4F86C61C0
:101E300095F8BC33A5F87420012B08D001220221AB
:101E4000286885F8BC237AF075F985F8BC6300250D
:101E5000D4F8B83225644BB1D4F8BC325B689847EB
:101E6000D4F8B80284F00AFCC4F8B852002070BD5F
:101E70002DE9F0410B7882B000260D4613F0600783
:101E80000446D0F8B8828DF80560ADF8066035D00C
:101E9000202F0DD08021D4F8D00279F005FF002149
:101EA000D4F8D00279F000FF022002B0BDE8F08142
:101EB000CA884878002A37D01B064FD5D4F8BC32E0
:101EC00041469B6898470223EA884FF48071C4F822
:101ED0009432D4F8D032C4E907221A651A69998776
:101EE00003F13C01012AC3F848805E6501D1C3F8C3
:101EF0004C80D2B218687AF041F819E04D780A2D7A
:101F00001DD00B2D16D0002DC4D190F89C32D0F8E6
:101F1000D002032B55D0802179F0C6FE2946D4F893
:101F2000D00279F0C1FEBFE7D4F8BC329B68984775
:101F30000020BAE790F89C32032BF9D0AAE790F87A
:101F40009C32D0F8D002032B23D0802179F0ACFE54
:101F50003946D4F8D00279F0A7FEA5E7032388F824
:101F6000000288F80122C4F89432D4F8D032C4E9CF
:101F70005722C3F8102203F5FE711A69C3F80882CC
:101F8000012AC3F81462A3F8FC6108BFC3F80C82ED
:101F9000AFE7022201234FF48071C4F89422026952
:101FA000E3612362012A03650DF10503818700F1D6
:101FB0003C018364476516D0D2B2006879F0DEFF39
:101FC000B6E70223026900F13C01C4F89432012A09
:101FD000C4E9073303654FF48073456583870DF1CA
:101FE00006038364E8D1C364E6E700BF08B520B9FF
:101FF000044876F08FF8044808BD044876F08AF863
:10200000014808BD702F0D0894320024942F0D084C
:10201000024808B576F07EF8014808BDB82F0D08D3
:1020200094320024024808B576F074F8014808BDDF
:10203000C02F0D0894320024024808B576F06AF8E3
:10204000014808BDCC2F0D089432002470B5124D04
:10205000124A2B68A2FB03239B09013BB3F1807F4B
:1020600001D3012070BD4FF0E0220D4900240F285C
:1020700053614FF0F003064681F823304FF0070319
:1020800094611361EDD801464FF0FF3076F0AAFC61
:102090002046C5F82C6170BD00000024D34D6210AD
:1020A00000ED00E0034A0130116813685B1A8342B7
:1020B000FBD37047802E00243749024603688B42C9
:1020C00033D01831591AB1FA81F1490969BB334843
:1020D000834240D01830834240D01830834236D0FB
:1020E000183083423DD01830834240D018308342AC
:1020F0002CD000F55670834237D029498B4233D01B
:1021000018318B4236D018318B4236D018318B4281
:1021100036D018318B4236D018318B4236D0183138
:102120008B4236D023F0FF0013E0DBB21D491E487E
:10213000103B10B41D4CA4FB03435DF8044B01EBB2
:10214000131393F82810C2E9160170471621184896
:10215000D1659065704710211348F9E716211248A0
:10216000F6E706211248F3E706211248F0E71021AE
:102170000F48EDE710210F48EAE716210D48E7E781
:1021800000210D48E4E706210B48E1E710210A4849
:10219000DEE716210848DBE710000240400002405D
:1021A00028040240C07A0C0800000240ABAAAAAA88
:1021B0000400024000040240040402400C4A136977
:1021C00003F03803102B0DD0182B09D063B9136816
:1021D0009B060BD513680748C3F3C103D84070476B
:1021E000FEF718BD0448704704487047014870471F
:1021F000004402580090D00340787D0100093D0062
:10220000194A136903F03803102B10B526D0182B88
:1022100009D02BBB13689B0624D513681348C3F35E
:10222000C103D84001E0FEF7F5FC0F49104A8B6965
:10223000104CC3F30323134493F8303003F01F030F
:1022400020FA03F32360896901F00F010A4492F830
:10225000300000F01F0023FA00F010BD0648E4E74C
:102260000648E2E70148E0E7004402580090D00346
:10227000C07A0C080000002440787D0100093D0070
:10228000474A70B4946A956AD66A15F47C3FC5F3E0
:102290000533D16B5BD0C1F3CC01C6F3001604F05B
:1022A000030407EE903A06FB01F1012CB8EEE77A41
:1022B00006EE901AFAEEE96A03D0022C6AD0002CDE
:1022C0004AD0DFED387A87EE876A936BC3F3080351
:1022D00007EE903AF7EE005AF8EEE77A77EEA67A34
:1022E00077EEA57A67EE867A2D4AB7EE006A936B91
:1022F000C3F3462307EE103AB8EEC77A70BC37EE48
:10230000067AC7EE876AFCEEE66AC0ED006A936B58
:10231000C3F3064307EE103AB8EEC77A37EE067AF3
:10232000C7EE876AFCEEE66AC0ED016A936BC3F301
:10233000066306EE903AF8EEE66A76EE866A87EE77
:10234000A67AFCEEC77A17EE903A8360704770BCAD
:10235000C0E900338360704713689B061DD514687D
:10236000F7EE005A936B1049C4F3C102C3F308039C
:10237000D14007EE903A06EE101AF8EEE77AB8EE82
:10238000C66A77EEA66AC6EE077A36EEA57A67EEDB
:10239000877AA9E7DFED057A95E7DFED057A92E721
:1023A000004402580024744A0090D00320BCBE4B65
:1023B0000024744C474A70B4946A956AD66A15F042
:1023C0007C7FC5F30553516C5BD0C1F3CC01C6F3E0
:1023D000002604F0030407EE903A06FB01F1012CFD
:1023E000B8EEE77A06EE901AFAEEE96A03D0022C0C
:1023F0006AD0002C4AD0DFED387A87EE876A136CFA
:10240000C3F3080307EE903AF7EE005AF8EEE77AC6
:1024100077EEA67A77EEA57A67EE867A2D4AB7EE42
:10242000006A136CC3F3462307EE103AB8EEC77A7E
:1024300070BC37EE067AC7EE876AFCEEE66AC0ED3E
:10244000006A136CC3F3064307EE103AB8EEC77A7E
:1024500037EE067AC7EE876AFCEEE66AC0ED016ADF
:10246000136CC3F3066306EE903AF8EEE66A76EE76
:10247000866A87EEA67AFCEEC77A17EE903A8360FA
:10248000704770BCC0E900338360704713689B06D7
:102490001DD51468F7EE005A136C1049C4F3C1023D
:1024A000C3F30803D14007EE903A06EE101AF8EE97
:1024B000E77AB8EEC66A77EEA66AC6EE077A36EE17
:1024C000A57A67EE877AA9E7DFED057A95E7DFED74
:1024D000057A92E7004402580024744A0090D00321
:1024E00020BCBE4B0024744CD0E9041283680B431B
:1024F000C16970B513430446056886B0626E0B432C
:1025000028681343A44A666A02401343E2682B60BA
:102510006B6823F440531343A2696B609F4B9D4249
:1025200000F02D82236AA8681A439D4B03401A438A
:10253000AA60EB6A23F00F033343EB62994B9D4291
:1025400028D0994B9D421AD0984B9D4217D0984B5A
:102550009D4214D0974B9D4211D0974B9D4219D06C
:10256000964B9D420BD0964B9D4208D001200023F4
:102570004FF00112C4E91A23236706B070BD914BD6
:102580005B6D03F00703052BF0D8DFE803F0C65FAF
:102590007AAE8D9D8B4B5B6D03F03803282BE5D80D
:1025A00001A252F823F000BF492804086D25040851
:1025B0006D2504086D2504086D2504086D250408A3
:1025C0006D2504086D2504084D2604086D250408B2
:1025D0006D2504086D2504086D2504086D25040883
:1025E0006D2504086D250408832604086D2504085C
:1025F0006D2504086D2504086D2504086D25040863
:102600006D2504086D250408EB2604086D250408D3
:102610006D2504086D2504086D2504086D25040842
:102620006D2504086D250408A92604086D250408F5
:102630006D2504086D2504086D2504086D25040822
:102640006D2504086D250408C9260408B1F5004F5E
:1026500000F0468103A8FFF713FE049B002E40F014
:102660008280626803EB5203B3FBF2F39BB2A3F1E7
:1026700010014FF6EF7291423FF678AFEB60002009
:1026800075E7B1F5004F00F0FD806846FFF792FE58
:10269000019B002EE5D0013E0A2EE2D84A4A52F8AC
:1026A0002620B3FBF2F3DCE7B1F5004F00F03981EF
:1026B000002E56D0013E0A2E53D8444A444B52F8BD
:1026C0002620B3FBF2F3CCE7B1F5004F00F0178101
:1026D000002E43D0013E0A2E40D83E4A4FF400431C
:1026E00052F82620B3FBF2F3BBE7B1F5004F00F040
:1026F0002481344B1A6892063FD51A68364BC2F3D0
:10270000C102D340002EACD0013E0A2EA9D8334AD4
:1027100052F82620B3FBF2F3A3E7B1F5004F67D0E0
:10272000FFF76EFD274A2E4BD269C2F30212134403
:10273000626A93F8303003F01F03D8403AB1013A8F
:102740000A2A04D8274B53F82230B0FBF3F0626812
:1027500000EB5203B3FBF2F39BB288E74FF4004364
:102760007FE71B4B7DE7013E0A2E3FF67AAF1E4AFC
:1027700052F82620B3FBF2F373E7002E00F0FD8041
:10278000013E0A2E00F2F980184A134B52F8262017
:10279000B3FBF2F365E700BFF369FFCF000C00580D
:1027A000FFF4FF11001001400044004000480040C9
:1027B000004C0040005000400014014000780040F0
:1027C000007C004000440258007B0C08007B0C0891
:1027D00000093D00007B0C080090D003007B0C0832
:1027E000C07A0C08007B0C08007B0C08007B0C08EE
:1027F000FFF706FDB34AB44BD269C2F30212134489
:10280000626A93F8303003F01F03D8403AB1013ABE
:102810000A2A04D8AD4B53F82230B0FBF3F06268BB
:10282000530803EB4003B3FBF2F39BB2A3F1100197
:102830004FF6EF7291423FF699AE23F00F02C3F3C9
:1028400042031343EB601AE7B1F5004F2FD0FFF7B7
:10285000D7FC9C4A9C4BD269C2F302221344626AA1
:1028600093F8303003F01F03D840002A3FF46FAFD5
:10287000013A0A2A3FF66BAF954B53F82230B0FB72
:10288000F3F064E76846FFF795FD01993EB1013E1C
:102890000A2E04D88F4B53F82630B1FBF3F162684F
:1028A000530803EB4103B3FBF2F39BB2BEE7FFF720
:1028B000A7FC844A844BD269C2F302221344626AA1
:1028C00093F8303003F01F03D840002AA7D0013A14
:1028D0000A2AA4D8804B53F82230B0FBF3F09EE7CD
:1028E00003A8FFF7CDFC0499002ED8D0013E0A2E94
:1028F000D5D87A4B53F82630B1FBF3F1CFE7002E51
:1029000036D0013E0A2E33D8754B53F82630B1FB32
:10291000F3F35B00626803EB5203B3FBF2F39BB289
:1029200084E746B3013E0A2E25D86E4A6E4B52F814
:102930002620B3FBF2F35B00ECE7624B1A689106CA
:1029400040F1C2811B68694AC3F3C103DA403EB15A
:10295000013E0A2E04D8664B53F82630B2FBF3F240
:1029600061684B0803EB4203B3FBF1F39BB25DE7F5
:102970004FF48033CEE75F4BCCE75C4B71E6A96840
:102980005D4B0B4013434F4AAB60EB6A23F00F03E0
:102990003343EB62936D03F00703052B3FF6E6AD7F
:1029A000DFE803F0D0C1B2776803002E00F0788131
:1029B000013E0A2E00F27481504A4FF40040402339
:1029C00052F82620B0FBF2F000283FF458AE6568BC
:1029D00005EB450282423FF6C9ADB0EB053F3FF63D
:1029E000C5AD202B00F27E81023B1E2B3FF6BEAD13
:1029F00001A252F823F000BF4D2C04086D250408F5
:102A0000272C04086D2504086D2504086D2504088D
:102A1000012C04086D2504086D2504086D250408A3
:102A20006D2504086D2504086D2504086D2504082E
:102A3000C72B04086D2504086D2504086D250408BE
:102A40006D2504086D2504086D2504086D2504080E
:102A50006D2504086D2504086D2504086D250408FE
:102A60006D2504086D2504086D2504086D250408EE
:102A7000772B0408002E00F01781013E0A2E00F289
:102A800013811F4A2023184852F82620B0FBF2F089
:102A90009AE70C4B1A68950640F109811B681348A8
:102AA000C3F3C103D840002E00F0F880013E0A2E87
:102AB00000F2F480134A102352F82620B0FBF2F003
:102AC00082E700BF00440258C07A0C08007B0C0863
:102AD000007B0C08007B0C08007B0C08007B0C08BA
:102AE000007B0C08007B0C0800093D000090D0031F
:102AF000007B0C0800127A00FFF4FF11007B0C0829
:102B0000007B0C08007B0C086846FFF753FC01981B
:102B10003EB1013E0A2E04D8864B53F82630B0FB56
:102B2000F3F0082350E703A8FFF7AAFB04983EB18F
:102B3000013E0A2E04D8804B53F82630B0FBF3F048
:102B4000042341E7FFF75CFB7C4B7D491B6A626A0B
:102B5000C3F302130B4493F8303003F01F03D84043
:102B60003AB1013A0A2A04D801EB82010B6CB0FB9E
:102B7000F3F0022328E7616A002900F0CE800139D2
:102B80000A2900F2CF806F4B6F4803EBC103D3E9F2
:102B9000002300217CF0AEF803460902180241EA46
:102BA00013616B0818182A464FF0000341F1000129
:102BB0007CF0A0F8A0F54072644B9A423FF6D6AC88
:102BC000634BD8605BE55D4A636A1168880640F133
:102BD0009680126800215F48C2F3C102D0404BB119
:102BE000013B0A2B06D85C4A02EBC303D3E900235E
:102BF0007CF080F80902030241EA10616808D1E71D
:102C00006846FFF7D7FB636A01980021002BF1D0DB
:102C1000013B0A2BEED8514A02EBC303D3E9002350
:102C20007CF068F8E6E703A8FFF72AFB636A0498DC
:102C30000021002BDED0013B0A2BDBD8484A02EBF7
:102C4000C303D3E900237CF055F8D3E7FFF7D8FAA4
:102C50003A4B3B4D00211B6A626AC3F302132B44BB
:102C600093F8303003F01F03D84042B1013A0A2AEA
:102C700005D805EBC205D5E91C237CF03BF862685A
:102C80000902030241EA1061500818184FF00003CE
:102C900041F100017CF02EF88CE72E48102396E6D7
:102CA0004FF40040402392E6274820238FE6002E71
:102CB000F3D0013E0A2EF0D82A4A1023254852F8B4
:102CC0002620B0FBF2F07FE656B1013E0A2E07D86F
:102CD000254A204B52F82620B3FBF2F35B0019E69D
:102CE000224B17E6616AA9B101390A291DD8204B88
:102CF0004FF4004003EBC103D3E9002349E773B16C
:102D0000013B0A2B0BD81B4A124802EBC303D3E941
:102D100000233EE74FF4000043E7174841E7174818
:102D200003213EE7144800213BE74FF40000002157
:102D300037E700BF007B0C08007B0C0800440258FA
:102D4000C07A0C08307B0C0800093D00FFFC0F0026
:102D5000000C00580090D003307B0C08307B0C082E
:102D6000307B0C08007B0C08007B0C080020A107BE
:102D7000307B0C08307B0C080000093D000090D02F
:102D8000344A136830B423F08063334C13602568F1
:102D900003E023685B1B022B54D813681B01F8D493
:102DA000936A056823F47C3343EA053393628368AE
:102DB000C568013B013D5B022D049BB205F4FE0595
:102DC0002B434568013DC5F308052B430569013DCB
:102DD0002D0605F0FE452B439363D36A456923F026
:102DE000C0032B43D362D36A856923F020032B43AE
:102DF000D362D36A23F01003D362D36BC0696FF33D
:102E0000CF0343EAC003D363D36A43F01003D36212
:102E1000D36AD1B101290CBF43F4801343F40013EA
:102E2000D3620C4A136843F080631360216803E0A7
:102E300023685B1A022B05D813681B01F8D5002004
:102E400030BC7047032030BC704743F40023D3628A
:102E5000E7E700BF00440258802E0024344A13687C
:102E600030B423F08053334C1360256803E02368AB
:102E70005B1B022B54D813689B00F8D4936A056837
:102E800023F07C7343EA055393628368C568013B72
:102E9000013D5B022D049BB205F4FE052B43456802
:102EA000013DC5F308052B430569013D2D0605F0DD
:102EB000FE452B431364D36A456923F440632B43D7
:102EC000D362D36A856923F400732B43D362D36A38
:102ED00023F48073D362536CC0696FF3CF0343EA6A
:102EE000C0035364D36A43F48073D362D36AD1B10D
:102EF00001290CBF43F4000343F08073D3620C4AF2
:102F0000136843F080531360216803E023685B1A61
:102F1000022B05D813689B00F8D5002030BC704701
:102F2000032030BC704743F48003D362E7E700BF5F
:102F300000440258802E00244B4B10B41B684B4CAD
:102F4000A4FB03435B0A03FB02F25AB18446531EFF
:102F50004748DCF83420013B024201D0920406D5F8
:102F60005C1CF6D14FF000405DF8044B7047DCF874
:102F700034305C0741D4DCF83430D80709D43D4BF9
:102F8000CCF83830DCF81030DBB2994205D00120A3
:102F9000EAE70123CCF83830F9E7DCF8143036489A
:102FA00018400028E0D0002B2CDB5A002DD49C00C8
:102FB0002DD4D9002DD41A012ED45C012FD4D901DF
:102FC00030D41A0231D45C0232D499023CD4DA02F1
:102FD00037D45C0332D499032DD4DA0340D41C04D3
:102FE0003BD4590436D49A0431D413F0080F0CBFE3
:102FF0004FF480304FF40000B6E704231846CCF8B5
:103000003830B1E74FF00070AEE74020ACE78020E9
:10301000AAE74FF48070A7E74FF40070A4E74FF4DD
:103020008060A1E74FF400609EE74FF480509BE77B
:103030004FF4005098E74FF4802095E74FF40030AC
:1030400092E74FF400408FE74FF480408CE74FF455
:10305000800089E74FF4001086E74FF4801083E783
:103060004FF4002080E700BF00000024D34D621021
:1030700045002000C500200008E0FFFD38B5134DD5
:1030800041F20D13124941F28832D5F85805D5F8AE
:1030900014450004A060E068014020460B430D2168
:1030A000E360FFF749FF38B1D5F848250346002013
:1030B0001343C5F8483538BD606900F4F050A0F5F9
:1030C0000060B0FA80F0400938BD00BF802E0024B7
:1030D000C0E0FEFF38B5184C0020184941F20D132E
:1030E000D4F85825D4F814551204C4F8940328468B
:1030F000AA60EA68114041F288320B430D21EB606F
:10310000FFF71AFF68B1D4F848350343C4F84835CF
:10311000D4F80C2409230020C4F8882384F89833B9
:1031200038BD6B6903F4F053B3F5006FF0D104239D
:10313000022084F8983338BD802E0024C0E0FEFFC2
:1031400070B50D4D04460E4695F89833042B0BD000
:10315000082B07D1D5F8903383420AD0FFF7BAFF86
:10316000022801D0012070BD0823C5E9E44685F896
:103170009833022070BD00BF802E00240A4B013B13
:103180000FD00269002AFADA0369074A43F0010303
:103190000361013A05D0036913F00103F9D1184620
:1031A00070470320704700BF410D03002DE9F84F21
:1031B000066880460C46C6F3100535BB654B9E423B
:1031C00079D903F500339E4274D903F500339E424A
:1031D00040F2B48003F500339E4240F2B18003F523
:1031E00000339E4240F2AE8003F500339E4240F22F
:1031F000AB8003F500339E4240F2A880B6F1016F28
:10320000C0F0A680052011F023FD534F354697F8F6
:10321000A435012B00F0898006F178464FF00109B2
:103220000023B6F5801F87F8A495C7F8A83536D3D4
:10323000022075F07BFB002874D1484A4FF0020948
:10324000D2F80C3143EA0903C2F80C31BFF36F8F97
:10325000BFF34F8F04F1200254F8043B944245F829
:10326000043BF9D1BFF36F8FBFF34F8F484675F022
:103270005DFBB9F1010F394A5BD0D2F80C3123F074
:103280000203C2F80C31002387F8A43500284CD182
:10329000D8F800302033C8F80030BDE8F88F484631
:1032A00075F044FB00283DD12C4AD36843F002035B
:1032B000D360CBE70125284F97F8A435012B0ED01A
:1032C0004FF0010A4FF0000B504687F8A4A5C7F84D
:1032D000A8B575F02BFB814628B187F8A4B54FF04F
:1032E000FF30BDE8F88F5046DFF870A0DAF80C30F8
:1032F00023F4E663CAF80C30DAF80C3043EA05230D
:1033000043F0A403CAF80C3075F010FBDAF80C2077
:10331000134B1340CAF80C3087F8A4950028DED16F
:10332000354679E7002387F8A4356FF00100BDE842
:10333000F88FD36823F00203D360A4E70225BAE72D
:103340000325B8E70425B6E70525B4E70625B2E767
:103350000725B0E7FFFF0108802E0024002000525F
:10336000FBF8FFFF0148FDF741B800BF30340024EF
:10337000084810B4D0F8B035D0F8E44599691A6817
:103380002CB1234600F5B6605DF8044B18475DF894
:10339000044B7047802E00240148FDF727B800BF7A
:1033A00080340024084810B4D0F80036D0F83446F1
:1033B00099691A682CB1234600F5C0605DF8044B8A
:1033C00018475DF8044B7047802E00240148FDF734
:1033D0000DB800BFD0340024084810B4D0F85036DF
:1033E000D0F8844699691A682CB1234600F5CA6062
:1033F0005DF8044B18475DF8044B7047802E00249D
:103400002DE9F04FDFF8689300EB400583B04300EF
:1034100009EB85050093D5F830310193002B00F0BE
:1034200066818046B5F8360174F09CFE95F834014B
:103430000DF0A4FD044695F835010DF09FFD08F14F
:1034400001030746DBB2002C00F0768140F60C1237
:10345000A1882372E2802268002800F06181037253
:1034600040F60C23C38091613B68BA889A611121B0
:10347000204609260DF03EFD112138460DF03AFD9B
:103480006525002C00F036812268A38811690B4263
:1034900000F030811B04936111F07EFB05468B46E2
:1034A00011F07AFB401B61EB0B01052871F1000163
:1034B000F6D314B12368A2889A6111F06DFB05461A
:1034C0008B4611F069FB401B61EB0B01052871F184
:1034D0000001F6D3013ED3D11CB1A38822681B049E
:1034E000936111F059FB05460E4611F055FB401B48
:1034F00061EB0601052871F10001F6D31FB1BB880D
:103500003A681B04936111F047FB05460E4611F023
:1035100043FB401B61EB0601052871F10001F6D366
:1035200014B12368A2889A6111F036FB05460E4655
:1035300011F032FB401B61EB0601052871F100011F
:10354000F6D317B13B68BA889A61009B20463E21AA
:103550004FEA8805434409EB830393F83B41224635
:103560000DF0EAFC224638463E210DF0E5FC7B4C8E
:1035700008EB8803019A04EB0313C3F8B025784BDA
:103580009A4200F0C880FEF73BFE764BDA69C2F340
:103590000212754B134493F8303003F01F03D840E8
:1035A000009B434409EB830393F83831022B00F06E
:1035B000BE80032B00F0B680012B14BF4FF4C871FE
:1035C0004FF4487174F01EFE034605EB080200211B
:1035D00004EB0212C2F8B815C2F8C015C2F8C4153F
:1035E000C2F8CC15C2F8D0150121C2F8B435C2F822
:1035F000BC1592F8F11501F0FF00002900F0A4803D
:1036000005EB080123F0706224274FF4004C04EB13
:1036100001115648D1F8B03581F8F1751E6826F0D1
:1036200001061E601A619A6822F400429A60C3F88B
:1036300008C05A681043D1F8C82558601202D868EB
:1036400020F40040D860DA6000221A60186840F068
:10365000010018602020C1F8F42581F8F105C1F8B7
:10366000E02581F8F22591F8F1052028C6B217D19E
:1036700091F8F005012813D081F8F175186820F051
:1036800001001860186820F48050186018681860ED
:10369000186840F00100186081F8F16581F8F025A4
:1036A000009B0221DFF8CCA04544434404EB051401
:1036B00009EB830999F83A71384675F093F999F84E
:1036C000396107F01F034FF001097F09304609FAFD
:1036D00003F302214AF8273075F084F906F01F033E
:1036E000760909FA03F34AF8263084F8AC9503B05A
:1036F000BDE8F08F013D2AD011F04EFA83468A468C
:1037000011F04AFAB0EB0B0061EB0A01052871F1E8
:103710000001F5D3B5E6FEF773FD124B1A6A36E7E2
:103720009161A4E6C82174F06DFD03464DE7642164
:1037300074F068FD034648E700283FF498AE037232
:1037400040F60C23C3808FE682F8F00558E7002C82
:103750003FF4A2AEA38822689CE600BF802E00241E
:10376000001C005800440258C07A0C080080000277
:103770000000002400E100E02DE9F04F441C83B07C
:1037800091469DF8342031D000EB800CC04D0646A8
:10379000870005EB0C104FEA0C1C90F8ACA5BAF1B1
:1037A000000F23D0AC44B9F1FF0F9E464FEA410809
:1037B0000CF5B66400D0FBB9002A40F0B180BA190C
:1037C00005EB021292F8F115202906D1BEF1000F87
:1037D00016D14FF40073C2F8F435B5F89C36304674
:1037E00001339BB2A5F89C36FFF70AFE4FF0000AA2
:1037F000504603B0BDE8F08F90F8F125202AECD1B7
:10380000BA1905EB021292F8F0150129E5D0012151
:10381000D5F800B082F8F015D2F8B01505E02A68A6
:10382000A2EB0B02192A00F2ED80886910F4004027
:10383000F5D1BA194FF0210C0C9B05EB021282F85E
:10384000F1C54FF0400CC2F8D43582F8F2C5C2F889
:10385000E405C2F8F4058F48A2F8DAE54B68019256
:1038600003408D4843EA0803184348605946204600
:1038700075F032F8002840F06F81019AD2F8B01547
:10388000C1F8289005E02B68A3EB0B030A2B00F28C
:1038900056818A6912F08002F5D0BA1905EB02123E
:1038A000B2F8DA359BB2FF2B40F26E814B687B4851
:1038B00003407B4843EA08031843FF23A2F8D835A6
:1038C000486007EB060905EB091905E0B9F8DA3598
:1038D0009BB2002B00F009815946204674F0FCFF92
:1038E00000287FF47AAFD9F8D435D9F8B02513F889
:1038F000010BB9F8D8159062C9F8D4350139B9F877
:10390000DA3589B2013BA9F8D8159BB2A9F8DA35A6
:10391000B9F8DA359BB20029D8D1002BD6D0A1E076
:10392000BA1905EB021292F8F11520297FF455AF70
:1039300092F8F01501293FF450AF0121D5F800B0FD
:1039400082F8F015D2F8B01505E02A68A2EB0B0258
:10395000192A00F208818A6912F40042F5D1B819D7
:103960004FF0210C0C9B05EB001080F8F1C54FF0D7
:10397000100CC0F8D43580F8F2C5C0F8F425A0F8D2
:10398000DAE5B0F8DA35C0F8E4259BB2FF2B40F257
:103990000B814B683F4A1340424A43EA08031A43EB
:1039A000FF23A0F8D8354A6007EB060905EB091993
:1039B000B9F8DA35594620469BB2002B00F09780C3
:1039C00074F08AFF00287FF408AFD9F8D435D9F80D
:1039D000B02513F8010BB9F8D8159062C9F8D435A1
:1039E0000139B9F8DA3589B2013BA9F8D8159BB28B
:1039F000A9F8DA35B9F8DA359BB2002BD8D000290E
:103A0000D6D115E037442021002205EB0717D7F85F
:103A1000F43587F8F0250B43C7F8F43587F8F1152E
:103A200087F8F225D9E62B68A3EB0B030A2B3BD8CA
:103A3000916911F08001F6D0B9F8DA359BB2FF2B0D
:103A40006DD9536815490B40154943EA08031943DA
:103A5000FF23A9F8D8355160AAE72B68A3EB0B0325
:103A60000A2B21D8916911F08001F6D0B9F8DA3526
:103A70009BB2FF2B29D9536808490B40084943EAF8
:103A800008031943FF23A9F8D83551601EE700BF8A
:103A9000802E0024009800FC00200181009C00FC86
:103AA0000000FF010020FF81374405EB0717D7F81E
:103AB000F43587F8F01543F02003C7F8F4352023D8
:103AC00087F8F13587F8F21587E6B9F8DA353E4818
:103AD0009BB25168A9F8D835DBB2014048EA0343EC
:103AE0000B4343F000735360F0E65946204674F0F0
:103AF000C9FE00287FF471AED9F8B0352021334CCF
:103B00003744D9615A6822405A60002205EB0713F6
:103B100089F8F11589F8F20583F8F02568E6B9F817
:103B2000DA3529489BB25168A9F8D835DBB2014093
:103B300048EA03430B4343F00073536038E7BB1973
:103B4000202005EB0313D3F8F4150143C3F8F41553
:103B500083F8F10583F8F225BB19002205EB031366
:103B600083F8F02539E6BB192020002105EB03136B
:103B7000D3F8F42583F8F0150243C3F8F42583F84D
:103B8000F10583F8F21528E6B2F8DA350E489BB253
:103B9000A2F8D835DBB24A6848EA0343024013432F
:103BA00043F000734B608CE6B0F8DA354A689BB29C
:103BB000A0F8D835DBB2064848EA03430240134375
:103BC000044A1A434A60EFE6009C00FC00E800FE4D
:103BD000009800FC002000822DE9F04F451C83B0C6
:103BE00014469DF8342000F08B800746DFF8CCA304
:103BF00000EB8000BE000AEB001C00019CF8AC95B5
:103C0000B9F1000F7CD05044FF2C9E464FEA41088A
:103C100000F5B6657AD1002A78D09CF8F125202AE3
:103C200065D19CF8F025012A61D00122DCF8B0159D
:103C3000DAF800408CF8F02505E0DAF80020121BD5
:103C4000192A00F221818A6912F40042F5D1F01993
:103C50004FF0220C0C9B0AEB001080F8F1C54FF0DE
:103C6000100CC0F8D43580F8F2C5C0F8F425A0F8DF
:103C7000DAE5B0F8DA35C0F8E4259BB2FF2B00F2A4
:103C80001C81B0F8DA354A689BB2A0F8D835DBB2AF
:103C9000C44848EA034302401343C34A1A434A60F4
:103CA00006EB070B0AEB0B1BBBF8DA359BB2002BBC
:103CB00000F0D481DBF8B0250CE0DBF8B025916989
:103CC00011F0200140F05481DAF800301B1B0A2B60
:103CD00000F276819369214628465B0700F10D8149
:103CE0009369DB06EBD574F08FFD0028E5D0BAF8B8
:103CF0009C36384601339BB2AAF89C36FFF780FB0E
:103D00004FF00009484603B0BDE8F08FF2190AEB06
:103D1000021292F8F1152029E9D10C99002900F03E
:103D2000C480BEF1000F00F0C08092F8F0150129A8
:103D3000DDD00121DAF800B082F8F015D2F8B01524
:103D400006E0DAF80020A2EB0B02192A00F29C80B0
:103D5000886910F40040F4D1F2194FF0220C0C9B4A
:103D60000AEB021282F8F1C54FF0400CC2F8D435CC
:103D700082F8F2C5C2F8E405C2F8F4058948A2F851
:103D8000DAE54B680192034000F1044043EA08037E
:103D900000F50840184348605946284674F09CFDD9
:103DA000002840F0A380019AD2F8B0158C6206E09A
:103DB000DAF80030A3EB0B030A2B00F28A808A6941
:103DC00012F04002F4D0F2190AEB0212B2F8DA351E
:103DD0009BB2FF2B40F266814B68724803407348E8
:103DE00043EA08031843FF23A2F8D8354860F419C2
:103DF0000AEB0414D4F8B01506E0DAF80030A3EBAF
:103E00000B030A2B00F2EB808A6912F00402F4D053
:103E10004A6AD4F8D4351A70B4F8DA35B4F8D8252B
:103E2000013B013A9BB292B2A4F8DA35D4F8D4350A
:103E3000A4F8D8250133C4F8D435B4F8DA359BB2E8
:103E400013B1002A00F0EC80B4F8DA359BB2002BF5
:103E5000D0D15946284674F015FD034600287FF45A
:103E600046AFD4F8B0252020514DD061516829408B
:103E7000516084F8F10584F8F2353E4400230AEBE2
:103E8000061A8AF8F0353DE7F319202000210AEBE5
:103E90000313D3F8F42583F8F0150243C3F8F4258F
:103EA00083F8F10583F8F21521E7F3194FF4007256
:103EB0000AEB0313C3F8F42519E74B68394A13409A
:103EC0003A4A43EA08031A43FF23A0F8D8354A6068
:103ED000E6E6F31920200AEB0313D3F8F4150143A7
:103EE000C3F8F41583F8F10583F8F225F3190022DD
:103EF0000AEB031383F8F025F9E6526ADBF8D435B0
:103F00001A70BBF8DA35DBF8D425013B01329BB2DD
:103F1000CBF8D425ABF8DA35BBF8D835BBF8DA25C1
:103F2000013B92B29BB2ABF8D835002A3FF4BCAE4D
:103F3000002B7FF4B9AEDBF8B01504E0DAF80030FE
:103F40001B1B0A2B4BD88A6912F08002F6D0BBF8F3
:103F5000DA359BB2FF2B53D94B68164A1340164AE9
:103F600043EA08031A43FF23ABF8D8354A609BE6BF
:103F70009369590703D5BBF8D835002BBDD1202054
:103F80000B4CF319D06151680AEB031321405160C7
:103F90000022C3F8F42583F8F02583F8F10583F8AF
:103FA000F225A4E6009800FC002400820024FF8192
:103FB00000E800FE009C00FC0000FF01802E0024B1
:103FC0003E440AEB0616D6F8F43586F8F01543F0B1
:103FD0002003C6F8F435202386F8F13587E6F31977
:103FE0000AEB0313D3F8F41583F8F02541F0200110
:103FF000C3F8F415202183F8F11583F8F22576E64D
:10400000BBF8DA352F489BB24A68ABF8D835DBB23B
:10401000024048EA0343134343F000734B6043E616
:10402000D4F8B01505E0DAF80030A3EB0B030A2B47
:10403000D5D88A6912F08002F5D0B4F8DA359BB28F
:10404000FF2B1FD94B681F4A13401F4A43EA08033E
:104050001A43FF23A4F8D8354A60F5E621462846DE
:1040600074F010FC00287FF442AEDBF8B03520215C
:10407000164CD9615A6822405A608BF8F1158BF8BA
:10408000F205FAE6B4F8DA350E489BB24A68A4F8AD
:10409000D835DBB2024048EA0343134343F00073D0
:1040A0004B60D1E6B2F8DA3509489BB2A2F8D835B0
:1040B000DBB24A6848EA034302401343054A1A4305
:1040C0004A6094E6009C00FC0000FF0100E800FE4E
:1040D000009800FC002400820348D0F8603113B13E
:1040E00000F5AA7018477047000000240348D0F874
:1040F000803113B100F5BA701847704700000024F2
:104100000348D0F8A03113B100F5CA7018477047C2
:10411000000000240348D0F8C03113B100F5DA7074
:1041200018477047000000240348D0F8E03113B16D
:1041300000F5EA7018477047000000240348D0F8E3
:10414000003213B100F5FA701847704700000024E0
:104150000348D0F8203213B100F5057018477047B6
:10416000000000240348D0F8403213B100F50D7070
:1041700018477047000000240348D0F8603213B19C
:1041800000F5157018477047000000240348D0F868
:10419000803213B100F51D701847704700000024ED
:1041A0000348D0F8A03213B100F5257018477047C6
:1041B000000000240348D0F8C03213B100F52D7080
:1041C00018477047000000240348D0F8E03213B1CC
:1041D00000F5357018477047000000240348D0F8F8
:1041E000003313B100F53D701847704700000024FC
:1041F0000348D0F8203313B100F5457018477047D5
:10420000000000240348D0F8403313B100F54D708E
:10421000184770470000002410B41C4643688446C9
:104220006FF30F0323434360036843F0010303600C
:10423000036843F400730360002C3AD040F2E93085
:10424000DCF814309B0748D5002A49D012F8013B0E
:1042500040F2E9308CF82030DCF81430DB0720D451
:104260000138F9D1214B9C450CD0A3F578439C45EE
:1042700038D003F580639C4536D003F578439C45E0
:104280000BD103201A4A00EB400002EBC002B2F847
:10429000683301339BB2A2F8683300205DF8044B09
:1042A00070479CF83000C0B209B101F8010B013C25
:1042B000C4D1DCF814301B07FBD5DCF81830012022
:1042C0005DF8044B43F01003CCF81830DCF80030F4
:1042D00023F00103CCF8003070470138B0D1C1E7BA
:1042E000FF23B5E70120CDE70220CBE700300140F6
:1042F000000000242DE9F84300242C4E804603687A
:1043000056F83450AB4209D001340E2CF8D1284A6B
:104310000021052006F0AAFD002019E0254B03EB43
:104320008409D9F8A076AFB198F8051000204B1C8D
:1043300001EB410203EB430307EBC202DB00C2F8CF
:104340000C80C2E90400F854182303FB0170083004
:10435000BDE8F8830721682006F0FCFD0146C9F896
:10436000A006E8B13946682282F050FAD9F8A016C2
:1043700006EBC4043B4689600C60096289630965E9
:1043800056F83320954205D001330E2BF8D14F60FB
:104390000F46C9E7084F07EB83174F600F46C3E787
:1043A000064A052006F062FDB6E700BF887B0C08D0
:1043B000DC2F0D08802E00245835002404300D0811
:1043C00030B40C4C0022234603E0013214330E2A91
:1043D0000CD093F804C08445F7D1DD68294201D19F
:1043E0000029F2D1142303FB024000E0002030BC7E
:1043F000704700BFB4030024F0B44468A37913F0FD
:10440000020266D002224FF0080C036864795B68F0
:104410009D48204493F83C40012C90F8380156D038
:10442000012483F83C40022483F83D40142848D8F6
:10443000DFE810F08600470047004700C100470052
:10444000470047003601470047004700F600470095
:104450004700470015004700470047005100186813
:104460008A4E046AB04224F480340462046A4568C7
:1044700024F4003444EA0242446D24F0700444F011
:1044800060040ED006F58066B0420AD0804F06F573
:104490008046B04218BFB84203D006F58066B042ED
:1044A00001D145F480354560446581650262426D05
:1044B00042F008024265426D22F004024265426DFC
:1044C00042650121002283F83D1083F83C20F0BCB6
:1044D0007047944699E718686C4E046AB04224F419
:1044E00080140462046A456824F4001444EA025209
:1044F000446D24F4E04444F4C0440ED006F58066D4
:10450000B0420AD0624F06F58046B04218BFB842AA
:1045100003D006F58066B04203D125F4003545F49A
:10452000802545604465C1650262426D42F40062C7
:104530004265426D22F480624265426D4265C0E789
:104540001868544D046A514E24F00104B0420462CC
:10455000046A24F0020442EA04024468876905EA16
:10456000070545F060050FD006F58066B0420BD018
:1045700006F57056B04207D006F58066B04203D00B
:1045800006F58066B04207D122F0080244F4407478
:104590004CEA020222F00402446085614163026237
:1045A000826942F008028261826922F0040282611B
:1045B0008269826185E71868374D046A334E24F0BA
:1045C0001004B0420462046A24F0200444EA021297
:1045D0004468876905EA070545F4C04500F09980FD
:1045E00006F58066B04200F09480294F2B4EB04211
:1045F00018BFB84203D006F58066B04201D144F43A
:1046000040644460856181630262826942F40062B1
:104610008261826922F4806282618269826150E7EC
:1046200018681A4E046AB04224F480540462046A82
:10463000456824F4005444EA0232C46924F4E64490
:1046400044F4C0440ED006F58066B0420AD0104F44
:1046500006F58046B04218BFB84203D006F5806622
:10466000B04201D145F480454560C46101640262F5
:10467000C26942F40062C261C26922F48062C2610E
:10468000C269C2611DE700BFC07A0C08000001408A
:10469000004001408CFFFEFFFF8CFFFE0044014004
:1046A00018681F4D046AA84224F480740462046AE6
:1046B000466824F4007444EA0222C46924F07304B6
:1046C00044F060041ED005F58065A8421AD0154F4D
:1046D000154DA84218BFB84203D005F58065A84221
:1046E00001D146F440564660C461C1630262C269AA
:1046F00042F00802C261C26922F00402C261C269CA
:10470000C261DEE622F4006242EA0C2222F48062F8
:10471000E7E722F0800242EA0C1222F040026EE744
:1047200000000140004001400044014042685379CC
:10473000032B0FD8DFE803F00B08050210684030A8
:10474000704710683C307047106838307047106808
:104750003430704700207047D0E90002064B517991
:1047600092790B44406893F83811530701D577F0DC
:1047700043BD77F063BD00BFC07A0C08F0B5446854
:10478000374A2469C368C4F303245B6852F8246081
:10479000EFF31184102585F312884568314F95F8A1
:1047A00005E0D0F80CC002EB4E02D5F800E0158C05
:1047B000DEF80C2005F4F05522EA0502CEF80C20B4
:1047C00017F806E0DCF8102053F80E501F2A25F0E9
:1047D000010543F80E5039D9203A2025DCF804C0F1
:1047E00005FA02F2CCF80C20E2B282F31188BA5D2D
:1047F000DFF874C003EB020E46684569DEF804403A
:1048000004EA0C0C4CEA0101CEF80410717903297A
:1048100024D8DFE801F01815120231684031CEF8D3
:104820000C500124CEF80810995841F0100199500D
:104830009958214399500474F0BD31683C31EEE73A
:1048400031683831EBE731683431E8E72025DCF8AE
:1048500004C005FA02F2CCF80820C5E70021DEE723
:10486000C07A0C08A07C0C080000FFFF03681A7EC9
:10487000012A2ED0002293F83010012909D093F894
:10488000481001290ED093F8601001291BD02ABBD3
:104890007047022142F4806283F8301093F8481088
:1048A000012904D1022142F4006283F8481093F8F0
:1048B0006010012907D01B6800211B685962D96864
:1048C0000A43DA607047022142F4805283F8601094
:1048D000F1E702214FF400721976CCE74FF4007231
:1048E000E9E700BF08B5204B98420ED003F580637E
:1048F00098420AD01D4A03F58043984218BF90425F
:1049000003D003F5806398421BD1FDF779FC184969
:10491000184BCA69C969C2F30222C1F302211A44C1
:1049200092F8302002F01F02D040114A1269C2F3FF
:10493000C03241EAC202134493F83C3103FB00F059
:1049400008BDFDF75DFC0A490A4BCA69C969C2F393
:10495000021CC1F3021103EB0C0292F8302002F0AA
:104960001F02D040E1E700BF0000014000400140CD
:1049700000440258C07A0C0870B50E4605EE102AA5
:10498000D0E90031013E1A680868B6B25C68156863
:10499000FFF7A8FF07EE900AB8EE455A9FED527A4E
:1049A000F8EE677A87EE850A30EE070A7CF0A8FEFB
:1049B00023680138AB4280B252D0C4E900500023D2
:1049C0008022E660A360A261C4E9043394F83D301C
:1049D00003F0FF02002B62D00223211D284684F839
:1049E0003D30FCF789F9414B0122B5F1804FA5EB31
:1049F000030384F83D20B3FA83F34FEA531334D012
:104A00009BBB3B4A95420CD002F58062954208D090
:104A100002F58062954245D002F57842954241D038
:104A200070BD94F83C30012BFAD00222314B0121A9
:104A300084F83D20A8680340AB6084F83D1084F8FA
:104A40003D206A68A96822F0700221F080010120EF
:104A500000236A60A96084F83D0084F83C3070BD92
:104A6000636883423AD06060A9E794F83C20012A49
:104A7000D6D002211F4A002084F83D10A9680A40C0
:104A80000121AA6084F83D10022284F83D206A6862
:104A9000A9680BB90028D6D022F47002D3E784F8B5
:104AA0003C2099E794F83C20012AB9D00221114A10
:104AB000114884F83D10A968281A0A40B0FA80F01D
:104AC0000121AA600022400984F83D1084F83C20AE
:104AD0000A4A9542D8D00028D6D170BDE368B342C7
:104AE0007FF46DAF70BD00BF0AD7233C00000140CA
:104AF000000400408800CEFF00040140000C00408C
:104B0000024B0348D3F8A016FCF78EBF802E00247A
:104B100000000140034B4FF08040D3F8A416FCF78F
:104B200083BF00BF802E0024024B0348D3F8A81691
:104B3000FCF77ABF802E002400040040024B03489B
:104B4000D3F8AC16FCF770BF802E0024000800409C
:104B5000024B0348D3F8B016FCF766BF802E002442
:104B6000000C0040024B0348D3F8BC16FCF75CBFB6
:104B7000802E002400040140024B0348D3F8CC16D9
:104B8000FCF752BF802E002400180040024B03485F
:104B9000D3F8D816FCF748BF802E0024004001400F
:104BA000024B0348D3F8DC16FCF73EBF802E0024EE
:104BB00000440140024B0348D3F8E016FCF734BF31
:104BC000802E00240048014010B5064C0648D4F859
:104BD000BC16FCF729FFD4F8D0160448BDE81040F5
:104BE000FCF722BF802E002400040140001C00407E
:104BF00010B5064C0648D4F8BC16FCF715FFD4F8DF
:104C0000D4160448BDE81040FCF70EBF802E0024E7
:104C10000004014000200040BFF34F8F0549064BC0
:104C2000CA6802F4E0621343CB60BFF34F8F00BF4A
:104C3000FDE700BF00ED00E00400FA0500210120BF
:104C400008B50DF06DFF72B6FFF7E6FF2DE9F043F2
:104C5000BFB0BFF35F8F8A4C0021626A0B460D46DE
:104C600022F4803262620A46C4F89410C4F8983084
:104C70000133C4F89C20112BC4F8A020F6D10523E1
:104C8000C4F89430636A43F480336362BFF34F8F98
:104C9000BFF36F8F7B487C4A7C49121A80F08EFCF0
:104CA000D4F888207A4B012142F47002C4F888209D
:104CB00019601D611A6842F080021A601A680A437E
:104CC0001A601A6842F480321A601A6842F48052FC
:104CD0001A609D61DD611D629D62DD621D635D6321
:104CE0009D63DD631D645D641A6822F480221A608E
:104CF0001D664FF00063674AC2F80811A36078F0A0
:104D00000FFF654AD36813F0040FD36840F0A38007
:104D1000624B0021604A0591D96A21F00101D962F4
:104D2000DB6A03F001030593936943F44043936105
:104D3000936903F440430593059B93699E04FCD556
:104D40004C2200210EA8564C81F060FD554A42F2DB
:104D50000303A4F110011268B3EB124F4FF00002ED
:104D60004FF00C0308BF0C460892E268A370002ABB
:104D70004CD1494A494B916941F440419161926952
:104D800002F440420892DA6A42F00102DA62DB6A17
:104D900003F001030893089B3F4A93699D04FCD5E7
:104DA0003B4B4FF4403540480321D3F8E02042F01C
:104DB0008002C3F8E0200122D3F8E03003F0800342
:104DC0000793079B85610D9BCDE90013002378F0C5
:104DD00019FB022301204FF48031A288CDE917335B
:104DE0000C231993A379CDE90E01E079217A1C9067
:104DF0000EA81D91CDE91A2308220023CDE91E2318
:104E0000FBF784FC032838D0A0B1FEE7234BD96A16
:104E100021F00101D962DB6A1F4903F00103089305
:104E20008B6923F4404313438B618B6903F4404344
:104E30000893B0E71D4B1A6812F00E0F3AD11A68AA
:104E400022F00F0242F002021A601B6803F00F0307
:104E5000022B2FD0FEE723F00703154C43F002038B
:104E6000D360216805E023685B1AB3F57A7F3FF6CB
:104E70004FAF53689F04F6D54AE7FFF7DFFE00BF48
:104E800000ED00E000000000C835000070AF0D0824
:104E900000440258008000510048025800040058A5
:104EA000DC0400240010005C001C025800200052AA
:104EB000802E00246C4A936903F070033F2B05D8C1
:104EC000936923F0700343F040039361664AD3690A
:104ED00003F070033F2B05D8D36923F0700343F030
:104EE0004003D361604AD36903F4E063B3F5806F94
:104EF00005D2D36923F4E06343F48063D3615A4A53
:104F0000136A03F070033F2B05D8136A23F0700374
:104F100043F040031362544B9A69100705D49A6911
:104F200022F00F0242F008029A614F4A936923F47B
:104F300070639361136899018CD5136941F28831CC
:104F40004A4C23F0070343F003031361206804E095
:104F500023681B1A8B4200F29981136903F038030E
:104F6000182BF5D1936903F00F03082B05D993692A
:104F700023F00F0343F0080393613D4A136803F0E5
:104F80000F03022B0BD9136823F00F0343F0020326
:104F90001360136803F00F03022B00D05AE7324A64
:104FA000936903F07003402B05D9936923F07003D4
:104FB00043F0400393612C4AD36903F07003402B04
:104FC00005D9D36923F0700343F04003D361264A27
:104FD000D36903F4E063B3F5806F05D9D36923F493
:104FE000E06343F48063D3611F4A136A03F07003E4
:104FF000402B00F243811C4EFDF7E0F81D4BB269D7
:105000001D4DC2F30322134493F8303003F01F0305
:1050100020FA03F3D5F82C012B60FDF717F80028D0
:1050200040F035811023159017900EA80E93FBF7D2
:105030006DFB002840F021813368104A43F0800363
:105040003360D6F8F43043F00203C6F8F430D6F8F3
:10505000F43003F002030493049B136A43F001034A
:105060001362074B216810E000440258802E002490
:1050700000200052C07A0C080000002400040058F0
:1050800080380100013B3FF4F8AE22689142F9D02C
:10509000226823689B1A0A2BFBD9A04C4FF480226C
:1050A0004FF440130EA80E924FF000082F9377F0A4
:1050B000E9FBD4F8EC3041F203029949032643F0AE
:1050C00002030EA80227C4F8EC30D4F8EC3003F049
:1050D00002030393039BD4F8943043F00203C4F813
:1050E0009430D4F8943023F00203C4F894300B6861
:1050F0008C49B2EB134F8C4B8C4A28BF0A465A603E
:105100001A6822F47C5242F400521A601A6842F083
:1051100060021A600E96CDE92B8877F0B3FB4FF44E
:10512000E0430EA8CDF8E4800E93CDE9258877F012
:10513000A9FB18230EA8CDF8B8800E93CDF8CC802B
:1051400077F0A0FB4FF4803305220EA812960E9341
:1051500021934FF4FA73CDF858801197CDE90F23BE
:105160000423CDE91488139377F08CFBD4F8E03056
:105170003A464FF480716E4843F00103C4F8E030C2
:10518000D4F8E03003F001030993099B4346CDE9CD
:10519000006878F037F923693A46664823F0FE73D1
:1051A00043F088732361D4F8E03043F00403C4F87B
:1051B000E030D4F8E03003F0040306934346069948
:1051C0004FF40071CDE9006878F01CF9236923F0F1
:1051D0007E4343F0FC432361FCF7F0FF2860BFF3FC
:1051E0005F8F554D4646554C01276B6A23F480333B
:1051F0006B62C5F8948023E0002946D0D4F8009073
:10520000637A103414F8060C1B0643EA007343EA71
:10521000410314F8051C43EA814314F8041C43EAD3
:10522000414314F8031CC5F89860013643EA014372
:10523000C5F89C90032E43F00103C5F8A03027D099
:105240006368217A002BD7D0D4F800900029D7D1F9
:1052500029F01F01A3EB0108B8F1200F38BF4FF070
:105260002008404680F020F9411E034607FA01F06D
:10527000804508BF1946C9B2C2E7FEE7136A23F0AA
:10528000700343F040031362B5E6FEE7E2E5E1E5B3
:105290000523C5F894306B6A43F480336B62BFF327
:1052A0004F8FBFF36F8FBFF34F8FBFF36F8F00220E
:1052B000C5F85022BFF34F8FBFF36F8F6B6943F474
:1052C00000336B61BFF34F8FBFF36F8FC5F884203E
:1052D000BFF34F8FD5F8805043F6E0761649C5F3FB
:1052E0004E34C5F3C905640104EA06002B4640EAC2
:1052F0008372013BC1F86022F9D2203C14F1200FE7
:10530000F2D1BFF34F8F4B6943F480334B61BFF34E
:105310004F8FBFF36F8F3FB0BDE8F083004402585A
:105320000010005C7FBB2200008400407FBB223065
:10533000000002580008025800ED00E0EC040024D0
:1053400030B5012085B00DF0E5FB01286ED03C4959
:105350004FF6FF003B4ACC683B4B04403B4D3C487A
:105360002243CA605A6FC5F8582AD3F8F42042F095
:105370000202C3F8F420D3F8F42002F002020392F0
:10538000039AD3F8DC2042F00052C3F8DC20D3F8B3
:10539000DC2002F000520292029AD3F8DC2042F0A4
:1053A0008042C3F8DC20D3F8DC2002F08042019276
:1053B000019AD3F8DC2042F00042C3F8DC20D3F895
:1053C000DC20036802F0004222480092009AD1F8E3
:1053D000FC40214A44F08074C1F8FC40A2FB034227
:1053E0000024920CC5F85C2A1C4AC0F8B02F1C4A55
:1053F0004460A2FB032302689B0942F00102013BC7
:105400000260B3F1807F07D34FF0E022136943F0CD
:105410000403136105B030BD4FF0E022F02053616A
:10542000072381F8230094611361EDE700210DF05B
:1054300077FB0C4B1A6882F308885B689847FEE795
:1054400000ED00E00003FA0500440258802E00241D
:1054500000000024001000E083DE1B4355CEACC5E5
:10546000D34D62100098F01F2DE9F843384E98464E
:1054700006EB8003D3F84C41002C66D004F1CA033C
:1054800006F5B6760546B4F8CA02A36104F5E573DD
:1054900066601746E3614FF48073261DE160C4E93E
:1054A00004332368C4F8C430A36300284AD194F8B5
:1054B000C9000BF063FD18F0080F94F8C89034D1C0
:1054C000BA0723D4FB0711D4052194F8CE0273F058
:1054D00089FA94F8CE3201221E4903F01F005B09BD
:1054E000824041F823203046BDE8F8830135484624
:1054F0000BF044FDEDB218B140F206630572C380B3
:1055000094F8CC2202210BF017FDDDE76B1CDBB217
:1055100018B1037240F20653C38094F8CD220221E1
:105520000BF00AFDFB07CFD5E0E70135EDB218B16E
:1055300040F206730572C38094F8CD2202210BF06D
:10554000FBFCC1E772F00EFEB1E72646CBE700BFD9
:10555000C07A0C0800E100E00148FBF71BBD00BF6A
:10556000200500240148FBF715BD00BFF00700240B
:105570000148FBF70FBD00BFC00A00240148FBF73C
:1055800009BD00BF900D00240148FBF703BD00BF1B
:10559000601000240148FBF7FDBC00BF301300245D
:1055A0000148FBF7F7BC00BF0016002470B52422A9
:1055B000456B00238168C0F8B42004462A6800F1D6
:1055C000340622F001022A602B606B60AB608279A6
:1055D000C0F8BC3080F8B030C0F8B430C364C0F854
:1055E000B83043659302816303F480534179C36308
:1055F000130303F400530364130203F4806343644E
:1056000001F00203C90745D4002B7BD1836412F05B
:105610000802D4F8B43059D0002B7FD02423304670
:10562000C4F8B4302B6823F001032B60FCF75CFF57
:10563000012815D0E36D002B77D16B68304623F439
:1056400090436B60AB6823F02203AB60AB6843F020
:105650000803AB602B6843F001032B6076F0A0FDDC
