:020000040800F2
:1000000000000220D9B205085D990008D15C020801
:1000100089B3050889B3050889B305080000000005
:100020000000000000000000000000008DB000088B
:100030008FB000080000000091B000081115010801
:1000400089B3050889B3050889B3050889B305088C
:1000500089B3050889B3050887FE00088BFE0008F0
:1000600089B305088FFE000893FE00084DA0000824
:1000700061A0000875A0000889A000089DA00008E4
:10008000B1A00008C5A0000889B305080000000061
:1000900000000000000000000000000097FE0008C3
:1000A000859F0008AD9F0008D59F00086F9F00083E
:1000B000FD9F000811A0000825A0000889B30508CD
:1000C00089B3050889B3050889B3050889B305080C
:1000D00089B30508A19A0008AD9A00080000000045
:1000E0009BFE000889B3050893B0000800000000DB
:1000F000000000000000000000000000D9A000087F
:100100000000000089B3050839A0000889B305087C
:1001100000000000000000000000000000000000DF
:10012000EDA0000801A1000815A1000829A1000800
:100130003DA10008000000000000000000000000D9
:10014000000000000000000000000000E5B0000812
:1001500051A1000865A1000879A1000889B305082C
:1001600089B3050889B305080000000000000000FD
:10017000000000000000000000000000000000007F
:100180000000000089B30508000000000000000026
:0801900089B3050889B30508D5
:1001980081C90181008408B10000000080C9018183
:1001A800008408B10000000080C90181B0AB08B12B
:1001B80000000000C9010181B0B0AC80000000005F
:1001C800C9060181B0B0AF85000000003F1A018167
:1001D800B0AF81C90000000008B10181B0B000844F
:1001E8000000000008B10181B0B0008400000000E8
:1001F80030BA05000084028098BA050001000000AA
:1002080000BC0500008402806CBC050001000000F1
:100218006CBC05007CFFFF7F20BD050080FFFF7FD1
:1002280060BD050084FFFF7F48BE0500B0B0AE800A
:10023800ECBF0500B0A8018034C1050078FFFF7F3E
:1002480054C70500B0AA0580B0C905000100000028
:10025800B0C905006CFFFF7F1CD505000100000038
:10026800B0D7050068FFFF7F1CDE05000100000015
:10027800A4DE0500B0A80180B4DE0500010000007E
:10028800E4DE0500B00D8480F4DE05000100000006
:1002980018DF050044FFFF7F24DF050048FFFF7FCC
:1002A80030DF0500AF08B18068E2050001000000FA
:1002B80074E20500A908B18020E4050001000000EF
:1002C800F4190600A908B1801C1A060001000000F4
:1002D800E81A0600B0A902807C1B0600B0B0A8800E
:1002E800CC1B060001000000D41B0600B0B0AA8099
:1002F800081C0600AE71B280CC1C0600AB3F3880EB
:100308002C1D060001000000341D0600B0B0AA80B4
:10031800701D060001000000101E0600AA0DB28024
:100328008C1E0600B0AF08802C21060001000000DA
:100338003C210600AD3F0280B82306000100000002
:10034800E8230600B0AD04808C26060001000000FA
:10035800A05001200201000002001400C05001203A
:100368000202000002001400E0500120020A00000E
:1003780002001400005101200206000002001400CF
:100388002051012002070000020014004051012002
:10039800020300000400140060510120020800005C
:1003A8000400140080510120010B000000007700B8
:1003B800A0510120010C000000007600C05101206E
:1003C8000110000000007600E0510120010D01003D
:1003D80000007700005201200112000000007600A2
:1003E800205201200114000000001E00405201208C
:1003F800011A000000000D0060520120011B0000DE
:1004080000000E0080520120011C000000001E00A8
:10041800A05201200117000000000C00C05201206A
:100428000118000000000E00E05201200128010020
:1004380000001800005301200120000000004800BF
:1004480020530120012100000000490040530120F1
:100458000122000000004A0060530120012300002F
:1004680000004B00805301200124000000004C00D4
:10047800A05301200125000000004D00C0530120B9
:100488000126000000004E00E05301200127000073
:1004980000004F0000540120012B0000000029003B
:1004A80020540120012C01000000290040540120A3
:1004B800012D01000000700060540120012E010090
:1004C8000000520080540120012F01000000280084
:1004D800A05401200130010000002800C054012070
:1004E8000234040000012C00E05401200133000014
:1004F80000003C00005501200136000000002000EB
:10800000D0E907239A422FBFD01AC0688018C01A3F
:108010007047D0E9092300699A4238BF1218D31A71
:108020000138C01A7047D0E90902131A5842584162
:108030007047036A41690246C85CD16801338B42CC
:1080400028BF002313627047436A8269D154436A90
:1080500002690133934228BF0023426B4362D36815
:1080600043F08003D3607047436B188810F0100012
:108070001EBF1A889B8801207047436B99891A8814
:10808000890610B592B2044607D5900605D5E26A76
:1080900022B39888216B80B29047636B99891A88C4
:1080A000090692B20FD510060DD5D4E909128A42FD
:1080B00022D0A169895C998021690132B2FBF1F07B
:1080C00001FB1022A262998A1A88C90592B204D5CE
:1080D000D20744BF4FF6F7721A8010BD9B88E26941
:1080E0006169DBB28B54E369E2680133B3FBF2F1FF
:1080F00002FB1133E361D0E7DA6822F08002DA6034
:10810000E1E7036941681F2B30B54FF0200285BFBE
:10811000A3F120054C680C68AA4098BF9A402242FF
:108120001ED0826900201074D0688468206820F016
:10813000010020605468206865790A4C828934F80F
:10814000154092B21F2B22EA0402828188BF203B95
:108150004FF020028BBF9A4002FA03F3CA608B6093
:1081600030BD00BFD42C06080E4BDA68D20310D401
:10817000DA68D1060FD4DA68D2050ED4DA6812F0C4
:10818000E00F0CD1DB6813F0020F14BF08200920A8
:108190007047012070470620704702207047072073
:1081A000704700BF003C024007B509238DF8073037
:1081B000FFF7DAFF8DF807009DF80730012BF7D0A5
:1081C0009DF8070003B05DF804FB838A028B9BB225
:1081D00043EA024331EA03030CBF01200020704749
:1081E00082B0002301930093012300900193019B2F
:1081F00063B1009A21F07F4314320092009A126812
:108200001A4214BF0120002002B07047009A1832B1
:10821000F3E77047704701207047034BD3E9000331
:10822000C01AC0F30A007047F8180020054AD2E9C6
:1082300000138B42FDD0D1180133C3F30A03087A2F
:1082400053607047F8180020044BD3F8080820B199
:10825000D3F80808431F584258417047F8180020C7
:10826000012380F849307047044BD3E90003C01A5A
:10827000C0F30A00C0F50060704700BFF818002086
:1082800010B5D0F8E83504461B699847032384F8F5
:108290001231002010BD08B590F8123180F813316A
:1082A000042380F81231D0F8E835DB6898470020C5
:1082B00008BD08B5D0F8E435DB6903B19847002064
:1082C00008BD08B5D0F8E4351B6A9847002008BD02
:1082D00008B5D0F8E4355B6A9847002008BD30B592
:1082E0000138002423460134055D002DFAD1DBB2AC
:1082F00001335B0013800B7003234B70022310F8D3
:10830000014F04B930BD5A1CD2B2CC5402338D5443
:10831000DBB2F4E710B5074C2068FF2808D0064907
:10832000D1F80C2801F5016100F070F8FF232360FB
:10833000002010BD00000020F81800204323014851
:108340000B80704704000020122301480B80704707
:1083500047000020042301480B807047590000208B
:1083600008B50A4602490348FFF7B9FF084608BDA9
:10837000102100207CCB060808B50A4602490348B4
:10838000FFF7ADFF084608BD102100208FCB06087F
:1083900008B50A4602490348FFF7A1FF084608BD91
:1083A0001021002094CB060808B50A46024903486C
:1083B000FFF795FF084608BD102100209ECB060858
:1083C00008B50A4602490348FFF789FF084608BD79
:1083D00010210020A9CB06087047704770477047EE
:1083E00070477047044B00200522C3F80828C3F8E3
:1083F0001809C3F81C097047F8180020024B002028
:10840000C3F80808704700BFF8180020212838B5C5
:108410000C461BD022282BD0202815D1A1B1072A29
:1084200012D11A4DD5F81C3913B1096800209847AC
:108430002368C5F82039237985F82439637985F8CC
:108440002539A37985F82639002038BD0029FBD0CD
:10845000072AF9D10D4BD3F820290A6093F8242973
:108460000A7193F825294A7193F826398B71EBE745
:108470000029E9D0022AE7D1044BD3F81839002BA0
:10848000E2D0098800209847DEE700BFF8180020F6
:1084900030B50E4CD4E900329A1AC2F30A020A44EB
:1084A000B2F5006F10D801440022814203D102B11D
:1084B0002360002030BDE21810F8015B1572013313
:1084C000C3F30A030122F0E70220F3E7F8180020C3
:1084D000034BD3F8280908B103691847704700BF58
:1084E000F8180020034B93F85009003818BF0120FA
:1084F000704700BFF8180020034B93F85009032879
:1085000094BF002001207047F818002000487047F1
:108510004C220020837B042B0DD0074BD3F89820EE
:108520000132C3F89820426004228273D3F89C2061
:108530000132C3F89C207047C45F0020202301480B
:108540000B8070475D000020122301480B807047AC
:108550007D000020042301480B8070478F0000201D
:108560000A4608B5044920B90448FFF7B8FE024896
:1085700008BD0348F9E700BF7C220020B7CB0608FE
:10858000CFCB060808B50A4602490348FFF7A7FE05
:10859000084608BD7C220020E7CB060808B50A463D
:1085A00002490348FFF79BFE084608BD7C220020D5
:1085B000FACB060808B50A4602490348FFF78FFEC2
:1085C000084608BD7C22002005CC0608002370B5B3
:1085D0004D1C1E46040FB0F1204F34BF30343734E9
:1085E00001F8134005F813600133DCB2A2424FEAF0
:1085F0000010EFD870BD1A2310B50B80094BD3F8CB
:10860000E807D3F8EC2780180AD0D3F8EA470649E0
:108610000822FFF7DBFF042210312046FFF7D6FFC8
:10862000024810BD00F0FF1F9500002093000020BD
:1086300008B5FFF74DFF80F00100404240B208BD91
:10864000002070470020704770477047D0ED007AD7
:10865000D0ED036A30EE677AE6EE877AB0EE670A0D
:10866000C0ED007A7047D0ED017AF5EE407AF1EE78
:1086700010FA09D1DFED0F7A60EEA70AB7EE007AA3
:10868000C7EE207AC0ED017AD0ED017A80ED021AB2
:1086900071EE277AC1EE276AD0ED007AC0ED036A49
:1086A00030EE677AE6EE877AB0EE670AC0ED007AC0
:1086B000704700BFDB0FC940D0ED017AD0ED036AEF
:1086C00030EE670AE6EE807A90ED000AC0ED017A9E
:1086D000B0EE677AD0ED027A37EE677AE6EE877A07
:1086E000C0ED027A77EEC07AA6EEA70A80ED000A06
:1086F000704790ED056AD0ED017AD0ED006AD0EDBB
:10870000025A90ED045A66EE277AB0EE407AE6EE11
:10871000807AD0ED066A80ED057AE5EEA67AD0ED96
:10872000076AD0ED035A80ED066AE5EEE67AD0EDF1
:10873000085AC0ED086AE5EE657AB0EE670AC0ED4A
:10874000077A7047D0ED006AD0ED057AE6EE807AC0
:10875000B0EE407AB0EE670AD0ED037AD0ED016A50
:1087600067EEC07AE6EE877AD0ED066A76EEA77AF3
:10877000D0ED026AC0ED057AD0ED047A67EEC07ADA
:10878000E6EE877AC0ED067A704703685A1C0260ED
:108790001970704703690133012B036106D100236F
:1087A00080ED010A80ED000A8360704790ED006A59
:1087B00007EE903A70EE466AF8EEE77A86EEA77A10
:1087C00077EE067A90ED027AC0ED017A30EE670A14
:1087D000C0ED007AA6EE807A80ED037A80ED027A11
:1087E000704703685A1C026019707047007970471F
:1087F0000079C0F3401070470079400970472DE9B7
:10880000F041476906468846002F59D10368C3F3F3
:108810000D0515B3D8F800803568FFF7C5FC0928A9
:1088200040F08780444C236923F44073236123691B
:1088300043F400732361236943F001032361C5F806
:108840000080FFF7B1FC2369092823F001032361AD
:108850006FD133680433336032E0384A934229D30E
:1088600002F58042934224D302F5804293422AD3F8
:10887000334A934229D902F58032934227D902F52F
:108880000032934225D902F50032934223D902F5F2
:108890000032934221D902F5003293421FD902F5EA
:1088A000802293421DD9B3F1016F1CD305200BF038
:1088B000B5F80825FFF778FC092816D04FF0FF37E8
:1088C0003846BDE8F0811025F4E71825F2E72025A9
:1088D000F0E72825EEE73025ECE73825EAE74025E4
:1088E000E8E74825E6E75825E4E7134C236923F435
:1088F00040732361236943F400732361236923F0E8
:10890000F803236123691D4345F0020525612369AE
:1089100043F480332361FFF747FC236923F002030C
:1089200023612369092823F0F80323613FF472AF20
:10893000C4E76FF00107C3E7003C024000400008B5
:10894000FFFF000803682DE9F04104464068134426
:1089500083421AD80D468E1804F10C074FF0000818
:10896000B54202D16069BDE8F08123695A1C2261D9
:10897000234415F8011B1973042AF1D13946204606
:10898000FFF73DFFC4E90480EAE74FF0FF30EAE774
:108990002DE9F347038A8689B6B205460C461E4088
:1089A0004FF0004901F14C0701F1340816B902B04B
:1089B000BDE8F087B6FA86F329FA03F2D24391B202
:1089C000298216401B3B002C40D0042BEED8DFE858
:1089D00003F039342E280300E368D5F82CA02BB11E
:1089E0009B681BB11FFA8AF1201D9847636A33B157
:1089F0009B6823B11FFA8AF104F11C009847E36BCE
:108A00002BB19B681BB11FFA8AF140469847636DF2
:108A1000002BCBD09B68002BC8D01FFA8AF13846B8
:108A200003E0E368696B5B68201D9847BEE7636AF3
:108A3000A96B5B6804F11C00F7E7E36BE96B5B680B
:108A40004046F2E7636D296C5B68E8E7042B06D8C3
:108A5000DFE803F00D0B09070300EB6A0193019BAC
:108A6000A4E76B6BFAE7AB6BF8E7EB6BF6E72B6C05
:108A7000F4E790F84820531C0244DBB280F84830F9
:108A800082F8341090F849200AB1132B01D951F023
:108A900092BA7047002280F8492051F08CBA70B524
:108AA000124D95F8833A002BFBD104464618B44288
:108AB00004D1002070BD01200AF024FCD5F8843ACE
:108AC000D5F8882A0133C3F30A039342F3D0D5F8CB
:108AD000843A14F8012B2B4483F88C2AD5F8843A75
:108AE0000133C3F30A03C5F8843AE0E7F81800201D
:108AF00038B50C461146FFF7A7FB48B1054D002AD3
:108B0000D5F8943104DD2046FFF7C9FFD5F894313C
:108B100038BD00BFF0290020F0B590F8CF5590F88F
:108B2000CE1590F8D12590F8D03590F8CC7590F806
:108B3000CDC501EB05218DB203EB022390F8D315CF
:108B400090F8D22585B002EB012207F01F06012123
:108B500092B29BB28E4204468DF808708DF809C01F
:108B6000ADF80A50ADF80C30ADF80E20C0F8402139
:108B700080F8111100F00C81022E00F01D81002EF2
:108B800040F09B81BCF1090F5ED8DFE81CF0B60015
:108B9000F4005D00C8005D0057000A005D00A900F8
:108BA00076002E0A022EADF806200BD0032E25D01B
:108BB000012E49D1D0F8EC351B68A0780DF10601E3
:108BC000984709E0D0F8E43580789B6A0DF10601FA
:108BD00098474670C4F8F005BDF80620002A47D033
:108BE000BDF80E30002B43D09A4228BF1A46ADF88C
:108BF00006200146204650F0F3FC39E0E9B2052991
:108C000022D8DFE801F003070B0F1317D0F8EC357B
:108C10005B68D2E7D0F8EC359B68CEE7D0F8EC354E
:108C2000DB68CAE7D0F8EC351B69C6E7D0F8EC354D
:108C30005B69C2E7D0F8EC359B69BEE71A4303D104
:108C400090F81231032B03D1204650F0F5FB0FE0D2
:108C5000016905F07F0680F814610B6865F30A125C
:108C60001A430A6050F0D0FC2EB1022384F812316E
:108C7000002005B0F0BD0123F8E7E9B2904D0129CD
:108C800085F89811E0D890F81231022B0FD0032B01
:108C9000DAD1C1B9022380F81231D0F8E43580F876
:108CA00010115B689847204650F0AEFCE0E70029C1
:108CB000F9D00121032380F8101180F812312046E9
:108CC00050F07CFBEFE790F810110129EBD0D0F8C1
:108CD000E4355B68984795F8981184F81011EEE731
:108CE000012AB1D190F81231022B04D0032BABD161
:108CF00000F588717EE773497CE790F81231023BFA
:108D0000012BA1D86E4B0022C3F8A021D0F8182166
:108D100012B10222C3F8A0216B4902226AE7012D99
:108D200008D1C0F81851D4F8E43502A99B68204650
:108D30009847B8E7022D9BD1DAB2002A98D1026990
:108D40001B0A023B5268032B03D8DFE803F00C0E2A
:108D50001012012363F30612594BC3F8A421012317
:108D600084F816319FE70223F4E70323F2E7042394
:108D7000F0E70523EEE790F81231023B012B3FF6B6
:108D800063AF012D7FF474AF0023C0F81831CAE738
:108D900090F81221032A7FF457AFDBB2012B3FF684
:108DA00053AFD0F8E43502A99B689847BDF80E3060
:108DB000002B7FF45DAF76E707F06007202FD9B274
:108DC00005D1D0F8E43502A99B68984750E7BCF17B
:108DD000010F31D0BCF1030F1ED0BCF1000F7FF4A6
:108DE00047AF90F81221022A5AD0032A7FF42CAF01
:108DF00013F0800F4FF02802314B59D001F07F0162
:108E000002FB010191F81E21002A4FD00122C3F874
:108E1000A8212E490222EDE690F81231022B3FD014
:108E2000032B7FF411AF002D7FF47DAF4A063FF492
:108E30007AAF50F0CFFA76E790F81221022A2FD0BD
:108E4000032A7FF401AF002D7FF412AF11F07F00F1
:108E50003FF429AF5BB2002B4FF02802B5BF02FBF5
:108E6000004102FB014101F58E7101F55D710022A7
:108E7000DB0F08708A704B7004EB8000C9786BB10F
:108E80008269136802396FF3555301298CBFC3F30C
:108E90000071012161F31C73136044E7426DF0E738
:108EA0004B063FF4E5AE50F095FAE1E60022AEE75E
:108EB00002FB010191F87623A6E707F08001F2E7B3
:108EC000F02900208C2B0020902B0020982B0020D4
:108ED00010B5044671BB90F81131032B1BD1D0F8AB
:108EE0009023D0F87C339A4217D9C178012908BF62
:108EF000D0F88013A2EB030204BFC918C0F8801396
:108F0000934228BF1346C0F890239BB2D0F8802329
:108F1000002150F029FC002010BDD0F8E4351B6979
:108F200023B190F81221032A00D19847204650F02F
:108F30006BFBF0E7D0F8E4359B69002BEBD090F8A1
:108F40001221032AE7D19847E5E770B50A7812F0B5
:108F5000600406460D462AD0202C2FD1CC884B78B1
:108F6000FCB112060CD51F4922461846FFF74EFAEF
:108F7000EA881C49304650F033FB0024204670BD7F
:108F8000194A1360194A0323C2F80C4880F81131BA
:108F9000C0E9E444234602F50162002150F0E4FBFD
:108FA000EBE7022211441846FFF730FAE6E74B7868
:108FB0000A2B08D00B2B0BD0062BDFD1304650F0FC
:108FC0003BFA0224DAE70A49012250F009FBD5E70F
:108FD0008B781BB9074BC3F8AC41CFE750F02CFAA4
:108FE000CCE700BF0821002000000020F818002076
:108FF0009C2B0020F029002010B5282303FB010141
:10900000074AB1F88C1304461046FFF741FA204690
:10901000034A4023012150F0A7FB002010BD00BFF0
:10902000A02B002070B50F4DD5F8F831044643B1A0
:1090300095F8FC2195F81032134302D1012150F02C
:10904000C9F98121204650F0C5F995F81032022B5C
:1090500007D12046044ABDE870401F23012150F08B
:1090600083BB70BDF0290020E02B0020002310B549
:1090700019460446402250F016FA4022802120462C
:10908000002350F010FA012384F81231D4F8E835A7
:10909000A0785B689847002010BD38B54022044690
:1090A0000223812150F0FFF92046022340220121B2
:1090B00050F0F9F9204603230822822150F0F3F9F9
:1090C000084B0222002583F84B2083F84C50FFF711
:1090D00089F901212046044A402350F045FB2846E7
:1090E00038BD00BF00000020A02B002010B581215A
:1090F000044650F0AFF92046012150F0ABF920466C
:10910000822150F0A7F9FFF779F9002010BD10B5C2
:109110008121044650F09EF92046012150F09AF931
:10912000024B002083F8110210BD00BFF02900207F
:1091300070B5234D95F8832A012A03462FD1214E7D
:10914000D6F8144214B985F8834A24E0402C24D878
:109150000ABF0222A4B285F8832AD5F8881A1A4ACF
:109160000A44C3E9542240F201110022A3F8441139
:10917000C3E9564203F5A271184650F05CFAD5F8DF
:10918000883A2344C3F30A03C5F8883AD6F8143260
:109190001B1BC6F81432002070BD4024DDE7022AF4
:1091A000F9D1002440F20112C0E95444C0E9564408
:1091B000A0F8442100F5A27150F03DFAC3E700BFCA
:1091C000F8180020F02900208423002070B52B4ED1
:1091D000D6F818320F2B03F1010203D0C6F818227B
:1091E000002070BD264D0023C6F8183295F8833A4A
:1091F000002BF5D1D5F8882AD5F8843A9A42EFD0D9
:10920000D5F8882AD5F8843A9A4295BFD5F8844A89
:10921000D5F8884AD5F8883AC4F5006498BFE41AAE
:10922000402CC6F8144221D9012385F8833A402402
:10923000D5F8882A134B1344C0E9543340F2011285
:109240000023C0E95643A0F8442100F5A27150F074
:10925000F2F9D5F8883A2344C3F30A03C5F8883AEB
:10926000D6F814321B1BC6F81432B9E70EBF02231E
:109270000123A4B285F8833ADAE700BFF029002081
:10928000F818002084230020064BD3F880391A797F
:10929000022A05D19A68920702D558694FF0EABDB3
:1092A000704700BFF818002010B50A4CD4F88009A8
:1092B00006F0C4FC58B9D4F880090379022B08D110
:1092C00083689B0705D5BDE8104008F04FB900BF83
:1092D000ECE710BDF818002073B50A4E441C0025B9
:1092E000D6F88009012300220DF1070150F0A7FEF6
:1092F0009DF80700FF2802D10135A542F0D102B048
:1093000070BD00BFF818002037B504460820019151
:10931000FFF7E2FFFF2813D0FE2813D10A4D019B6F
:10932000D5F880090022214650F089FE0022D5F8A8
:1093300080090223114650F082FE002003B030BDA8
:109340000120FBE70220F9E7F818002037B5124D9D
:109350004FF6FF530024D5F88009ADF8043001AA78
:1093600002232146C5F84C4950F069FE0120FFF761
:10937000B3FFFF2805D1042385F85039022003B03C
:1093800030BD092385F85039044BD3F89431C5F822
:1093900040392046F3E700BFF8180020F0290020EC
:1093A00013B540F040038DF800300B0E8DF80130FE
:1093B0000B0C8DF802300B0A8DF803309523044610
:1093C0008DF804108DF8053050F05EFE00B964B9D8
:1093D00007480623D0F880096A46002150F02FFE86
:1093E0000820FFF779FF02B010BDFF20FBE700BFA8
:1093F000F81800202DE9F041194C1E4694F8503918
:10940000042B0546884617461CD1FFF73DFF94F80C
:10941000463903BB69021120FFF7C2FFE8B90523F3
:1094200084F850390F4BC4F82C89D3F89431C4F820
:109430003059C4F83879C4F83C69C4F8403901207F
:10944000BDE8F081082B01D00020F9E7FFF77EFF8F
:109450000228F9D1D9E72946DDE7FFF725FFF3E731
:10946000F8180020F029002038B500220D233421FF
:10947000022006F041FF234CC4F8800910B984F89B
:10948000500938BD002106F05FFA012009F03AFFCB
:10949000D4F880391C4D586906F00AFDD4F880399B
:1094A0001A4893F91030142202FB03000022D0F86E
:1094B000B0000A23114650F097FDD4F8800906F059
:1094C000BDFB50B9124B84F84409D3F89431C4F869
:1094D0004039012384F85039D3E7013DEDD1D4F868
:1094E0008009022106F030FAD4F8800906F0FFF96D
:1094F00094F84439C4F88059013384F8505984F8F9
:109500004439BEE7F8180020A186010000000020C1
:10951000F029002038B5134C0023A07BE0B125686A
:109520008D4219D1104C03F581751AB904EB05145D
:10953000A27138BD04F1180101EB43239A4209D10D
:10954000831E5842584104EB05144FF045FE012399
:10955000A371EEE70020F6E70133082B04F11004B5
:10956000DBD1E6E7DC5F0020C44F0020174838B5A8
:10957000002380F8A03000F1180425688D421ED128
:10958000A57B032D1BD1124C03F581754AB904EB61
:1095900005140423A371D0F89C300133C0F89C302B
:1095A00038BD04F1180000EB4320131A584258410B
:1095B00004EB05144FF010FE0123A371F0E7013313
:1095C000082B04F11004D8D1EAE700BFC45F0020E3
:1095D000C44F002070B50446144EFFF798FD204696
:1095E0000223402281214FF05EFF402201212046CC
:1095F00002234FF058FF0025D6F81C3286F811528E
:109600001B6886F8105228469847E06850F0F6FA32
:10961000E068012150F008FB20461F2306F5F87290
:10962000012150F0A1F8284670BD00BFF0290020AC
:109630002DE9F84F0E460121084617461D4606F053
:10964000DDFFDFF844800024A54206DC0021012074
:1096500006F0D4FF0020BDE8F88F06EB442A04EBA7
:109660000709D8F8283903B9FEE7D3F804B0002376
:109670001A4651464846D8470028F2D0FEF728FF40
:109680000028FBD00134DFE7F81800202DE9F84F5F
:109690000E460121084615461F4606F0AFFFDFF8CB
:1096A00048A00024A74218DD06EB442905EB040876
:1096B00001E0FEF70DFFDAF8283943B1D3F80CB01A
:1096C00000231A4649464046D8470028F1D1FEF704
:1096D000FFFE0028FBD00134E4E70021012006F062
:1096E0008DFF0020BDE8F88FF8180020024BD3F85A
:1096F000200207F062BE00BFF02900200068F022BF
:10970000FF2107F061BFCA4341EA02120068D2B2EA
:10971000D22107F059BF0068B422FF2107F054BFDF
:109720000A460068A52107F04FBF5521F8E70068F9
:109730009622FF2107F048BF0A460068872107F0FC
:1097400043BFC90101F080020068782107F03CBFE7
:1097500038B50446154600680A46E12107F034FF93
:1097600030B120682A46FF21BDE8384008F022BE0B
:1097700038BD0A46E121EBE70A46C321E8E738B5E0
:10978000021D0D46F0210446FFF7E2FF08B12379E0
:109790002B7038BDF8B504460E461546071D2068E7
:1097A0003A46FF2108F006FE30B116B12379DB07F7
:1097B000F5D40DB123792B70F8BD00220121E9E722
:1097C00010B50446FFF7A7FF18B12046BDE81040CA
:1097D000F3E710BD10B50446FFF7A2FF18B120460D
:1097E000BDE81040E9E710BD70B506460C468D187F
:1097F000AC4201D1012006E014F8011B3046FFF70E
:10980000E9FF0028F4D170BDCC21E3E738B5044668
:109810000D46FFF78CFF40B12046FFF7CEFF20B189
:1098200029462046BDE83840A3E7002038BD70B582
:1098300006460C468D18AC4201D1012006E02146B7
:109840003046FFF7E3FF01340028F4D170BD38B58E
:1098500005461446FFF770FF2846FFF7AEFF20B11C
:109860001CB12B79C3F34013237038BD10B50446E7
:10987000FFF7A6FF38B12046FFF7C6FF18B1204614
:10988000BDE8104099E7002010BD73B50546CDE94D
:109890000023FFF795FFA8B12846FFF746FF88B1E0
:1098A0002846FFF78AFF68B16E46082416F8011BA8
:1098B0002846FFF78FFF28B1013C14F0FF04F5D1D3
:1098C00002B070BD0020FBE7C90138B501F080018E
:1098D00004461546FFF735FF08B9002038BD0022C1
:1098E00001212046FFF756FF0028F6D023795B09B7
:1098F0002B70F3E710B5021D0446FF21006808F045
:1099000059FD18B12079C04300F0010010BD0F4986
:10991000D1F8883043F47003C1F888300C4B1A68D2
:10992000002042F001021A6098601A6822F08472E6
:1099300022F480321A60074A5A601A6822F48022A0
:109940001A60D860044B8B60704700BF00ED00E0E8
:109950000038024010300024000000087047002842
:10996000ACBF00F16040074B4FEA0111ACBF00F5FE
:10997000614000F00F00C9B2B4BF195480F8001361
:10998000704700BF14ED00E02DE9F0479846414BC9
:10999000914603EB800205469468002C78D028336A
:1099A000636004F13E03A36104F59F73E3614FF428
:1099B0008073C4E90433236894F83D00E160A36335
:1099C00006F0EAFA064694F8440294F83CA0271DF3
:1099D00008B14DF00FF894F8450208B14DF00AF8BF
:1099E000D4F840321BB12C4A116B0B43136318F0AF
:1099F000080F2CD00135EDB21EB140F20673F38092
:109A0000357218F0100F94F846221AD00221304611
:109A100006F082FAD4F8481294F94702FFF79FFF44
:109A200094F9473294F84722002B07DB02F01F011C
:109A300001228A405B09194941F823203846BDE8D4
:109A4000F08718F0200F14BF12213221DFE719F040
:109A5000020F0CD06B1CDBB21EB140F20652F2803A
:109A6000337294F846220221304606F055FA19F076
:109A7000010FCFD0504606F08FFA0135EDB218B184
:109A800040F20663C380057294F846220221BFE7C4
:109A90002746D3E7D42C06080038024000E100E056
:109AA0000148FEF7EABA00BF040100200148FEF7B2
:109AB000E4BA00BF50030020024B586FC0F300709F
:109AC000704700BF003802407047064A002352F832
:109AD0003310814201D1D8B2704701330E2BF6D139
:109AE000FE2070472C2D0608704770B5002828D03E
:109AF0004C684CB9426815685679AB8902229BB212
:109B0000B24023EA0203AB818A683AB943681D6810
:109B1000AB8923F001031B041B0CAB81816044B1B2
:109B20004468216864798D890223A3402B439BB24A
:109B30008B8132B143681A6893899BB243F0010369
:109B4000938170BD0B4B30B51A4600241D798542B8
:109B500008D1DD68294203D0142000FB042030BD69
:109B60000029F9D001340A2C03F11403EED10020AE
:109B7000F5E700BF9805002038B503681B681C682E
:109B8000254B03F5CC6393ED007A07EE902AB8EEEF
:109B9000477AF8EE677A013987EE270A8DB2DFED52
:109BA0001F7A30EE270A52F0BDF81D4A238801388B
:109BB000944280B29BB212D002F5806294420ED0E1
:109BC000B4F1804F0BD0A2F58032944207D002F559
:109BD0008062944203D002F58062944202D123F065
:109BE00070039BB20F4A944206D002F58062944201
:109BF0001CBF23F440739BB22380094BE5629C4257
:109C0000208503D003F580639C4201D10023238685
:109C10000123A38238BD00BF000000200AD7233CE7
:109C200000000140001000402DE9F0434568A8798C
:109C300010F0040300F002020BD00020174680460B
:109C4000042406466B79032B49D8DFE803F0094A60
:109C500089C990464FF480701F461C460126F1E7E3
:109C60002D682B8C23F001031B041B0C2B84B5F8EF
:109C700020C0B5F804902B8B23F073031B041B0C3E
:109C800043F0600E2CF0020C6E4B4FEA0C4C4FEA86
:109C90001C4C48EA06069D421FFA89F94CEA060C5C
:109CA00003D003F580639D420AD14FF6F3730CEAAB
:109CB00003033B4329F4407943EA040C40EA0909D1
:109CC000A5F80490A5F818E06963A5F820C02B8BCF
:109CD00023F008031B041B0C43F008032B83BDE88F
:109CE000F0832D682B8C23F010031B041B0C2B849A
:109CF0002A8CB5F804E0B5F818C0524B2CF4E64CA9
:109D000022F020024FEA0C4C12044FEA1C4C120CB9
:109D100048EA06069D421FFA8EFE4CF4C04C42EA09
:109D2000061203D003F580639D420BD122F080021E
:109D300042EA071222F040022EF4406E42EA041278
:109D40004EEA800EA5F804E0A5F818C0A9632A849D
:109D50002B8B23F400631B041B0C43F40063BDE74F
:109D60002D682B8C23F480731B041B0C2B842A8CF2
:109D7000B5F804E0B5F81CC022F400732CF0730CA5
:109D8000304A4FEA0C4C1B044FEA1C4C1B0C48EAAF
:109D9000060695421FFA8EFE4CF0600C43EA06233D
:109DA00003D002F5806295420BD123F4006343EAAD
:109DB000072323F480632EF4405E43EA04234EEA33
:109DC000001EA5F804E0A5F81CC0E9632B84AB8B4A
:109DD00023F008031B041B0C43F00803AB837EE74E
:109DE0002C68238C23F480531B041B0C2384258CA8
:109DF000A288A38B25F400552D0448EA06062D0CF5
:109E000023F4E64345EA06350E4E1B041B0CB44210
:109E100092B243F4C04303D006F58066B44203D146
:109E200022F4804242EA8012A280A3832164258426
:109E3000A38B23F400631B041B0C43F40063A38374
:109E40004DE700BF0000014043685A79032A0FD84C
:109E5000DFE802F00205080B186834307047186814
:109E60003830704718683C30704718684030704789
:109E70000020704710B543681A685879084B0344AE
:109E8000012093F8C840138CA0409BB223EA000342
:109E90001384138CA140194389B2118410BD00BFF3
:109EA000D42C0608F0B5EFF31184102383F3128845
:109EB000C5684668AA68136823F001031360326816
:109EC0007779104E938936F817609BB223EA060320
:109ED00093812A696D681F2A4FF0200385BF203ABD
:109EE00093409340EB6098BFAB60E3B283F311887B
:109EF000C3689B6859601A6842F001021A60012326
:109F00000374F0BDD42C06080268137D012B04BF36
:109F10000223137592F82C100CBF4FF4007300232A
:109F2000012904BF022182F82C1092F8441008BFC6
:109F300043F48063012904BF022182F8441092F89F
:109F40005C1008BF43F4006301290DD1022182F89F
:109F50005C1043F480534268116800224A628A8987
:109F600092B213438B8101E0002BF4D17047034B75
:109F70000348D3F82412FEF70BBD00BFF0290020E0
:109F80000000014010B5064C0648D4F82412FEF734
:109F9000FFFCD4F844120448BDE81040FEF7F8BCBA
:109FA000F0290020000001400040014010B5064C9F
:109FB0000648D4F82412FEF7EBFCD4F84812044803
:109FC000BDE81040FEF7E4BCF0290020000001408D
:109FD0000044014010B5064C0648D4F82412FEF7A0
:109FE000D7FCD4F84C120448BDE81040FEF7D0BCB2
:109FF000F02900200000014000480140034B4FF0D1
:10A000008040D3F82812FEF7C3BC00BFF02900201F
:10A01000024B0348D3F82C12FEF7BABCF0290020FB
:10A0200000040040024B0348D3F83012FEF7B0BCE6
:10A03000F029002000080040024B0348D3F83412F6
:10A04000FEF7A6BCF0290020000C00400348D0F821
:10A05000703613B100F264601847704700000020AA
:10A060000348D0F8903613B100F284601847704767
:10A07000000000200348D0F8B03613B100F2A4600D
:10A0800018477047000000200348D0F8D03613B1BD
:10A0900000F2C46018477047000000200348D0F861
:10A0A000F03613B100F2E46018477047000000205A
:10A0B0000348D0F8103713B100F204701847704706
:10A0C000000000200348D0F8303713B100F22470AC
:10A0D00018477047000000200348D0F8503713B1EC
:10A0E00000F2447018477047000000200348D0F881
:10A0F000703713B100F264701847704700000020F9
:10A100000348D0F8903713B100F2847018477047B5
:10A11000000000200348D0F8B03713B100F2A4705B
:10A1200018477047000000200348D0F8D03713B11B
:10A1300000F2C47018477047000000200348D0F8B0
:10A14000F03713B100F2E4701847704700000020A8
:10A150000348D0F8103813B100F6040018477047D0
:10A16000000000200348D0F8303813B100F6240076
:10A1700018477047000000200348D0F8503813B14A
:10A1800000F644001847704700000020036823F0E1
:10A19000010303600023036043608360C3600361C5
:10A1A000212343612A4B984203D13D2243F8082CD6
:10A1B0007047284B984204D14FF4746243F8202C26
:10A1C0007047254B984204D14FF4741243F8382C51
:10A1D0007047224B984204D14FF0746243F8502CE0
:10A1E00070471F4B984203D11E4A43F8642C7047B6
:10A1F0001D4B984203D11D4A43F87C2C70471C4BE1
:10A20000984203D11B4A43F8942C70471A4B98424A
:10A2100004D14FF03D5243F8AC2C17E0174B984255
:10A22000C3D0174B9842C7D0164B9842CCD0164B90
:10A230009842D1D0154B9842D6D0154B9842DAD0DF
:10A24000144B9842DED0144B9842E2D0704700BFC6
:10A2500010600240286002404060024058600240A6
:10A26000706002403D00002088600240400F0020E6
:10A27000A060024000003D20B8600240106402402F
:10A280002864024040640240586402407064024006
:10A2900088640240A0640240B86402402DE9F041A5
:10A2A0000022012603250B6806FA02FC3CEA0303A0
:10A2B00031D10368540005FA04FE23EA0E0303605B
:10A2C0000B79D0F800806FEA0E0703FA04FE013B19
:10A2D0004EEA080E012BC0F800E011D883681F4039
:10A2E00087604B798768A3403B438360436823EAD8
:10A2F0000C0343608B79476893409BB23B434360B8
:10A30000C36805FA04F723EA0703C360CB79C7687B
:10A31000A3403B43C3600132102AC4D1BDE8F081A1
:10A32000204A936803F00C03042B10B520D0082BAF
:10A3300020D01D4B1B4C0360A3681C4AC3F30313BE
:10A34000134493F864180368CB404360A168C1F3D9
:10A350008221114491F8641823FA01F18160A16807
:10A36000C1F342310A4492F86428D340C36010BD5F
:10A370000F4BDFE75368516813F4800F01F03F0182
:10A38000536814BF0A4A084AB2FBF1F1054A526801
:10A39000C2F30142C3F3881301324B435200B3FBB3
:10A3A000F2F3C7E7003802400024F4000000002068
:10A3B00040787D01F0B5446B8668A38923F400538F
:10A3C0001B041B0CA3818279278A0546BFB21003A8
:10A3D00012F0040F4FEA022100F400506A7927F4CA
:10A3E000405740EA0700208214BF4FF4805C4FF0D2
:10A3F000000C12F0010F0CBF002304239207A28966
:10A4000022F4B05201F4806122F00C0248BF43F004
:10A41000080341EA0C0112040B43120C1A43A281F7
:10A42000A38A23F440731B041B0C85B0A3826846E7
:10A43000FFF776FF214B9C4203D003F580639C42DB
:10A440003AD1039BA2891921170401FB03F34FF0B2
:10A4500064014CBF7600B600B3FBF6F3B3FBF1F03A
:10A4600001FB10330201A08900044BBFDB001B017C
:10A47000323332334BBFB3FBF1F3B3FBF1F303F0F1
:10A48000070303F00F0313439BB223816A6BAB797D
:10A4900013F0080F938A0BBF23F008039BB21B0431
:10A4A00043F0080308BF1B0C938293899BB243F4CB
:10A4B0000053938105B0F0BD029BC3E7001001403B
:10A4C0002DE9F8431E46204B9DF820509DF824703E
:10A4D0009842894690462CD13B462A463146002078
:10A4E000FFF752FA04460020C4E90700C4E9090056
:10A4F000C4E90B986571A660A7712046FFF75AFF63
:10A50000EA0707D5636B4FF6DF721A80DA6842F00C
:10A510002002DA60626BAB0742BFD36843F080036E
:10A52000D36093899BB243F4005393812046BDE8E6
:10A53000F883064B984204D13B462A463146012017
:10A54000CEE70024F2E700BF0010014000440040C5
:10A5500081602FE741712DE72DE9F043654F07EB4F
:10A56000C00985B005464FEAC00899F8780805F09B
:10A5700013FD064699F8790805F00EFD044699F892
:10A580007A084CF037FA6B1CDBB21EB140F60C12A5
:10A59000F28033721CB140F60C22E2802372042256
:10A5A0003A21304605F0B8FC204604223A2105F055
:10A5B000B3FC07EB0803D3F874484F4B9C4263D1BC
:10A5C00003F5F2331A6A42F400121A621A6A22F48C
:10A5D00000121A62474497F87B38022B6ED0032B87
:10A5E0006ED0464E464A012B08BF1646A78827F074
:10A5F0003F0768463F04FFF793FE3F0C029A414B2A
:10A60000B2FBF3F398B20743A780218821F0010140
:10A610000904090C21803C498E4253D13B4BB2FBCB
:10A62000F3F2013092B2042A80B238BF04222084AF
:10A63000A28323889BB243F001032380238823F461
:10A64000816323F002031B041B0C43F4806323800B
:10A650004FF480432381238823F080031B041B0CC9
:10A66000238023889BB243F001032380284B03EB14
:10A670004513012283F86122002283F8605283F897
:10A68000622205B0BDE8F083224B9C4209D103F55C
:10A69000F0331A6A42F480021A621A6A22F48002C3
:10A6A00097E71D4B9C4295D103F5EE331A6A42F4AD
:10A6B00000021A621A6A22F400028AE7124E95E733
:10A6C000124E93E706EB4606B2FBF6F291B2C2F3E6
:10A6D0000B020AB941F0010141F400424FF49671B6
:10A6E0004B434FF47A71B3FBF1F301339BB22384F4
:10A6F0009EE700BF0000002000540040801A0600C2
:10A7000000350C0040420F00A0860100400D030000
:10A71000F029002000580040005C00402DE9F0477F
:10A72000B74D460105EB401908F010FD99F960227C
:10A73000B44B8846D10003EBC2020746D2F87448F6
:10A7400099F86222013A142A00F28380DFE812F0BD
:10A75000790089009F00B700C200CC00D500EA0054
:10A76000F5000A01150164017D01A301060217022B
:10A77000290232024302670215005F184FF0090AEE
:10A7800097F8780805F008FC044697F8790805F072
:10A7900003FCB5F8C03201339BB207462046A5F84A
:10A7A000C03205F085FB384605F082FB11212046BA
:10A7B00005F088FB1121384605F084FB4FF0650851
:10A7C00003E00520002108F001FD204605F067FBAD
:10A7D00010B9B8F10108F4D1204605F06EFB002154
:10A7E000052008F0F3FC204605F062FB052000215F
:10A7F00008F0ECFCBAF1010AE0D1204605F05DFB5F
:10A800000021052008F0E2FC384605F056FB002147
:10A81000052008F0DBFC204605F04AFB052000215E
:10A8200008F0D4FC384605F043FBAB1993F96002FD
:10A83000431C01D0FFF790FEAB19002283F862227F
:10A8400007E0238813F4007340F02381AA1982F8EB
:10A850006232AB1993F86232002B7FF465AFBDE82A
:10A86000F087238823F400631B041B0C23802388B8
:10A870009BB243F48063238023889BB243F48073AC
:10A880002380AB19C3E99A78032283F862225E49D8
:10A890002046FDF79AFCAB19002855D093F8722298
:10A8A0005AB993F87322FF2A04D193F870220AB19F
:10A8B0000A22C3E7AB190422C0E70F22BEE7AB1997
:10A8C00093F8712202F0FE022282C3E99A780522EF
:10A8D00083F862224D492046FDF777FC002800F0FE
:10A8E0007081AB190622A9E7AB1993F87322228273
:10A8F000C3E99A78072283F8622245492046FDF78A
:10A9000064FC002800F05D81AB19D3F874223AB9D9
:10A91000228892B242F400722280C3E99A780EE152
:10A9200008228BE723889BB243F480732380AB1902
:10A93000C3E99A78092283F8622233492046FDF759
:10A9400044FCAB190028B3D1D3E99A0142F210724A
:10A95000381A68EB0101904271F10002FFF479AFFF
:10A9600015226BE7AB1993F8712242F001022282A3
:10A97000C3E99A780B2283F8622226492046FDF724
:10A9800024FC002800F01D81AA19D2F87432012B92
:10A990001AD1238823F480631B041B0C2380EFF35C
:10A9A0001181102383F31288238B23889BB243F4F5
:10A9B00000732380CBB283F311880C2382F86232B8
:10A9C000AB19C3E99A7844E7022B15D123889BB2CF
:10A9D00043F400632380EFF31181102383F3128883
:10A9E000238B238823F480631B041B0C2380CBB2AE
:10A9F00083F311880D23E1E7238B0E23DEE700BFED
:10AA0000F029002000000020010003008200070060
:10AA1000840007000200030086492046FDF7E0FBA2
:10AA2000AB19002890D0D3F87822511CC3F87812C3
:10AA3000218A1170D3F87422013AC3F874220122DA
:10AA4000C3E99A7883F87C22F8E67B492046FDF733
:10AA5000C7FBF0B1EFF31182102383F31288238830
:10AA60009BB243F400732380AB19D2B2D3F87812AF
:10AA7000481CC3F87802208A087082F31188D3F842
:10AA80007822511CC3F87812218A11706FF00102EC
:10AA9000D3E7AB1958E768492046FDF7A1FBAB198E
:10AAA00000283FF451AFD3F87422032A03F51A713A
:10AAB00030D1228822F480621204120C2280EFF33B
:10AAC0001180102282F31288D3F8782202F1010C4F
:10AAD000C3F878C2B4F810C082F800C0228892B2DD
:10AAE00042F400722280C2B282F31188D3F8782235
:10AAF000501CC3F87802208A1070D3F87422023AEE
:10AB0000C3F874220C2283F86222C3F86872C1F879
:10AB100004809EE6022A14D8228822F4806212045D
:10AB2000120C2280228892B242F400722280228A81
:10AB3000C3F86872002283F87C22C1F804800122E5
:10AB40007CE6D3F87822501CC3F87802208A107073
:10AB5000D3F87422013AC3F87422D6E7238823F489
:10AB600080631B041B0C2380AB1993F8712202F045
:10AB7000FE022282C3E99A78102283F862222F49CA
:10AB80002046FDF722FBE0B1AB1993F87322FF2AB0
:10AB900004D193F870220AB113224FE6AB191122A7
:10ABA0004CE6AB1993F873222282C3E99A781222F9
:10ABB00083F8622222492046FDF707FB08B1AB1952
:10ABC000EAE720492046FDF70BFBAB1900283FF4CC
:10ABD000BBAE142232E6AB1903F51A70D3F8742217
:10ABE00082B1D3F87812013A11F801CBA4F810C061
:10ABF000C3F87422C3F86872C3F87812C0F80480EE
:10AC000012221BE6228892B242F4007222800122B4
:10AC1000C3F8687283F87C22C0F804800EE62388AB
:10AC20009BB243F4007323804FF6FF33A382AB192A
:10AC300073E600BF4000001004000010820007000F
:10AC4000840007000004001038B5114C04EB4014D8
:10AC500094F86152D5B1C4F87432049BC4F87832C8
:10AC6000002384F87C320223490084F8732284F89C
:10AC7000623201229DF8143084F8711284F8722235
:10AC800084F87032FFF74AFD94F87C52284638BDAC
:10AC9000F029002038B5114C04EB401494F86152AF
:10ACA000CDB1C4F87432049BC4F878320223490051
:10ACB00084F8732284F8623200229DF8143084F8FC
:10ACC000711284F8722284F87C2284F87032FFF7C3
:10ACD00025FD94F87C52284638BD00BFF02900209D
:10ACE000F0B587B0002300930193744B1A6842F4C7
:10ACF00080321A601A6802F400320192009A01321E
:10AD00000092019A1AB9009AB2F5A04FF2D11B68CD
:10AD100013F4003318BF01230193019B012B40F072
:10AD2000B180664B66491A6C42F080521A640A6818
:10AD300042F440420A609A689A609A689A609A68F7
:10AD400042F480529A605F4A5A601A6842F08072F8
:10AD50001A601A689201FCD55B4A40F202711160D8
:10AD60009A6822F003029A609A6842F002029A609E
:10AD7000524A936803F00C03082BFAD19368534CA2
:10AD800003F00C03042B7FD0082B7FD0504BC4F86A
:10AD900060364A4B4F4D9A684F48C2F30312224423
:10ADA000002692F88C18D4F86026CA40C4F86026B1
:10ADB0004A4AEA605A6F4A4AAA605A6B22F08002F5
:10ADC0005A635A6F42F080725A67196B454A0A43B8
:10ADD0001A635A6B5A631A6C42F0875242F4F612A5
:10ADE00042F41F6242F00F021A64596C3E4A0A4351
:10ADF0005A6402A948F2FF73CDE902364FF6FF7795
:10AE0000FFF74CFA00F580600297FFF747FA00F56C
:10AE100080600297FFF742FA00F58060FFF73EFA84
:10AE200000F58060FFF73AFA0846FFF779FA029BCF
:10AE30002E4AB3FBF2F32E4AC2F8C432D5F8FC30E6
:10AE40002C4A43F08073C5F8FC302B4BC3F8B02F6D
:10AE50005E601A6842F001021A60D4F860364FF45E
:10AE60007A72B3FBF2F3013BB3F1807F08D24FF06B
:10AE7000E0225361F02385F82330072396611361A4
:10AE800007B0F0BD00BFFDE71C4B80E75368516879
:10AE900013F4800F01F03F01536814BF174A0C4AA6
:10AEA000B2FBF1F1054A5268C2F30142C3F38813C1
:10AEB00001324B435200B3FBF2F368E70038024023
:10AEC0000070004019304004003C024000000020A7
:10AED0000024F40000ED00E0000002400003FA0549
:10AEE000000000081F9067003357070040420F0022
:10AEF000F029002055CEACC5001000E040787D015F
:10AF000082B000230193054B0193019B03EB80006A
:10AF10000190019B196002B0704700BF50280040AB
:10AF200082B000230193054B0193019B03EB80004A
:10AF30000190019B186802B0704700BF5028004084
:10AF400010B51C2005F028F81121044604F0BAFFC2
:10AF5000204604F0B2FFC82008F0D4F92046BDE82E
:10AF6000104004F0A5BF436D064A1A61C278012A59
:10AF700006D100F2CC5058611A684FF080221A6056
:10AF8000704700BF1800086038B5044600296FD12B
:10AF900090F81131022B2AD1D0F83821D0F82411A1
:10AFA0008A4232D9C378012B04BFD0F828315B180C
:10AFB000A2EB010208BFC0F828314FF48071D0F82D
:10AFC0002831C0F83821002592B2A0F81C11C0F831
:10AFD0002C31C0F83451C0F8302100F58E714EF09C
:10AFE000ADFA2B462A46294620464EF0BDFB94F882
:10AFF0001631012B07D1244A2369D2F8A4215A60C3
:10B00000002384F81631002038BDD0F83C31B3FB62
:10B01000F1F501FB1535A5B9994212D8D0F84021B8
:10B0200093420ED24FF48073C0E94A55C0E94C55A3
:10B03000A0F81C3100F58E714EF080FAC4F8405132
:10B04000CFE7D4F8E435DB682BB194F81221032A5A
:10B0500001D120469847052384F81131002320466A
:10B060001A4619464EF080FB2046FFF77CFFBEE7EC
:10B07000D0F8E4355B69002BC5D090F81221032A83
:10B08000C1D19847BFE700BFF02900207047704743
:10B09000704710B5114C94F8D232CBB14FF0E0228A
:10B0A000D2F8103D23F00603C2F8103DFEF72FFC46
:10B0B00094F8D23263B1D4F8D8329B68DB0707D555
:10B0C000D4F8D423136823F0030161F3070313605A
:10B0D000034B4FF480225A6110BD00BFF0290020BD
:10B0E000003C01402DE9F04F974CD4F8D4325A6916
:10B0F000D0078DB000F1A4825A699B691340019377
:10B1000000F09E82C3F307430293019B190311D5FC
:10B11000D4F8D832DFF83C929E69DB6904F5327BC3
:10B120001E40360C04F547774FF00008DA46002E33
:10B1300040F01681029B5A070FD5D4F8D832834EBF
:10B140009F69DB691F40BFB2A6F118054FF00009E7
:10B15000A6F53878002F40F04881019B9DF80470D7
:10B16000980741BF784BD3F8D43202225A61019B31
:10B17000002B1BDA744D95F8D2323BB1D5F8D423AD
:10B18000136823F0030161F307031360D5F8D82295
:10B190006F48536823F0010353606E4BD3F8B43803
:10B1A0009847D5F8D4324FF000425A61019B1905F7
:10B1B000C3F3072631D5644D00238DF81F3095F871
:10B1C000DA338DF81F30634B05F53270D3F8B038A1
:10B1D0009847D5F8D422D5F8D8324FF400619B684F
:10B1E000516195F8D222C2B1DA0716D595F8DD3350
:10B1F000012B12D19DF81F30032B0ED1D5F8D4337B
:10B200001A6842F001021A601A6842F003021A60DA
:10B21000514A136943F0060313613B070AD54A4DAF
:10B220004C4B05F53270D3F8A8389847D5F8D4328E
:10B2300008225A61FD0615D5434BD3F8D402826922
:10B2400022F010028261026AC2F34341022902F035
:10B250000F0500F08681062900F0AA81836943F07A
:10B2600010038361F00637D5374DD5F8D822D5F8CD
:10B27000D4025368002723F00103536039464EF08F
:10B28000D3FCB84695F8C9023B4605F53875FF2151
:10B290008342C0F09B81D4F8D8322D484FF0FF3262
:10B2A0009A614FF00112DA610B2262F3070762F331
:10B2B00007085F61C3F810801A686FF30A121A60FA
:10B2C000FFF751FED4F8D43221484FF480525A612E
:10B2D000204BD3F8AC389847B10640F193811A4C13
:10B2E000D4F8D832D4F8E00299680268C1F3410179
:10B2F000022906BF032161F30A026FF30A0202600A
:10B300005A6842F480725A6008A8FFF709F8D4F826
:10B31000D412D4F8D802CB68099A6FF38D23CB608E
:10B3200085680E48C5F34105284490F8CC000328F1
:10B3300040F05381002284F8CA224FF40072A4F82E
:10B34000CC22092258E100BFF0290020D02C002097
:10B35000B82C00200000002000ED00E0D42C0608EE
:10B36000F2073BD55FFA88F104EB8103D3F81C3375
:10B370009D68D4F8D8325B691D40EB0720D594F85E
:10B38000CB023B680125A8429D6007D11869DBF814
:10B390007C33C0F312001B1ACBF88C33D9F89C38DD
:10B3A0005046984794F8CB32012B09D1B8F1000FE1
:10B3B00006D194F8D933052B02D15046FFF7D3FDBF
:10B3C000A80742BF3B6802259D60290706D5D9F82A
:10B3D000A438504698473B6808229A6008F1010853
:10B3E000760804370BF1280BA1E6FB0779D5D8F8CE
:10B3F000D8325FFA89FA1969586B08EB8A0220FA89
:10B400000AFBD2F8E0224FEACB1B92685FFA8BFB73
:10B410004BEA010B0BEA020B1BF0010F1ED05A6B1B
:10B42000A8484FF0010B0BFA09F122EA01025A6316
:10B430003368C3F808B0A44B5146D3F8A0389847F6
:10B4400098F8CB325B4509D1B9F1000F06D198F8D5
:10B45000D933042B02D19B48FFF785FD1BF0080F61
:10B460001EBF33684FF0080BC3F808B01BF0100F75
:10B470001EBF33684FF0100BC3F808B01BF0400F2D
:10B480001EBF33684FF0400BC3F808B01BF0020F2B
:10B490001EBF33684FF0020BC3F808B01BF0800FDB
:10B4A0001FD0D5E94C329B1AD5F82421D6F800E0FC
:10B4B00098F8CBB2DEF81800934228BF1346033346
:10B4C000D8F8D82203929B080AF1320A049308EBB9
:10B4D0008A0A049B80B2984203D9D5E94C0398426A
:10B4E00005D809F101097F080436283532E6C01A6B
:10B4F000D5F82431984228BF1846C31C9B080493F2
:10B50000BBF1000F1BD0D5F82811D5F83421014428
:10B51000C5F82811D5F8301102448A42DEF8180027
:10B52000C5F83421D5D1039B95F81C115A6B012322
:10B5300003FA01F1039B22EA01025A63C9E782B2CE
:10B54000DAF8D012D5F828C10332931005930A46D1
:10B550005946059B8B42D6D05CF8213013600131EF
:10B56000F7E747F6F07111423FF478AE282101FB6E
:10B570000531C2F30A12D71CD3F898E3D1F848C6B4
:10B58000BF1000218F420DD1282101FB0533D3F8D4
:10B5900048161144C3F84816D3F854160A44C3F8A1
:10B5A00054265BE6DEF800804CF821800131E9E7A3
:10B5B000D3F898130F68C3F894780968C3F89818FB
:10B5C000282101FB0533C2F30A12E5E755F8042BE5
:10B5D0009160AA6B013391605AE6012084F8CA0297
:10B5E0004020A4F8CC02A0F56400384CA0F56240DD
:10B5F0001044A04227D80E2262F38D23CB604FF473
:10B6000000534B61029BDA060BD5314C2E4B04F5EF
:10B610003270D3F8B8389847D4F8D4324FF4801247
:10B620005A61029B9B060BD5294C274B04F53270BF
:10B63000D3F8BC389847D4F8D4324FF400125A618A
:10B640000DB0BDE8F08F234CA2F57400A0F51050AA
:10B65000A04201D80D22CFE71F48204C1044A04241
:10B6600001D20C22C8E71E4CA2F18C70A0F5434019
:10B67000A04201D80B22BFE71A481B4C1044A0423D
:10B6800001D20A22B8E71948194C1044A042FFF42D
:10B6900058AE184CA2F1B770A0F55850A04201D294
:10B6A0000822A9E71448154C1044A04201D20722F1
:10B6B000A2E713481044134A904234BF06220522E1
:10B6C0009AE700BFB82C0020000000203F420F0086
:10B6D000F0290020DFC810002013FBFE20D6130045
:10B6E000FF69180000D3CEFE40771B00C05BB3FE9D
:10B6F000C091210040AC2700C01D6AFE40E133002C
:10B70000803C36FEE09C4100034BD3F87C0908B135
:10B7100004F0C5BB01207047F818002008B5FFF7FA
:10B72000F3FF0A4A18B9002382F8503908BD92F88D
:10B7300044390133DBB2072B82F84439F3D8044B88
:10B74000D3F89431C2F840390123EDE7F81800200E
:10B75000F02900202DE9FF47CC4CD4F880090028BF
:10B7600067D0CB4DCB4E04F66C1794F85039013BA3
:10B77000082B46D8DFE813F009006000EC00450014
:10B78000C4014B01A0014500FF01FDF77DFD002133
:10B790000846FDF705FE8046FDF786FDB8F1010F6E
:10B7A0002AD14FF0000984F84599FDF76DFD40F26C
:10B7B000AB110820FDF7F4FD05280AD184F845896E
:10B7C000FDF772FD94F84539A3B1022384F850398E
:10B7D000CBE70128F4D10423D4F880094A4669460E
:10B7E0004EF02DFC9DF80330AB2B04BF022384F8F0
:10B7F0004539E5E784F85039D4F88009022104F08E
:10B80000A3F894F85039013B022B09D8A04BD4F887
:10B810004029D3F894319B1AC82B01D9FFF77EFF3A
:10B8200094F85009042800F0B681A0F108035842AA
:10B83000584104B0BDE8F087FDF726FD94F845397E
:10B84000022B0CBF4FF080484FF00008002137203A
:10B85000FDF7A6FD41462920FDF7A2FD8046FDF734
:10B8600023FDB8F1000FC7D194F84539022B39D127
:10B87000FDF70AFD41463A20FDF792FD042381467B
:10B880004246D4F8800969464EF0D9FBFDF70CFD1D
:10B89000B9F1000F02D0FFF741FF66E7009B1BBA2A
:10B8A000C3F3807384F84639FDF7EEFC00210920CC
:10B8B000FDF776FD98B910213846FDF725FD814644
:10B8C00068B901217F204AF0FDFE0128804606D19B
:10B8D000022148464AF0F6FE38B101282CD0FDF787
:10B8E000E3FC89E784F84689DEE704212C204AF04E
:10B8F000E9FE032182464E204AF0E4FE0C218146F7
:10B9000036204AF0DFFE09F10202411C01FA02F280
:10B9100008FA0AF3A2FB03385B0A43EAC853C4F8E7
:10B920005439FDF7C1FCFDF7AFFC00210A20FDF7FB
:10B9300037FD50B9032349E716213A204AF0C2FEE9
:10B9400001308002C4F85409EBE7FDF7ADFCA2E733
:10B9500010216846FDF7D8FC00287FF44DAF9DF814
:10B96000003084F85A39BDF801305BBAA4F8583970
:10B970009DF8033084F85B399DF8043084F85C3915
:10B980009DF8053084F85D399DF8063084F85E39FD
:10B990009DF8073084F85F399DF808301A0903F0E4
:10B9A0000F0384F86539DDF8093084F864291BBA7F
:10B9B000C4F860399DF80D309DF80E201B01DBB2F4
:10B9C00043EA121303F5FA6302F00F02A4F8663992
:10B9D00084F86829FDF768FC94F846394BB1D4F82F
:10B9E0008009022103F0B0FF0023C4F84C3904237E
:10B9F000ECE6FDF749FC4FF400711020FDF7D0FC98
:10BA00008046FDF751FCB8F1000FE8D043E794F809
:10BA10003419D4F82C29D4F88009802302EBC11200
:10BA200000214EF00CFB94F834390133DBB2042BC7
:10BA300084F834397FF4E5AED4F880090223324625
:10BA400000214EF0FCFA0123D4F880090022694657
:10BA50004EF0F5FA9DF8003003F01F03052B1BD1C3
:10BA6000072384F850390A4BD4F83859D3F8943165
:10BA7000C4F84039002D3FF4C4AED4F83C39D4F8B2
:10BA80002C29D4F830190120A847BAE6F81800206C
:10BA9000F0290020A42D0608FFF740FED4F83889CD
:10BAA000B8F1000F3FF461AED4F83C39D4F8301946
:10BAB00000220120C04758E64EF0E6FA002861D087
:10BAC000002384F84439D4F84C39012B0BD9013BBD
:10BAD000C4F84C39D4F848390133C4F8483908233C
:10BAE00084F850398DE607D1FDF730FC02287FF449
:10BAF00088AEFDF7D9FB84E6042384F85039F8E7D3
:10BB0000D4F82C094FF40071FDF7FEFB01288046A4
:10BB100018D002281ED000287FF473AEFDF7C4FBB6
:10BB2000D4F8385984F84489042384F85039002D16
:10BB30003FF467AED4F83C39D4F82C29D4F8301946
:10BB40004046A1E7D4F84039D5F8942164339342B4
:10BB5000BFF457AEFDF7A8FBFFF7E0FDD4F8388936
:10BB6000B8F1000F3FF401AE0022D4F83C39D4F80C
:10BB7000301910469EE74EF087FA18B1FDF794FB96
:10BB80000423ADE7D4F84039D5F89421FA33934231
:10BB9000FFF481AE35E601204BE62DE9F341294C57
:10BBA00005460E4690461F4694F85039042B0BD09C
:10BBB000082B07D1D4F84839AB4219D0FDF7C6FBA2
:10BBC0000228F1D001200EE0FDF75EFB94F8463923
:10BBD00063B969021820FDF7E3FB48B1FDF764FB88
:10BBE000FFF79CFD032002B0BDE8F0812946F1E794
:10BBF00094F85039D4F88009082B0CBFFC23FE239D
:10BC0000FF228DF804208DF8053001AA02230021BF
:10BC10004EF015FAD4F880098023324600214EF008
:10BC20000EFA012384F834390623C4F82C69C4F8C9
:10BC30003059C4F83889C4F83C7984F85039002068
:10BC4000D1E700BFF818002070B51C4C94F85039AB
:10BC5000042B05460E4610D1FDF716FB00213720B8
:10BC6000FDF79EFB31461720FDF79AFB90B1FDF7DB
:10BC70001BFBFFF753FD032002E0082B01D001203E
:10BC800070BDD4F84839834214D0FDF75FFB022819
:10BC9000F5D1E1E794F8463973B969021920FDF747
:10BCA0007FFB0028E3D1082384F85039C4F84C699D
:10BCB000C4F848590220E3E72946EFE7F8180020C6
:10BCC000044B054A03F6C801D3F8C838C2F828194E
:10BCD000184700BF00000020F8180020002108B518
:10BCE000084604F08BFCFFF7EBFFFCF7F1FB0028A4
:10BCF000FBD00121002004F081FC002008BD034B93
:10BD0000D3F8280908B1436918477047F81800208C
:10BD1000034BD3F8280908B183691847704700BF5F
:10BD2000F8180020034BD3F8280908B1C369184755
:10BD3000704700BFF818002038B50D461446FFF7CD
:10BD4000F1FF03682B604FF400732360002038BDBF
:10BD5000034B1B78032B0CBF80204FF4807070477F
:10BD6000C44F002008B50B4A68B1816811B10723A0
:10BD7000937008BDFFF7ECFFC2E90311C2E90100AF
:10BD800011750423F4E702F58051012381F8B431E1
:10BD90005370EEE7C44F002010B502784368022AC2
:10BDA0000B4A06D1D2E9800100EB410000EB5320A1
:10BDB00010BD0169D2F81802D2F8104218400239B9
:10BDC000D2F80C32400A04FB01001844F0E700BF2F
:10BDD000C45F0020074B1B78022B0BBF030AC0F384
:10BDE000D413C0B200F07F000CBF0B600B6010607A
:10BDF000704700BFC44F002090F91A305A1C0AD077
:10BE000003F58172124B03EB0213DA796FF3000230
:10BE1000DA71FF23837690F91B104B1C16D00C4A65
:10BE200001F5817102EB011302EB0112DB79D1798B
:10BE3000C3F34503012B86BF03F1FF3303F03F0338
:10BE4000002363F34601FF23D171C376704700BF1F
:10BE5000C44F002008B5FFF77BFF034BD3F8103227
:10BE60005843400208BD00BFC45F00200378022B86
:10BE700009D10D4BD3F820224368B3EB422F2CBFDE
:10BE8000012000207047006960B1084B1B78032B2C
:10BE90000EBF074B80B24FF6F773984294BF002055
:10BEA0000120704701207047C45F0020C44F00206C
:10BEB000F7FFFF0FF7B50D464168C1F308032B44A8
:10BEC000B3F5007F044603D22944616001202EE0CF
:10BED000FFF792FF0378022B01D16168F4E7164B5C
:10BEE000D3F81022B5EB422F4FEA422721DCD3F8DA
:10BEF000183246681E407342AB421ADCAB19BB4293
:10BF000010D30169007E01AA4DF03AFA012810D140
:10BF100023696361019B236163683B449B1BED1BA9
:10BF2000636035442046FFF7A1FF0028D5D003B059
:10BF3000F0BD0020FBE700BFC45F002070B50446E1
:10BF40000E461546FFF7B6FF20B10DB12046A847B3
:10BF5000012007E094F82800022320B9C4E90B5619
:10BF600084F8283070BD1846FCE7054A92F8B411F1
:10BF7000012309B982F8B431024A5370704700BFF7
:10BF8000C45F0020C44F002008B5074BC31A48BF48
:10BF900003F2FF13B3F5805F4FEA632003D3FFF78B
:10BFA000E4FF4FF0FF3008BDDC4F00202DE9F74FD4
:10BFB00012F0020B0191174600F0D180002840F0EA
:10BFC000CE80FFF7D2FF02266EE04FF0FF36DFF89B
:10BFD000C4C1DFF8ACA1B6463446B1460025DCF852
:10BFE00000109CF80E8088421BD1B8F1000F00F0C1
:10BFF0009880D2F89840624E0134C2F8984005F516
:10C0000081721201B4502C465D4D04F5817805EB28
:10C0100008129679042ED4D8DFE806F0315DB05DC1
:10C020006700B8F1000F26D0B8F1010F14D105F563
:10C0300081780AEB081898F8078018F0010F0BD1E7
:10C0400018F07E0F08D15FEAD81116D1DCF808800D
:10C05000C14501D9AE46C1460135082D0CF1100C81
:10C06000BDD1751C79D1611C5CD1BEF1FF3F00F0E0
:10C070008580744656E02E46EEE72C46ECE717F036
:10C08000010215D03F4BD3F82839002B76D03E491A
:10C090005F683E4A002301EB4421B84700286DD079
:10C0A00005EB08150223AB71304603B0BDE8F08FF5
:10C0B00005EB0810FE1090F807C0032B66F3C71CB1
:10C0C00080F807C02BD94FF6FF72934228BF134662
:10C0D00005EB08129380BBF1000F06D005EB0410AE
:10C0E00000F580501830FCF715FA7A0741BF05EBD0
:10C0F0000812D37943F00103D371FB0608D505EB91
:10C100000815EB79C3F34502013262F34603EB7184
:10C110001D4B019A03EB442313600126C4E7134629
:10C12000D6E72C46164E41F2180506EB041C4CF8D7
:10C130000500D2F898500135C2F8985041F21C021F
:10C140004CF8025004F581724FEA021C06EB021211
:10C1500046F80C500025556056E73446E2E70C4A95
:10C16000D2F80862002E3FF430AFD2E9834505FBD8
:10C170000644A042FFF429AFFFF7F7FE002693E73D
:10C18000C44F0020F8180020DC4F0020159500084F
:10C19000C45F0020DC5F00207FB50F4D01AA0C4674
:10C1A00002A9FFF717FE05F58053029ED3F800029F
:10C1B0000322002303A93044FFF7F8FE012808D129
:10C1C0002978039B019A02290CBF23F8124043F8F7
:10C1D000224004B070BD00BFC44F00202DE9F047DD
:10C1E0000D4686B0164604A903AA07462868FFF73D
:10C1F000F1FD364A0499D2F8003201EB0308039BA3
:10C20000013B9C19FFF7A4FD2B68E41A0444A2F536
:10C21000805AB4FBF0F408EB04092968B142A9EB99
:10C22000080303D3012006B0BDE8F087039A019309
:10C23000FFF78EFD9419641A8442019B28BF0446BF
:10C24000002A35D1A04294BF0A220B2205A94046FC
:10C25000FFF7ACFE0128E6D19AF800002A6805999C
:10C26000039B022802F101022DD1A34222D32B68A5
:10C27000039A9B1A2344012F2B6014D1B34212D18D
:10C2800002280BBF04F1004404F1804304F1FF34A1
:10C2900003F1FF330BBF4FF6FF734FF0FF3221F86E
:10C2A000143041F82320002308F101080393B4E778
:10C2B0000B22CBE721F8132001330132D5E741F8F7
:10C2C000232001330132A342F9D3D0E7C45F002019
:10C2D0002DE9F04F85B08346FFF73AFD0C46164630
:10C2E000814601AA206802A9FFF774FD0BF1FF3314
:10C2F000012B68D9019B63B94D46DFF8D080BBF1B3
:10C30000010F8CBF4FF0000B4FF0010BA8F5805AC6
:10C310001BE0FFF72AFE02202AE0D8F87821C2B1FC
:10C32000D8F89401884214D1D8F81032013A590251
:10C3300002EB4323B3FBF1F30344B3FBF5F205FB3C
:10C3400012320AB12B449B1A23602168B142E4D314
:10C3500029E0D8F80002029F0023092203A93844EB
:10C36000FFF724FE012806D00228D4D00028ECD103
:10C3700005B0BDE8F08F9AF800200399022A07D093
:10C38000032AC8D1019B51F8233023F0704302E007
:10C39000019B31F813302768B3FA83F35B095B45DF
:10C3A00004D1BE42E4D826600320E1E7019B2B4480
:10C3B0002F444B4527600193E0D3029B0133029346
:10C3C00000230193C1E7012597E700BFC45F002068
:10C3D00037B50446C0690D4698B10023032201A970
:10C3E000FFF7E4FD012806D1B4F92030002B0ADA6A
:10C3F000FFF7BBFD022003B030BDE5255554A26810
:10C400000BE00120F7E7019A012D4FEA431102EBFF
:10C410004313F4D0022DF0D0E268DA612278032AC7
:10C4200004D100221A775A779A77DA77626A5A83A8
:10C43000110C9982DFE770B5304D0446042694F85C
:10C440003430052B2CD8DFE803F003243139424B7C
:10C45000D5F8082204F1300102320120FFF738FF3D
:10C46000012807D00238C0B2012819D8052384F862
:10C470003430E4E7D5F81012E268236BC5F81432C3
:10C4800002EB4122E260E26A236102B963620123A6
:10C49000EDE7206B4FF0FF31FFF77EFE012801D062
:10C4A000002070BDE36A3BB10223E0E7D4E90B0151
:10C4B000FFF772FE0128F3D10323D8E700212046BD
:10C4C000FFF786FF0128EBD184F83460B7E794F8D2
:10C4D0002830082B02D1002384F828300120E0E71F
:10C4E00094F82830082B04BF002384F82830034B2D
:10C4F000012283F8B5210220D3E700BFC45F0020EA
:10C500002DE9F743DFF81891044694F83850032DCD
:10C5100000F28180DFE805F002106E772046FFF719
:10C520008AFF012802D184F83800EEE7022873D18F
:10C53000032384F83830E8E723786668022B18BFB5
:10C54000D9F81832204618BF1E40FFF725FCC6F365
:10C550004F260746361A0023022201A93846FFF764
:10C5600025FD06EB070801281FFA88F8054653D178
:10C5700001984FF40072002154F080FBE369FBB195
:10C580006368EBB9019B4FF020322E211A605A608C
:10C590001970C3F80720606A5883050C10201A62CE
:10C5A0005A6283F8201083F82110D872C3F827202C
:10C5B000E26B9D8222FA00F199865A8783F82B005C
:10C5C000D9F810124B1E984508D24FF4007120463E
:10C5D000FFF770FC4CF000FE0137BCE7C1EBC15126
:10C5E000490201F500712046FFF764FC4CF0F4FDB0
:10C5F00002239EE7002384F82830236C0BB12046E9
:10C600009847012508E0236C002084F8280003B136
:10C610009847022500E00025284603B0BDE8F083D6
:10C62000C45F0020F8B52E4E044600F13007A6F591
:10C63000B87594F83830032B50D8DFE803F0022E99
:10C64000363FD5F894212261FFF704FCE3681844D3
:10C65000E060FFF77DFB1044C5F89401FFF7FAFB9B
:10C66000D5F87831181AC5F87801FFF7F3FBD5F83B
:10C670007C31181AC5F87C012263FFF769FBE36A75
:10C680001044606323B96262012384F83830D0E734
:10C69000FFF75EFB101A2063F6E700213046FFF734
:10C6A00097FE01280ED10223EFE7626B3946012085
:10C6B000FFF794FD012805D10323E6E7002120467A
:10C6C000FFF786FE431EDBB2012B06D894F8283014
:10C6D000062B04BF002384F82830F8BD0220F1E7C0
:10C6E000346100202DE9F743454D0029044614BF6D
:10C6F0000226002605F5805794F83C30042B71D8AB
:10C70000DFE803F0290336406300DFF8FC802B7874
:10C71000206B032B53D1404594BF4FF000094FF0DD
:10C720000109B9F1000F48D101A949F0A7FF01287B
:10C7300063D1206B4946FFF72FFD01285DD1019B96
:10C740002363D7F81422013B934294BFC7F81432F5
:10C75000C7F81422DBE731462046FFF739FE0128EF
:10C76000034648D1626B02B1022384F83C30C3E730
:10C77000626B04F130010020FFF730FD01283AD14F
:10C780000323F2E7E26AD7F89431C7F894219B1AA1
:10C79000D7F810221B485343D7F8782102EB4322E5
:10C7A000C7F87821D7F87C21002102EB4323C7F892
:10C7B0007C31FFF70DFE01281DD10423D5E71FFAB8
:10C7C00080F94FF6F7739945A6E794F82830042BC3
:10C7D00004BF002384F82830A36B0BB12046984790
:10C7E00001200AE0022094F82830042B05D1002310
:10C7F00084F8283001E00228F5D003B0BDE8F083CA
:10C80000C44F002034610020F7FFFF0F70B503789C
:10C81000023B012B04461CD8237E990623D42046D4
:10C82000FFF7EAFA237E1A070AD51F4D95F89801FB
:10C83000C31F584258414CF0CFFC002385F8983173
:10C840000023237084F82830E36A5BB1BDE87040B0
:10C850001847037E13F0060FDED00121FFF7B8FD65
:10C860000128D9D070BDE269104900231801405851
:10C87000824211D10E4903F5817201EB0213DB797B
:10C88000C3F34503012B0BD8002301EB0212D1792E
:10C8900063F34601D171C2E70133082BE6D1BEE74D
:10C8A000013B03F03F03F0E7C45F0020DC5F0020A2
:10C8B000C44F002010B580B1027872B190F82820E2
:10C8C0006AB9D0E9012494422CBF846082600322BB
:10C8D00080F82820C162FFF799FF012010BD0020D9
:10C8E000FCE7B1F904300F2B2DE9F34104460D4666
:10C8F00016460BD14FF40071FFF7DCFA18B900208F
:10C9000002B0BDE8F0814FF6FF73AB802046FFF721
:10C9100043FA94F91B20531C074611D01E4B41F2D9
:10C92000180103EB021041588F4230D0FFF71DFB76
:10C930002046FFF79BFA0028E1D00023336024E073
:10C940002046FFF793FA80460028F1D1381E18BF21
:10C9500001204CF041FC4346112201A93846FFF763
:10C9600025FB0128E4D10198FFF70EFBE076019A40
:10C97000002ADDD0AB8801331BB2AB8002EB43133E
:10C9800033602046FFF708FA28600120B8E7183323
:10C9900003EB42230193EAE7C44F00202DE9F04165
:10C9A0004FF0FF31304A314C0D46002310780428F7
:10C9B0000ED103F5817004EB0010C079C70707D4CE
:10C9C0006E1C52F80A0C01D0884201D21D46014665
:10C9D0000133082B02F11002E8D16B1C42D0234C2A
:10C9E000234E05F5817704EB0713998849B1D6F8F2
:10C9F000283933B104EB051041F218029B688058C6
:10CA00009847D6F828399BB11A4ED3F80C801A4AA9
:10CA100004EB051C41F2180000235CF8000006EB53
:10CA20004521C04720B1022810D00020BDE8F08188
:10CA3000124BD3F89C2004EB0714013AC3F89C2056
:10CA40000322A271012283F8A020EEE706F6E87621
:10CA500004EB0714D6F89C30013BC6F89C30012348
:10CA6000A371E2E70120E1E7EA5F0020C44F002064
:10CA7000F8180020DC4F00206D950008C45F0020EE
:10CA800008B500214422104854F0F8F80F4B03F584
:10CA900080501B784FF6FF72A0F8D221022B4FF086
:10CAA000030218BF134680F8B831D0F81C32C0F822
:10CAB000DC31102380F8D02180F8D13100F5DC7012
:10CAC00049F0CAFF012008BD7C610020C44F00204E
:10CAD00070B5124D124BC5F8BC3840F2011200235C
:10CAE00085F81132A0F84421C0F85C3105F6BC028B
:10CAF0000D23C0E95422044685F8C818C0F85831FF
:10CB000000F5A2714CF097FD05F5F87220461F2341
:10CB1000BDE8704001214CF027BE00BFF029002085
:10CB20005553425310B5074B93F8FD1104464CF092
:10CB300039FE002804DA20460121BDE81040C7E78D
:10CB400010BD00BFF0290020F8B50B7813F0600588
:10CB500006460C4638D0202D74D14A78FE2A05D0DE
:10CB6000FF2A1CD04CF068FC02252BE04D88A5B9AB
:10CB7000CF88012F11D11A060FD5334CD4F81C32AF
:10CB80009B699847C0B284F8CC0830B13A4604F6A5
:10CB9000CC0130464CF024FD14E03046E2E74A88F0
:10CBA000002AFAD1CD88002DF7D11B06F5D4264AEC
:10CBB000012182F8115282F810121F2302F5F87237
:10CBC0004CF0D2FD2846F8BD4B780A2B24D00B2B15
:10CBD00025D0012BF6D194F904308988C068002B48
:10CBE00022DA01F07F014DF01FF82179164F30460F
:10CBF0004CF030FC02232179402230464CF053FCAB
:10CC000097F81032022B12D1812130464CF0E2FB12
:10CC1000002387F81032D5E70C490122BAE70A4B06
:10CC20004A8883F8CD28CDE74CF0E8FFDDE794F99A
:10CC30000420002AC6DA012BC4D001213046FFF7B8
:10CC400047FFBFE70025BDE7F0290020BD320020E7
:10CC500008B5084B93F81132022B07D0033B012B88
:10CC600002D80021FFF734FF002008BDFFF75AFF6C
:10CC7000FAE700BFF029002070B52F4C94F811623C
:10CC800005461EB1012E54D0002070BDD4F8F431F9
:10CC9000C4F8C038D4F8F831C4F8C438B0F8B433A4
:10CCA0001F2B0DD1D4F8F021244B9A4208D194F8CF
:10CCB000FD11012904D894F8FE31013B0F2B0AD94C
:10CCC0002021052049F028FC022384F81032284650
:10CCD000FCF7A8F9D8E74CF065FD0028F7DB94F8DD
:10CCE0001132013B022BCFD9B4F8CE18E9B1D4F8F8
:10CCF000F83184F8C868994228BF1946D4F8C43876
:10CD00005B1AC4F8C438042384F8113240F20113CA
:10CD1000A5F844310A4BC5E95616C5E9543305F563
:10CD2000A27128464CF087FCAEE72846FFF7D0FEFC
:10CD3000AAE7FFF7F7FEA7E7F02900205553424383
:10CD4000C43F0020F0B59C0827010E46154600EBB5
:10CD50000414A04206F1100605F1100508D103F0F5
:10CD6000030339443A4404EB83039C4223D1F0BDCE
:10CD700084469CED006A16ED045AD0ED016A56ED2A
:10CD8000037A90ED027A56ED025A26EE056A66EEB7
:10CD9000A76AD0ED037A05ED046A16ED016A45ED48
:10CDA000036A27EE257A67EE867A103005ED027A5F
:10CDB00045ED017ACDE7F4EC017AB1EC017A67EE4A
:10CDC000877AE2EC017AD0E74A09012301F01F01DA
:10CDD00003FA01F150F82230194214BF012000205B
:10CDE00070474A09012301F01F0103FA01F150F8CD
:10CDF00022300B4340F8223070474A09012301F0EA
:10CE00001F0103FA01F150F8223023EA010340F830
:10CE10002230704780EA0120082341F2210210F4F9
:10CE2000004F4FEA400018BF5040013B80B2F6D19E
:10CE3000704738B50C468D18AC4200D138BD14F897
:10CE4000011BFFF7E7FFF7E74840082310F0800FCA
:10CE50004FEA400018BF80F0D500013BC0B2F5D1C9
:10CE6000704710B50A440C46944200D110BD14F826
:10CE7000011BFFF7E9FFF7E738B50A4605680446E6
:10CE80000020AA4203D36B1C2360287038BD12F81F
:10CE9000011BFFF7D9FFF4E7DFED0A7AC0ED020AC4
:10CEA00020EE270AB7EE007AC7EE007A002303606F
:10CEB000C0ED017A70EEA77A80EEA77A80ED037A52
:10CEC000704700BFDB0FC94090ED017AD0ED007ACA
:10CED000C0ED020A30EE877AC0EE876A30EE677ADC
:10CEE000E6EE877AB0EE670AC0ED007A704701235C
:10CEF00003700023C3648364036503644364436570
:10CF0000836283657047DFED157A80ED010AF4EEE8
:10CF1000E70AF1EE10FAC0ED020A80ED031AC0ED47
:10CF2000051A18DDB4EEE70AF1EE10FA10DD81EE15
:10CF3000007AC0EE207AF0EE006A77EE877A86EE0D
:10CF4000A77A80ED047A80ED0F2AC0ED0E2ACEE795
:10CF500000230361F7E700238360FAE7BD378635D6
:10CF6000FDEEC07A17EE903A2033402B43D8DFED28
:10CF7000237A9FED237AB4EEE70AF1EE10FA28DC6B
:10CF8000DFED207A9FED1E7AB4EEE70AF1EE10FA9B
:10CF900022D4DFED1D7AB4EEE70AF1EE10FA1EDDC1
:10CFA00030EE670A37EEC00A60EE007ADFED176AEE
:10CFB0009FED177AA7EEA67ADFED166AE7EE876A8D
:10CFC0009FED157AA7EEA67A20EE276AA6EE070A4D
:10CFD000704730EE470ACEE730EE070AD4E79FED00
:10CFE0000F7AB4EEC70AF1EE10FA44BF30EE270A0A
:10CFF00037EE400AD8E79FED0A0A7047DB0F494039
:10D00000DB0FC940DB0F49C0DB0FC93F9A7C2E36CE
:10D01000FAAF4FB93587083CA4AA2ABEDB0FC9BFB7
:10D0200000000000DFED027A30EE270A98E700BF2B
:10D03000DB0FC93F38B51D46304BB3FBF2F39942C5
:10D04000B0EE405AF7EE005A4FF000044FD207EE10
:10D05000901A9FED2B7ADFED2B6AF8EE677A67EE78
:10D06000877A07EE102AB8EE477A27EE267AC5EEC1
:10D07000876A87EEA64AB0EE440AFFF771FFF0EE2A
:10D08000404AB0EE440AFFF7CDFF35EE055A012DB8
:10D0900084EE854AF0EE407A1CBF35EEE76AF6EE84
:10D0A000006AB8EE000A34EE257A12BF66EE266AF0
:10D0B00027EE806AF0EE656A86EE875AC6EE076A4A
:10D0C00067EE807A75EEC45AC0ED016AC7EE876AD2
:10D0D000C5EE877A80ED005A80ED025AC0ED036AF2
:10D0E000C0ED047A846144610462C46138BDC0ED5E
:10D0F000005A44608460C4600461F3E720A1070023
:10D10000DB0FC940BD3786359FED010A002391E74B
:10D11000F304353F2DE9F041FCEEC07A13460A4690
:10D1200017EE901AD0F814808769C669056AB0EEC8
:10D13000600A89B2FFF77EFFC0F814808761C6617C
:10D140000562BDE8F081F0EEE06AB0EEC07AF4EE80
:10D15000C76AF1EE10FAD4BFB0EE476AB0EE666A65
:10D16000B5EE406AF1EE10FAF0EE405A46D0F4EE19
:10D17000C76AF1EE10FA54BFB0EE475AB0EE665AE5
:10D18000C5EE067A9FED1F6A9FED1F5ADFED1F4A1D
:10D19000A7EE865A9FED1E6AA5EE276A9FED1D5ADF
:10D1A000A6EE275A9FED1C6AA5EE276A9FED1B5A33
:10D1B000E7EE854AB7EE005AA4EEA75AF1EE467A9A
:10D1C00087EE850AF4EEC76AF1EE10FA48BFDFED8C
:10D1D000147AF5EEC00A48BF37EEC00AF1EE10FA35
:10D1E00048BFDFED107AF5EEC05A48BF37EEC00AEF
:10D1F000F1EE10FA48BFB1EE400A7047DFED0A7A4F
:10D20000C0E700BF39094E3DE3B59EBE69A2163E98
:10D2100088FA16BE45FE7FBFA7DFA8B499FB243F5E
:10D22000DB0FC93FDB0F49400000000044F25063B0
:10D23000984203DDA0F50C40A0387047034B98429C
:10D24000BCBF00F50C40A030704700BFB0B9FFFF75
:10D2500048F69F43984203DDA0F50C40A038704784
:10D260000028BCBF00F50C40A030704791ED005A7B
:10D2700008B5B0EE450AFFF7D5FEF0EE405AB0EE25
:10D28000450AFFF76DFE91ED015AF0EE404AB0EE0F
:10D29000450AFFF7C7FEF0EE403AB0EE450AFFF749
:10D2A0005FFE91ED023AB0EE405AB0EE430AFFF74E
:10D2B000B9FEB0EE404AB0EE430AFFF751FE25EE4C
:10D2C000806A63EEC07A24EE847AC0ED017AF0EED3
:10D2D000467AE5EE077A25EE843A64EE806AC0ED80
:10D2E000037AF0EE437AE5EE667AA5EE067AE5EE8D
:10D2F000436A23EE844A64EEE34A65EEA35A80ED66
:10D30000004A80ED025AC0ED047AC0ED054AC0ED36
:10D31000066A80ED077AC0ED085A08BD034600F1A1
:10D32000400100221A615A619A61DA611033994210
:10D33000F8D11022002153F0A1BC91ED007AD0ED7C
:10D34000047AE7EE077AC0ED047AD1ED006A91ED38
:10D35000017AD0ED057AE6EE877AC0ED057AD1ED57
:10D36000006A91ED027AD0ED067AE6EE877AC0ED9A
:10D37000067A91ED007AD0ED077A77EE877AC0EDE4
:10D38000077AD1ED016A91ED007AD0ED087AE6EEE8
:10D39000877AC0ED087A91ED017AD0ED097AE7EE4F
:10D3A000077AC0ED097AD1ED016A91ED027AD0EDEC
:10D3B0000A7AE6EE877AC0ED0A7A91ED017AD0ED2D
:10D3C0000B7A77EE877AC0ED0B7A91ED007AD1ED8A
:10D3D000026AD0ED0C7AE6EE877AC0ED0C7AD1EDD8
:10D3E000026A91ED017AD0ED0D7AE6EE877AC0ED12
:10D3F0000D7A91ED027AD0ED0E7AE7EE077AC0ED64
:10D400000E7A91ED027AD0ED0F7A77EE877AC0ED41
:10D410000F7A91ED007AD0ED107A77EE877AC0ED31
:10D42000107A91ED017AD0ED117A77EE877AC0ED1E
:10D43000117A91ED027AD0ED127A77EE877AB7EE13
:10D44000007AC0ED127AD0ED137A77EE877AC0EDCC
:10D45000137AD1ED017AD1ED006A91ED027A67EE8F
:10D46000A77AE6EEA67AE7EE077A90ED007AA6EEC6
:10D47000A77A80ED007AD1ED016A90ED017AA6EEEF
:10D48000A77A80ED017AD1ED026A90ED027AA6EEDC
:10D49000A77A80ED027A90ED037A77EE277AC0EDD5
:10D4A000037A70472DE9F043034685B000F1100779
:10D4B000054600261C46AC4612E0F8EC016A1EED5B
:10D4C000047AD4ED007AE6EEC77AC4ED007A984586
:10D4D0000EF1100EF1D10434BC420CF1040C03D057
:10D4E000A7F11008E646F2E701361C46B646BEF143
:10D4F000040F1FD000EB0E1CA84604F1100909E030
:10D50000FCEC016A18ED047AD4ED047AE6EEC77AF1
:10D51000C4ED047ACC4508F11008F1D1D4ED046AC9
:10D5200093ED007AC6EE877A0EF1010EC4ED047A0F
:10D530006446DCE7042E03F1140305F1040507F14A
:10D540001007B7D1002300930193029303936C4615
:10D550000023142752F8045B44F8045B07FB030C18
:10D5600000EB03156E4665451FD10133042BF1D145
:10D5700004AD103100F1400255F8044D0E4600EBA9
:10D58000031741F8044D1446A742D1ED007A17D194
:10D5900052ED016A87EEA67A013BA2F1140281EDF9
:10D5A000007AE9D105B0BDE8F083B6EC017A54ED1C
:10D5B000017AF5EC016AE6EEC77A44ED017AD2E72A
:10D5C000F4EC016AB6EC017AE6EEC77AC1ED007AB6
